:1000000028C04CC022C74AC049C0D5C647C046C058
:1000100045C044C043C042C041C040C03FC00000D2
:10002000000036000000000037000000000038002B
:10003000020202020202020202020102040810206D
:1000400020041008010200000400000000007809EC
:100050003F0A11241FBECFE5D2E0DEBFCDBF10E0C6
:10006000A0E6B0E0EAECFEE102C005900D92A038F7
:10007000B107D9F721E0A0E8B0E001C01D92A2319C
:10008000B207E1F710E0C8E2D0E003C02197FE011B
:1000900007DDC732D107D1F750D70BCFB1CF90E0F2
:1000A000FC01EC5BFF4F3491FC01E65CFF4F2491B7
:1000B000FC01E05DFF4FE491EE23B9F0332329F01A
:1000C000323001F198F43130C9F0F0E0EE0FFF1F4B
:1000D000E65DFF4FA591B4918FB7F894EC91611153
:1000E00014C020952E232C938FBF0895333011F028
:1000F000343059F78CB58F7D8CBDE7CF8AB58F77BB
:100100008ABDE3CF8AB58F7DFBCF2E2BECCFCF936B
:10011000DF9390E0FC01E65CFF4F2491805D9F4FF0
:10012000FC0184918823D1F090E0880F991FFC0195
:10013000EC5DFF4FA591B491FC01E65DFF4FC591C9
:10014000D49161110EC09FB7F8948C91E22FE09585
:100150008E238C932881E223E8839FBFDF91CF9188
:1001600008958FB7F894EC91E22BEC938FBFF6CF04
:100170003FB7F8948091E5009091E600A091E700E8
:10018000B091E80022B708B601FE05C02F3F19F074
:100190000196A11DB11D3FBFBA2FA92F982F882707
:1001A000BC01CD01620F711D811D911D42E0660FE2
:1001B000771F881F991F4A95D1F708958F929F92B4
:1001C000AF92BF92CF92DF92EF92FF926B017C01D0
:1001D000CFDF4B015C01C114D104E104F104B1F0A3
:1001E000C7DF681979098A099B09683E7340810550
:1001F000910588F321E0C21AD108E108F10888EEE0
:10020000880E83E0981EA11CB11CE5CFFF90EF90F3
:10021000DF90CF90BF90AF909F908F9008950895FA
:10022000AF92BF92CF92DF92EF92FF920F931F9304
:10023000CF93DF936C017B018B01040F151FEB0142
:100240005E01AE18BF08C017D10759F06991D601F9
:10025000ED91FC910190F081E02DC6010995892B6B
:1002600079F7C501DF91CF911F910F91FF90EF902A
:10027000DF90CF90BF90AF9008952091C50030914E
:10028000C6002817390771F49091C3008091C4000B
:10029000981741F0E091C300F0E0ED57FF4F8081E7
:1002A00090E008958FEF9FEF08950895EF92FF92E9
:1002B0000F931F93CF93DF93DC015C96ED90FC903E
:1002C0005D97E114F10479F481E090E013969C933A
:1002D0008E93129790E080E0DF91CF911F910F9164
:1002E000FF90EF9008955196ED91FC9152975096A2
:1002F0008C915097982F90950FB75E962C915E97A2
:10030000122F127021FD6095F8942081112319F1AC
:10031000282B2083E7012197F1F728E0462F50E0B2
:10032000308160FF1AC0382B3083E7012197F1F745
:10033000BA0175956795215089F7112381F0808165
:10034000892380830FBF5C968D919C910197F1F773
:1003500081E090E0C1CF2923DCCF3923E5CF908124
:10036000892BEFCF2091C5003091C600281739079F
:1003700061F48091C4002091C30090E0805C9F4FA5
:10038000821B91098F739927089590E080E008956A
:100390002091C5003091C60028173907B9F4909113
:1003A000C3008091C400981789F0E091C300F0E089
:1003B000ED57FF4F80812091C30030E02F5F3F4F0A
:1003C0002F7333272093C30090E008958FEF9FEFA2
:1003D00008952FB7F8948091E9009091EA00A091D8
:1003E000EB00B091EC002FBF8093F5009093F600E6
:1003F000A093F700B093F8008DEE90E0C9DF97FF6F
:1004000026C02FB7F8948091E9009091EA00A0915E
:10041000EB00B091EC002FBF4091F5005091F60039
:100420006091F7007091F800841B950BA60BB70B39
:100430004091F1005091F2006091F3007091F4004E
:1004400084179507A607B707B8F28FEF9FEF0895B7
:1004500090E080E008950F931F93CF93DF9300D037
:1004600000D000D01F92CDB7DEB78091CF00909121
:10047000D000892B09F475C07BDE0091D500109166
:10048000D6002091D7003091D800601771078207FD
:10049000930740F46093D5007093D6008093D70003
:1004A0009093D8000091D5001091D6002091D700EC
:1004B0003091D800601B710B820B930B6C32714032
:1004C00081059105C8F2F8948091CA009091CB0003
:1004D0009A838983E091CF00F091D000DF011196DB
:1004E00080818F83E091D900F091DA009081809132
:1004F000DB00982B9E839081809589238D838D814D
:100500008C8388E08B835E816D814F813B812C8160
:1005100089819A81508347FD252F3A952083262F84
:1005200039F0441F00C000006083000000C0F2CF1B
:1005300038E04D9160830000019761F7F093DA0095
:10054000E093D9004F833B832C839A8389837894EB
:100550000FDE6093D5007093D6008093D700909300
:10056000D80027960FB6F894DEBF0FBECDBFDF913F
:10057000CF911F910F9108950F931F93CF93DF9306
:10058000EC0188819981009759F02A813B812617D7
:10059000370730F081E0DF91CF911F910F910895DF
:1005A0008B016F5F7F4FA7DB009759F0998388839A
:1005B0001B830A832C813D81232B61F7FC01108270
:1005C000E9CF80E0E8CFEF92FF920F931F93CF9394
:1005D000DF93CDB7DEB728970FB6F894DEBF0FBE16
:1005E000CDBF8DEE90E0BEDE181619060CF07FC070
:1005F0001A8219821C821B821E821D8270E060E0BA
:10060000CE010196B9DF29813A8181112AC02115D5
:10061000310511F0C901E6DA1A8219821E821D82A3
:100620001C821B82D6DE97FD23C08A30910501F122
:100630008F8318860D811E810F5F1F4FB801CE0179
:1006400001969ADF882371F329813A818D819E81F9
:10065000BE01695F7F4F820F931F24DC1E830D83D1
:10066000E1CF1E821D826FE770E0C9011BDCDACF8B
:1006700089819A81F6DB7C016EE770E0E8D710E0B3
:10068000009759F11230E9F058F4112391F011302C
:10069000A1F06EE770E090E080E0D9D71F5FF0CF67
:1006A0001430B9F090F01530A1F7B4D78093DD0085
:1006B000F0CFB0D78093E200ECCFACD78093DE00D0
:1006C000E8CFA8D78093DF00E4CFA4D78093E000E1
:1006D000E0CFA0D78093DC00DCCFC70183DA81E0D4
:1006E0008093E30089819A81009709F07BDA28964C
:1006F0000FB6F894DEBF0FBECDBFDF91CF911F9133
:100700000F91FF90EF900895CF92DF92EF92FF92BA
:100710000F931F93CF93E82FF0E08091C800909142
:10072000C900E817F90708F044C0022F10E030E0D4
:1007300020E0142B262BA90166277727C12ED22E65
:10074000E32EFF24CC2DB02FA091CE00AA2379F068
:10075000B0E0CD01BA016CD9492F8C2D90E0BD01DC
:1007600067D9C92F802F90E0BD0162D9B92F509170
:10077000D4002091CF003091D0008091D100581347
:1007800020C0CF0163E070E053D9820F931FE09146
:10079000D100E80FF92FF11D4083E091D200E80F5E
:1007A000F92FF11DC083E091D300E80FF92FF11D5F
:1007B000B083CF911F910F91FF90EF90DF90CF907A
:1007C00002CFCF01880F991F880F991F820F931FA7
:1007D000FC01E50FF11D1082DACF0F931F93CF9329
:1007E000DF93D82F162F042FC0E0202F412F6D2F1D
:1007F0008C2F8ADFCF5FCD30C1F7DF91CF911F9172
:100800000F910895CF93DF93D0E0C0E0D13041F055
:1008100040E060E08C2FD23031F44C2F60E002C019
:1008200040E06C2F80E0D9DF16DE8091E30081117B
:1008300025C061E070E080E090E0C0DCCF5FC639A9
:1008400029F7D13041F040E060E08C2FD23031F414
:100850004C2F60E002C040E06C2F80E0BEDFFBDD8B
:100860008091E30081110AC061E070E080E090E0D7
:10087000A5DCC15031F7DF5FD33039F6DF91CF917E
:1008800008959F92AF92BF92CF92DF92EF92FF9224
:100890000F931F93CF93DF93182FB62EA42E922E73
:1008A000CE2DD0E0C02ED12CF12CE12CD915B1F0F9
:1008B0004A2D6B2D812F91DFCEDD8091E3008111D8
:1008C0001DC0C701B6017ADC40E060E080E085DF52
:1008D000C2DDC701B60172DCDF5FE8CF6C2F70E0CC
:1008E00090E080E0DF91CF911F910F91FF90EF900A
:1008F000DF90CF90BF90AF909F9060CCDF91CF9171
:100900001F910F91FF90EF90DF90CF90BF90AF902D
:100910009F9008954F925F926F927F928F929F92D5
:10092000AF92BF92CF92DF92EF92FF920F931F93FD
:10093000CF93DF93CDB7DEB766970FB6F894DEBFDF
:100940000FBECDBF10E000E0C82ED12CF12CE12C61
:10095000C986DA86EB86FC86C62ED12CF12CE12CDA
:10096000CD86DE86EF86F88AC42ED12CF12CE12CC0
:10097000C98ADA8AEB8AFC8AC22ED12CF12CE12CAE
:10098000CD82DE82EF82F886B801012E000C880B42
:10099000990B94D620E030E040E85BE3CAD66B01C7
:1009A0007C0169857A858B859C8588D669837A8365
:1009B0008B839C836D857E858F8598897FD64B013F
:1009C0005C0169897A898B899C8978D62B013C01E5
:1009D000AC019B01C701B601ACD6F5D76E8BA50162
:1009E0009401C701B601A5D6EED76D8B29813A8156
:1009F0004B815C81C701B6019CD6E5D7862F4E8915
:100A00006D89EBDE28DD8091E30081114BC06D81A3
:100A10007E818F819885D2DB0D5F1F4F023091E080
:100A2000190709F0B1CF2FEF30E03A872987C98441
:100A3000DA84B601DD0C880B990B40D620E030E05B
:100A400040E85BE376D66B017C01AC019B01C301FE
:100A5000B2016FD6B8D7062FA7019601C501B40120
:100A600068D6B1D7162FA701960169817A818B814B
:100A70009C815FD6A8D7862F402F612FAEDEEBDC9E
:100A80008091E30081110EC06D817E818F819885F8
:100A900095DB29853A85245031093A8729872F3FEC
:100AA0003F4F29F666960FB6F894DEBF0FBECDBF56
:100AB000DF91CF911F910F91FF90EF90DF90CF903A
:100AC000BF90AF909F908F907F906F905F904F906E
:100AD00008953F924F925F926F927F928F929F9272
:100AE000AF92BF92CF92DF92EF92FF920F931F933C
:100AF000CF93DF93182FF62E342EC22E40E060E005
:100B000080E06BDED0E0C0E0D12C8DE0882E912C0F
:100B1000A12CB12C402E512C712C612CCC15DD0553
:100B2000CCF421D5A5019401D9D6862F232D4F2DA4
:100B3000612FEADD90DC8091E300811121C0C301C7
:100B4000B2013CDBEE2021F040E060E080E045DED9
:100B50002196E4CF602F70E090E080E0DF91CF91AC
:100B60001F910F91FF90EF90DF90CF90BF90AF90CB
:100B70009F908F907F906F905F904F903F901ECB93
:100B8000DF91CF911F910F91FF90EF90DF90CF9069
:100B9000BF90AF909F908F907F906F905F904F909D
:100BA0003F900895FF920F931F93CF93DF93182FD9
:100BB000062FF42EC22FD7D42DE030E040E050E0D5
:100BC0008DD6D62F2F2D402F612F8D2F9DDD43DC0D
:100BD0008091E30081110FC06C2F70E090E080E005
:100BE000EDDA20E040E060E08D2FDF91CF911F91A2
:100BF0000F91FF9089CDDF91CF911F910F91FF90C1
:100C000008958F929F92AF92BF92EF92FF921F939F
:100C1000CF93DF9310E02DE0E22EF12C4C01990FE1
:100C2000AA08BB08D0E0C0E03C2F9C2F80E0B701B1
:100C300010D7912F960F953518F5892F63E0EFD6D1
:100C400080938000892F6DEFEAD6815080938100D8
:100C5000109282002091820040918100609180007A
:100C6000832F52DD2196CD30D105F1F6F4DB809152
:100C7000E300811123C0C501B401A0DA1F5FD2CF08
:100C80009A3A78F49555892F6DEFC9D681508093A3
:100C9000800010928100892F63E0C1D6809382008A
:100CA000D9CF9A5A10928000892F63E0B8D68093EA
:100CB0008100892F6DEFB3D68150F0CFDF91CF91B6
:100CC0001F91FF90EF90BF90AF909F908F900895ED
:100CD000CF92DF92EF92FF920F931F93CF93DF9308
:100CE000D82F162F042FC0E0C22ED12CF12CE12CCE
:100CF000202F412F6D2F8C2F07DDADDB8091E3007E
:100D0000811106C0C701B60159DACF5FCC3081F737
:100D1000DF91CF911F910F91FF90EF90DF90CF90D7
:100D200008950F931F93CF93DF93D82F162F042F7F
:100D3000C22F242F462F682F8CE0E6DC8CDB2C2F73
:100D4000402F612F8D2FC4DF2C2F40E060E080E02A
:100D5000DF91CF911F910F91BBCFEF92FF920F9335
:100D60001F93CF93DF93182FF62EE42EC22F35DD7D
:100D7000FAD32DE030E040E050E0B0D5D62F2FEF91
:100D80004FEF6FEF8D2FC0DC66DB6C2F70E090E0D3
:100D900080E014DA2E2D4F2D612F8D2FB5DC5BDB1B
:100DA000602F70E090E080E0DF91CF911F910F9174
:100DB000FF90EF9003CA1F920F920FB60F9211246B
:100DC0002F933F938F939F93AF93BF938091E900AD
:100DD0009091EA00A091EB00B091EC003091E4001A
:100DE00023E0230F2D3758F50196A11DB11D209347
:100DF000E4008093E9009093EA00A093EB00B093A5
:100E0000EC008091E5009091E600A091E700B091A0
:100E1000E8000196A11DB11D8093E5009093E600C6
:100E2000A093E700B093E800BF91AF919F918F919D
:100E30003F912F910F900FBE0F901F90189526E8AD
:100E4000230F0296A11DB11DD2CF1F920F920FB694
:100E50000F9211242F933F934F935F936F937F9340
:100E60008F939F93AF93BF93EF93FF93E091C50050
:100E7000F091C600309749F0A685B7858585968D97
:100E800091FF14C09C918923A1F4FF91EF91BF9130
:100E9000AF919F918F917F916F915F914F913F9112
:100EA0002F910F900FBE0F901F9018959C91892342
:100EB00061F7A389B4899C918589809589238C9356
:100EC000868997890197F1F7608D718DA685B78521
:100ED000558538E020E0CB010197F1F7822F90E0B3
:100EE00095958795282F4C91452309F0206831501E
:100EF00091F7868D81FD20958091C40090E0019648
:100F00008F7399273091C300381799F0A091C400CE
:100F1000B0E0AD57BF4F2C938093C400828D938D6A
:100F20000197F1F7A389B4898C919589892B8C93CA
:100F3000ACCF868D8160868FF1CF78948AB5826040
:100F40008ABD8AB581608ABD83B7826083BF83B75B
:100F5000816083BF89B7826089BF80B7826080BFAC
:100F600080B7816080BF329A319A309A379A8CB5B7
:100F700080648CBD8091CC009091CD0097FD06C01F
:100F800061E0C5D860E08091CC0089D881E0809391
:100F9000C7001092080110920701109206011092EA
:100FA000050110920401109203018FE796E09093DF
:100FB0000A01809309013091F900353020F54EE2A5
:100FC00053E050930401409303014DE756E05093E2
:100FD00006014093050145ED54E05093080140930C
:100FE00007012BB720622BBF45E350E0509301016E
:100FF0004093000121E001C0220F3A95EAF72093C7
:1010000002010197F1F78091070190910801892B66
:1010100049F1E091C500F091C60020E0ED3EF207F5
:1010200009F1309739F0A389B4899C91858980951D
:1010300089238C9380910B018E7F80930B011092FA
:10104000C4001092C3008DEE90E09093C600809390
:10105000C500E0910001F0910101808190910201B1
:10106000892B808317B8369A3699FECF64B175B153
:10107000072E000C880B990B6115710581059105F0
:1010800009F0BFD2BFDB40E060E080E0A6DBE3D93F
:10109000CFE0D1E081E9282E86E0382E98E6492E6F
:1010A00096E0592E21E0622E26E0722E32ED832E3C
:1010B00035E0932E4AE8C42E44E0D42E59E6A52EFE
:1010C00055E0B52E1092E3007EDA8091E200982F71
:1010D0009F709093E10081112CC0D0936100C09368
:1010E000600090EF980F24E833E09F3020F08F31BC
:1010F00031F42DEE33E0309361002093600090EEE8
:10110000980F903130F421E434E030936100209363
:10111000600090E9980F9031C8F4B0926100A092FD
:101120006000813D09F0C4C070926100609260006F
:1011300014C022E034E0813021F08F3091F62BE2B0
:1011400032E03093610020936000CBCF803C09F007
:10115000A7C0D0926100C09260008091E2008051EF
:101160008E3048F42091E0004091DF006091DE0075
:101170008091E100C9DA8091E2008F3171F44091F1
:10118000E00050E06091DF0070E08091DE00E091CF
:101190006000F091610090E009958091E20090EE8E
:1011A000980F903118F080578031B8F4E090DD004E
:1011B000F12C0091DC0010E02091E10030E0409142
:1011C000E00050E06091DF0070E08091DE00E0918F
:1011D0006000F091610090E009958091E200843D0B
:1011E00029F08F3F19F08F7E803C89F42091DC003C
:1011F00030E04091E00050E06091DF0070E08091CD
:10120000DE00E0916000F091610090E0099580912E
:10121000E200843D71F42091DC0030E0E091600058
:10122000F091610050E040E070E060E090E080E02C
:1012300009958091E200813D41F48091DC00E091CC
:101240006000F091610090E009958091E200803E9D
:10125000A1F40091DD0010E02091DC0030E040912D
:10126000E00050E06091DF0070E08091DE00E091EE
:101270006000F091610090E009958091E200803279
:1012800040F4813031F0D0936100C093600010923F
:10129000E20080E090E0892B09F414CFB1D6FACEB9
:1012A000803D09F03ECF909261008092600055CF62
:1012B000843D29F450926100409260004ECF8F3FF0
:1012C00029F4309261002092600047CF803E39F4CB
:1012D0008DEA96E090936100809360003ECF80316C
:1012E00008F03BCFE0916000F0916100099535CFA7
:1012F0001092F0001092EF0088EE93E0A0E0B0E0D2
:101300008093F1009093F200A093F300B093F40067
:1013100080E790E09093EE008093ED00109204013E
:10132000109203011092060110920501109208011B
:101330001092070110920A011092090160910B01AD
:101340006E7F6D7F60930B016695617081E0682709
:1013500084E0A5D661E084E0DAD6EEE3F0E0E49143
:10136000E093FD00E4E3F0E0E491F0E0EE0FFF1F16
:10137000E65DFF4F859194919093FF008093FE006E
:1013800060E081E0C4D680910B0181FD03C061E083
:1013900081E085D681E08093F900EBE3F0E0E49111
:1013A000E093FA00E1E3F0E0E491F0E0EE0FFF1FDC
:1013B000E25EFF4F259134913093FC002093FB00B7
:1013C0001092C7001092CE001092D5001092D60055
:1013D0001092D7001092D8008093D4008093D1004F
:1013E0001092D20082E08093D30087E290E0909345
:1013F000CB008093CA005AD39093D0008093CF0043
:101400000097A1F127E2FC0111922A95E9F78DE0FE
:1014100090E09093C9008093C80083E090E090939F
:10142000CD008093CC008091C700882331F061E02B
:1014300083E06DD660E083E032D6E3E3F0E0E49150
:10144000F0E0EE0FFF1FE65DFF4F859194919093C2
:10145000DA008093D900EDE3F0E0E491E093DB0063
:101460008091E2008F708093E10008951092CB008C
:101470001092CA001092C9001092C800CECF80917D
:10148000CF009091D000AED38091CC009091CD0050
:1014900097FD02C060E03BD680E790E09093EE00BD
:1014A0008093ED008091C5009091C6008D5E9040C4
:1014B00071F4E0910001F0910101908180910201AD
:1014C0008095892380831092C6001092C5000895EC
:1014D0008F929F92AF92BF92CF92DF92EF92FF9244
:1014E000CF93DF93EC01688179818A819B816115BB
:1014F00071058105910521F464E279ED8BE597E0B2
:101500002DE133EF41E050E0E9D149015A0127EAEA
:1015100031E440E050E0C9D16B017C012CEE34EFA6
:101520004FEF5FEFC501B401C0D1C60ED71EE81E54
:10153000F91EF7FE06C081E0C81AD108E10880E86C
:10154000F80AC882D982EA82FB82C701B6019F7776
:10155000DF91CF91FF90EF90DF90CF90BF90AF9051
:101560009F908F9008958F929F92AF92BF92CF924B
:10157000DF92EF92FF926091620070916300809120
:10158000640090916500611571058105910521F454
:1015900064E279ED8BE597E02DE133EF41E050E037
:1015A0009DD149015A0127EA31E440E050E07DD164
:1015B0006B017C012CEE34EF4FEF5FEFC501B401FE
:1015C00074D1C60ED71EE81EF91EF7FE06C081E0D4
:1015D000C81AD108E10880E8F80AC0926200D092E7
:1015E0006300E0926400F0926500C701B6019F7746
:1015F000FF90EF90DF90CF90BF90AF909F908F9033
:1016000008956093620070936300809364009093E8
:1016100065000895FC0188279927E89421912032DC
:10162000E9F3293010F02E30C8F32B3239F02D3287
:1016300031F4689403C036D0820F911D219120535C
:101640002A30C8F31EF4909581959F4F08954CE081
:1016500051E001D00895FA01A191B081009719F4E9
:101660001097E1F0CD01DC01CD010D90002011F4C7
:10167000C00113C0FB012191222319F02015D9F7D5
:10168000F3CFFB012191201519F41E92119606C08B
:101690002223C1F70D900020A1F7D001FA01A193F8
:1016A000B0830895BC01880F991F880F991F860F7A
:1016B000971F880F991F0895E89409C097FB3EF47F
:1016C00090958095709561957F4F8F4F9F4F99238F
:1016D000A9F0F92F96E9BB279395F695879577950D
:1016E0006795B795F111F8CFFAF4BB0F11F460FFCD
:1016F0001BC06F5F7F4F8F4F9F4F16C0882311F025
:1017000096E911C0772321F09EE8872F762F05C038
:10171000662371F096E8862F70E060E02AF09A95D3
:10172000660F771F881FDAF7880F9695879597F9C8
:1017300008950AD080C071D028F076D018F0952393
:1017400009F062C067C0ABC087D0A8F39923D9F372
:101750005523C9F3950F50E0551FAA27EE27FF2701
:10176000BB2700240894679520F4E20FF31FB41FF1
:101770000A1E220F331F441FAA1F6695A9F77795EB
:1017800030F4F30FB41F0A1E121E08F46395330FD2
:10179000441FAA1F221F769599F7879520F4B40F4E
:1017A0000A1E121E631F440FAA1F221F331F869595
:1017B000A9F7862F712D602D11249F5750408AF074
:1017C000E1F088234AF0EE0FFF1FBB1F661F771F53
:1017D000881F91505040A9F79E3F510570F014C0EA
:1017E0005EC05F3FECF3983EDCF386957795679596
:1017F000B795F795E7959F5FC1F7FE2B880F911D71
:101800009695879597F9089597F99F6780E870E016
:1018100060E008959FEF80EC089500240A94161666
:10182000170618060906089500240A9412161306CE
:10183000140605060895092E0394000C11F488235C
:1018400052F0BB0F40F4BF2B11F460FF04C06F5F78
:101850007F4F8F4F9F4F089557FD9058440F551F4E
:1018600059F05F3F71F04795880F97FB991F61F022
:101870009F3F79F087950895121613061406551F99
:10188000F2CF4695F1DF08C0161617061806991F05
:10189000F1CF86957105610508940895E894BB27FA
:1018A00066277727CB0197F90895EE27FF27AA2708
:1018B000BB2708C0A20FB31FE41FF51F220F331F61
:1018C000441F551F969587957795679598F37040B7
:1018D000A9F7009799F7BD01CF010895052E97FB51
:1018E00016F400940FD057FD05D04BD007FC02D062
:1018F00046F408C050954095309521953F4F4F4F85
:101900005F4F089590958095709561957F4F8F4FAB
:101910009F4F08952F923F924F925F926F927F92C6
:101920008F929F92AF92BF92CF92DF92EF92FF92EF
:101930000F931F93CF93DF93CDB7DEB7CA1BDB0B9B
:101940000FB6F894DEBF0FBECDBF09942A88398840
:1019500048885F846E847D848C849B84AA84B98447
:10196000C884DF80EE80FD800C811B81AA81B98153
:10197000CE0FD11D0FB6F894DEBF0FBECDBFED0167
:101980000895A1E21A2EAA1BBB1BFD010DC0AA1FC0
:10199000BB1FEE1FFF1FA217B307E407F50720F0D8
:1019A000A21BB30BE40BF50B661F771F881F991F53
:1019B0001A9469F760957095809590959B01AC019C
:1019C000BD01CF01089550DF88F09F5790F0B92FE7
:1019D0009927B751A0F0D1F0660F771F881F991F84
:1019E0001AF0BA95C9F712C0B13081F057DFB1E0F3
:1019F000089554CF672F782F8827B85F39F0B93F03
:101A0000CCF3869577956795B395D9F73EF4909585
:101A10008095709561957F4F8F4F9F4F089500245B
:101A200080FD060E660F11F08695D1F7802D089582
:101A30000024552704C0080E591F880F991F0097CE
:101A400029F076956795B8F37105B9F7802D952F34
:101A5000089597FB072E16F4009406D077FD08D062
:101A60000BD007FC05D03EF4909581959F4F0895CB
:101A7000709561957F4F0895AA1BBB1B51E107C06C
:101A8000AA1FBB1FA617B70710F0A61BB70B881F0E
:101A9000991F5A95A9F780959095BC01CD0108959D
:101AA000EE0FFF1F0590F491E02D09940F931F9303
:101AB000CF93DF938230910510F482E090E0E091C3
:101AC0001001F091110130E020E0B0E0A0E030978B
:101AD00099F42115310509F44AC0281B390B24302B
:101AE0003105D8F58A819B816115710589F1FB016A
:101AF00093838283FE0111C0408151810281138151
:101B000048175907E0F04817590799F4109761F002
:101B100012960C93129713961C933296CF01DF9175
:101B2000CF911F910F91089500931001109311010F
:101B3000F4CF2115310551F04217530738F0A901B0
:101B4000DB019A01BD01DF01F801C1CFEF01F9CF3F
:101B50009093110180931001CDCFFE01E20FF31F8E
:101B6000819391932250310939832883D7CF2091D3
:101B70000E0130910F01232B41F420916800309128
:101B8000690030930F0120930E012091660030917F
:101B900067002115310541F42DB73EB740916A0029
:101BA00050916B00241B350BE0910E01F0910F0159
:101BB000E217F307A0F42E1B3F0B2817390778F024
:101BC000AC014E5F5F4F2417350748F04E0F5F1F83
:101BD00050930F0140930E01819391939FCFF0E0BA
:101BE000E0E09CCFCF93DF930097E9F0FC013297C0
:101BF00013821282A0911001B0911101ED0130E029
:101C000020E01097A1F420813181820F931F209151
:101C10000E0130910F012817390709F061C0F093C8
:101C20000F01E0930E01DF91CF910895EA01CE17E5
:101C3000DF07E8F54A815B819E0141155105B1F747
:101C4000E901FB83EA8349915991C40FD51FEC1731
:101C5000FD0761F4808191810296840F951FE9014F
:101C600099838883828193819B838A83F0E0E0E07B
:101C700012968D919C9113970097B9F52D913C91F7
:101C80001197CD010296820F931F20910E01309182
:101C90000F012817390739F6309751F510921101C5
:101CA00010921001B0930F01A0930E01BCCFD3830B
:101CB000C28340815181840F951FC817D90761F4F1
:101CC0004E5F5F4F88819981480F591F5183408330
:101CD0008A819B81938382832115310509F0B0CFDE
:101CE000F0931101E09310019ECFFD01DC01C0CF04
:101CF00013821282D7CFB0E0A0E0E0E8FEE00CCE85
:101D00008C01009741F4CB01D1DE8C01C801CDB725
:101D1000DEB7E0E11DCEFC01E60FF71F9C0122506B
:101D20003109E217F30708F499C0D901CD91DC918C
:101D30001197C617D70790F0C530D10538F3CE01FB
:101D400004978617970710F3C61BD70B2297C193EA
:101D5000D1936D937C93CF0145DFD8CF5B01AC1A53
:101D6000BD0A4C018C0E9D1EA0911001B091110175
:101D7000512C412CF12CE12C109731F580910E0162
:101D800090910F018815990509F05CC04616570619
:101D900008F058C08091660090916700009741F468
:101DA0008DB79EB740916A0050916B00841B950BD4
:101DB000E817F90708F052C0F0930F01E0930E0105
:101DC000F90171836083A2CF8D919C911197129636
:101DD0006C90129713967C901397A815B90559F536
:101DE0006C0142E0C40ED11CCA14DB0420F1AC012A
:101DF0004A195B09DA011296159780F062827382A4
:101E000051834083D9016D937C93E114F10471F007
:101E1000D7011396FC93EE93129778CF22968C0FEE
:101E20009D1FF90191838083F301EFCFF09311019E
:101E3000E09310016BCF4816590608F42C017D0180
:101E4000D3019ACFCB0132DE7C01009739F0AE018D
:101E5000B8011FD0C801C6DE870158CF10E000E0EE
:101E600055CF0F931F93CF93DF938C01FC0101900B
:101E70000020E9F7CF01801B910B18DEEC010097E1
:101E800011F0B8010FD0CE01DF91CF911F910F91CA
:101E90000895FB01DC0102C001900D9241505040B9
:101EA000D8F70895FB01DC0101900D920020E1F7C5
:101EB000089510E0C8E2D0E003C0FE01F1DD2196F4
:0A1EC000C932D107D1F7F894FFCF23
:101ECA000F01010000000000120180000000000064
:101EDA005601100128025501B201C8013D012C002A
:00000001FF
