:100000000C94CE040C94FF040C94FF040C94FF0495
:100010000C94FF040C94FF040C94FF040C94FF0454
:100020000C94FF040C94FF040C94FF040C94FF0444
:100030000C94FF040C94FF040C94FF040C94FF0434
:100040000C94FF040C945F280C94FF040C94FF04A0
:100050000C94FF040C94FF040C94FF040C942B27C5
:100060000C94FF040C949F270C9475270C94FF04A8
:100070000C94FF040C94FF040C94FF040C94FF04F4
:100080000C9431280C94FF040C94FF040C94FF048E
:100090000C94FF040C94FF040C94FF040C948D2822
:1000A0000C94FF040C94FF040C9403280C94FF049C
:1000B0000C94FF040C94FF040C94FF040C94D527BB
:1000C0000C94FF040C94FF040C94FF040C94FF04A4
:1000D0000C94FF040C94FF040C94FF040C94FF0494
:1000E0000C94FF040C945B1A0C94B1190C9429081D
:1000F0000C9406080C9452140C94A60E0C94CF0584
:100100000C94FB1B0C94D2050C944F0F0C94650EB1
:100110000C94D90D0C942C220C94FE050C94C30560
:100120000C944B200C94F8050C94E6050C94762264
:100130000C94F9210C947D0B0C94B4190C94A62208
:100140000C9423220C9482220C94E2050C94E60E6B
:100150000C94CB050C9459220C9417220C94501734
:100160000C94B1140C94A1080C9435110C94F70C58
:100170000C9469080C9441220C9415080C944D229F
:100180000C94581A0C9429150C94F4050C945F1ACD
:100190000C94FD050C94C7050C94DC050C94D90750
:1001A0000C94FC0B0C94D9160C94B9190C94D8052A
:1001B0000C94FF210C942C160C946A220C94680D5C
:1001C0000C947F1A0C940B220C948E220C94EA054A
:1001D0000C94810F0C94AD290C949A100C947B1301
:1001E0000C9402060C94DF0B0C94B7190C94EE08D7
:1001F0000C94BD050C9441110C94D8160C949A22C1
:100200000C9435220C94F0050C94151A00407A10C9
:10021000F35A00A0724E18090010A5D4E80000E8B7
:100220007648170000E40B54020000CA9A3B000015
:1002300000E1F505000080969800000040420F00A4
:100240000000A08601000000102700000000E80365
:10025000000000006400000000000A000000000030
:100260000100000000002C76D888DC674F0823DFEF
:10027000C1DFAE59E1B1B796E5E3E453C63AE651C2
:10028000997696E8E6C28426EB898C9B62ED407CE9
:100290006FFCEFBC9C9F40F2BAA56FA5F490055A85
:1002A0002AF75C936B6CF9676DC11BFCE0E40D47AA
:1002B000FEF520E6B500D0ED902E030094357705CD
:1002C0000080841E080000204E0A000000C80C3385
:1002D0003333330F986E12831141EF8D2114893B14
:1002E000E65516CFFEE6DB18D1844B381BF77C1D94
:1002F000901DA4BBE424203284725E228100C9F1E7
:1003000024ECA1E53D2704E010021C071237322936
:100310002D29252B3900010310E110031D07062E9E
:100320002C292D2E2E373F0000021013800A298021
:1003300064022A040000007F2B040000009F0F01CC
:1003400080961180FFB103012C2DB203012C2DB337
:1003500006012C2D012C2DB40107C003A20284C17B
:1003600001C5C2020A00C3028A2AC4028AEEC5017C
:100370000E20003601C83A010500000000003E5B77
:100380004F5B3E3E6B4F6B3E1C3E7C3E1C183C7EE2
:100390003C181C577D571C1C5E7F5E1C00183C18C7
:1003A00000FFE7C3E7FF0018241800FFE7DBE7FFC3
:1003B00030483A060E2629792926407F0505074050
:1003C0007F05253F5A3CE73C5A7F3E1C1C08081C11
:1003D0001C3E7F14227F22145F5F005F5F06097F4F
:1003E000017F006689956A606060606094A2FFA2E8
:1003F0009408047E040810207E201008082A1C0897
:10040000081C2A08081E101010100C1E0C1E0C30A0
:10041000383E3830060E3E0E060000000000000098
:100420005F00000007000700147F147F14242A7F58
:100430002A12231308646236495620500008070325
:1004400000001C2241000041221C002A1C7F1C2AA3
:1004500008083E08080080703000080808080800F6
:100460000060600020100804023E5149453E0042F1
:100470007F400072494949462141494D33181412C1
:100480007F1027454545393C4A49493141211109E9
:10049000073649494936464949291E0000140000DB
:1004A00000403400000008142241141414141400F5
:1004B0004122140802015909063E415D594E7C1241
:1004C00011127C7F494949363E414141227F4141D9
:1004D000413E7F494949417F090909013E41415156
:1004E000737F0808087F00417F41002040413F01A1
:1004F0007F081422417F404040407F021C027F7FE2
:100500000408107F3E4141413E7F090909063E41F2
:1005100051215E7F09192946264949493203017F45
:1005200001033F4040403F1F2040201F3F403840D4
:100530003F631408146303047804036159494D436D
:10054000007F4141410204081020004141417F04E5
:1005500002010204404040404000030708002054CC
:100560005478407F2844443838444444283844442C
:10057000287F385454541800087E090218A4A49CFB
:10058000787F0804047800447D40002040403D000E
:100590007F1028440000417F40007C047804787C70
:1005A000080404783844444438FC182424181824D7
:1005B0002418FC7C08040408485454542404043FC0
:1005C00044243C4040207C1C2040201C3C403040C7
:1005D0003C44281028444C9090907C4464544C44F3
:1005E0000008364100000077000000413608000294
:1005F000010204023C2623263C1EA1A161123A40BE
:1006000040207A3854545559215555794122545433
:100610007842215554784020545579400C1E52722E
:10062000123955555559395454545939555454580B
:100630000000457C410002457D420001457C407D33
:100640001211127DF0282528F07C545545002054C5
:10065000547C547C0A097F4932494949323A44441E
:10066000443A324A4848303A4141217A3A4240209D
:1006700078009DA0A07D3D4242423D3D4040403D2E
:100680003C24FF2424487E4943662B2FFC2F2BFF5C
:100690000929F620C0887E090320545479410000BE
:1006A000447D413048484A32384040227A007A0A34
:1006B0000A727D0D19317D2629292F2826292929FD
:1006C0002630484D4020380808080808080808382F
:1006D0002F10C8ACBA2F102834FA00007B00000895
:1006E000142A142222142A14085500550055AA551C
:1006F000AA55AAFF55FF55FF000000FF001010107B
:10070000FF00141414FF001010FF00FF1010F01071
:10071000F0141414FC001414F700FF0000FF00FF95
:100720001414F404FC141417101F10101F101F14BD
:1007300014141F00101010F0000000001F10101003
:10074000101F10101010F010000000FF10101010FB
:100750001010101010FF10000000FF140000FF0028
:10076000FF00001F10170000FC04F41414171017EA
:100770001414F404F40000FF00F7141414141414F7
:1007800014F700F7141414171410101F101F14146A
:1007900014F4141010F010F000001F101F000000DF
:1007A0001F14000000FC140000F010F01010FF10E7
:1007B000FF141414FF141010101F00000000F0109C
:1007C000FFFFFFFFFFF0F0F0F0F0FFFFFF00000081
:1007D0000000FFFF0F0F0F0F0F3844443844FC4A4E
:1007E0004A4A347E02020606027E027E02635549B0
:1007F00041633844443C04407E201E2006027E02B1
:100800000299A5E7A5991C2A492A1C4C7201724C31
:10081000304A4D4D303048784830BC625A463D3EF3
:10082000494949007E0101017E2A2A2A2A2A444494
:100830005F444440514A444040444A51400000FF14
:100840000103E080FF000008086B6B0836123624B5
:1008500036060F090F0600001818000000101000DF
:100860003040FF0101001F01011E00191D17120079
:100870003C3C3C3C0000000000000021002400271C
:10088000002A002D003000330001010000040107A0
:10089000010A01000020002300260029002C002F5F
:1008A0000032000001000003010601090100000AF6
:1008B0000B02090C0D0E08070304010000000000E4
:1008C0000000000000000000000000000000000028
:1008D00000000000000000000012111000000000E5
:1008E0000000000000000000000000000000000008
:1008F00000000001021020200808102040102040B5
:1009000080020102010804020101020408102040D3
:1009100080804020100804020180040201804020F1
:10092000100804020108040201010204081020401A
:1009300080010204081020408000002200250028C9
:10094000002B002E003100340002010000050108D8
:10095000010B010505050507050808080802020244
:10096000020A0A080804040404010101010101014A
:10097000010303030303030303040707070C0C0C21
:100980000C0C0C0C0C0202020206060606060606F9
:10099000060B0B0B0B0B0B0B0B00AD2911241FBE11
:1009A000CFEFD1E2DEBFCDBF00E00CBF14E0A0E08E
:1009B000B2E0E6EAFBE600E00BBF02C007900D9252
:1009C000AA3FB107D9F727E0AAEFB4E001C01D9212
:1009D000A43CB207E1F714E0CEECD4E000E006C09E
:1009E00021970109802FFE010E948B33CD3CD10756
:1009F00080E00807A9F70E943B2A0C94D1350C949B
:100A00000000DC0113961C921E92129720E830E041
:100A100015963C932E93149780EA90E017969C933A
:100A20008E93169719963C932E9318971B969C932A
:100A30008E931A9756961C9256971D961C921E924C
:100A40001C971F961C921E921E9781E055968C93C0
:100A5000559754968C9354972FEF3FEF53963C93B2
:100A60002E93529751963C932E93509757968C9372
:100A7000579758961C9258975A961C921E925997BF
:100A800080E392E011969C938E93D5961C92D59715
:100A900085E2D6968C93D69780E3D7968C93D7979A
:100AA00081E3D8968C93D897DA961C921E92D997A8
:100AB000DC961C921E92DB97DD961C92DD97DE96EB
:100AC0001C92DE97FD01FF96108211821282138222
:100AD00084EE96E090969C938E935F97E4E8F9E01D
:100AE000E491F0E0EE0FFF1FE75CF64F85919491E3
:100AF0005E969C938E935D97E4E2F9E08491D396A1
:100B00008C93D397E3E8F9E0E491F0E0EE0FFF1F58
:100B1000E75CF64F259134915C963C932E935B975E
:100B2000E3E2F9E0E491D196EC93D197E095D29687
:100B3000EC93D297E82FE095D496EC9308958150EA
:100B4000823108F05AC0E82FF0E08827E555FA4FC7
:100B50008F4F0C948B33CB05CF05BD05C305C7055F
:100B6000FD05D205D805DC05E205E605EA05F00538
:100B7000F405FD05F805FE050206809180008F77DB
:100B8000809380000895809180008F7DF9CF8091BF
:100B90008000877FF5CF84B58F7784BD089584B5B5
:100BA0008F7DFBCF8091B0008F778093B000089548
:100BB0008091B0008F7DF9CF809190008F778093E6
:100BC00090000895809190008F7DF9CF80919000E2
:100BD000877FF5CF8091A0008F778093A000089544
:100BE0008091A0008F7DF9CF8091A000877FF5CF05
:100BF000809120018F7780932001089580912001BA
:100C00008F7DF9CF80912001877FF5CFCF93DF9340
:100C1000282F30E0F901E355F74F8491F901ED50A9
:100C2000F74FD491F901ED5AF64FC491CC23A1F0BE
:100C300081110E949F05EC2FF0E0EE0FFF1FED5693
:100C4000F74FA591B491EC91ED2381E090E009F488
:100C500080E0DF91CF91089580E090E0FACF1F937C
:100C6000CF93DF93282F30E0F901E355F74F8491BC
:100C7000F901ED50F74FD491F901ED5AF64FC491B7
:100C8000CC23A9F0162F81110E949F05EC2FF0E0D4
:100C9000EE0FFF1FE75CF64FA591B4918FB7F89464
:100CA000EC91111108C0D095DE23DC938FBFDF914A
:100CB000CF911F910895DE2BF8CFCF93DF9390E073
:100CC000FC01ED50F74F24918D5A964FFC01849111
:100CD0008823C9F090E0880F991FFC01E758F74F6F
:100CE000A591B491FC01E75CF64FC591D4916111D7
:100CF0000DC09FB7F8948C91209582238C938881A6
:100D0000282328839FBFDF91CF910895623051F44B
:100D10009FB7F8943C91822F809583238C93E88130
:100D20002E2BEFCF8FB7F894EC912E2B2C938FBFF7
:100D3000EACF865320917B00982F987F277F922BB4
:100D400090937B008770806480937C0080917A0010
:100D5000806480937A0080917A0086FDFCCF809138
:100D600078009091790008953FB7F89480919D059F
:100D700090919E05A0919F05B091A00526B5A89BD6
:100D800005C02F3F19F00196A11DB11D3FBFBA2F1D
:100D9000A92F982F8827BC01CD01620F711D811DDD
:100DA000911D42E0660F771F881F991F4A95D1F762
:100DB00008952F923F924F925F926F927F928F92FF
:100DC0009F92AF92BF92CF92DF92EF92FF920F93DA
:100DD0001F93CF93DF9300D01F92CDB7DEB7FC01F6
:100DE0002789308D232BF9F0A389B4894B01AA24DC
:100DF000BB24082DC52ED62EE72EFF243C2D242FF4
:100E000080A1882351F010E0010F08F40FEF310F9B
:100E100008F43FEF210F08F42FEF0C9311963C9349
:100E2000119712962C93E18CF28CE114F10409F4E1
:100E30005CC0438CA788B08CC388D488D7018D91BF
:100E40009C91DC0112962D903C9019821A821B8293
:100E50004420C9F14701B6E08B0E911C10E000E080
:100E6000512C712C612CD4012D914D01222331F193
:100E70001296BC91BC83BB2309F130E050E040E006
:100E80002F5F3F4F4F4F5F4FC301B2010E94673347
:100E90009B01AC016C81862F90E0B0E0A0E0BC012A
:100EA000CD016F5F7F4F8F4F9F4F0E946733A1E04F
:100EB000B0E0AC0FBD1FA00FB11F8C930F5F1F4F91
:100EC0000330110581F64F0109811A812B81A5019B
:100ED000B601C701F10119950E94B406D4015C96D0
:100EE0006D937D938D939C935F970F900F900F90D0
:100EF0000F90DF91CF911F910F91FF90EF90DF90B6
:100F0000CF90BF90AF909F908F907F906F905F90A9
:100F10004F903F902F9008958F929F92AF92BF92E3
:100F2000CF92DF92EF92FF926B017C010E94B40698
:100F30004B015C01C114D104E104F104B9F00E9439
:100F4000B406681979098A099B09683E73408105CE
:100F5000910580F321E0C21AD108E108F10888EE7A
:100F6000880E83E0981EA11CB11CE4CFFF90EF9087
:100F7000DF90CF90BF90AF909F908F9008952FB744
:100F8000F8946091990570919A0580919B059091D4
:100F90009C052FBF0895DB0114964D915C91159728
:100FA0006D917C91DC01ED91FC910280F381E02D4B
:100FB0001994AF92BF92CF92DF92EF92FF920F936C
:100FC0001F93CF93DF936C017B018B01040F151FDF
:100FD000EB015E01AE18BF08C017D10759F0699147
:100FE000D601ED91FC910190F081E02DC60119959B
:100FF000892B79F7C501DF91CF911F910F91FF9058
:10100000EF90DF90CF90BF90AF900895FC01538D8B
:10101000448D252F30E0842F90E0821B930B5417D2
:1010200010F0CF96089501970895FC01918D828D5F
:10103000981761F0A28DAE0FBF2FB11D5D968C91F8
:10104000928D9F5F9F73928F90E008958FEF9FEF37
:101050000895FC01918D828D981731F0828DE80FF3
:10106000F11D858D90E008958FEF9FEF08950F9308
:101070001F930E94BF0760933E0670933F068093C4
:1010800040069093410686E396E00E94290897FF68
:101090001DC00E94BF0700913E0610913F0620919F
:1010A000400630914106601B710B820B930B00913F
:1010B0003A0610913B0620913C0630913D066017A0
:1010C000710782079307F8F28FEF9FEF1F910F913F
:1010D0000895FC01918D228D892F90E0805C9F4FB7
:1010E000821B91098F739927089586E396E00E94E9
:1010F000690821E0892B09F420E0822F0895FC0182
:10110000A48DA80FB92FB11DA35ABF4F2C91848D68
:1011100090E001968F739927848FA689B7892C93C5
:10112000A089B1898C91837080648C93938D848D18
:10113000981306C00288F389E02D80818F7D80831B
:101140000895EF92FF920F931F93CF93DF93EC01DB
:1011500081E0888F9B8D8C8D98131AC0E889F9895E
:10116000808185FF15C09FB7F894EE89FF89608361
:10117000E889F98980818370806480839FBF81E0E2
:1011800090E0DF91CF911F910F91FF90EF90089524
:10119000F62E0B8D10E00F5F1F4F0F731127E02EFF
:1011A0008C8D8E110CC00FB607FCFACFE889F98937
:1011B000808185FFF5CFCE010E947F08F1CFEB8DB6
:1011C000EC0FFD2FF11DE35AFF4FF0829FB7F8940B
:1011D0000B8FEA89FB8980818062CFCFCF93DF9329
:1011E000EC01888D8823B9F0AA89BB89E889F9893F
:1011F0008C9185FD03C0808186FD0DC00FB607FC74
:10120000F7CF8C9185FFF2CF808185FFEDCFCE01A6
:101210000E947F08E9CFDF91CF91089580E090E0B0
:10122000892B29F00E94750881110E94000080E03E
:1012300090E0892B49F080E090E0892B29F00E9412
:10124000000081110E94000080E090E0892B49F0AD
:1012500080E090E0892B29F00E94000081110E941B
:10126000000080E090E0892B49F080E090E0892B3D
:1012700029F00E94000081110C9400000895AF92A3
:10128000BF92CF92DF92EF92FF920F931F93CF9373
:10129000DF936B017A01EC01CC56DA4F28813CE0F8
:1012A000389F8001399F100D1124A0907507B12C33
:1012B00027FF1FC0FB011182108288818F5F888306
:1012C00088819801280F311D87FD3A95F6012A156E
:1012D0003B051CF488818C30C4F180819181049697
:1012E00080349C4908F473C0F60180819181049692
:1012F00070C088819801280F311D87FD3A952A1505
:101300003B05DCF68881A801480F511D87FD5A95E1
:10131000FA01EE0FFF1FE40FF51FEB51F94F80812B
:1013200086FFCBCF8881F801E80FF11D87FDFA9584
:10133000CF01EE0FFF1FE80FF91FEB51F94F80812E
:1013400060E08F730E942F06B8CF80819181288141
:10135000A801420F511D27FD5A959A01FA01EE0F7F
:10136000FF1FE20FF31FEB51F94F21813281820FF2
:10137000931FF7019183808388819801280F311D85
:1013800087FD3A95F901EE0FFF1FE20FF31FEB51B6
:10139000F94F808186FF22C08881080F111D87FDCB
:1013A0001A95F801EE0FFF1FE00FF11FEB51F94FF7
:1013B000808161E08F73DF91CF911F910F91FF903A
:1013C000EF90DF90CF90BF90AF900C942F0680E409
:1013D0009CE9F701918380838FEF8883DF91CF9120
:1013E0001F910F91FF90EF90DF90CF90BF90AF9043
:1013F000089520914905260F3327331F21323105E7
:10140000ECF420916D05FC0190E080E0243069F05F
:1014100082E00895A09149052191AC01475D5A4FA2
:10142000A40FB52FB11D2C930196861798F38091C8
:101430004905680F6093490580E0089581E00895AB
:1014400008958FEF9FEF08958FEF9FEF089580919C
:10145000220590E09195819591090895CF93DF93AE
:10146000CB01EA01642F0E94F909CE01DF91CF91EF
:101470000895CF93DF931F92CDB7DEB7698361E004
:10148000CE0101960E94F90981E090E00F90DF9172
:10149000CF910895FC01A5A1B6A18C9192A58923B5
:1014A0008C93A5A1B6A18C9191A5892B8C930895BD
:1014B000DC019396ED91FC919497908198968C9194
:1014C000892380830895DC019396ED91FC91949794
:1014D000908197968C91892B80830895DC01919659
:1014E000ED91FC919297908196968C9189238083BF
:1014F0000895DC019196ED91FC91929790819596DB
:101500008C91892B80830895CF92DF92EF92FF9286
:101510001F93CF93DF93EC016A017B018DA98111A9
:1015200023C08F2D9927AA27BB278EBD0DB407FE98
:10153000FDCFC701AA27BB278EBD0DB407FEFDCF87
:10154000BB27AF2D9E2D8D2D8EBD0DB407FEFDCF7B
:10155000CEBC0DB407FEFDCFDF91CF911F91FF9060
:10156000EF90DF90CF9008958130B1F410E2CE017A
:10157000F7FE0FC00E94790ACE010E94630ACE01D5
:101580000E94580ACC0CDD1CEE1CFF1C115079F790
:10159000E3CF0E946E0AF0CFEF8DF8A18F2D99272F
:1015A000AA27BB278083CE010E944A0AEF8DF8A1AB
:1015B000C701AA27BB278083CE010E944A0AEF8D6C
:1015C000F8A1BB27AF2D9E2D8D2D8083CE010E94CB
:1015D0004A0AEF8DF8A1C082CE01DF91CF911F9111
:1015E000FF90EF90DF90CF900C944A0AFF920F93F8
:1015F0001F93CF93DF93EC018B018DA981110EC056
:101600001EBD0DB407FEFDCF0EBD0DB407FEFDCF10
:10161000DF91CF911F910F91FF9008958130B1F428
:1016200090E1F92ECE0117FF0EC00E94790ACE017B
:101630000E94630ACE010E94580A000F111FFA94FB
:10164000F110F0CFE5CF0E946E0AF1CFEF8DF8A137
:101650001083CE010E944A0AEF8DF8A10083CE01CB
:10166000DF91CF911F910F91FF900C944A0A0F9335
:101670001F93CF93DF93EC01162F8DA9811109C021
:101680006EBD0DB407FEFDCFDF91CF911F910F917D
:101690000895813099F408E0CE0117FF0CC00E9434
:1016A000790ACE010E94630A110FCE010E94580AE6
:1016B000015091F7E9CF0E946E0AF3CFEF8DF8A1A8
:1016C0006083CE01DF91CF911F910F910C944A0A54
:1016D000CF93DF93EC01ED8DFE8D80819CA9892352
:1016E0008083CE010E94370BED8DFE8D80819BA9FA
:1016F000892B8083DF91CF9108958F929F92AF9233
:10170000BF92CF92DF92EF92FF920F931F93CF93EE
:10171000DF93EC0189AD9AAD680F791F8BAD9CAD5D
:10172000480F591F21503109260F371F4901B12C8D
:10173000A12CCB01B0E0A0E0DC0199278827882A02
:10174000992AAA2ABB2A680181E0C81AD108C40EC6
:10175000D51EF12CE12C70E060E0BA01552744273A
:10176000C42AD52AE62AF72A6AE2CE010E94680B2B
:10177000B501A401CE010E94840A6BE2CE010E9451
:10178000680BB701A601CE010E94840A6CE2CE016B
:10179000DF91CF911F910F91FF90EF90DF90CF904D
:1017A000BF90AF909F908F900C94680BFC0185A91F
:1017B000811104C091A182A19CBD8DBD08951F938C
:1017C000CF93DF93EC01162FE881F9810284F38532
:1017D000E02D1995112371F06DADCE010E94680BBB
:1017E000E881F9810688F789E02DCE01DF91CF915C
:1017F0001F9119946EADF1CFAF92BF92CF92DF924D
:10180000EF92FF920F931F93CF93DF93EC0177FD3D
:1018100038C088859985681779079CF557FD31C0D0
:101820008A859B854817590764F569017A015B0130
:10183000E881F9810284F385E02DCE011995E881D4
:10184000F98102A4F3A5E02D01E010E021E030E0F1
:10185000A701B501CE011995B601CE010E94F60A85
:10186000E881F9810688F789E02DCE01DF91CF91DB
:101870001F910F91FF90EF90DF90CF90BF90AF90AE
:101880001994DF91CF911F910F91FF90EF90DF900E
:10189000CF90BF90AF9008958F929F92AF92BF92DA
:1018A000CF92DF92EF92FF920F931F93CF93DF932C
:1018B000EC0149015701E881F98102A4F3A5E02D6B
:1018C00019959401D8010E9493336B017C01C114D6
:1018D000D104E104F10409F47DC08DA9811115C082
:1018E00081E0C81AD108E108F1088FEFC816D806C0
:1018F000E806F80609F46EC0BEBC0DB407FEFDCFC5
:10190000AEBC0DB407FEFDCFEBCF813099F581E081
:10191000C81AD108E108F1088FEFC816D806E80602
:10192000F80609F457C00B2D18E0CE0107FF1CC0C4
:101930000E94790ACE010E94630ACE010E94580AD1
:10194000000F115091F70A2D18E0CE0107FF0FC0CC
:101950000E94790ACE010E94630ACE010E94580AB1
:10196000000F115091F7D3CF0E946E0AE3CF0E946F
:101970006E0AF0CFBA1016C0CC0CDD1CEE1CFF1C9A
:10198000EF8DF8A1B08281E0C81AD108E108F10812
:101990008FEFC816D806E806F806E1F0CE010E94DF
:1019A0004A0AF1CF81E0C81AD108E108F1088FEFA7
:1019B000C816D806E806F80669F0EF8DF8A1B082DF
:1019C000CE010E944A0AEF8DF8A1A082CE010E94AA
:1019D0004A0AE8CFDF91CF911F910F91FF90EF90CE
:1019E000DF90CF90BF90AF909F908F9008958F928F
:1019F0009F92AF92BF92CF92DF92EF92FF920F939E
:101A00001F93CF93DF935C014B016A01E90177FDDE
:101A100052C0DC0118968D919C91681779070CF0E3
:101A20004AC0209709F447C037FF07C0C901019693
:101A3000C80ED91ED195C195D109F501828593852E
:101A4000C816D906C4F5A6014C0F5D1F9A01215096
:101A5000310937FD30C0D7FE03C0EA01D12CC12CBB
:101A6000281739071CF0EC01CC19DD09D501ED91DF
:101A7000FC910284F385E02DC501199578018E0152
:101A800021E030E0A601B401C5010E944C0CD50153
:101A9000ED91FC910688F789E02DC501DF91CF918A
:101AA0001F910F91FF90EF90DF90CF90BF90AF907C
:101AB0009F908F901994DF91CF911F910F91FF907C
:101AC000EF90DF90CF90BF90AF909F908F90089550
:101AD0008F929F92AF92BF92CF92DF92EF92FF923E
:101AE0000F931F93CF93DF935C016B014A01E901D0
:101AF00057FD52C0DC011A968D919C9148175907E9
:101B00000CF04AC0209709F447C037FF07C0C9014D
:101B10000196C80ED91ED195C195D109F5018085D0
:101B20009185C816D906C4F5A6014C0F5D1F9A0110
:101B30002150310937FD30C0D7FE03C0EA01D12C56
:101B4000C12C281739071CF0EC01CC19DD09D5018F
:101B5000ED91FC910284F385E02DC5011995780182
:101B600001E010E09E01A401B601C5010E944C0CE9
:101B7000D501ED91FC910688F789E02DC501DF9133
:101B8000CF911F910F91FF90EF90DF90CF90BF907A
:101B9000AF909F908F901994DF91CF911F910F91EB
:101BA000FF90EF90DF90CF90BF90AF909F908F907D
:101BB00008958F929F92AF92BF92CF92DF92EF9251
:101BC000FF920F931F93CF93DF934C016B015A0148
:101BD000E901209709F46CC00115110509F468C0EA
:101BE00037FF07C0C9010196C80ED91ED195C1950E
:101BF000D109F401A085B185CA16DB060CF058C0E6
:101C000017FF07C0C8010196A80EB91E11950195CE
:101C10001109F40182859385A816B9060CF048C015
:101C2000F601EC0FFD1FAF014150510957FD40C0B7
:101C3000B501600F711F9B012150310937FD38C07C
:101C4000D7FE03C0EF01D12CC12CB7FE03C08B011E
:101C5000B12CA12C4A175B071CF0ED01CC19DD0952
:101C6000281739071CF08C010A191B09D401ED91C2
:101C7000FC910284F385E02DC40119959E01A50114
:101C8000B601C4010E944C0CD401ED91FC91068870
:101C9000F789E02DC401DF91CF911F910F91FF9043
:101CA000EF90DF90CF90BF90AF909F908F9019945E
:101CB000DF91CF911F910F91FF90EF90DF90CF9028
:101CC000BF90AF909F908F900895EF92FF920F93E7
:101CD0001F93CF93DF9377FD32C0DC011896ED910F
:101CE000FC916E177F075CF52115310541F137FF37
:101CF00007C0F90131964E0F5F1F319521953109CB
:101D0000DC011A96ED91FC914E175F07C4F4EA01CD
:101D1000C20FD31FDE011197B7FD11C057FF03C0DB
:101D20009E0150E040E0AE17BF071CF09F01241B4E
:101D3000350B7801890121E030E00E944C0CDF91E5
:101D4000CF911F910F91FF90EF900895EF92FF9226
:101D50000F931F93CF93DF9357FD31C0DC011A9689
:101D6000ED91FC914E175F0754F52115310539F1BE
:101D700037FF07C0F90131966E0F7F1F319521950E
:101D80003109DC011896ED91FC916E177F07BCF4C8
:101D9000EB01C20FD31FDE011197B7FD10C077FF13
:101DA00003C09E0170E060E0AE17BF071CF09F010A
:101DB000261B370B780101E010E00E944C0CDF91EC
:101DC000CF911F910F91FF90EF9008958F929F9266
:101DD000AF92BF92CF92DF92EF92FF920F931F9339
:101DE000CF93DF9347012115310509F44BC001154D
:101DF000110509F447C037FF07C0F90131966E0F8E
:101E00007F1F319521953109DC011896AD90BC906A
:101E10006A157B05BCF517FF07C0F80131964E0F18
:101E20005F1F119501951109DC011A96ED91FC9146
:101E30004E175F073CF56B01C20ED31EE6012197DA
:101E4000D7FD20C07A01E00EF11ED7011197B7FD32
:101E500019C077FF03C0960170E060E057FF03C030
:101E6000870150E040E0CA15DB051CF09501261BF8
:101E7000370BAE17BF071CF08F01041B150B740145
:101E80000E944C0CDF91CF911F910F91FF90EF902A
:101E9000DF90CF90BF90AF909F908F900895EF927A
:101EA000FF920F931F93CF93DF93EC0177FD22C036
:101EB0008885998568177907ECF457FD1BC08A85DA
:101EC0009B8548175907B4F47901E881F98102A488
:101ED000F3A5E02D01E010E021E030E0CE011995FE
:101EE000B701CE01DF91CF911F910F91FF90EF903D
:101EF0000C94F60ADF91CF911F910F91FF90EF9014
:101F00000895CF93DF93EC010E94D60B8FA987FD34
:101F100006C0EB8DFC8D80819AA989238083DF9197
:101F2000CF9108950895AF92BF92CF92DF92EF9232
:101F3000FF920F931F93CF93DF93BC016F5F7F4F8F
:101F4000FC011491115008F47AC0FB01D4917B017B
:101F5000F2E0EF0EF11CFB0131960491C02FCF7718
:101F60008FEE95E00E94D60B8091260687FD09C072
:101F7000E0910A06F0910B06808190912106892359
:101F80008083E0910C06F0910D06808190912306EC
:101F9000892380836D2F8FEE95E00E94370BE091AF
:101FA0000C06F0910D06808190912206892B80838A
:101FB000F701B12CA12CD0E0AC16BD06F4F4809151
:101FC00024066F01823081F480911F06882361F01E
:101FD000619171916F018FEE95E00E94F60AEFEF2B
:101FE000AE1ABE0AF601E8CF8FEFC81AD80A64917C
:101FF0008FEE95E00E94370BF2CF8091260687FD89
:1020000009C0E0910A06F0910B06808190912006AC
:10201000892B8083B7016C0F7D1F07FF93CFEB01E6
:102020002196FB01649170E06F3F710511F464EF3C
:1020300071E090E080E00E948C07BE0183CFDF91C9
:10204000CF911F910F91FF90EF90DF90CF90BF90B5
:10205000AF9008950F931F93CF93DF93EC018B0103
:102060000E94D60B8FA987FD06C0EB8DFC8D808169
:102070009AA989238083ED8DFE8D80819CA9892377
:10208000808366E3CE010E94370BED8DFE8D80814B
:102090009BA9892B80838DA9F801823091F0608102
:1020A000CE010E94370B8FA987FD06C0EB8DFC8DFA
:1020B000808199A9892B8083DF91CF911F910F9106
:1020C000089588A9882359F360817181CE010E9407
:1020D000F60AE9CFCF93DF931F92CDB7DEB7FC01AD
:1020E00019826370668BDC01AD5BBF4F2C9130E0D1
:1020F00011968C9190E0623031F06330C9F061301C
:1021000081F040EC498332AF21AF94AF83AFBE0181
:102110006F5F7F4FCF010E942A100F90DF91CF9108
:10212000089540EA498334AF23AF92AF81AFEFCF38
:1021300040E6F8CFCF93DF931F92CDB7DEB7FC0117
:1021400019826370668BDC01AA5BBF4F8C91982F5C
:102150009B7FAF014C5B5F4F913031F493E0623075
:1021600008F091E0DA019C939F012D5B3F4F6230B4
:1021700009F44CC0633009F45BC0613069F182300E
:1021800021F098EC843009F046C090EC99838130BE
:10219000D1F480E890E09387828791878087D90186
:1021A0008C9190E092AF81AFDA018C9190E094AF86
:1021B00083AFBE016F5F7F4FCF010E942A100F9047
:1021C000DF91CF910895843051F580EA90E09387B4
:1021D000828780E590E0E1CF823019F098EA843080
:1021E00071F590EA99838130B1F580E890E09187AC
:1021F000808793878287D9018C9190E094AF83AFD9
:10220000DA018C9190E092AF81AFD3CF823049F068
:102210008430D9F298E09983813009F4BACF8630BE
:10222000A1F280EA90E09387828780E890E0B5CFC2
:10223000823019F098E6843011F490E6D3CF998378
:10224000813099F2863051F480EA90E0918780875E
:1022500080E590E0CECF8430B9F3F4CF80EA90E00F
:102260009187808780E890E0C4CFFC0187A987FD33
:1022700006C0A38DB48D9C9181A9892B8C93089560
:102280000895FC016370668B848195812681378176
:10229000613039F0633029F0918780873387228756
:1022A0000895318720879387828708952F923F92E0
:1022B0004F925F926F927F928F929F92AF92BF9256
:1022C000CF92DF92EF92FF920F931F93CF93DF9302
:1022D000CDB7DEB76A970FB6F894DEBF0FBECDBF9D
:1022E0009A8F898F7A8369834A01D22E18870F8348
:1022F0003701BC2CDC0159962D913C915A97211540
:10230000310509F015C118968D919C9119976817A0
:1023100079070CF0D7C11A968D919C9148175907EF
:102320000CF0D0C14C2C512CB6E0CB9E600D711D31
:1023300011247C876B87161617060CF0C3C1EA2D93
:10234000F0E0FA87E98793E0EE0FFF1F9A95E1F737
:10235000F88BEF87CF01840F951F181619060CF024
:10236000B1C1A98DBA8D58968C91811104C0BFEA74
:10237000BD1508F4D394A98DBA8DED91FC911197F8
:102380000284F385E02DCD011995B5E0DB9EC001F7
:102390001124E981FA81FC83EB83312C212C9C01EF
:1023A00027583C4F388F2F8B4A2D50E05E8B4D8B3A
:1023B000EF89F88DE20DF31D44919E828D82D12C20
:1023C000C12C69817A81620D731D7A8B698B842F90
:1023D00090E09C8B8B8BE98DFA8DA081B18140FFC1
:1023E00082C0F1E0BF126FC0AF126DC01C96ED91BC
:1023F000FC912F813885A4014C0D5D1D69897A8976
:10240000898D9A8D1995EB89FC89F595E7954E2F65
:102410005FEFC51AD50A6D817E818D899E89680F0F
:10242000791F7E836D8398E0C916D10481F6AFEFE2
:102430002A1A3A0AEB81FC81E40DF51DFC83EB833B
:10244000F5E02F16310409F0B3CF2F81388526151A
:102450003705B9F0A98DBA8DED91FC91B1E0BB12B1
:1024600057C0AB1255C069817A816B5F7F4F00887E
:10247000F189E02D830128E030E0A401898D9A8D57
:102480001995A98DBA8DED91FC9111970688F78960
:10249000E02DCD016A960FB6F894DEBF0FBECDBF1A
:1024A000DF91CF911F910F91FF90EF90DF90CF9030
:1024B000BF90AF909F908F907F906F905F904F9064
:1024C0003F902F9019941E96ED91FC91EF80F88427
:1024D00009851A8592014D815E816B817C81898D90
:1024E0009A8D199590CF2F8138852615370509F4D7
:1024F0008ACF31E0B31207C0A31205C01C96ED913C
:10250000FC91930178CF1E96ED91FC917301E0CF81
:102510006B857C85641975090684F785E02D730148
:102520000F8518899201A401898D9A8D1995A9CFDB
:10253000F90134969491329745915491D91AB7E0A4
:10254000DB9E400D511D1124F901259134913C8BE6
:102550002B8BFA0125903490FA01329674903196C3
:102560003491398B329664903196449041E04C1509
:1025700018F04A1508F07FC0662D062C000C770B6A
:102580007C836B83842D042C000C990B9E838D839C
:10259000A98DBA8DED91FC9111970284F385E02D00
:1025A000CD011995512CD12CC12CEA2DF0E0FA87E0
:1025B000E9872B2D30E03C872B87A401440D511D6A
:1025C00047FC5A95588F4F8B69817A81660D711D32
:1025D00067FC7A957E876D877989C71608F051CF99
:1025E0002C2D30E04D815E81420F531FA985BA85A5
:1025F0004A9FC0014B9F900D5A9F900D1124FC01E2
:10260000E80DF91DF88BEF87852D612C4F89588DCA
:10261000420F531F5E8B4D8B671408F050C044244B
:102620004394480E877041F4C1010196EB89FC89FF
:10263000E20DF31DD4901C01D7FE19C0A98DBA8DEF
:10264000ED91FC91662D70E0B1E0BB1219C0AB12A8
:1026500017C02D853E85620F731F0484F585E02D1C
:102660002F8138854D895E89898D9A8D1995DD0C6C
:102670006394842DD1CF1E821D821C821B8288CF41
:102680004B815C81640F751FAB85BC856A9FC0015F
:102690006B9F900D7A9F900D112469817A81680F4C
:1026A000791F0684F785E02DEF80F88409851A8567
:1026B0009D014F855889898D9A8D1995D8CF570CD2
:1026C000C3948ACF6A960FB6F894DEBF0FBECDBF13
:1026D000DF91CF911F910F91FF90EF90DF90CF90FE
:1026E000BF90AF909F908F907F906F905F904F9032
:1026F0003F902F9008958F929F92AF92CF92EF923A
:10270000FF920F931F93CF93DF93EC01262F898DB8
:102710009A8D009709F051C06A30D1F41D861C864D
:102720008D8948E0849F900111248E859F85820FBA
:10273000931F9F878E8781E090E0DF91CF911F915B
:102740000F91FF90EF90CF90AF909F908F90089552
:102750006D3089F3CC88AD888F898823C1F08C8552
:102760009D8536E0C39E800D911D112448855985B5
:102770004817590764F44E855F851D861C8638E02E
:10278000A39EC0011124840F951F9F878E87EA881E
:10279000FB88088919894E855F856C857D85CE010A
:1027A0000E9456112C898C859D8546E0249F800DC2
:1027B000911D11249D878C87BECF6A3069F41D86D8
:1027C0001C86FC013896E4912D898E859F85E29FB9
:1027D000800D911D1124ADCF6D3009F4ACCFFC01FB
:1027E00034963491631708F4A6CF3296E491E61735
:1027F00008F4A1CFFC01329685909490462F431B9C
:10280000342F47E0349F800C911C1124F401329640
:1028100034913196E4913323A9F1EE2399F1CC88D8
:10282000F4013596E491AD884F89442301F10E2ED1
:10283000000CFF0BE30FF11DCE9EA001CF9E500DAB
:1028400011246C857D85460F571F6885798564172F
:1028500075076CF44E855F851D861C86FC013896D5
:10286000E491AE9E400D511D11245F874E87EA888A
:10287000FB88088919894E855F856C857D85CE0129
:102880000E945611F4013496E4912C898C859D8523
:10289000E29F800D911D11248DCF682F8FEE95E062
:1028A0000C947B136F927F928F929F92AF92BF9204
:1028B000CF92DF92EF92FF920F931F93CF93DF930C
:1028C000EC016B015A0139014801E881F981028468
:1028D000F385E02D1995E881F9810288F389E02DCF
:1028E00087019301A501B601CE011995A501480DF7
:1028F000591D41505109E881F9810288F389E02D81
:102900009301B601CE011995E881F9810088F1891A
:10291000E02D9401A501B601CE011995C60CD71C76
:10292000B60161507109E881F9810088F189E02DD3
:102930009401A501CE011995E881F9810688F789EE
:10294000E02DCE01DF91CF911F910F91FF90EF907D
:10295000DF90CF90BF90AF909F908F907F906F90BF
:1029600019946F927F928F929F92AF92BF92CF9263
:10297000DF92EF92FF920F931F93CF93DF935C014F
:10298000EB016A01490138018701DC01ED91FC91FD
:102990006217730719F5641675062CF0962D872DAE
:1029A0003A01C92ED82E9601261937092F5F3F4FBD
:1029B000048CF58DE02DA301BE01C5011995DF91B1
:1029C000CF911F910F91FF90EF90DF90CF90BF902C
:1029D000AF909F908F907F906F9008954615570508
:1029E00091F42617370724F0892D4B01C22FD82FD9
:1029F0009E01281939092F5F3F4F068CF78DE02D76
:102A0000A601B401DACF0284F385E02D1995D50132
:102A1000ED91FC910488F589E02D83019401A601D4
:102A2000BE01C5011995D501ED91FC910688F78984
:102A3000E02DC501DF91CF911F910F91FF90EF9095
:102A4000DF90CF90BF90AF909F908F907F906F90CE
:102A50001994EF92FF920F931F93DC011A960D9138
:102A60001C911B9718962D913C911997ED91FC9113
:102A700000A0F1A1E02D7B0150E040E070E060E0BB
:102A800019951F910F91FF90EF9008954F925F92CB
:102A90006F927F928F929F92AF92BF92CF92DF926E
:102AA000EF92FF920F931F93CF93DF936C012B0153
:102AB0005A0139014801DC01ED91FC910284F38552
:102AC000E02D1995E201640C751CD601ED91FC9185
:102AD000C615D7055CF40088F189E02D87019401C3
:102AE000A501BE01C60119952196EFCF0688F78989
:102AF000E02DC601DF91CF911F910F91FF90EF90D4
:102B0000DF90CF90BF90AF909F908F907F906F900D
:102B10005F904F9019948F929F92AF92BF92CF92F5
:102B2000DF92EF92FF920F931F93CF93DF93EC010D
:102B30005B014A016901E881F9810284F385E02D96
:102B4000199595012C0D3D1D21503109E881F98120
:102B50000488F589E02D78018401A401B501CE0136
:102B60001995E881F9810688F789E02DCE01DF917A
:102B7000CF911F910F91FF90EF90DF90CF90BF907A
:102B8000AF909F908F9019948F929F92AF92BF9227
:102B9000CF92DF92EF92FF920F931F93CF93DF9329
:102BA000EC015B014A0169017801E881F981028445
:102BB000F385E02D1995C80CD91C86010150110927
:102BC000E881F9810488F589E02D9501A401B5011A
:102BD000CE011995E881F9810688F789E02DCE01AB
:102BE000DF91CF911F910F91FF90EF90DF90CF90E9
:102BF000BF90AF909F908F901994EF92FF920F9398
:102C00001F93DC01ED91FC9100A0F1A1E02D19953D
:102C10001F910F91FF90EF9008950F931F93DC0188
:102C2000ED91FC91068CF78DE02D19951F910F9178
:102C300008950F931F93DC01ED91FC91048CF58DA9
:102C4000E02D19951F910F910895DC01ED91FC91F4
:102C50000084F185E02D19942F923F924F925F925C
:102C60006F927F928F929F92AF92BF92CF92DF929C
:102C7000EF92FF920F931F93CF93DF9300D000D07A
:102C8000CDB7DEB73C016A013E832D83FC82EB8227
:102C90005801A41AB50AB7FE03C0B194A194B108B3
:102CA0008D809E80861A970A97FE03C09194819426
:102CB00091088A149B045CF0902F812F0D811E8156
:102CC0009D838E839C2D8D2D6B01692F782F0C1584
:102CD0001D055CF09D818E817E836D83692F782F29
:102CE000902F812F8601C92ED82E1601201A310A65
:102CF0002B012D813E81421A530A57FE03C0519485
:102D000041945108710137FE03C03FEFE31AF30A03
:102D1000F594E7948D819E81861797075CF5A1E075
:102D2000B0E0BA83A983C016D1064CF1D301ED916E
:102D3000FC910484F585E02D2B813C81A8016D81F7
:102D40007E818A149B041CF04D815E81B801C30111
:102D50001995E418F508F7FE0AC02D813E81898196
:102D60009A81280F391F3E832D83E20CF31C0F5FDD
:102D70001F4FD9CF2FEF3FEF3A832983D4CF269629
:102D80000FB6F894DEBF0FBECDBFDF91CF911F917C
:102D90000F91FF90EF90DF90CF90BF90AF909F90FA
:102DA0008F907F906F905F904F903F902F900895FD
:102DB000089590E080E00895CF93DF9300D000D095
:102DC000CDB7DEB762E087E20E945D0687E20E942F
:102DD0000606892BC9F082E090E09A8389831C82E1
:102DE0001B821E821D8229813A814B815C816D810B
:102DF0007E8180E090E026960FB6F894DEBF0FBE8D
:102E0000CDBFDF91CF91089587E20E940606892BFE
:102E100049F483E090E09A83898381E090E09C8389
:102E20008B83DFCFE8CF0F931F93CF93DF93209156
:102E300021052F5F322F37703093210520FF2BC0E3
:102E400020E831FD2064347009F02062205FFC012D
:102E5000EC01239600E011E06485662329F070E020
:102E6000C8010E9477336F5F6187322F369F030E50
:102E700030E0311D1124311110C01682662311F08B
:102E8000615061873196EC17FD0731F7DF91CF91E3
:102E90001F910F91089520E0D4CF31503683EECFAB
:102EA0004F925F927F928F929F92AF92BF92CF92FA
:102EB000DF92EF92FF920F931F93CF93DF932C013A
:102EC000EB010E94B406F20127853089621B730B67
:102ED0006A307105B0F3F8948A819B81181619063F
:102EE0000CF0CDC1E881F98162B1862E689485F835
:102EF00032B13F7D32B9DA848F812D2D281B822F8C
:102F00002F834F85042E000C550BAA81BB817D8534
:102F1000FC84EE847F5FF394E3949E819884B9846B
:102F2000AB841181C12C6C2D0C2D2C2D21811127EE
:102F300088942111280F08F42FEF8195889470FD53
:102F4000120F1795889471FD120F1795889472FDD2
:102F5000120F1795889473FD120F1795889474FDBE
:102F6000120F1795889475FD120F1795889476FDAA
:102F7000120F1795889477FD120F17958894622F7A
:102F80007111612F8D0D162F002C82B800C017FF14
:102F900032B920816627889400C000C0002C32B965
:102FA0002111290F00C0002C82B800C016FF32B9D1
:102FB00008F42FEF9195889400C000C0002C32B91E
:102FC000F0FC620F00C0002C82B800C015FF32B9BF
:102FD00067958894F1FC620F00C000C0002C32B9E4
:102FE0006795889400C0002C82B800C014FF32B9E5
:102FF000F2FC620F6795889400C000C0002C32B9C3
:10300000F3FC620F00C0002C82B800C013FF32B97D
:1030100067958894F4FC620F00C000C0002C32B9A0
:103020006795889400C0002C82B800C012FF32B9A6
:10303000F5FC620F6795889400C000C0002C32B97F
:10304000F6FC620F00C0002C82B800C011FF32B93C
:1030500067958894F7FC620F00C000C0002C32B95D
:103060006795889400C0002C82B800C010FF32B968
:10307000122FF110162F9B0D00C000C0002C32B98A
:1030800000C000C0002C82B800C017FF32B92281F6
:103090006627889400C000C0002C32B92111290D88
:1030A00000C0002C82B800C016FF32B908F42FEF20
:1030B000E40FF51F00C000C0002C32B9E0FC620F25
:1030C00000C0002C82B800C015FF32B96795889403
:1030D000E1FC620F00C000C0002C32B967958894F3
:1030E00000C0002C82B800C014FF32B9E2FC620FAD
:1030F0006795889400C000C0002C32B9E3FC620FD1
:1031000000C0002C82B800C013FF32B967958894C4
:10311000E4FC620F00C000C0002C32B967958894AF
:1031200000C0002C82B800C012FF32B9E5FC620F6B
:103130006795889400C000C0002C32B9E6FC620F8D
:1031400000C0002C82B800C011FF32B96795889486
:10315000E7FC620F00C000C0002C32B9679588946C
:1031600000C0002C82B800C010FF32B9122FE1104D
:10317000162F919400C000C0002C32B99A0C00C0E8
:1031800000C082B800C017FF32B921816627889439
:1031900000C000C0002C32B92111280F00C0002C43
:1031A00082B800C016FF32B908F42FEF81958894D9
:1031B00000C000C0002C32B970FD620F00C0002CAE
:1031C00082B800C015FF32B96795889471FD620F0F
:1031D00000C000C0002C32B96795889400C0002C54
:1031E00082B800C014FF32B972FD620F67958894EF
:1031F00000C000C0002C32B973FD620F00C0002C6B
:1032000082B800C013FF32B96795889474FD620FCD
:1032100000C000C0002C32B96795889400C0002C13
:1032200082B800C012FF32B975FD620F67958894AD
:1032300000C000C0002C32B976FD620F00C0002C27
:1032400082B800C011FF32B96795889477FD620F8C
:1032500000C000C0002C32B96795889400C0002CD3
:1032600082B800C010FF32B9122F7111162F8D0DC8
:1032700000C000C0002C32B9119709F086CE4A81F7
:103280005B8120EE31E0DA010E949B33DC01CB014F
:10329000F4E0B695A79597958795FA95D1F730E024
:1032A00020E0B901EAE94E9F040E611D5E9F600DAA
:1032B000711D1124650F711D860F971FA11DB11D72
:1032C000893E43E09407A105B10508F434C0885E47
:1032D0009340A109B10942E0B695A79597958795C6
:1032E0004A95D1F747E0849F080E211D949F200D39
:1032F000311D1124290F311D6091200570E0860FCA
:10330000971F820F931F4091990550919A056091E4
:103310009B0570919C05292F3327420F531F611D78
:10332000711D4093990550939A0560939B05709386
:103330009C058093200578940E94B406F201708B5E
:103340006787DF91CF911F910F91FF90EF90DF90F2
:10335000CF90BF90AF909F908F907F905F904F9055
:10336000089580E991E0089581E090E008950D9A34
:1033700008956F927F928F92CF92DF92EF92FF9299
:103380000F931F93CF93DF93CDB7DEB762970FB63E
:10339000F894DEBF0FBECDBF6C017A013801822EDA
:1033A000DC011C962C91CA0157FF04C0882799277D
:1033B000841B950B7A8369839C838B839E838D8387
:1033C0006D867E868F86213049F5CE0101960E945A
:1033D000131783E0888B1A8A198AF7FE02C08DEFD3
:1033E000888BD601ED91FC910684F785E02DBE0116
:1033F0006F5F7F4FC601199562960FB6F894DEBFD6
:103400000FBECDBFDF91CF911F910F91FF90EF9035
:10341000DF90CF908F907F906F9008951C861B86D1
:103420001A86198618861F82D4CFEF92FF920F93C7
:103430001F93CF93DF93CDB7DEB762970FB6F894A3
:10344000DEBF0FBECDBF7C01DC011C968C917A8360
:1034500069835C834B835E834D830D871E872F8733
:103460008130F9F4CE0101960E941317188A1A8A46
:10347000198AD701ED91FC910684F785E02DBE01F4
:103480006F5F7F4FC701199562960FB6F894DEBF44
:103490000FBECDBFDF91CF911F910F91FF90EF90A5
:1034A00008951C861B861A86198618861F82DECF11
:1034B00090E080E00895FC018585968508950F933E
:1034C0001F93CF93DF9300D0CDB7DEB7AB01198246
:1034D0001A821B82DC01ED91FC910190F081E02DBC
:1034E00000E010E020E0BE016F5F7F4F19950F9064
:1034F0000F900F90DF91CF911F910F910895CF9270
:10350000DF92EF92FF920F931F93CF93DF93EC0123
:103510006A017B01C114D104E104F10439F4C12C26
:1035200048E4D42E48EEE42EFF24F394FE01FF96E7
:10353000C082D182E282F38281E28DAF80E28EAFDF
:10354000369610818FA987FD07C061E00E945D0655
:1035500061E08FA90E942F0661E088AD0E945D06A0
:1035600061E088AD0E942F068DA9811182C040E0E4
:1035700052E16AE770E0C416D506E606F70640F4A5
:1035800076956795579547958F5F8630A1F787E0C9
:10359000212F2C702065982F9695922B99A38095BA
:1035A00081708AA3812F90E0B0E0A0E08BA39CA360
:1035B000ADA3BEA31FB7F89480919305811127C0D6
:1035C000E8E8F9E08491E8E2F9E09491E82FF0E08E
:1035D000EE0FFF1FE758F74FA591B491EC91E92347
:1035E00021F461E085E30E942F0661E085E30E94FB
:1035F0005D068CB580618CBD8CB580648CBD61E04E
:1036000084E30E945D0661E083E30E945D06809191
:1036100093058F5F809393051FBF8EA987FD75C0AB
:1036200061E00E945D0661E08EA90E942F0664E6BB
:1036300070E080E090E00E948C0760E08EA90E941C
:103640002F0664E670E080E090E00E948C0761E065
:103650008EA90E942F0668EC70E080E090E0DF9178
:10366000CF911F910F91FF90EF90DF90CF900C942E
:103670008C0703E519E0F12C8130B9F461E08AA5EB
:103680000E945D0660E08AA50E942F0661E08CA57D
:103690000E945D0660E08CA50E942F068BA587FD29
:1036A000BCCF60E00E945D06B8CFF8018491E82F9E
:1036B000F0E0EE0FFF1FE75CF64F859194912F8DA0
:1036C00038A12817390741F461E08F2D0E945D066B
:1036D00060E08F2D0E942F06F3940F5F1F4FF6E4DA
:1036E000FF12E3CF61E08EA50E945D0661E08EA52A
:1036F0000E942F068FA587FD90CF61E00E945D0696
:1037000061E08FA50E942F0688CFDF91CF911F9196
:103710000F91FF90EF90DF90CF900895FB01019003
:103720000020E9F73197AF01461B570BDC01ED9103
:10373000FC910280F381E02D19948F929F92AF92B9
:10374000BF920F931F93CF93DF93CDB7DEB7A197AF
:103750000FB6F894DEBF0FBECDBF19A2423008F4F9
:103760004AE08E010F5D1F4F842E912CB12CA12CAD
:10377000A50194010E945232E62FB901CA01EA3034
:1037800004F5E05DD801EE938D01232B242B252B2E
:1037900079F790E080E0109729F0BD0186E396E08C
:1037A0000E948E1BA1960FB6F894DEBF0FBECDBF50
:1037B000DF91CF911F910F91BF90AF909F908F900D
:1037C0000895E95CDFCF6EE972E00C948E1B0F93D5
:1037D0001F93CF93DF93EC010E948E1B8C01CE01CF
:1037E0000E94E31B800F911FDF91CF911F910F91DA
:1037F00008950C948E1B0E94BC350F931F93CF939A
:10380000DF93EC0188819981009759F02A813B81EF
:103810002617370730F081E0DF91CF911F910F918C
:1038200008958B016F5F7F4F0E94DB34009759F042
:10383000998388831B830A832C813D81232B59F72D
:10384000FC011082E8CF80E0E7CFEF92FF920F9368
:103850001F93CF93DF936115710541F480E0DF91F1
:10386000CF911F910F91FF90EF9008954115510551
:10387000B1F07B01EC010C811D81040F151FB80113
:103880000E94FD1B882351F3288139818C819D8101
:10389000B701820F931F0E94CA351D830C8381E0FC
:1038A000DECFCF93DF93EC0188819981009711F0EF
:1038B0000E945234198218821D821C821B821A8235
:1038C000DF91CF910895CF93DF93EC01FB01448109
:1038D0005581608171810E94251C811103C0CE0138
:1038E0000E94511CCE01DF91CF910895EF92FF927B
:1038F0000F931F93CF93DF93EC017B018A01BA01F1
:103900000E94FD1B81110BC0CE010E94511CCE01F3
:10391000DF91CF911F910F91FF90EF9008951D833C
:103920000C83B701888199810E94CA35F0CFFB01D1
:1039300001900020E9F73197AF01461B570B0C941B
:10394000761C0F931F93CF93DF93CDB7DEB7A1976C
:103950000FB6F894DEBF0FBECDBF8C01CB01BA010C
:10396000F8011182108213821282158214822AE0D9
:10397000AE014F5F5F4F0E94702EBE016F5F7F4FA1
:10398000C8010E94971CA1960FB6F894DEBF0FBE27
:10399000CDBFDF91CF911F910F9108950F931F938A
:1039A000CF93DF93CDB7DEB761970FB6F894DEBF44
:1039B0000FBECDBF8C01CB01F801118210821382A2
:1039C0001282158214824AE0BE016F5F7F4F0E940F
:1039D000922EBE016F5F7F4FC8010E94971C6196B7
:1039E0000FB6F894DEBF0FBECDBFDF91CF911F9110
:1039F0000F910895FC0111821082138212821582A8
:103A00001482FB0101900020E9F73197AF01461BBA
:103A1000570B0C94761CFC0180819181009711F06A
:103A20000C94523408951F93CF93DF9385ED8093C8
:103A3000BC008091250590912605A0912705B091A5
:103A400028050796A11DB11D23E0B695A79597956A
:103A500087952A95D1F72091BC0024FD03C01092D0
:103A60006D0552C0409125055091260560912705AE
:103A700070912805452B462B472B69F30097A1052C
:103A8000B10541F02AE22A95F1F700C00197A1099A
:103A9000B109E1CF80912405C1E0C09323058823BB
:103AA00099F1D091B8001091BA008091BC008A7B46
:103AB0008093BC0060E084E10E942F0660E085E115
:103AC0000E942F0610926D05C0936F0510926E052F
:103AD00061E084E10E942F0661E085E10E942F06EB
:103AE0008091B9008E7F8093B9008091B9008D7F5D
:103AF0008093B90088E48093B80085E48093BC008B
:103B00001093BA00D093B800DF91CF911F91089520
:103B1000EF92FF920F931F93CF93DF9300D01F92EA
:103B2000CDB7DEB7CE0101967C0110E000E08091B8
:103B3000E0069091E106800F911F0E943132F7015B
:103B400081937F010F5F1F4F0430110581F7698159
:103B50007A818B819C810F900F900F900F90DF9155
:103B6000CF911F910F91FF90EF900895CF92DF9228
:103B7000EF92FF920F931F93CF93DF9300D01F928A
:103B8000CDB7DEB769837A838B839C836A5E714786
:103B90008F40910966307E48804F9F4FD8F5CE0107
:103BA00001967C0110E000E083E0D82EF701C08090
:103BB0008091E0069091E1066C2D800F911F0E948C
:103BC00039328FE39CE90197F1F700C00000809142
:103BD000E0069091E106800F911F0E943132C816D5
:103BE00019F0DA94D110E2CF0F5F1F4F9FEFE91A5F
:103BF000F90A04301105C1F681E00F900F900F9083
:103C00000F90DF91CF911F910F91FF90EF90DF9078
:103C1000CF90089580E0F1CFCF92DF92EF92FF92A4
:103C20000F931F93CF93DF93CDB7DEB76A970FB68D
:103C3000F894DEBF0FBECDBF8C012D8B3E8B4F8B1A
:103C4000588F698F7A8F6D897E89CF88D88CE98C5F
:103C5000FA8C61157105D1F4C114D104B9F4E114E1
:103C6000F104A1F461EA72E00E94FA1CC8016A96AC
:103C70000FB6F894DEBF0FBECDBFDF91CF911F917D
:103C80000F91FF90EF90DF90CF900895CE010D96A9
:103C90000E94CE1CC114D10409F448C0B601CE0163
:103CA00007960E94CE1C1A8219821C821B821E82D9
:103CB0001D828EE28B8B1C8ABE016D5E7F4FCE0112
:103CC00001960E94971CBE01695F7F4FCE0101964D
:103CD0000E94631CFC014481558160817181CE0189
:103CE0000D960E94251CCE0101960E940B1DCE014F
:103CF00007960E940B1DE114F10419F58D859E8530
:103D0000F801918380838F85988993838283898941
:103D10009A89958384831E861D86188A1F861A8A2F
:103D2000198ACE010D960E940B1DA0CFE114F1045B
:103D300029F342E050E066EA72E0CE010D960E945F
:103D4000251CB701CE0107960E94CE1C1A8219824B
:103D50001C821B821E821D828EE28B8B1C8ABE01FE
:103D60006D5E7F4FCE0101960E94971CBE01695F78
:103D70007F4FCE0101960E94631CFC014481558156
:103D800060817181CE010D960E94251CCE010196A5
:103D90000E940B1DCE0107960E940B1DAFCF2F92E4
:103DA0003F924F925F926F927F928F929F92AF92CB
:103DB000BF92CF92DF92EF92FF920F931F93CF9318
:103DC000DF93CDB7DEB7CC56D1090FB6F894DEBF7E
:103DD0000FBECDBF8091180581117BC680917507FC
:103DE000803308F054C191E0980F90937507809349
:103DF000A10590E0FC01EE0FFF1FE80FF91FEB514A
:103E0000F94F88EB9BE0928381838FEF9FEF909334
:103E1000A5058093A4051092A7051092A60580EA37
:103E200094E09093A9058093A80580EA96E090938A
:103E3000AB058093AA0580E09FEF9093AD0580933A
:103E4000AC0580EA9CEF9093AF058093AE0580E0CF
:103E500098EC9093B1058093B00522ECE22E25E01A
:103E6000F22EF092B505E092B4058FE090E09093C9
:103E7000B7058093B6059093B9058093B805109265
:103E8000BB051092BA051FEF1093BC051092C10537
:103E90000E94B4066093BD057093BE058093BF0574
:103EA0009093C0058DE2F70111928A95E9F78FEEA4
:103EB00095E00E940105109232061092330610928E
:103EC000340682E792E09093F0058093EF0569EA6B
:103ED00072E086E396E00E94F91B0E94881D4AE08A
:103EE0000E949D1B86E396E00E94E31B80911005D3
:103EF000811144C01092020510920105109305052E
:103F000010930605109307051093080510930905F3
:103F100010930A0581E080930B0510920D05109215
:103F20000C0510920405109203058091FD049091F8
:103F3000FE04892B31F48FEF94E09093FE0480937C
:103F4000FD04E091FB04F091FC04309721F08FEF29
:103F500094E0958384838FEF94E09093FC048093A6
:103F6000FB0410920F0510920E058CE192E09093E5
:103F700000058093FF0481E0809310050D9A82EC88
:103F800095E090930205809301058FE090E0909377
:103F90000D0580930C058091D6069091D706A091CF
:103FA000D806B091D906843CF9E09F07A105B10578
:103FB00020F484EC99E0A0E0B0E08093D6069093E2
:103FC000D706A093D806B093D9068FEF94E09093CC
:103FD000BB058093BA0540E050E0BA018FEE95E052
:103FE0000E947F1A8EE393E00E94930F81E393E097
:103FF0000E94930F86E093E00E94930F80EC8983E8
:10400000BE016F5F7F4F8FEE95E00E942A1082E025
:104010008093350660E08FEE95E00E949A106091E3
:10402000A4057091A5058FEE95E00E9429151092C8
:10403000020610920106109200061092FF0561E040
:1040400084E00E945D0661E084E00E945D06E1EB91
:10405000F8E0E491E150E23108F078C2F0E088271E
:10406000EB5CFF4D8F4F0C948B334B20F921FF21DC
:104070000B221722A62223222C22352241224D2256
:1040800059226A227622A62282228E229A228FEF3B
:104090008093A105BACE84B5806884BD88EC87BDC5
:1040A00061E08FEE95E00E949A1062E082E10E944A
:1040B0005D0682E10E940606892B09F011C38FEE8E
:1040C00095E00E94E31B6DEC72E08FEE95E00E949C
:1040D000E71B8FEE95E00E94E31B65EE72E08FEE2A
:1040E00095E00E94E71B6EEF72E08FEE95E00E9474
:1040F000E71B67E173E08FEE95E00E94E71B86E324
:1041000096E00E94EE08E0914806F0914906808111
:104110008F7E8083E0914806F09149068081877FF9
:104120008083E0914806F091490680818F778083F3
:10413000E0914806F091490680818F7D80838091CF
:10414000500680934F0610E0143081F080ED810F0F
:10415000823060F08DEC810F823040F0153231F00A
:10416000153421F061E0812F0E945D061F5F163437
:1041700059F76E9A61E088E20E942F0682E10E9460
:104180000606892B09F0A4C21E8E1D8E8DE389833D
:104190008CE38A8381EF8B838FEF8C8390E49D8304
:1041A0009FE39E839AE29F839EE3988797E4998793
:1041B00099E19A879EE19B879FE19C8791E49D8787
:1041C0009CE29E879DE29F879EE2988B92E0998B6E
:1041D00097E39A8B92E49B8B91E29C8B97E19D8B6A
:1041E00094E49E8B93E49F8B96E1988F99E3998F4B
:1041F0009AE39A8F9CE19B8F91E09D8F88A395E134
:1042000099A394E19AA393E19BA398E39DA396E0DD
:1042100098A79EE099A79FE09AA79BE29BA790E2B0
:104220009CA794E29DA792E29EA792EF9FA788ABDE
:104230000E94DC162A962FAF2A972B963FAF2B971A
:104240002C964FAF2C972D965FAF2D972E966FAF74
:104250002E972F967FAF2F972D968EAD9FAD2D97D2
:104260002B962EAD3FAD2B972330310508F473C14B
:10427000892B09F470C189E08C8F0E94DC1660964E
:104280002FAF609761963FAF619762964FAF62978D
:1042900063965FAF639764966FAF649765967FAFE1
:1042A000659763968EAD9FAD639761962EAD3FADDA
:1042B00061972330310508F450C1892B09F44DC1B1
:1042C00085E08F8F0E94DC1666962FAF6697679603
:1042D0003FAF679768964FAF689769965FAF6997EA
:1042E0006A966FAF6A976B967FAF6B9769968EAD44
:1042F0009FAD699767962EAD3FAD67972330310527
:1043000008F42DC1892B09F42AC18AE08CA30E94EC
:10431000DC166C962FAF6C976D963FAF6D976E96CF
:104320004FAF6E976F965FAF6F97A0966FAFA097E6
:10433000A1967FAFA1976F968EAD9FAD6F976D964B
:104340002EAD3FAD6D972330310508F40AC1892B9E
:1043500009F407C186E38EA30E94DC16A2962FAF54
:10436000A297A3963FAFA397A4964FAFA497A59605
:104370005FAFA597A6966FAFA697A7967FAFA797B3
:10438000A5968EAD9FADA597A3962EAD3FADA397F5
:104390002330310508F4E7C0892B09F4E4C088E133
:1043A0008FA39E012F5F3F4F69010CE0F12CE12CA0
:1043B00082E10E940606892B09F0E5C0F601EE0DA8
:1043C000FF1D1081113F09F4FAC008F0CEC0173468
:1043D00009F4E6C061E0812F0E942F0660E570E0DD
:1043E00080E090E00E948C0760E0812F0E942F0601
:1043F000DFC084B5806284BD88EC88BD51CE8091D9
:10440000800080688093800088EC90E09093890021
:104410008093880045CE80918000806280938000E8
:1044200088EC90E090938B0080938A0039CE809145
:10443000800088608093800088EC90E090938D00ED
:1044400080938C002DCE8091B00080688093B00066
:1044500088EC8093B30024CE8091B000806280937A
:10446000B00088EC8093B4001BCE809190008068EF
:104470008093900088EC90E090939900809398004E
:104480000FCE8091900080628093900088EC90E045
:1044900090939B0080939A0003CE80919000886057
:1044A0008093900088EC90E090939D0080939C0016
:1044B000F7CD8091A00080688093A0008091A0003B
:1044C0008F7B8093A00088EC90E09093A90080936C
:1044D000A800E6CD8091A00080628093A00088ECC7
:1044E00090E09093AB008093AA00DACD8091A00079
:1044F00088608093A00088EC90E09093AD0080935A
:10450000AC00CECD8091200180688093200188ECA2
:1045100090E09093290180932801C2CD80912001E1
:1045200080628093200188EC90E090932B0180932F
:104530002A01B6CD8091200188608093200188EC0B
:1045400090E090932D0180932C01AACD61E084E04E
:104550000E942F06A5CD87E08FCE86E3B2CE88E0FD
:10456000D5CE88E1F8CE85E01BCF123F09F49FC07D
:104570001F3F09F02FCF3FEFE31AF30A84E0E8165C
:10458000F10409F015CF015094E0C90ED11C0111BE
:104590000DCF8091FA0491E089278093FA04EECD43
:1045A000769A60E570E080E090E00E948C07769853
:1045B00060E570E080E090E00E948C07DCCF8091A5
:1045C000FA04882379F10E94DC162FAB38AF49AF8B
:1045D0005AAF6BAF7CAF89AD9AAD2FA938AD233000
:1045E0003105E0F0892BD1F087E060E00E942F06D2
:1045F0000E94DC1629AB3AAB4BAB5CAB6DAB7EAB30
:104600008BA99CA929A93AA92330310548F0892B07
:1046100039F088E061E00E942F06ADCF8AE0E5CF57
:1046200089E0F8CF0E94DC162DAF3EAF4FAF219648
:104630005FAF219722966FAF229723967FAF239784
:1046400021968EAD9FAD21972DAD3EAD2330310526
:1046500050F1892B41F187E061E00E942F060E9412
:10466000DC1624962FAF249725963FAF25972696E4
:104670004FAF269727965FAF279728966FAF28975B
:1046800029967FAF299727968EAD9FAD27972596C0
:104690002EAD3FAD25972330310538F0892B29F019
:1046A00088E060E0B8CF8AE0D7CF89E0FACF809188
:1046B000FA04882339F060E08BE00E942F0661E065
:1046C0008CE0A9CF61E08BE00E942F0660E0F8CF7C
:1046D0006091A4057091A5058FEE95E00E942915C3
:1046E00062E08CE30E945D0662E082E20E945D0669
:1046F0008CE30E940606892B09F0D7C182E20E9452
:104700000606892B09F0D1C16FEF7FEF8FEE95E0A0
:104710000E9429151092FC051092FB051092FE05CF
:104720001092FD0583E20E944D145090FB058FEE20
:1047300095E00E94E31B8091FD05E82F880FFF0B99
:10474000A996FFAFEEAFA997E090A405F090A5055C
:10475000252D220F330B8F0150E040E070E060E028
:104760008FEE95E00E94D90D1092FC051092FB058A
:104770001092FE051092FD0510920206109201069D
:10478000109200061092FF058FEE95E00E94E31B49
:1047900060E373E08FEE95E00E94E71B68E473E04E
:1047A0008FEE95E00E94E71B60E673E08FEE95E0E8
:1047B0000E94E71B68E773E08FEE95E00E94F91B0B
:1047C00080E098EF90930206809301069093000694
:1047D0008093FF0588E50E944D1410920206109206
:1047E0000106109200061092FF056CE773E08FEE51
:1047F00095E00E94E71B68E773E08FEE95E00E946A
:10480000F91B8FE190E0909302068093010690934C
:1048100000068093FF0586E50E944D141092020663
:1048200010920106109200061092FF0560E973E0F5
:104830008FEE95E00E94E71B68E773E08FEE95E04E
:104840000E94F91B00E01CE0109302060093010691
:10485000109300060093FF058FE40E944D14109200
:10486000020610920106109200061092FF0564EAFB
:1048700073E08FEE95E00E94E71B68EB73E08FEE2C
:1048800095E00E94E71B60ED73E08FEE95E00E94DB
:10489000E71B68EE73E08FEE95E00E94E71B60E097
:1048A00074E08FEE95E00E94F91BC090FB05D0905C
:1048B000FC056090FD057090FE05109302060093C4
:1048C0000106109300060093FF0516E08FE40E9496
:1048D0004D141150D9F71092020610920106109251
:1048E00000061092FF0565EF73E08FEE95E00E94E1
:1048F000E71B6EE174E08FEE95E00E94E71B66E334
:1049000074E08FEE95E00E94E71BA090FD05B0904B
:10491000FE056DEC73E08FEE95E00E94F91B809030
:10492000FB059090FC056AEB73E08FEE95E00E942A
:10493000E71B60E373E08FEE95E00E94E71B352DE7
:1049400086E0380290011124AB963FAF2EAFAB97B3
:10495000F52D24E1F202F0011124AD96FFAFEEAF88
:10496000AD977724DD24BB2499248FE1282E312CA8
:10497000412C98EF592EE090A405F090A505A9963A
:104980000EAD1FADA997AB962EAD3FADAB97A30172
:10499000B6018FEE95E00E94D90DE090A405F0904D
:1049A000A505A9960EAD1FADA997AD962EAD3FAD4D
:1049B000AD97A501B4018FEE95E00E94D90D61E09D
:1049C00082E00E945D0662E086E10E945D0661E091
:1049D00070E080E090E00E948C0786E10E9406066D
:1049E00001E0892B09F400E087E30E9499064597CE
:1049F00008F0026082E40E9499068C3E934008F41D
:104A0000046061E081E20E945D0662E087E10E944D
:104A10005D0661E070E080E090E00E948C0787E135
:104A20000E940606892B09F0086084E40E9499061A
:104A3000459708F0006183E40E9499068C3E9340FC
:104A400008F40062D092FC05C092FB057092FE054E
:104A50006092FD05002309F458C00F3309F06EC0C1
:104A600020E03CE0309302062093010630930006DC
:104A70002093FF0516E08FE40E944D141150D9F7E2
:104A80009092FC058092FB05B092FE05A092FD0578
:104A90006EE474E08FEE95E00E94F91B64EF71E024
:104AA00080E090E00E948C0766CF68E074E086E3C7
:104AB00096E00E94F91B0E94BF074AE00E949D1BDE
:104AC00067E174E086E396E00E94F91B81E0809341
:104AD000180581EA95E0C459DF4F0FB6F894DEBFA0
:104AE0000FBECDBFDF91CF911F910F91FF90EF903F
:104AF000DF90CF90BF90AF909F908F907F906F90FE
:104B00005F904F903F902F90089530920206209230
:104B10000106309200062092FF0516E086E50E940D
:104B20004D141150D9F79092FC058092FB05B0927C
:104B3000FE05A092FD056DE574E0ACCFF12CE12CF3
:104B400010E0C8010E2C02C0959587950A94E2F7F3
:104B500080FF25C050920206409201065092000646
:104B60004092FF0588E50E944D143FEFE31AF30AD7
:104B700086E0E816F10429F75092020640920106F9
:104B8000509200064092FF059092FC058092FB0532
:104B9000B092FE05A092FD0569E674E07BCF3092ED
:104BA000020620920106309200062092FF0586E55B
:104BB000DACFBF92CF92DF92EF92FF920F931F93C3
:104BC000CF93DF93CDB7DEB72C970FB6F894DEBF47
:104BD0000FBECDBF8C010E94881D6B017C012AEEA7
:104BE000C21A21E7D20A2FE0E20AF108E6E0CE1667
:104BF000EEE8DE06E0EFEE06EFEFFE0688F10E943B
:104C0000CF1EFC01E25BFF4F8AE090E0958784872E
:104C100084E690E0978786870E94CF1EFC01E25BC6
:104C2000FF4F81E0848B858B0E94CF1E64E774E088
:104C3000825B9F4F0E94F91B0E94881D6B017C01C3
:104C4000FAEECF1AF1E7DF0AFFE0EF0AF10826E0FB
:104C5000C2162EE8D20620EFE2062FEFF20670F51C
:104C60007E01E7E0EE0EF11CAB01BC01C7010E9422
:104C7000A11C8B859C858A30910508F0D7C067EA16
:104C800072E0CE0101960E94FA1CB701CE01019696
:104C90000E94631C8E159F0561F0FC01608171818B
:104CA0006115710509F4BEC044815581C7010E9498
:104CB000761CCE0101960E940B1DDBCF69E874E0E3
:104CC00086E396E00E94E71B0E94BF076B017C0110
:104CD000F0E3CF0EF5E7DF1EE11CF11C86E396E062
:104CE0000E946908892BC1F40E94BF07C616D70627
:104CF000E806F90698F768EF70E485E39CE30E9404
:104D0000B61D6CEA74E086E396E00E94E71BE6CFEE
:104D100086E396E00E9415080E943708FC0197FD83
:104D20007DC08D32910519F0C0970A9788F7C12C84
:104D3000D12C7601B12CE130F105D9F0ED32F1053D
:104D400009F469C0CF01C0970A9798F4AAE0B0E0CF
:104D5000A70196010E9447326F01FF0FEE08FF087E
:104D6000C60ED71EE81EF91E20E3C21AD108E108BC
:104D7000F10886E396E00E9415080E943708FC01BE
:104D8000C0970A97C0F2E130F105A9F2BB2041F0CB
:104D9000F094E094D094C094C11CD11CE11CF11C8F
:104DA000D701C6018A5E9147AF40B10986309E485F
:104DB000A04FBF4F08F040CFC701B6010E94B61DFB
:104DC00061EC74E086E396E00E94F91BCE01019647
:104DD0000E94D925BE016F5F7F4F86E396E00E9457
:104DE000CB07CE0101960E940B1DB701A601C80199
:104DF0000E94A11CC8012C960FB6F894DEBF0FBE0E
:104E0000CDBFDF91CF911F910F91FF90EF90DF9079
:104E1000CF90BF900895BB24B394ABCFC12CD12CBD
:104E20007601BECFC7010E94511C43CF2F81388528
:104E3000F8013183208329853A8533832283958342
:104E4000848318861F821A8619861C861B86C701D2
:104E50000E940B1DCFCF1F920F920FB60F921124FD
:104E60002F933F938F939F93AF93BF938091990517
:104E700090919A05A0919B05B0919C053091980561
:104E800023E0230F2D3758F50196A11DB11D209366
:104E900098058093990590939A05A0939B05B093EC
:104EA0009C0580919D0590919E05A0919F05B091D4
:104EB000A0050196A11DB11D80939D0590939E05AF
:104EC000A0939F05B093A005BF91AF919F918F9143
:104ED0003F912F910F900FBE0F901F90189526E8CD
:104EE000230F0296A11DB11DD2CF1F920F920FB6B4
:104EF0000F9211240BB60F922F933F934F935F9312
:104F00006F937F938F939F93AF93BF93EF93FF9391
:104F100086E396E00E947F08FF91EF91BF91AF91E9
:104F20009F918F917F916F915F914F913F912F91C1
:104F30000F900BBE0F900FBE0F901F9018951F92F1
:104F40000F920FB60F9211240BB60F922F938F93DF
:104F50009F93EF93FF93E0914606F091470680817F
:104F6000E0914C06F0914D0682FD1DC0908180912C
:104F70004F068F5F8F7320915006821741F0E091AA
:104F80004F06F0E0EA5CF94F958F80934F06FF9152
:104F9000EF919F918F912F910F900BBE0F900FBEAD
:104FA0000F901F9018958081F2CF1F920F920FB62D
:104FB0000F9211240BB60F922F933F934F935F9351
:104FC0006F937F938F939F93AF93BF93EF93FF93D1
:104FD00048E251E064E271E090E080E00E943F0925
:104FE000FF91EF91BF91AF919F918F917F916F91C1
:104FF0005F914F913F912F910F900BBE0F900FBE7D
:105000000F901F9018951F920F920FB60F921124B8
:105010000BB60F922F933F934F935F936F937F93B2
:105020008F939F93AF93BF93EF93FF9348EA50E022
:1050300064EA70E083E090E00E943F09FF91EF9105
:10504000BF91AF919F918F917F916F915F914F91A0
:105050003F912F910F900BBE0F900FBE0F901F909E
:1050600018951F920F920FB60F9211240BB60F9244
:105070002F933F934F935F936F937F938F939F9360
:10508000AF93BF93EF93FF9348E950E064E970E07A
:1050900082E090E00E943F09FF91EF91BF91AF91B4
:1050A0009F918F917F916F915F914F913F912F9140
:1050B0000F900BBE0F900FBE0F901F9018951F9270
:1050C0000F920FB60F9211240BB60F922F933F93AE
:1050D0004F935F936F937F938F939F93AF93BF9300
:1050E000EF93FF9348E850E064E870E081E090E0DF
:1050F0000E943F09FF91EF91BF91AF919F918F91D6
:105100007F916F915F914F913F912F910F900BBEC7
:105110000F900FBE0F901F9018951F920F920FB611
:105120000F9211240BB60F922F933F934F935F93DF
:105130006F937F938F939F93AF93BF93EF93FF935F
:105140008091B900887F803609F44DC008F040C0D6
:10515000883209F4A7C028F5803109F49BC0C8F44F
:10516000882309F4F7C0883009F494C0FF91EF91C7
:10517000BF91AF919F918F917F916F915F914F916F
:105180003F912F910F900BBE0F900FBE0F901F906D
:105190001895883109F486C0803241F780936C05F8
:1051A00014C0803409F49BC040F48033B9F38833D1
:1051B000E9F680936C0585ECAEC0803509F483C0B8
:1051C000883509F494C0883489F60E94131DCECF27
:1051D000883909F48AC038F5883729F050F48836C0
:1051E00011F0803719F683E080936D0510926B05FE
:1051F00055C0883809F479C0803919F0803809F031
:10520000B5CF80916B05803208F06FC0E0916B05DF
:1052100081E08E0F80936B058091BB00F0E0E55B31
:10522000FA4F80833BC0803B39F0D0F4803A09F4D8
:1052300077C0883A09F09ACF84E080936D05109288
:105240004A0510924905F0E0E0E019958091490582
:1052500081110FC081E0809349051092290509C092
:10526000803C09F4A8CF883C09F4A5CF883B09F01D
:105270007DCFE0914A0581E08E0F80934A05F0E0F2
:10528000E75DFA4F80818093BB0090914A05809141
:10529000490529C0809192058093BB0085EC8093DD
:1052A000BC0064CF9091910580919005981758F5B6
:1052B000E091910581E08E0F80939105F0E0E05937
:1052C000FA4F8081E9CFE091910581E08E0F8093C4
:1052D00091058091BB00F0E0E059FA4F80839091F6
:1052E0009105809190059817C8F285E8D8CFE09194
:1052F000910581E08E0F809391058091BB00F0E0D5
:10530000E059FA4F808380916F0581115ECF81E073
:1053100080936E0584EA8093BC0010926D0526CFC1
:1053200085EC8093BC0010926D0580916B058032F6
:1053300030F4E0916B05F0E0E55BFA4F108260918C
:105340006B0570E08BE495E0F0E0E0E019951092D9
:105350006B050CCF10926C0538CF10923906109265
:10536000380688EE93E0A0E0B0E080933A06909390
:105370003B06A0933C06B0933D0680E692E09093F6
:1053800037068093360685EC90E090934306809331
:10539000420684EC90E0909345068093440680ECAE
:1053A00090E0909347068093460681EC90E09093BE
:1053B00049068093480682EC90E090934B068093D8
:1053C0004A0686EC90E090934D0680934C0610922E
:1053D0004F061092500610925106109252069FEFFF
:1053E0009093D3061092D5061092D4061092DF0641
:1053F0001092DE064FEF5FEFBA014093DA0650934A
:10540000DB066093DC067093DD064CEF5FE060E046
:1054100070E04093E0065093E1066093E2067093DB
:10542000E30680917507803318F591E0980F90930B
:1054300075078093BD0790E0FC01EE0FFF1FE80F9A
:10544000F91FEB51F94F88EB9BE09283818386E74C
:1054500097E00E9401051092B9071092BA071092C6
:10546000BB0782E792E090937707809376070895D1
:105470009093BD07ECCFCF93DF93CDB7DEB7E39723
:105480000FB6F894DEBF0FBECDBF789484B58260AE
:1054900084BD84B5816084BD85B5826085BD85B5D8
:1054A000816085BD80916E00816080936E00109256
:1054B00081008091810082608093810080918100D1
:1054C0008160809381008091800081608093800062
:1054D0008091B10084608093B1008091B0008160C0
:1054E0008093B000809191008260809391008091C0
:1054F0009100816080939100809190008160809301
:1055000090008091A10082608093A1008091A10011
:1055100081608093A1008091A00081608093A000B1
:10552000809121018260809321018091210181601D
:1055300080932101809120018160809320018091DE
:105540007A00846080937A0080917A0082608093F0
:105550007A0080917A00816080937A0080917A004D
:10556000806880937A001092C100E0914606F09125
:10557000470682E0F82EF082E0914206F091430661
:105580001082E0914406F09145068FEC80831092E2
:105590004E06E0914A06F0914B0686E08083E0914A
:1055A0004806F0914906808180618083E091480639
:1055B000F0914906808188608083E0914806F091EF
:1055C0004906808180688083E0914806F091490611
:1055D00080818F7D80830E94CF1EFC01E25BFF4FA4
:1055E0000AE010E015870487178706870E94CF1E00
:1055F00061E0825B9F4F0E949A100E94CF1EFC01C7
:10560000E25BFF4FF48AF58A0E94CF1E67ED74E0DB
:10561000825B9F4F0E94F91B0E94CF1EFC01E25B40
:10562000FF4F158704878EE190E0978786870E9459
:10563000CF1E7C010E94DC16CE0101960E940C1E3A
:1056400064EE74E0CE0188960E94FA1CBE016F5F82
:105650007F4FCE0188960E94631CBC01C701825B0C
:105660009F4F0E94CB07CE0188960E940B1DCE0152
:1056700001960E940B1D0E94CF1EFC01E25BFF4FB2
:105680001587048782E390E0978786870E94CF1E64
:105690007C0181E0282F88A719A683E0482F8AA7DC
:1056A0001BA686E0682F8CA71DA630E050E070E0B6
:1056B000CE0101960E940C1E68EE74E0CE018E961B
:1056C0000E94FA1CBE016F5F7F4FCE018E960E9432
:1056D000631CBC01C701825B9F4F0E94CB07CE01B8
:1056E0008E960E940B1DCE0101960E940B1D0E94FA
:1056F000CF1EFC01E25BFF4F1587048786E490E034
:10570000978786870E94CF1E825B9F4F5C010E9415
:10571000CF1E85E40E949906BC01990F880B990B56
:105720000E94143120E030E040EA50E40E947331DE
:1057300020E030E040E85AE30E94733120E030E09E
:10574000A9010E9484326B017C012BE734E146E819
:1057500050E40E94623318160CF496C224E13EEA2B
:1057600047E850E4C701B6010E940D3187FFCAC067
:105770002CE53FE842E850E4C701B6010E946233DD
:1057800018160CF0BFC024E13EEA47E850E4C70118
:10579000B6010E94833220E030E040E751EC0E94E5
:1057A000733120E037ED43E25EEB0E94F03220E0FF
:1057B00030E048EC52E40E9484321FA61EA619AACB
:1057C00018AA1BAA1AAA8E010F5F1F4F22E044E0FD
:1057D0000E94522E009709F460C2BC01CE018E9641
:1057E0000E94971C6EEE74E0CE0101960E94FA1C96
:1057F000BE01625D7F4FCE0101960E94631C8C0149
:1058000041E050E064EF74E00E94251C811103C068
:10581000C8010E94511CB801C5010E94CB07CE01EE
:1058200001960E940B1DCE018E960E940B1D0E94B8
:10583000CF1EFC01E25BFF4F8AE090E095878487F2
:1058400088E790E0978786870E94CF1EFC01E25B85
:10585000FF4F81E0848B858B0E94CF1E8C01CE018F
:1058600001960E94D92566EF74E0CE018E960E94C3
:10587000FA1CBE016F5F7F4FCE018E960E94631CA3
:10588000BC01C801825B9F4F0E94CB07CE018E9660
:105890000E940B1DCE0101960E940B1D0E94CF1E7F
:1058A0004FEF50E060E070E00E94D90664EF71E0D5
:1058B00080E090E00E948C070E94CF1E40E05FEFE6
:1058C00060E070E00E94D90664EF71E080E090E053
:1058D0000E948C070E94CF1E40E050E06FEF70E006
:1058E0000E94D90664EF71E080E090E00E948C078E
:1058F0000E94CF1E40E050E0BA010E94D9060E94EB
:105900000E09FDCF2CE53FE842E850E4C701B6019F
:105910000E940D3187FF23C025E83BEE41E850E4AB
:10592000C701B6010E9462331816CCF42CE53FE89B
:1059300042E850E4C701B6010E94833220E433E319
:1059400043E550EC0E94733120E037ED43EA5CEB15
:105950000E94F03220E030E04AEA52E42CCF25E801
:105960003BEE41E850E4C701B6010E940D3187FFCC
:1059700023C027ED33EA40E850E4C701B6010E9496
:1059800062331816CCF425E83BEE41E850E4C70139
:10599000B6010E94833220E030E040EA50EC0E94E1
:1059A000733120E037ED43E25DEB0E94F03226E6F2
:1059B00036E643EA52E4FFCE27ED33EA40E850E40E
:1059C000C701B6010E940D3187FF23C022E538EBE5
:1059D0004EE750E4C701B6010E9462331816CCF4BA
:1059E00027ED33EA40E850E4C701B6010E94833254
:1059F00020E233E343E550EC0E94733120E037EDC1
:105A000043E25DEB0E94F03226E636E649E952E4D5
:105A1000D2CE22E538EB4EE750E4C701B6010E9432
:105A20000D3187FF23C02CEE31E548E750E4C70174
:105A3000B6010E9462331816CCF422E538EB4EE72B
:105A400050E4C701B6010E94833220E030E040E715
:105A500051EC0E94733120EC3CEC4CEC5DEB0E946D
:105A6000F0322DEC3CEC42E952E4A5CE2CEE31E5CF
:105A700048E750E4C701B6010E940D3187FF23C0FB
:105A800023E333E343E750E4C701B6010E946233E6
:105A90001816CCF42CEE31E548E750E4C701B60106
:105AA0000E9483322AE939E941E152EC0E947331C4
:105AB00020E237ED43EA5DEB0E94F0322AE939E952
:105AC00049E652E478CE23E333E343E750E4C701E9
:105AD000B6010E940D3187FF23C02FE135E84BE668
