:020000040000FA
:100000000C9439500C94F5C70C94CAC70C949FC734
:100010000C9474C70C9449C70C941EC70C94F3C677
:100020000C94C8C60C946A500C946A500C946A5094
:100030000C946A500C944AC90C946A500C946A50FF
:100040000C946A500C940F890C946A500C946A506A
:100050000C946A500C946A500C946A500C947BC5B2
:100060000C946A500C94B4D40C948AD40C946A50B6
:100070000C946A500C946A500C946A500C946A5018
:100080000C94E1880C946A500C946A500C946A5059
:100090000C946A500C946A500C946A500C941B7324
:1000A0000C946A500C946A500C94B3880C946A5067
:1000B0000C946A500C946A500C946A500C94858885
:1000C0000C946A500C946A500C946A500C946A50C8
:1000D0000C946A500C946A500C946A500C946A50B8
:1000E0000C946A500C94AE620C94C4BB0C94405CAB
:1000F0000C9438600C9486B70C94BA500C947863C6
:100100000C94E75C0C9438910C9452AA0C944AC25B
:100110000C9499B70C94485C0C9470840C9414B8AB
:100120000C94CD770C94747A0C9464A10C94CDA5A6
:100130000C94185D0C94D1B80C94FBBB0C94818F7B
:100140000C9418930C94435C0C94A9A50C94D26065
:100150000C940EA30C94D78F0C94ED930C9409C2BD
:100160000C94A8920C940E5D0C94F4630C94367F5E
:100170000C946C500C94A2620C94BDC10C94A2BB64
:100180000C9470810C9493B80C94CC630C94EBC1D8
:100190000C94E5500C949EBB0C94F4500C945D644C
:1001A0000C94566B0C943C8F0C941BB70C948CB82D
:1001B0000C948C500C947F620C949E630C942B5383
:1001C0000C940ABC0C94B8C10C94465C0C94B3A378
:1001D0000C94C0B70C9425E00C940CB80C9441A579
:1001E0000C941E610C94FC570C94FF690C94B0BBEA
:1001F0000C94407B0C949C500C946AB70C94756CD6
:100200000C945BB70C94F0960C9473B80C94BEBB32
:100210000C94EB600C9412770C94C1660C945DAF57
:100220000C9453B90C94A5B70C9495BB0C94DA6359
:100230000C9475B90C94CDBB0C9483600C94E95F5D
:100240000C9491BB0C94E76A0C94FCA50C9436A01A
:100250000C9498BB0C9479B20C94D05A0C9453A380
:100260000C943AB90C941A5D0C9467B90C9481A55E
:100270000C94C28E0C94848E0C942CBC0C942DB9CE
:100280000C942FB80C94FFB70C9434510C94745800
:100290000C94EF7D0C94E7840C9472A50C9459A5F2
:1002A0000C94E5600C94748F0C94C58F0C94C3BBB4
:1002B0000C94928E0C9464BC0C9459A40C94E65D3E
:1002C0000C94C7C10C9436C20C94EE5C0C94479EFF
:1002D0000C9429B70C94EA5C0C9422C20C94E75F4E
:1002E0000C9440C20C944CA80C94E2900C949A8408
:1002F0000C944D630C94CEBB0C94BE5A0C94109F7E
:100300000C948D640C941EBC0C94DD530C9493944B
:100310000C944C8F0C94B0C10C9438B80C94EE7CB7
:100320000C9415860C94B9500C94A45C0C945777DB
:100330000C9483BB0C94026C0C94E4500C947A8162
:100340000C94D1C10C94E55F0C945AB90C94B6BBD3
:100350000C949B620C94E2500C941F900C94A8BBDC
:100360000C942D880C94B0910C94E3C10C9478B744
:100370000C94FFC10C94FD6E0C94FE630C94F5C1BB
:100380000C943F7E0C94C4AA0C94F08F0C94B1BCD6
:100390000C94CCB70C9402B90C94AD8F0C94E35030
:1003A0000C9436790C949C530C948DBB0C94038F55
:1003B0000C94C1A50C94BE620C949F6C0C94C8BBA9
:1003C0000C94ACBB0C943CB70C94D9E00C9447B99A
:1003D0000C943BA50C94005C0C9478A60C94E9E07A
:1003E0000C94B2500C9455A10C94107F0C94775936
:1003F0000C94E6BD0C94CB560C94B77E0C94CCBBFD
:100400000C949D570C9436E00C94D88E0C9489BBB8
:100410000C947FB80C94B4840C94BABB0C946B64A9
:100420000C94DBC10C94E35F0C9464A70C942B63D5
:100430000C941D540C94BA520C94DCA50C942269B3
:100440000C9407510C9418C20C947DA50C9460B8C0
:100450000C9491540C94AF8F0C94C4630C940F5D66
:100460000C942CC20C945684000000000A00010079
:100470000005190C04E810000D091102E71F001413
:10048000181300E95B00131D1300E7A0001D191FDE
:1004900001E8FB0016191902E8400105090902E705
:1004A000460109210C01E76C0109210C01E79201C9
:1004B0000C0B0E00E7A30110101402F1C301050B91
:1004C0000902FCCA0109040C01F6CF010505090265
:1004D000FCD30109190A00E8F00111191301E826FB
:1004E000020A191303E8460211191301E87C0211EC
:1004F000191301E8B20210191302E8E402111913EA
:1005000001E81A0312191301E8530311191301E842
:10051000890311191301E8BF0311191301E8F50349
:1005200005120902EF010405180902EF1004121167
:100530001401F03704110C1402F3510412111401C8
:10054000F07804121A1502E7B304201F2201E72FE6
:1005500005181A1800E77D05141A1903E7BE0517D8
:100560001A1901E70906151A1903E74E06131A1797
:1005700003E78C06111A1603E7C406181A1B01E7D5
:100580001207141A1A03E75307051A0B03E7640747
:10059000101A1401E79807161A1903E7E007111A51
:1005A0001603E71808181A1E03E76608141A1A0338
:1005B000E7A708191A1B01E7F908131A1803E73708
:1005C00009191B1B01E78C09151A1903E7D1091436
:1005D0001A1802E7120A131A1702E7500A141A1A15
:1005E00003E7910A161A1701E7D90A201A2201E730
:1005F000410B161A1801E7890B151A1601E7CE0BE5
:10060000131A1501E70C0C08210C02E72D0C0A192E
:100610000A00E84D0C08210C01E76E0C100F1402C3
:10062000E98C0C150313FF05940C07050901E799E4
:100630000C12131401EEC40C121A1602E7FF0C116F
:10064000131401EE280D131A1601E7660D12131488
:1006500001EE910D0A1A0C01E7B20D121A1501EE06
:10066000ED0D111A1502E7250E051A0A02E7360EDE
:1006700007210A00E7530E111A1402E78B0E051A20
:100680000902E79C0E1B131F02EEDD0E111315026B
:10069000EE060F13131501EE340F121A1602EE6F49
:1006A0000F131A1601EEAD0F0B130E02EEC80F1149
:1006B000131301EEF10F09170C01EA0B10111315BA
:1006C00002EE341013131300EE62101B131B00EE26
:1006D000A31012131301EECE10131A1300EE0C1117
:1006E00010131201EE321109210E01E758110321F6
:1006F0000A04E7651109210E03E78B110F061201A9
:10070000F6FFFFFFFFFFFFFEE739CE73800FFFFF0D
:10071000F8F8FFC7FE3FF1FF8FFC7DC1CE0E707071
:1007200003C3803C7803C7803878078707FFFF7FC3
:10073000FFF7FFFF7FFFF0F0E00F0E00F1E00F1E6C
:1007400000E1E0FFFFCFFFFCFFFFCFFFFC1C3C03FD
:10075000C3803C7803C78038780387800060007FBF
:10076000803FFC0FFFC3FFFCFCDF9F19FBC31F781A
:1007700063EF8C01FD801FF001FFC01FFE007FE0D2
:1007800003FE0067E00C7FE18FFC31FFC63EFCDF1B
:100790009FFFF1FFFC0FFF007F800180003000060B
:1007A000000F001C01FE00E01FF80E00FFC0700FDC
:1007B0000F07007038380381C3801C0E3C00F0F135
:1007C000C003FF1C001FF8E0007F8E0000F070F8EF
:1007D00000071FF00039FFC0038FFE001CF07801F6
:1007E000C701C00C380E00E1C070060F0780703FD3
:1007F000F80701FFC03807FC03800F8001F0001FDD
:10080000E000FFC003FF801F1E007C7801F1E007BD
:10081000E7800FBC001FE0003F0001F8001FF0F070
:10082000FFE3C7E7CF3F0FF8F83FE3E07F8F80FC9F
:100830003F03F07E3FE1FFFF83FFFF07FE7E07F0EF
:10084000FCFFFFFFFDCE70078783C3C1E1E0F078B6
:10085000783C1E1E0F0783C1E0F0783C1E0F038119
:10086000E0F0781E0F0381E0703C0E0780F0381E28
:100870000783C0F0783C0F0783C0F0783C1E0F0759
:1008800083C1E0F078783C1E0F0F078783C1C1E079
:10089000E0F00006006006076E7FE3FC0F01F81F22
:1008A000839C108003C003C003C003C003C003C007
:1008B000FFFFFFFFFFFFFFFF03C003C003C003C034
:1008C00003C003C0FFFFFF8C6337B0FFFFFFFFF0E3
:1008D000FFFFFF800181C0C0607038180C0E060356
:1008E0000181C0C0603038180C0E07030181C0C000
:1008F0000007F00FFE0FFF87FFC7E3F3E0F9F07D7D
:10090000F01FF80FFC07FE03FF01FF80FFC07FE030
:100910003FF01FF80FFC07DF07CF83E7E3F1FFF09D
:10092000FFF83FF807F00001C0F03C1F1FFFFFFF7A
:10093000FF07C1F07C1F07C1F07C1F07C1F07C1FBF
:1009400007C1F07C1F07C007F00FFE0FFF8FFFE706
:10095000E3F7E0FFE03FF01FF80F8007C007E00378
:10096000E003F003F007F007F007E007E007C00737
:10097000C003E003FFFDFFFEFFFF7FFF8007E00FE6
:10098000FC0FFF0FFFCFC3F7C0FBE07DF03E001F61
:10099000001F000F803F801FC00FF000FC003F00D1
:1009A0000FFC07FE03FF83F7C3F3FFF8FFF83FF8E0
:1009B00007F00000FC00FC01FC01FC03FC077C07C5
:1009C0007C0E7C0E7C1C7C187C387C707C607CE00F
:1009D0007CFFFFFFFFFFFFFFFF007C007C007C002F
:1009E0007C007C007C1FFF0FFF8FFFC7FFE3C0016F
:1009F000E000E000700079F03FFE1FFF8FFFE7C3CB
:100A0000F000FC003E001F000F8007FE03FF03FF05
:100A1000C3F3FFF1FFF83FF007E00003F803FF81A5
:100A2000FFF0FFFE3E1F9F03E7C003E000F8F83E23
:100A3000FF8FFFF3FFFEFE1FBF03FF807FE01FF865
:100A400007FE01F7807DF03E7E1F8FFFC1FFF03F64
:100A5000F003F000FFFFFFFFFFFFFFFFF000F000DB
:100A6000F800F80078007C003C003E001E001F00EB
:100A70000F000F8007C003C003E001F000F800780A
:100A8000007C003E001F000F800007E007FC0FFF06
:100A900007FFC7C3F3C0F9E03CF01E781F1E1F0715
:100AA000FF01FF03FFE3F1F9F07DF01FF80FFC07F2
:100AB000FE03FF83F7C3F3FFF8FFF83FF807F000EA
:100AC00007E00FFC0FFF0FFFC7E3F7E0FBE03DF08F
:100AD0001FF80FFC07FE03FF83F7E3FBFFFCFFFE9D
:100AE0003FDF07CF80078003DF03E7C3E3FFF0FFAB
:100AF000F03FF007E000FFFFFF80000000007FFFF5
:100B0000FFC0FFFFFF80000000007FFFFFC6339B98
:100B1000D80000C000F001FC03FF03FF07FE0FFC3C
:100B200003F800F0003F800FFC007FE007FF003F6C
:100B3000F001FC001F0000C0FFFFFFFFFFFFFFFFF1
:100B4000F00000000000000000FFFFFFFFFFFFFFBC
:100B5000FFF0C0003C000FE003FF003FF001FF800A
:100B60000FFC007F0003C007F00FFC1FF83FF83FA9
:100B7000F00FE003C000C0000007F007FF03FFF123
:100B8000FFFC7E3FBF03FF807FE01FF807C003F03C
:100B900001FC00FE007F003F801FC007C003E00093
:100BA000F0003C000000000000F8003E000F800351
:100BB000E000F8000007FC00003FFF0000FFFFC05E
:100BC00001F807F003E001F80780007C0F00003C0B
:100BD0001E03E39E3C0FF78E381FFF0E783E1F0763
:100BE00070380F0770780F07E0700E07E0700E077F
:100BF000E0E00E07E0E01E0FE0E01C0EE0E03C1E2F
:100C0000E0F03C3CF0F0FC7C707FFFF8783FCFF0E8
:100C10003C1F07C03E0000001F0000000FC0010085
:100C200007F00F0003FFFF0000FFFF00001FF800A8
:100C3000007E00007F00007F0000FF0000FF8001B9
:100C4000FF8001FF8001F7C003E7C003E7C003E3B3
:100C5000E007C3E007C3E007C1F00F81F00F81F0A8
:100C60000FFFF81FFFF81FFFFC1FFFFC3E007C3E3C
:100C7000007E3E003E7C003E7C003F7C001FFFFC6F
:100C80000FFFF0FFFF8FFFFCF807EF803EF803EF48
:100C9000803EF803EF803EF807CFFFF8FFFF0FFF1D
:100CA000F8FFFFCF807EF801EF801FF801FF801F63
:100CB000F801FF803EFFFFEFFFFCFFFF8FFFE0002A
:100CC000FF0007FF803FFFC0FFFFC3F81F87E01F43
:100CD0009F801F3E001F7C003FF00003E00007C024
:100CE000000F80001F00003E00007C0000F80000A4
:100CF000F8007DF000FBF003F3F00FC7F03F87FF33
:100D0000FE07FFF803FFC001FE00FFFC07FFF83FEE
:100D1000FFE1FFFF8F80FE7C01F3E007DF003EF87C
:100D200001F7C007FE003FF001FF800FFC007FE0ED
:100D300003FF001FF800FFC00FFE007DF003EF80EF
:100D40003E7C07F3FFFF1FFFF0FFFF07FFE000FF00
:100D5000FFDFFFFBFFFF7FFFEF8001F0003E00079A
:100D6000C000F8001F0003E0007FFFCFFFF9FFFF86
:100D70003FFFE7C000F8001F0003E0007C000F8089
:100D800001F0003FFFFFFFFFFFFFFFFFFCFFFFFF42
:100D9000FFFFFFFFFFFF8007C003E001F000F80046
:100DA0007C003E001FFFEFFFF7FFFBFFFDF000F8A8
:100DB000007C003E001F000F8007C003E001F00030
:100DC000F8007C0000007F8003FFE007FFF80FFFC2
:100DD000FC1FC0FE3F007E7E003F7C001F7C0000A9
:100DE000F80000F80000F80000F803FFF803FFF82F
:100DF00003FFF803FFFC000F7C001F7C001F7E0038
:100E00003F3F007F1FC1FF0FFFFF07FFE703FFC743
:100E100000FF07F801FF801FF801FF801FF801FFA6
:100E2000801FF801FF801FF801FF801FFFFFFFFFF9
:100E3000FFFFFFFFFFFFF801FF801FF801FF801F8A
:100E4000F801FF801FF801FF801FF801FF801FF8E5
:100E500001FF801FFFFFFFFFFFFFFFFFFFFFFFFFFF
:100E6000FFFFFFFFC0001F001F001F001F001F002B
:100E70001F001F001F001F001F001F001F001F007A
:100E80001F001F001FF81FF81FF81FF81FF81FFC96
:100E90003F7FFE3FFC1FF807E0F801FBE00FCF802B
:100EA0007E3E03F0F81F83E0FC0F87E03E3F00F832
:100EB000F803E7E00FBF003FF800FFF003FFE00F8B
:100EC000FF803FBF00FC7E03E0FC0F81F83E07E09F
:100ED000F80FC3E01F8F807F3E00FCF801FBE003AA
:100EE000F0F8007C003E001F000F8007C003E00107
:100EF000F000F8007C003E001F000F8007C003E0F8
:100F000001F000F8007C003E001F000F8007C003C6
:100F1000FFFFFFFFFFFFFFFFC0FF00FFFF00FFFF1E
:100F200000FFFF01FFFF81FFFF81FFFF81FFFF81C6
:100F3000FFFBC3DFFBC3DFFBC3DFFBC3DFF9C7DF9F
:100F4000F9E79FF9E79FF9E79FF9E79FF8FF1FF897
:100F5000FF1FF8FF1FF8FF1FF87F1FF87E1FF87EA6
:100F60001FF87E1FF83E1FF801FFC01FFE01FFE0C3
:100F70001FFF01FFF01FFF81FFF81FFFC1FFBC1F14
:100F8000FBE1FF9F1FF9F1FF8F9FF879FF87DFF8E3
:100F90003DFF83FFF81FFF81FFF80FFF80FFF80779
:100FA000FF803FF803FF801F007F0001FFF001FF7B
:100FB000FC03FFFF01FC1FC1F803F1F800FCF8007F
:100FC0003E7C001F7C0007FE0003FF0001FF800045
:100FD000FFC0007FE0003FF0001FF8000FBE000FD1
:100FE0009F0007CFC007E3F007E0FE0FE07FFFE0C0
:100FF0000FFFE003FFE0003F8000FFFC1FFFE3FF67
:10100000FE7FFFEF80FFF00FFE00FFC01FF803FF21
:10101000007FE01FFC07EFFFFDFFFF3FFFC7FFE082
:10102000F8001F0003E0007C000F8001F0003E008C
:1010300007C000F8001F0000007F0001FFF001FF63
:10104000FC03FFFF01FC1FC1F803F1F800FCF800EE
:101050003E7C001F7C0007FE0003FF0001FF8000B4
:10106000FFC0007FE0003FF0001FF8010FBE01CF7E
:101070009F01FFCFC07FE3F01FE0FE0FF07FFFF87E
:101080000FFFFE03FFEF803FC380000080FFFF07DC
:10109000FFFE3FFFF9FFFFCF803F7C00FBE007DF53
:1010A000003EF801F7C00F3E00F9FFFF8FFFF87F09
:1010B000FFC3FFFF1F00FCF803E7C01F3E00F9F06D
:1010C00007CF803E7C01F3E00F9F007CF803F7C060
:1010D0000FC007F801FFF03FFF87FFFC7E0FCFC076
:1010E0007EF803EF803EF8000FC000FF0007FFC04E
:1010F0003FFF81FFFC03FFE001FF0003F0001FF84A
:1011000001FF801FFC03FFE07E7FFFE3FFFC1FFF6A
:10111000003FC0FFFFFFFFFFFFFFFFFFF01F0003C7
:10112000E0007C000F8001F0003E0007C000F800E6
:101130001F0003E0007C000F8001F0003E0007C0AC
:1011400000F8001F0003E0007C000F8001F0003E6B
:1011500000F801FF801FF801FF801FF801FF801FCA
:10116000F801FF801FF801FF801FF801FF801FF8C2
:1011700001FF801FF801FF801FF801FF801FF801A9
:10118000FF801F7C03E7E07E3FFFC3FFFC0FFF00F3
:101190003FC0F800FBE003E7C01F9F007C7C01F02C
:1011A000F807C3E03E0F80F81E03E07C1F01F07CCF
:1011B00003C1F00F87803E3E00F8F801E3C007CF7F
:1011C000001F7C003DE000FF8003FE0007F0001FD1
:1011D000C0007F0000F80003E000F807C03FF807F8
:1011E000E03EFC07E03E7C0FE03E7C0FE07E7C0FA3
:1011F000E07C7C0FF07C3E0FF07C3E1EF0783E1EC3
:1012000070F81E1E70F81E1E78F81F1E78F01F3C26
:1012100078F00F3C39F00F3C3DF00F3C3DE00FBC47
:101220003DE007F83DE007F81FE007F81FC003F8AE
:101230001FC003F81FC003F00F8003F00F8001F000
:101240000F80FE01F9F807E3F03F0FC0F81F87E0B9
:101250007E3F00FCFC01F7E007FF000FFC003FE0D1
:10126000007F0000FC0007F0001FE000FF8003FF8C
:10127000001F7E00FCF803E3F01F87C07C1F83F093
:101280003F1F80FC7E01FBF007F0FC01FFE00F9F99
:1012900000FCFC07C3E07E1F83E07C1F03F1F00F1E
:1012A0008F807EF801F7C00FFC003FE000FE0007D2
:1012B000F0001F0000F80007C0003E0001F0000F22
:1012C00080007C0003E0001F0000F80007C000FF62
:1012D000FFFFFFFFFFFFFFFFF0007E001F8007E022
:1012E00000FC003F000FC003F8007E001F8007E0F5
:1012F00001FC003F000FC003F0007E001F8007E0EC
:1013000001FC003FFFFFFFFFFFFFFFFFFCFFFFFFB0
:10131000FFF8F8F8F8F8F8F8F8F8F8F8F8F8F8F846
:10132000F8F8F8F8F8F8F8F8F8F8FFFFFFFFE038F9
:10133000060180700C0300E0180601C0300C0300A9
:10134000E0180601C0300C038060180701C0FFFFE1
:10135000FFFF1F1F1F1F1F1F1F1F1F1F1F1F1F1FDD
:101360001F1F1F1F1F1F1F1F1F1F1FFFFFFFFF0329
:10137000E007E007E00FF00FF00F781E781E783CD2
:101380003C3C3C3C1E781E781E700FF00FFFFFFFA8
:10139000FFFFFFFFFEF8F0F0E0E007F807FF83FF34
:1013A000F1FFFE7C1FBE03E000F801FE0FFF8FFF80
:1013B000E7F8FBF03EF80FBE07EFC3FBFFFE7FFF31
:1013C0008FFBF1F8FCF8003E000F8003E000F8000E
:1013D0003E000F8003E7E0FBFC3FFFCFFFF3F87E0A
:1013E000FC0FBF03FF807FE01FF807FE01FF807F37
:1013F000F03FFC0FBF87EFFFF3FFFCFBFC3E7E00DE
:1014000003F007FE0FFF87FFE7E1FBE07FE03FF01F
:1014100000F8007C003E001F000F80FBE07DF87E9E
:101420007FFE3FFE0FFE00FC000003E0007C000F8B
:101430008001F0003E0007C000F81F1F0FFBE3FF14
:10144000FCFFFFBF8FF7C07FF80FFE00FFC01FF843
:1014500003FF007FE00FFE03F7C07EFC3FCFFFF8E5
:10146000FFFF0FFBE0FC7C07E007FE03FFE0FFF857
:101470007E1F1F03CF80FBE01EFFFFBFFFEFFFFBC0
:10148000E000F8003F03E7E1F9FFFC3FFE07FF0043
:101490007F000FC7F3FCFF3E0F83E3FEFFBFE3E0D7
:1014A000F83E0F83E0F83E0F83E0F83E0F83E0F84C
:1014B0003E0F8007C7C3FDF3FFFCFFFF7E1FDF0366
:1014C000FFC0FFE01FF807FE01FF807FE01FFC0F59
:1014D000DF03F7E1FDFFFF3FFFC7FDF07C7C001F4E
:1014E0000007FF03F7E1F9FFFC3FFE01FE00F800F3
:1014F0007C003E001F000F8007C003E001F1F0FBFD
:10150000FE7FFFBFFFDFC3FFC0FFC07FE03FF01FD4
:10151000F80FFC07FE03FF01FF80FFC07FE03FF0F4
:101520001FF80FFC07C0FFFFF0001FFFFFFFFFFFCA
:10153000FFFFFFFFFFFFC03E7CF9F000001F3E7C75
:10154000F9F3E7CF9F3E7CF9F3E7CF9F3E7CF9F3B9
:10155000FFFFFEF8F8007C003E001F000F8007C070
:1015600003E001F03EF83E7C3F3E3F1F3F0F9F07E8
:10157000DF03FF81FFC0FFF07FF83F7E1F1F0F8753
:10158000C7C3F3E0F9F07EF81F7C0FC0FFFFFFFF39
:10159000FFFFFFFFFFFFFFFFFFFFFFFFC0F8F83F68
:1015A0001F7F9FF3FFFFFF7FFFFFFFC3F87FF83F21
:1015B00007FE07C0FFC0F81FF81F03FF03E07FE02E
:1015C0007C0FFC0F81FF81F03FF03E07FE07C0FF5C
:1015D000C0F81FF81F03FF03E07FE07C0F80F8F8DE
:1015E0007DFF3FFFDFFFEFE1FFE07FE03FF01FF80F
:1015F0000FFC07FE03FF01FF80FFC07FE03FF01FED
:10160000F80FFC07FE03E003F801FFC07FFC1FFF9B
:10161000C7F0FCF80FBF01FFC01FF803FF007FE019
:101620000FFC01FFC07EF80F9F87F1FFFC1FFF0139
:10163000FFC00FE000F8F83EFF8FFFF3FFFCFE1F36
:10164000BF03EFC0FFE01FF807FE01FF807FE01F30
:10165000FC0FFF03EFE1FBFFFCFFFF3EFF0F8F835B
:10166000E000F8003E000F8003E000F8003E0000BC
:1016700007E3E1FF7C7FFF9FFFF7F1FEF80FFF011B
:10168000FFC01FF803FF007FE00FFC01FFC07EF8E2
:101690000FDF83F9FFFF3FFFE1FF7C1F8F8001F029
:1016A000003E0007C000F8001F0003E0007CF8FFC8
:1016B0007FFFFFFFE1F83E07C0F81F03E07C0F81CA
:1016C000F03E07C0F81F03E00007F00FFE0FFF8792
:1016D000FFE7E1F3E079F800FF803FFC1FFF83FFA5
:1016E000C03FF001FFC07DF07EFFFE3FFF0FFF0116
:1016F000FE003E1F0F87C3E7FFFFFF3E1F0F87C39C
:10170000E1F0F87C3E1F0F87F3F8FC3EF80FFC0772
:10171000FE03FF01FF80FFC07FE03FF01FF80FFCDA
:1017200007FE03FF01FF80FFC0FFF0FFFFFF7FFF09
:101730009FF7C7E3E07C07CF80F9F01F1F07C3E0E6
:10174000F87C1F0783C0F8F81F1F01E3C03E78072D
:10175000DF007BC00FF801FF001FC003F8007F000F
:1017600007C000FC1F03EF83E07DF07E1F3E0FC328
:10177000E3C3F87C7C7F0F0F8FF3E1F1DE7C1E7BEF
:10178000CF83EF39E07DE73C07B8FF80F71FE01F0C
:10179000E3FC03FC3F803F07F007E0FC00FC1F80F8
:1017A0000F83F000FC1F9F07E7E3F0F8F81F7E07A8
:1017B000DF00FF801FE007F000F8007F003FE00F30
:1017C000F807DF03F7E0F8F87E3F1F07EFC0F87C6B
:1017D00003EF80F9F81F1F03E3E0F87C1F07C3E065
:1017E000F8780F1F01F3C03E7803DF007FC00FF8C9
:1017F00000FF001FC001F8003F0007C000F8001EF6
:101800000007C007F800FE001F8003E0007FFE7F96
:10181000FE7FFE7FFE007E00FC01F803F003F00770
:10182000E00FC01F803F007E00FE00FFFFFFFFFFB4
:10183000FFFFFF0787C7E3F1E0F0783C1E0F078347
:10184000C1E0F0F9F8F07E0F83C1E0F0783C1E0FA4
:101850000783C1E0FC7E1F0780FFFFFFFFFFFFFF44
:10186000FFFFFFFFFFE0F07C3E1F83C1E0F0783C0C
:101870001E0F0783C1E0F07C1F83C7E7C3C1E0F000
:10188000783C1E0F0783C7E3E1F0F0003C00FE0F39
:10189000FE1E1FFC0FC00F00000000000A00010028
:1018A0000005190C04E810000D091102E71F0014CF
:1018B000181300E95B00131D1300E7A0001D191F9A
:1018C00001E8FB0016191902E8400105090902E7C1
:1018D000460109210C01E76C0109210C01E7920185
:1018E0000C0B0E00E7A30110101402F1C301050B4D
:1018F0000902FCCA0109040C01F6CF010505090221
:10190000FCD30109190A00E8F00111191301E826B6
:10191000020A191303E8460211191301E87C0211A7
:10192000191301E8B20210191302E8E402111913A5
:1019300001E81A0312191301E8530311191301E8FE
:10194000890311191301E8BF0311191301E8F50305
:1019500005120902EF010405180902EF1004121123
:101960001401F03704110C1402F351041211140184
:10197000F07804121A1502E7B304201F2201E72FA2
:1019800005181A1800E77D05141A1903E7BE051794
:101990001A1901E70906151A1903E74E06131A1753
:1019A00003E78C06111A1603E7C406181A1B01E791
:1019B0001207141A1A03E75307051A0B03E7640703
:1019C000101A1401E79807161A1903E7E007111A0D
:1019D0001603E71808181A1E03E76608141A1A03F4
:1019E000E7A708191A1B01E7F908131A1803E737C4
:1019F00009191B1B01E78C09151A1903E7D10914F2
:101A00001A1802E7120A131A1702E7500A141A1AD0
:101A100003E7910A161A1701E7D90A201A2201E7EB
:101A2000410B161A1801E7890B151A1601E7CE0BA0
:101A3000131A1501E70C0C08210C02E72D0C0A19EA
:101A40000A00E84D0C08210C01E76E0C100F14027F
:101A5000E98C0C150313FF05940C07050901E799A0
:101A60000C12131401EEC40C121A1602E7FF0C112B
:101A7000131401EE280D131A1601E7660D12131444
:101A800001EE910D0A1A0C01E7B20D121A1501EEC2
:101A9000ED0D111A1502E7250E051A0A02E7360E9A
:101AA00007210A00E7530E111A1402E78B0E051ADC
:101AB0000902E79C0E1B131F02EEDD0E1113150227
:101AC000EE060F13131501EE340F121A1602EE6F05
:101AD0000F131A1601EEAD0F0B130E02EEC80F1105
:101AE000131301EEF10F09170C01EA0B1011131576
:101AF00002EE341013131300EE62101B131B00EEE2
:101B0000A31012131301EECE10131A1300EE0C11D2
:101B100010131201EE321109210E01E758110321B1
:101B20000A04E7651109210E03E78B110F06120164
:101B3000F6FFFFFFFFFFFFFEE739CE73800FFFFFC9
:101B4000F8F8FFC7FE3FF1FF8FFC7DC1CE0E70702D
:101B500003C3803C7803C7803878078707FFFF7F7F
:101B6000FFF7FFFF7FFFF0F0E00F0E00F1E00F1E28
:101B700000E1E0FFFFCFFFFCFFFFCFFFFC1C3C03B9
:101B8000C3803C7803C78038780387800060007F7B
:101B9000803FFC0FFFC3FFFCFCDF9F19FBC31F78D6
:101BA00063EF8C01FD801FF001FFC01FFE007FE08E
:101BB00003FE0067E00C7FE18FFC31FFC63EFCDFD7
:101BC0009FFFF1FFFC0FFF007F80018000300006C7
:101BD000000F001C01FE00E01FF80E00FFC0700F98
:101BE0000F07007038380381C3801C0E3C00F0F1F1
:101BF000C003FF1C001FF8E0007F8E0000F070F8AB
:101C000000071FF00039FFC0038FFE001CF07801B1
:101C1000C701C00C380E00E1C070060F0780703F8E
:101C2000F80701FFC03807FC03800F8001F0001F98
:101C3000E000FFC003FF801F1E007C7801F1E00779
:101C4000E7800FBC001FE0003F0001F8001FF0F02C
:101C5000FFE3C7E7CF3F0FF8F83FE3E07F8F80FC5B
:101C60003F03F07E3FE1FFFF83FFFF07FE7E07F0AB
:101C7000FCFFFFFFFDCE70078783C3C1E1E0F07872
:101C8000783C1E1E0F0783C1E0F0783C1E0F0381D5
:101C9000E0F0781E0F0381E0703C0E0780F0381EE4
:101CA0000783C0F0783C0F0783C0F0783C1E0F0715
:101CB00083C1E0F078783C1E0F0F078783C1C1E035
:101CC000E0F00006006006076E7FE3FC0F01F81FDE
:101CD000839C108003C003C003C003C003C003C0C3
:101CE000FFFFFFFFFFFFFFFF03C003C003C003C0F0
:101CF00003C003C0FFFFFF8C6337B0FFFFFFFFF09F
:101D0000FFFFFF800181C0C0607038180C0E060311
:101D10000181C0C0603038180C0E07030181C0C0BB
:101D20000007F00FFE0FFF87FFC7E3F3E0F9F07D38
:101D3000F01FF80FFC07FE03FF01FF80FFC07FE0EC
:101D40003FF01FF80FFC07DF07CF83E7E3F1FFF059
:101D5000FFF83FF807F00001C0F03C1F1FFFFFFF36
:101D6000FF07C1F07C1F07C1F07C1F07C1F07C1F7B
:101D700007C1F07C1F07C007F00FFE0FFF8FFFE7C2
:101D8000E3F7E0FFE03FF01FF80F8007C007E00334
:101D9000E003F003F007F007F007E007E007C007F3
:101DA000C003E003FFFDFFFEFFFF7FFF8007E00FA2
:101DB000FC0FFF0FFFCFC3F7C0FBE07DF03E001F1D
:101DC000001F000F803F801FC00FF000FC003F008D
:101DD0000FFC07FE03FF83F7C3F3FFF8FFF83FF89C
:101DE00007F00000FC00FC01FC01FC03FC077C0781
:101DF0007C0E7C0E7C1C7C187C387C707C607CE0CB
:101E00007CFFFFFFFFFFFFFFFF007C007C007C00EA
:101E10007C007C007C1FFF0FFF8FFFC7FFE3C0012A
:101E2000E000E000700079F03FFE1FFF8FFFE7C386
:101E3000F000FC003E001F000F8007FE03FF03FFC1
:101E4000C3F3FFF1FFF83FF007E00003F803FF8161
:101E5000FFF0FFFE3E1F9F03E7C003E000F8F83EDF
:101E6000FF8FFFF3FFFEFE1FBF03FF807FE01FF821
:101E700007FE01F7807DF03E7E1F8FFFC1FFF03F20
:101E8000F003F000FFFFFFFFFFFFFFFFF000F00097
:101E9000F800F80078007C003C003E001E001F00A7
:101EA0000F000F8007C003C003E001F000F80078C6
:101EB000007C003E001F000F800007E007FC0FFFC2
:101EC00007FFC7C3F3C0F9E03CF01E781F1E1F07D1
:101ED000FF01FF03FFE3F1F9F07DF01FF80FFC07AE
:101EE000FE03FF83F7C3F3FFF8FFF83FF807F000A6
:101EF00007E00FFC0FFF0FFFC7E3F7E0FBE03DF04B
:101F00001FF80FFC07FE03FF83F7E3FBFFFCFFFE58
:101F10003FDF07CF80078003DF03E7C3E3FFF0FF66
:101F2000F03FF007E000FFFFFF80000000007FFFB0
:101F3000FFC0FFFFFF80000000007FFFFFC6339B54
:101F4000D80000C000F001FC03FF03FF07FE0FFCF8
:101F500003F800F0003F800FFC007FE007FF003F28
:101F6000F001FC001F0000C0FFFFFFFFFFFFFFFFAD
:101F7000F00000000000000000FFFFFFFFFFFFFF78
:101F8000FFF0C0003C000FE003FF003FF001FF80C6
:101F90000FFC007F0003C007F00FFC1FF83FF83F65
:101FA000F00FE003C000C0000007F007FF03FFF1DF
:101FB000FFFC7E3FBF03FF807FE01FF807C003F0F8
:101FC00001FC00FE007F003F801FC007C003E0004F
:101FD000F0003C000000000000F8003E000F80030D
:101FE000E000F8000007FC00003FFF0000FFFFC01A
:101FF00001F807F003E001F80780007C0F00003CC7
:102000001E03E39E3C0FF78E381FFF0E783E1F071E
:1020100070380F0770780F07E0700E07E0700E073A
:10202000E0E00E07E0E01E0FE0E01C0EE0E03C1EEA
:10203000E0F03C3CF0F0FC7C707FFFF8783FCFF0A4
:102040003C1F07C03E0000001F0000000FC0010041
:1020500007F00F0003FFFF0000FFFF00001FF80064
:10206000007E00007F00007F0000FF0000FF800175
:10207000FF8001FF8001F7C003E7C003E7C003E36F
:10208000E007C3E007C3E007C1F00F81F00F81F064
:102090000FFFF81FFFF81FFFFC1FFFFC3E007C3EF8
:1020A000007E3E003E7C003E7C003F7C001FFFFC2B
:1020B0000FFFF0FFFF8FFFFCF807EF803EF803EF04
:1020C000803EF803EF803EF807CFFFF8FFFF0FFFD9
:1020D000F8FFFFCF807EF801EF801FF801FF801F1F
:1020E000F801FF803EFFFFEFFFFCFFFF8FFFE000E6
:1020F000FF0007FF803FFFC0FFFFC3F81F87E01FFF
:102100009F801F3E001F7C003FF00003E00007C0DF
:10211000000F80001F00003E00007C0000F800005F
:10212000F8007DF000FBF003F3F00FC7F03F87FFEE
:10213000FE07FFF803FFC001FE00FFFC07FFF83FAA
:10214000FFE1FFFF8F80FE7C01F3E007DF003EF838
:1021500001F7C007FE003FF001FF800FFC007FE0A9
:1021600003FF001FF800FFC00FFE007DF003EF80AB
:102170003E7C07F3FFFF1FFFF0FFFF07FFE000FFBC
:10218000FFDFFFFBFFFF7FFFEF8001F0003E000756
:10219000C000F8001F0003E0007FFFCFFFF9FFFF42
:1021A0003FFFE7C000F8001F0003E0007C000F8045
:1021B00001F0003FFFFFFFFFFFFFFFFFFCFFFFFFFE
:1021C000FFFFFFFFFFFF8007C003E001F000F80002
:1021D0007C003E001FFFEFFFF7FFFBFFFDF000F864
:1021E000007C003E001F000F8007C003E001F000EC
:1021F000F8007C0000007F8003FFE007FFF80FFF7E
:10220000FC1FC0FE3F007E7E003F7C001F7C000064
:10221000F80000F80000F80000F803FFF803FFF8EA
:1022200003FFF803FFFC000F7C001F7C001F7E00F3
:102230003F3F007F1FC1FF0FFFFF07FFE703FFC7FF
:1022400000FF07F801FF801FF801FF801FF801FF62
:10225000801FF801FF801FF801FF801FFFFFFFFFB5
:10226000FFFFFFFFFFFFF801FF801FF801FF801F46
:10227000F801FF801FF801FF801FF801FF801FF8A1
:1022800001FF801FFFFFFFFFFFFFFFFFFFFFFFFFBB
:10229000FFFFFFFFC0001F001F001F001F001F00E7
:1022A0001F001F001F001F001F001F001F001F0036
:1022B0001F001F001FF81FF81FF81FF81FF81FFC52
:1022C0003F7FFE3FFC1FF807E0F801FBE00FCF80E7
:1022D0007E3E03F0F81F83E0FC0F87E03E3F00F8EE
:1022E000F803E7E00FBF003FF800FFF003FFE00F47
:1022F000FF803FBF00FC7E03E0FC0F81F83E07E05B
:10230000F80FC3E01F8F807F3E00FCF801FBE00365
:10231000F0F8007C003E001F000F8007C003E001C2
:10232000F000F8007C003E001F000F8007C003E0B3
:1023300001F000F8007C003E001F000F8007C00382
:10234000FFFFFFFFFFFFFFFFC0FF00FFFF00FFFFDA
:1023500000FFFF01FFFF81FFFF81FFFF81FFFF8182
:10236000FFFBC3DFFBC3DFFBC3DFFBC3DFF9C7DF5B
:10237000F9E79FF9E79FF9E79FF9E79FF8FF1FF853
:10238000FF1FF8FF1FF8FF1FF87F1FF87E1FF87E62
:102390001FF87E1FF83E1FF801FFC01FFE01FFE07F
:1023A0001FFF01FFF01FFF81FFF81FFFC1FFBC1FD0
:1023B000FBE1FF9F1FF9F1FF8F9FF879FF87DFF89F
:1023C0003DFF83FFF81FFF81FFF80FFF80FFF80735
:1023D000FF803FF803FF801F007F0001FFF001FF37
:1023E000FC03FFFF01FC1FC1F803F1F800FCF8003B
:1023F0003E7C001F7C0007FE0003FF0001FF800001
:10240000FFC0007FE0003FF0001FF8000FBE000F8C
:102410009F0007CFC007E3F007E0FE0FE07FFFE07B
:102420000FFFE003FFE0003F8000FFFC1FFFE3FF22
:10243000FE7FFFEF80FFF00FFE00FFC01FF803FFDD
:10244000007FE01FFC07EFFFFDFFFF3FFFC7FFE03E
:10245000F8001F0003E0007C000F8001F0003E0048
:1024600007C000F8001F0000007F0001FFF001FF1F
:10247000FC03FFFF01FC1FC1F803F1F800FCF800AA
:102480003E7C001F7C0007FE0003FF0001FF800070
:10249000FFC0007FE0003FF0001FF8010FBE01CF3A
:1024A0009F01FFCFC07FE3F01FE0FE0FF07FFFF83A
:1024B0000FFFFE03FFEF803FC380000080FFFF0798
:1024C000FFFE3FFFF9FFFFCF803F7C00FBE007DF0F
:1024D000003EF801F7C00F3E00F9FFFF8FFFF87FC5
:1024E000FFC3FFFF1F00FCF803E7C01F3E00F9F029
:1024F00007CF803E7C01F3E00F9F007CF803F7C01C
:102500000FC007F801FFF03FFF87FFFC7E0FCFC031
:102510007EF803EF803EF8000FC000FF0007FFC009
:102520003FFF81FFFC03FFE001FF0003F0001FF805
:1025300001FF801FFC03FFE07E7FFFE3FFFC1FFF26
:10254000003FC0FFFFFFFFFFFFFFFFFFF01F000383
:10255000E0007C000F8001F0003E0007C000F800A2
:102560001F0003E0007C000F8001F0003E0007C068
:1025700000F8001F0003E0007C000F8001F0003E27
:1025800000F801FF801FF801FF801FF801FF801F86
:10259000F801FF801FF801FF801FF801FF801FF87E
:1025A00001FF801FF801FF801FF801FF801FF80165
:1025B000FF801F7C03E7E07E3FFFC3FFFC0FFF00AF
:1025C0003FC0F800FBE003E7C01F9F007C7C01F0E8
:1025D000F807C3E03E0F80F81E03E07C1F01F07C8B
:1025E00003C1F00F87803E3E00F8F801E3C007CF3B
:1025F000001F7C003DE000FF8003FE0007F0001F8D
:10260000C0007F0000F80003E000F807C03FF807B3
:10261000E03EFC07E03E7C0FE03E7C0FE07E7C0F5E
:10262000E07C7C0FF07C3E0FF07C3E1EF0783E1E7E
:1026300070F81E1E70F81E1E78F81F1E78F01F3CE2
:1026400078F00F3C39F00F3C3DF00F3C3DE00FBC03
:102650003DE007F83DE007F81FE007F81FC003F86A
:102660001FC003F81FC003F00F8003F00F8001F0BC
:102670000F80FE01F9F807E3F03F0FC0F81F87E075
:102680007E3F00FCFC01F7E007FF000FFC003FE08D
:10269000007F0000FC0007F0001FE000FF8003FF48
:1026A000001F7E00FCF803E3F01F87C07C1F83F04F
:1026B0003F1F80FC7E01FBF007F0FC01FFE00F9F55
:1026C00000FCFC07C3E07E1F83E07C1F03F1F00FDA
:1026D0008F807EF801F7C00FFC003FE000FE00078E
:1026E000F0001F0000F80007C0003E0001F0000FDE
:1026F00080007C0003E0001F0000F80007C000FF1E
:10270000FFFFFFFFFFFFFFFFF0007E001F8007E0DD
:1027100000FC003F000FC003F8007E001F8007E0B0
:1027200001FC003F000FC003F0007E001F8007E0A7
:1027300001FC003FFFFFFFFFFFFFFFFFFCFFFFFF6C
:10274000FFF8F8F8F8F8F8F8F8F8F8F8F8F8F8F802
:10275000F8F8F8F8F8F8F8F8F8F8FFFFFFFFE038B5
:10276000060180700C0300E0180601C0300C030065
:10277000E0180601C0300C038060180701C0FFFF9D
:10278000FFFF1F1F1F1F1F1F1F1F1F1F1F1F1F1F99
:102790001F1F1F1F1F1F1F1F1F1F1FFFFFFFFF03E5
:1027A000E007E007E00FF00FF00F781E781E783C8E
:1027B0003C3C3C3C1E781E781E700FF00FFFFFFF64
:1027C000FFFFFFFFFEF8F0F0E0E007F807FF83FFF0
:1027D000F1FFFE7C1FBE03E000F801FE0FFF8FFF3C
:1027E000E7F8FBF03EF80FBE07EFC3FBFFFE7FFFED
:1027F0008FFBF1F8FCF8003E000F8003E000F800CA
:102800003E000F8003E7E0FBFC3FFFCFFFF3F87EC5
:10281000FC0FBF03FF807FE01FF807FE01FF807FF2
:10282000F03FFC0FBF87EFFFF3FFFCFBFC3E7E0099
:1028300003F007FE0FFF87FFE7E1FBE07FE03FF0DB
:1028400000F8007C003E001F000F80FBE07DF87E5A
:102850007FFE3FFE0FFE00FC000003E0007C000F47
:102860008001F0003E0007C000F81F1F0FFBE3FFD0
:10287000FCFFFFBF8FF7C07FF80FFE00FFC01FF8FF
:1028800003FF007FE00FFE03F7C07EFC3FCFFFF8A1
:10289000FFFF0FFBE0FC7C07E007FE03FFE0FFF813
:1028A0007E1F1F03CF80FBE01EFFFFBFFFEFFFFB7C
:1028B000E000F8003F03E7E1F9FFFC3FFE07FF00FF
:1028C0007F000FC7F3FCFF3E0F83E3FEFFBFE3E093
:1028D000F83E0F83E0F83E0F83E0F83E0F83E0F808
:1028E0003E0F8007C7C3FDF3FFFCFFFF7E1FDF0322
:1028F000FFC0FFE01FF807FE01FF807FE01FFC0F15
:10290000DF03F7E1FDFFFF3FFFC7FDF07C7C001F09
:102910000007FF03F7E1F9FFFC3FFE01FE00F800AE
:102920007C003E001F000F8007C003E001F1F0FBB8
:10293000FE7FFFBFFFDFC3FFC0FFC07FE03FF01F90
:10294000F80FFC07FE03FF01FF80FFC07FE03FF0B0
:102950001FF80FFC07C0FFFFF0001FFFFFFFFFFF86
:10296000FFFFFFFFFFFFC03E7CF9F000001F3E7C31
:10297000F9F3E7CF9F3E7CF9F3E7CF9F3E7CF9F375
:10298000FFFFFEF8F8007C003E001F000F8007C02C
:1029900003E001F03EF83E7C3F3E3F1F3F0F9F07A4
:1029A000DF03FF81FFC0FFF07FF83F7E1F1F0F870F
:1029B000C7C3F3E0F9F07EF81F7C0FC0FFFFFFFFF5
:1029C000FFFFFFFFFFFFFFFFFFFFFFFFC0F8F83F24
:1029D0001F7F9FF3FFFFFF7FFFFFFFC3F87FF83FDD
:1029E00007FE07C0FFC0F81FF81F03FF03E07FE0EA
:1029F0007C0FFC0F81FF81F03FF03E07FE07C0FF18
:102A0000C0F81FF81F03FF03E07FE07C0F80F8F899
:102A10007DFF3FFFDFFFEFE1FFE07FE03FF01FF8CA
:102A20000FFC07FE03FF01FF80FFC07FE03FF01FA8
:102A3000F80FFC07FE03E003F801FFC07FFC1FFF57
:102A4000C7F0FCF80FBF01FFC01FF803FF007FE0D5
:102A50000FFC01FFC07EF80F9F87F1FFFC1FFF01F5
:102A6000FFC00FE000F8F83EFF8FFFF3FFFCFE1FF2
:102A7000BF03EFC0FFE01FF807FE01FF807FE01FEC
:102A8000FC0FFF03EFE1FBFFFCFFFF3EFF0F8F8317
:102A9000E000F8003E000F8003E000F8003E000078
:102AA00007E3E1FF7C7FFF9FFFF7F1FEF80FFF01D7
:102AB000FFC01FF803FF007FE00FFC01FFC07EF89E
:102AC0000FDF83F9FFFF3FFFE1FF7C1F8F8001F0E5
:102AD000003E0007C000F8001F0003E0007CF8FF84
:102AE0007FFFFFFFE1F83E07C0F81F03E07C0F8186
:102AF000F03E07C0F81F03E00007F00FFE0FFF874E
:102B0000FFE7E1F3E079F800FF803FFC1FFF83FF60
:102B1000C03FF001FFC07DF07EFFFE3FFF0FFF01D1
:102B2000FE003E1F0F87C3E7FFFFFF3E1F0F87C357
:102B3000E1F0F87C3E1F0F87F3F8FC3EF80FFC072E
:102B4000FE03FF01FF80FFC07FE03FF01FF80FFC96
:102B500007FE03FF01FF80FFC0FFF0FFFFFF7FFFC5
:102B60009FF7C7E3E07C07CF80F9F01F1F07C3E0A2
:102B7000F87C1F0783C0F8F81F1F01E3C03E7807E9
:102B8000DF007BC00FF801FF001FC003F8007F00CB
:102B900007C000FC1F03EF83E07DF07E1F3E0FC3E4
:102BA000E3C3F87C7C7F0F0F8FF3E1F1DE7C1E7BAB
:102BB000CF83EF39E07DE73C07B8FF80F71FE01FC8
:102BC000E3FC03FC3F803F07F007E0FC00FC1F80B4
:102BD0000F83F000FC1F9F07E7E3F0F8F81F7E0764
:102BE000DF00FF801FE007F000F8007F003FE00FEC
:102BF000F807DF03F7E0F8F87E3F1F07EFC0F87C27
:102C000003EF80F9F81F1F03E3E0F87C1F07C3E020
:102C1000F8780F1F01F3C03E7803DF007FC00FF884
:102C200000FF001FC001F8003F0007C000F8001EB1
:102C30000007C007F800FE001F8003E0007FFE7F52
:102C4000FE7FFE7FFE007E00FC01F803F003F0072C
:102C5000E00FC01F803F007E00FE00FFFFFFFFFF70
:102C6000FFFFFF0787C7E3F1E0F0783C1E0F078303
:102C7000C1E0F0F9F8F07E0F83C1E0F0783C1E0F60
:102C80000783C1E0FC7E1F0780FFFFFFFFFFFFFF00
:102C9000FFFFFFFFFFE0F07C3E1F83C1E0F0783CC8
:102CA0001E0F0783C1E0F07C1F83C7E7C3C1E0F0BC
:102CB000783C1E0F0783C7E3E1F0F0003C00FE0FF5
:102CC000FE1E1FFC0FC00F00000000000A000100E4
:102CD0000005190C04E810000D091102E71F00148B
:102CE000181300E95B00131D1300E7A0001D191F56
:102CF00001E8FB0016191902E8400105090902E77D
:102D0000460109210C01E76C0109210C01E7920140
:102D10000C0B0E00E7A30110101402F1C301050B08
:102D20000902FCCA0109040C01F6CF0105050902DC
:102D3000FCD30109190A00E8F00111191301E82672
:102D4000020A191303E8460211191301E87C021163
:102D5000191301E8B20210191302E8E40211191361
:102D600001E81A0312191301E8530311191301E8BA
:102D7000890311191301E8BF0311191301E8F503C1
:102D800005120902EF010405180902EF10041211DF
:102D90001401F03704110C1402F351041211140140
:102DA000F07804121A1502E7B304201F2201E72F5E
:102DB00005181A1800E77D05141A1903E7BE051750
:102DC0001A1901E70906151A1903E74E06131A170F
:102DD00003E78C06111A1603E7C406181A1B01E74D
:102DE0001207141A1A03E75307051A0B03E76407BF
:102DF000101A1401E79807161A1903E7E007111AC9
:102E00001603E71808181A1E03E76608141A1A03AF
:102E1000E7A708191A1B01E7F908131A1803E7377F
:102E200009191B1B01E78C09151A1903E7D10914AD
:102E30001A1802E7120A131A1702E7500A141A1A8C
:102E400003E7910A161A1701E7D90A201A2201E7A7
:102E5000410B161A1801E7890B151A1601E7CE0B5C
:102E6000131A1501E70C0C08210C02E72D0C0A19A6
:102E70000A00E84D0C08210C01E76E0C100F14023B
:102E8000E98C0C150313FF05940C07050901E7995C
:102E90000C12131401EEC40C121A1602E7FF0C11E7
:102EA000131401EE280D131A1601E7660D12131400
:102EB00001EE910D0A1A0C01E7B20D121A1501EE7E
:102EC000ED0D111A1502E7250E051A0A02E7360E56
:102ED00007210A00E7530E111A1402E78B0E051A98
:102EE0000902E79C0E1B131F02EEDD0E11131502E3
:102EF000EE060F13131501EE340F121A1602EE6FC1
:102F00000F131A1601EEAD0F0B130E02EEC80F11C0
:102F1000131301EEF10F09170C01EA0B1011131531
:102F200002EE341013131300EE62101B131B00EE9D
:102F3000A31012131301EECE10131A1300EE0C118E
:102F400010131201EE321109210E01E7581103216D
:102F50000A04E7651109210E03E78B110F06120120
:102F6000F6FFFFFFFFFFFFFEE739CE73800FFFFF85
:102F7000F8F8FFC7FE3FF1FF8FFC7DC1CE0E7070E9
:102F800003C3803C7803C7803878078707FFFF7F3B
:102F9000FFF7FFFF7FFFF0F0E00F0E00F1E00F1EE4
:102FA00000E1E0FFFFCFFFFCFFFFCFFFFC1C3C0375
:102FB000C3803C7803C78038780387800060007F37
:102FC000803FFC0FFFC3FFFCFCDF9F19FBC31F7892
:102FD00063EF8C01FD801FF001FFC01FFE007FE04A
:102FE00003FE0067E00C7FE18FFC31FFC63EFCDF93
:102FF0009FFFF1FFFC0FFF007F8001800030000683
:10300000000F001C01FE00E01FF80E00FFC0700F53
:103010000F07007038380381C3801C0E3C00F0F1AC
:10302000C003FF1C001FF8E0007F8E0000F070F866
:1030300000071FF00039FFC0038FFE001CF078016D
:10304000C701C00C380E00E1C070060F0780703F4A
:10305000F80701FFC03807FC03800F8001F0001F54
:10306000E000FFC003FF801F1E007C7801F1E00735
:10307000E7800FBC001FE0003F0001F8001FF0F0E8
:10308000FFE3C7E7CF3F0FF8F83FE3E07F8F80FC17
:103090003F03F07E3FE1FFFF83FFFF07FE7E07F067
:1030A000FCFFFFFFFDCE70078783C3C1E1E0F0782E
:1030B000783C1E1E0F0783C1E0F0783C1E0F038191
:1030C000E0F0781E0F0381E0703C0E0780F0381EA0
:1030D0000783C0F0783C0F0783C0F0783C1E0F07D1
:1030E00083C1E0F078783C1E0F0F078783C1C1E0F1
:1030F000E0F00006006006076E7FE3FC0F01F81F9A
:10310000839C108003C003C003C003C003C003C07E
:10311000FFFFFFFFFFFFFFFF03C003C003C003C0AB
:1031200003C003C0FFFFFF8C6337B0FFFFFFFFF05A
:10313000FFFFFF800181C0C0607038180C0E0603CD
:103140000181C0C0603038180C0E07030181C0C077
:103150000007F00FFE0FFF87FFC7E3F3E0F9F07DF4
:10316000F01FF80FFC07FE03FF01FF80FFC07FE0A8
:103170003FF01FF80FFC07DF07CF83E7E3F1FFF015
:10318000FFF83FF807F00001C0F03C1F1FFFFFFFF2
:10319000FF07C1F07C1F07C1F07C1F07C1F07C1F37
:1031A00007C1F07C1F07C007F00FFE0FFF8FFFE77E
:1031B000E3F7E0FFE03FF01FF80F8007C007E003F0
:1031C000E003F003F007F007F007E007E007C007AF
:1031D000C003E003FFFDFFFEFFFF7FFF8007E00F5E
:1031E000FC0FFF0FFFCFC3F7C0FBE07DF03E001FD9
:1031F000001F000F803F801FC00FF000FC003F0049
:103200000FFC07FE03FF83F7C3F3FFF8FFF83FF857
:1032100007F00000FC00FC01FC01FC03FC077C073C
:103220007C0E7C0E7C1C7C187C387C707C607CE086
:103230007CFFFFFFFFFFFFFFFF007C007C007C00A6
:103240007C007C007C1FFF0FFF8FFFC7FFE3C001E6
:10325000E000E000700079F03FFE1FFF8FFFE7C342
:10326000F000FC003E001F000F8007FE03FF03FF7D
:10327000C3F3FFF1FFF83FF007E00003F803FF811D
:10328000FFF0FFFE3E1F9F03E7C003E000F8F83E9B
:10329000FF8FFFF3FFFEFE1FBF03FF807FE01FF8DD
:1032A00007FE01F7807DF03E7E1F8FFFC1FFF03FDC
:1032B000F003F000FFFFFFFFFFFFFFFFF000F00053
:1032C000F800F80078007C003C003E001E001F0063
:1032D0000F000F8007C003C003E001F000F8007882
:1032E000007C003E001F000F800007E007FC0FFF7E
:1032F00007FFC7C3F3C0F9E03CF01E781F1E1F078D
:10330000FF01FF03FFE3F1F9F07DF01FF80FFC0769
:10331000FE03FF83F7C3F3FFF8FFF83FF807F00061
:1033200007E00FFC0FFF0FFFC7E3F7E0FBE03DF006
:103330001FF80FFC07FE03FF83F7E3FBFFFCFFFE14
:103340003FDF07CF80078003DF03E7C3E3FFF0FF22
:10335000F03FF007E000FFFFFF80000000007FFF6C
:10336000FFC0FFFFFF80000000007FFFFFC6339B10
:10337000D80000C000F001FC03FF03FF07FE0FFCB4
:1033800003F800F0003F800FFC007FE007FF003FE4
:10339000F001FC001F0000C0FFFFFFFFFFFFFFFF69
:1033A000F00000000000000000FFFFFFFFFFFFFF34
:1033B000FFF0C0003C000FE003FF003FF001FF8082
:1033C0000FFC007F0003C007F00FFC1FF83FF83F21
:1033D000F00FE003C000C0000007F007FF03FFF19B
:1033E000FFFC7E3FBF03FF807FE01FF807C003F0B4
:1033F00001FC00FE007F003F801FC007C003E0000B
:10340000F0003C000000000000F8003E000F8003C8
:10341000E000F8000007FC00003FFF0000FFFFC0D5
:1034200001F807F003E001F80780007C0F00003C82
:103430001E03E39E3C0FF78E381FFF0E783E1F07DA
:1034400070380F0770780F07E0700E07E0700E07F6
:10345000E0E00E07E0E01E0FE0E01C0EE0E03C1EA6
:10346000E0F03C3CF0F0FC7C707FFFF8783FCFF060
:103470003C1F07C03E0000001F0000000FC00100FD
:1034800007F00F0003FFFF0000FFFF00001FF80020
:10349000007E00007F00007F0000FF0000FF800131
:1034A000FF8001FF8001F7C003E7C003E7C003E32B
:1034B000E007C3E007C3E007C1F00F81F00F81F020
:1034C0000FFFF81FFFF81FFFFC1FFFFC3E007C3EB4
:1034D000007E3E003E7C003E7C003F7C001FFFFCE7
:1034E0000FFFF0FFFF8FFFFCF807EF803EF803EFC0
:1034F000803EF803EF803EF807CFFFF8FFFF0FFF95
:10350000F8FFFFCF807EF801EF801FF801FF801FDA
:10351000F801FF803EFFFFEFFFFCFFFF8FFFE000A1
:10352000FF0007FF803FFFC0FFFFC3F81F87E01FBA
:103530009F801F3E001F7C003FF00003E00007C09B
:10354000000F80001F00003E00007C0000F800001B
:10355000F8007DF000FBF003F3F00FC7F03F87FFAA
:10356000FE07FFF803FFC001FE00FFFC07FFF83F66
:10357000FFE1FFFF8F80FE7C01F3E007DF003EF8F4
:1035800001F7C007FE003FF001FF800FFC007FE065
:1035900003FF001FF800FFC00FFE007DF003EF8067
:1035A0003E7C07F3FFFF1FFFF0FFFF07FFE000FF78
:1035B000FFDFFFFBFFFF7FFFEF8001F0003E000712
:1035C000C000F8001F0003E0007FFFCFFFF9FFFFFE
:1035D0003FFFE7C000F8001F0003E0007C000F8001
:1035E00001F0003FFFFFFFFFFFFFFFFFFCFFFFFFBA
:1035F000FFFFFFFFFFFF8007C003E001F000F800BE
:103600007C003E001FFFEFFFF7FFFBFFFDF000F81F
:10361000007C003E001F000F8007C003E001F000A7
:10362000F8007C0000007F8003FFE007FFF80FFF39
:10363000FC1FC0FE3F007E7E003F7C001F7C000020
:10364000F80000F80000F80000F803FFF803FFF8A6
:1036500003FFF803FFFC000F7C001F7C001F7E00AF
:103660003F3F007F1FC1FF0FFFFF07FFE703FFC7BB
:1036700000FF07F801FF801FF801FF801FF801FF1E
:10368000801FF801FF801FF801FF801FFFFFFFFF71
:10369000FFFFFFFFFFFFF801FF801FF801FF801F02
:1036A000F801FF801FF801FF801FF801FF801FF85D
:1036B00001FF801FFFFFFFFFFFFFFFFFFFFFFFFF77
:1036C000FFFFFFFFC0001F001F001F001F001F00A3
:1036D0001F001F001F001F001F001F001F001F00F2
:1036E0001F001F001FF81FF81FF81FF81FF81FFC0E
:1036F0003F7FFE3FFC1FF807E0F801FBE00FCF80A3
:103700007E3E03F0F81F83E0FC0F87E03E3F00F8A9
:10371000F803E7E00FBF003FF800FFF003FFE00F02
:10372000FF803FBF00FC7E03E0FC0F81F83E07E016
:10373000F80FC3E01F8F807F3E00FCF801FBE00321
:10374000F0F8007C003E001F000F8007C003E0017E
:10375000F000F8007C003E001F000F8007C003E06F
:1037600001F000F8007C003E001F000F8007C0033E
:10377000FFFFFFFFFFFFFFFFC0FF00FFFF00FFFF96
:1037800000FFFF01FFFF81FFFF81FFFF81FFFF813E
:10379000FFFBC3DFFBC3DFFBC3DFFBC3DFF9C7DF17
:1037A000F9E79FF9E79FF9E79FF9E79FF8FF1FF80F
:1037B000FF1FF8FF1FF8FF1FF87F1FF87E1FF87E1E
:1037C0001FF87E1FF83E1FF801FFC01FFE01FFE03B
:1037D0001FFF01FFF01FFF81FFF81FFFC1FFBC1F8C
:1037E000FBE1FF9F1FF9F1FF8F9FF879FF87DFF85B
:1037F0003DFF83FFF81FFF81FFF80FFF80FFF807F1
:10380000FF803FF803FF801F007F0001FFF001FFF2
:10381000FC03FFFF01FC1FC1F803F1F800FCF800F6
:103820003E7C001F7C0007FE0003FF0001FF8000BC
:10383000FFC0007FE0003FF0001FF8000FBE000F48
:103840009F0007CFC007E3F007E0FE0FE07FFFE037
:103850000FFFE003FFE0003F8000FFFC1FFFE3FFDE
:10386000FE7FFFEF80FFF00FFE00FFC01FF803FF99
:10387000007FE01FFC07EFFFFDFFFF3FFFC7FFE0FA
:10388000F8001F0003E0007C000F8001F0003E0004
:1038900007C000F8001F0000007F0001FFF001FFDB
:1038A000FC03FFFF01FC1FC1F803F1F800FCF80066
:1038B0003E7C001F7C0007FE0003FF0001FF80002C
:1038C000FFC0007FE0003FF0001FF8010FBE01CFF6
:1038D0009F01FFCFC07FE3F01FE0FE0FF07FFFF8F6
:1038E0000FFFFE03FFEF803FC380000080FFFF0754
:1038F000FFFE3FFFF9FFFFCF803F7C00FBE007DFCB
:10390000003EF801F7C00F3E00F9FFFF8FFFF87F80
:10391000FFC3FFFF1F00FCF803E7C01F3E00F9F0E4
:1039200007CF803E7C01F3E00F9F007CF803F7C0D7
:103930000FC007F801FFF03FFF87FFFC7E0FCFC0ED
:103940007EF803EF803EF8000FC000FF0007FFC0C5
:103950003FFF81FFFC03FFE001FF0003F0001FF8C1
:1039600001FF801FFC03FFE07E7FFFE3FFFC1FFFE2
:10397000003FC0FFFFFFFFFFFFFFFFFFF01F00033F
:10398000E0007C000F8001F0003E0007C000F8005E
:103990001F0003E0007C000F8001F0003E0007C024
:1039A00000F8001F0003E0007C000F8001F0003EE3
:1039B00000F801FF801FF801FF801FF801FF801F42
:1039C000F801FF801FF801FF801FF801FF801FF83A
:1039D00001FF801FF801FF801FF801FF801FF80121
:1039E000FF801F7C03E7E07E3FFFC3FFFC0FFF006B
:1039F0003FC0F800FBE003E7C01F9F007C7C01F0A4
:103A0000F807C3E03E0F80F81E03E07C1F01F07C46
:103A100003C1F00F87803E3E00F8F801E3C007CFF6
:103A2000001F7C003DE000FF8003FE0007F0001F48
:103A3000C0007F0000F80003E000F807C03FF8076F
:103A4000E03EFC07E03E7C0FE03E7C0FE07E7C0F1A
:103A5000E07C7C0FF07C3E0FF07C3E1EF0783E1E3A
:103A600070F81E1E70F81E1E78F81F1E78F01F3C9E
:103A700078F00F3C39F00F3C3DF00F3C3DE00FBCBF
:103A80003DE007F83DE007F81FE007F81FC003F826
:103A90001FC003F81FC003F00F8003F00F8001F078
:103AA0000F80FE01F9F807E3F03F0FC0F81F87E031
:103AB0007E3F00FCFC01F7E007FF000FFC003FE049
:103AC000007F0000FC0007F0001FE000FF8003FF04
:103AD000001F7E00FCF803E3F01F87C07C1F83F00B
:103AE0003F1F80FC7E01FBF007F0FC01FFE00F9F11
:103AF00000FCFC07C3E07E1F83E07C1F03F1F00F96
:103B00008F807EF801F7C00FFC003FE000FE000749
:103B1000F0001F0000F80007C0003E0001F0000F99
:103B200080007C0003E0001F0000F80007C000FFD9
:103B3000FFFFFFFFFFFFFFFFF0007E001F8007E099
:103B400000FC003F000FC003F8007E001F8007E06C
:103B500001FC003F000FC003F0007E001F8007E063
:103B600001FC003FFFFFFFFFFFFFFFFFFCFFFFFF28
:103B7000FFF8F8F8F8F8F8F8F8F8F8F8F8F8F8F8BE
:103B8000F8F8F8F8F8F8F8F8F8F8FFFFFFFFE03871
:103B9000060180700C0300E0180601C0300C030021
:103BA000E0180601C0300C038060180701C0FFFF59
:103BB000FFFF1F1F1F1F1F1F1F1F1F1F1F1F1F1F55
:103BC0001F1F1F1F1F1F1F1F1F1F1FFFFFFFFF03A1
:103BD000E007E007E00FF00FF00F781E781E783C4A
:103BE0003C3C3C3C1E781E781E700FF00FFFFFFF20
:103BF000FFFFFFFFFEF8F0F0E0E007F807FF83FFAC
:103C0000F1FFFE7C1FBE03E000F801FE0FFF8FFFF7
:103C1000E7F8FBF03EF80FBE07EFC3FBFFFE7FFFA8
:103C20008FFBF1F8FCF8003E000F8003E000F80085
:103C30003E000F8003E7E0FBFC3FFFCFFFF3F87E81
:103C4000FC0FBF03FF807FE01FF807FE01FF807FAE
:103C5000F03FFC0FBF87EFFFF3FFFCFBFC3E7E0055
:103C600003F007FE0FFF87FFE7E1FBE07FE03FF097
:103C700000F8007C003E001F000F80FBE07DF87E16
:103C80007FFE3FFE0FFE00FC000003E0007C000F03
:103C90008001F0003E0007C000F81F1F0FFBE3FF8C
:103CA000FCFFFFBF8FF7C07FF80FFE00FFC01FF8BB
:103CB00003FF007FE00FFE03F7C07EFC3FCFFFF85D
:103CC000FFFF0FFBE0FC7C07E007FE03FFE0FFF8CF
:103CD0007E1F1F03CF80FBE01EFFFFBFFFEFFFFB38
:103CE000E000F8003F03E7E1F9FFFC3FFE07FF00BB
:103CF0007F000FC7F3FCFF3E0F83E3FEFFBFE3E04F
:103D0000F83E0F83E0F83E0F83E0F83E0F83E0F8C3
:103D10003E0F8007C7C3FDF3FFFCFFFF7E1FDF03DD
:103D2000FFC0FFE01FF807FE01FF807FE01FFC0FD0
:103D3000DF03F7E1FDFFFF3FFFC7FDF07C7C001FC5
:103D40000007FF03F7E1F9FFFC3FFE01FE00F8006A
:103D50007C003E001F000F8007C003E001F1F0FB74
:103D6000FE7FFFBFFFDFC3FFC0FFC07FE03FF01F4C
:103D7000F80FFC07FE03FF01FF80FFC07FE03FF06C
:103D80001FF80FFC07C0FFFFF0001FFFFFFFFFFF42
:103D9000FFFFFFFFFFFFC03E7CF9F000001F3E7CED
:103DA000F9F3E7CF9F3E7CF9F3E7CF9F3E7CF9F331
:103DB000FFFFFEF8F8007C003E001F000F8007C0E8
:103DC00003E001F03EF83E7C3F3E3F1F3F0F9F0760
:103DD000DF03FF81FFC0FFF07FF83F7E1F1F0F87CB
:103DE000C7C3F3E0F9F07EF81F7C0FC0FFFFFFFFB1
:103DF000FFFFFFFFFFFFFFFFFFFFFFFFC0F8F83FE0
:103E00001F7F9FF3FFFFFF7FFFFFFFC3F87FF83F98
:103E100007FE07C0FFC0F81FF81F03FF03E07FE0A5
:103E20007C0FFC0F81FF81F03FF03E07FE07C0FFD3
:103E3000C0F81FF81F03FF03E07FE07C0F80F8F855
:103E40007DFF3FFFDFFFEFE1FFE07FE03FF01FF886
:103E50000FFC07FE03FF01FF80FFC07FE03FF01F64
:103E6000F80FFC07FE03E003F801FFC07FFC1FFF13
:103E7000C7F0FCF80FBF01FFC01FF803FF007FE091
:103E80000FFC01FFC07EF80F9F87F1FFFC1FFF01B1
:103E9000FFC00FE000F8F83EFF8FFFF3FFFCFE1FAE
:103EA000BF03EFC0FFE01FF807FE01FF807FE01FA8
:103EB000FC0FFF03EFE1FBFFFCFFFF3EFF0F8F83D3
:103EC000E000F8003E000F8003E000F8003E000034
:103ED00007E3E1FF7C7FFF9FFFF7F1FEF80FFF0193
:103EE000FFC01FF803FF007FE00FFC01FFC07EF85A
:103EF0000FDF83F9FFFF3FFFE1FF7C1F8F8001F0A1
:103F0000003E0007C000F8001F0003E0007CF8FF3F
:103F10007FFFFFFFE1F83E07C0F81F03E07C0F8141
:103F2000F03E07C0F81F03E00007F00FFE0FFF8709
:103F3000FFE7E1F3E079F800FF803FFC1FFF83FF1C
:103F4000C03FF001FFC07DF07EFFFE3FFF0FFF018D
:103F5000FE003E1F0F87C3E7FFFFFF3E1F0F87C313
:103F6000E1F0F87C3E1F0F87F3F8FC3EF80FFC07EA
:103F7000FE03FF01FF80FFC07FE03FF01FF80FFC52
:103F800007FE03FF01FF80FFC0FFF0FFFFFF7FFF81
:103F90009FF7C7E3E07C07CF80F9F01F1F07C3E05E
:103FA000F87C1F0783C0F8F81F1F01E3C03E7807A5
:103FB000DF007BC00FF801FF001FC003F8007F0087
:103FC00007C000FC1F03EF83E07DF07E1F3E0FC3A0
:103FD000E3C3F87C7C7F0F0F8FF3E1F1DE7C1E7B67
:103FE000CF83EF39E07DE73C07B8FF80F71FE01F84
:103FF000E3FC03FC3F803F07F007E0FC00FC1F8070
:104000000F83F000FC1F9F07E7E3F0F8F81F7E071F
:10401000DF00FF801FE007F000F8007F003FE00FA7
:10402000F807DF03F7E0F8F87E3F1F07EFC0F87CE2
:1040300003EF80F9F81F1F03E3E0F87C1F07C3E0DC
:10404000F8780F1F01F3C03E7803DF007FC00FF840
:1040500000FF001FC001F8003F0007C000F8001E6D
:104060000007C007F800FE001F8003E0007FFE7F0E
:10407000FE7FFE7FFE007E00FC01F803F003F007E8
:10408000E00FC01F803F007E00FE00FFFFFFFFFF2C
:10409000FFFFFF0787C7E3F1E0F0783C1E0F0783BF
:1040A000C1E0F0F9F8F07E0F83C1E0F0783C1E0F1C
:1040B0000783C1E0FC7E1F0780FFFFFFFFFFFFFFBC
:1040C000FFFFFFFFFFE0F07C3E1F83C1E0F0783C84
:1040D0001E0F0783C1E0F07C1F83C7E7C3C1E0F078
:1040E000783C1E0F0783C7E3E1F0F0003C00FE0FB1
:1040F000FE1E1FFC0FC00F000000000005000100A5
:1041000000020D0602F4040005040601F407000A8B
:104110000C0A00F5160009100A01F32800100D1012
:1041200001F442000B0D0C01F4540002040401F4EC
:10413000550004110601F45E0004110601F4670045
:1041400005050701F46B0006080B03F97100020472
:10415000050200720004010601FC73000201050162
:10416000007400050D0500F47D00080D0A01F48AB5
:1041700000040D0A03F49100090D0A01F4A00008DF
:104180000D0A01F4AD00070D0A02F4B900090D0A89
:1041900001F4C800090D0A01F4D700080D0A00F463
:1041A000E400090D0A01F4F300080D0A01F400010E
:1041B000020A0501F70301030C0501F808010909CA
:1041C0000B01F8130109040B01FB180109090B018C
:1041D000F82301090D0A01F4320111101201F454FF
:1041E000010C0D0C00F468010B0D0C01F47A010BAD
:1041F0000D0D01F48C010B0D0D01F49E01090D0B49
:1042000001F4AD01080D0B01F4BA010C0D0E01F41F
:10421000CE010B0D0D01F4E001020D0502F4E401E5
:10422000070D0A01F4F0010B0D0C01F40202080D58
:104230000A01F40F020D0D0F01F425020B0D0D0103
:10424000F437020D0D0E01F44D020A0D0C01F45E5F
:10425000020D0E0E01F475020C0D0D01F489020A17
:104260000D0C01F49A02090D0B01F4A9020B0D0DBE
:1042700001F4BB020B0D0C00F4CD02110D1100F482
:10428000E9020C0D0C00F4FD020C0D0C00F41103FE
:104290000A0D0B01F4220303110501F42903050D96
:1042A0000500F4320303110500F439030707080180
:1042B000F440030A010A0003420304030500F44426
:1042C00003090A0A01F75003090D0A01F45F030804
:1042D0000A0901F76903080D0A01F47603080A0ABE
:1042E00001F78003040D0501F48703080E0A01F7A6
:1042F0009503080D0A01F4A203020D0401F4A603BC
:1043000004110400F4AF03090D0901F4BE03020D0A
:104310000401F4C2030D0A0F01F7D303080A0A01CE
:10432000F7DD03080A0A01F7E703090D0A01F7F6AA
:1043300003080D0A01F70304050A0601F70A040839
:104340000A0901F71404040C0501F51A04080A0A05
:1043500001F72404090A0900F730040D0A0D00F7DB
:104360004104080A0900F74B04090E0900F75B0431
:10437000070A0901F7640404110601F46D0402112F
:104380000402F4720404110601F47B04070309011A
:10439000F9FFFFF8C0DEF72009864191FF1304C33F
:1043A00020C8FF89826190101F14DA3D1E83407877
:1043B0001708F47A3533F040203810EC20C620C6B8
:1043C00040C6406C803900013C02770263046304FC
:1043D00077083C0E0660CC1981E0180F0336C2D86E
:1043E000730631E3C4FE13266CCCCCC46623108C58
:1043F0004663333332664C80257EA50030C33F30A0
:10440000C30CD6F0C00844211084421108003C6659
:1044100042C3C3C3C3C3C3C342663C113F33333338
:1044200033303E31B07830181C1C1C1818100807A7
:10443000F83C66C3C303061C0703C3C3663C0C18E1
:104440007162C9A346FE183060C07F2010080807BB
:10445000F38C030180F06C63E01E3198780C06F356
:104460008D83C1E0D06C63E0FF030206040C0818E2
:1044700018181030303E31B0783C1B18F8C6C1E037
:10448000F06C63E03C66C2C3C3C3673B0303C26610
:104490003CC00030C0000064A00081C78E0C0780C3
:1044A000700E0180FF80001FF000700E01C01838F0
:1044B00071C080003E31B0783018183818180C00E0
:1044C00000018003F0060E06018600661DBB31CF99
:1044D00018C79863CC31E611B399CCF786000180F8
:1044E0000070400FE00600F00F00901981981083D3
:1044F0000C3FC204606606C030FF183303606C0DC9
:10450000833FC606C0780F01E06FF81F861981A0AF
:104510003C0180300600C0680D831861F0FF18333D
:1045200003603C0780F01E03C0780F0360CFF0FFEC
:10453000E030180C0603FD80C06030180FF8FFC093
:10454000C0C0C0C0FEC0C0C0C0C0C00F830E606687
:1045500003C00C00C1FC03C0360360730F0F10C012
:10456000780F01E03C0780FFFE03C0780F01E03CBC
:1045700006FFFFFFC0060C183060C183078F1E279F
:1045800080C0D8330C630CC1B83F0730C318630632
:10459000606C0CC0C0C0C0C0C0C0C0C0C0C0C0FF44
:1045A000E03F01FC1FE0FD05EC6F637913CD9E6CCD
:1045B000F1478E3C7180E07C0FC1E83D8798F11E89
:1045C00033C3786F07E07C0E0F8183180CC06C0139
:1045D000E00F007803C01B01980C60C0F800FF30AA
:1045E0006C0F03C0F06FF300C0300C0300C0000F6D
:1045F0008183180CC06C01E00F007803C01B019888
:104600006C60C0FB0008FF8C0EC06C06C06C0CFF19
:104610008C0EC06C06C06C06C0703F186C0F03C0D7
:104620001E01F00E00F03C0D863F00FF8603018066
:10463000C06030180C06030180C0C0780F01E03C58
:104640000780F01E03C0780F01B061F0C06C0D81CF
:1046500010630C610460CC1901603C070060C181EB
:1046600030E19870CC286626211330C8986C4C1421
:10467000340A1A0707030380818060630C30C198F5
:104680000F00E00600F019019830C60E6060C036D9
:104690000630C30C1981D80F006006006006006068
:1046A0000600FFC060300C060301C060301806032E
:1046B00000FFC0FB6DB6DB6DB6E084108410841083
:1046C000841080EDB6DB6DB6DBE03060A244D8A18B
:1046D00080FFC0C6307E71B0C060F3DB0D86C73D81
:1046E000C0C060301BCE360F0783C1E0F07C6DE0A8
:1046F0003C66C3C0C0C0C0C3663C0303033B67C382
:10470000C3C3C3C3C3673B3C66C3C3FFC0C0C36668
:104710003C366F66666666603B67C3C3C3C3C3C38C
:10472000673B0303C67CC0C0C0DEE3C3C3C3C3C3CF
:10473000C3C3C3C3FFFFC03003333333333333E06A
:10474000C06030184C466361F0EC6231986C30FF09
:10475000FFFFC0DEF71CF0C7863C31E18F0C7863A9
:10476000C31E18C0DEE3C3C3C3C3C3C3C3C33C6615
:10477000C3C3C3C3C3C3663CDE71B0783C1E0F071E
:1047800083E36F30180C003B67C3C3C3C3C3C36765
:104790003B030303DF318C6318C6003EE3C0C0E077
:1047A0003C07C3E37E66F666666667C3C3C3C3C3DE
:1047B000C3C3C3C77BC1A098CC4221B0D0281C0C76
:1047C00000C61E3891C4CA66D316D0A6871C38C04E
:1047D000C6004362361C181C3C266243C12198CC9B
:1047E0004261B0D0381C0C0603010300FE0C30C13E
:1047F000861820C1FC3666666ECE66666630FFFFA0
:10480000FFFFC0C666666737666666C061243844C7
:10481000656D6F20426C75650044656D6F20477251
:1048200065656E0044656D6F2052656400426C756D
:104830006520286D656469756D2900477265656E30
:104840002028686172642900526564202873696DAC
:10485000706C652900000000000500010000020DD9
:104860000602F4040005040601F407000A0C0A001D
:10487000F5160009100A01F32800100D1001F4428A
:10488000000B0D0C01F4540002040401F455000463
:10489000110601F45E0004110601F4670005050726
:1048A00001F46B0006080B03F97100020405020015
:1048B000720004010601FC7300020105010074008E
:1048C000050D0500F47D00080D0A01F48A00040DB1
:1048D0000A03F49100090D0A01F4A000080D0A0171
:1048E000F4AD00070D0A02F4B900090D0A01F4C87D
:1048F00000090D0A01F4D700080D0A00F4E40009CC
:104900000D0A01F4F300080D0A01F40001020A0582
:1049100001F70301030C0501F8080109090B01F86F
:10492000130109040B01FB180109090B01F823010C
:10493000090D0A01F4320111101201F454010C0D99
:104940000C00F468010B0D0C01F47A010B0D0D0144
:10495000F48C010B0D0D01F49E01090D0B01F4AD5A
:1049600001080D0B01F4BA010C0D0E01F4CE010B80
:104970000D0D01F4E001020D0502F4E401070D0A3A
:1049800001F4F0010B0D0C01F40202080D0A01F410
:104990000F020D0D0F01F425020B0D0D01F437026E
:1049A0000D0D0E01F44D020A0D0C01F45E020D0E08
:1049B0000E01F475020C0D0D01F489020A0D0C01B3
:1049C000F49A02090D0B01F4A9020B0D0D01F4BBC1
:1049D000020B0D0C00F4CD02110D1100F4E9020CD4
:1049E0000D0C00F4FD020C0D0C00F411030A0D0B6C
:1049F00001F4220303110501F42903050D0500F458
:104A0000320303110500F4390307070801F44003DA
:104A10000A010A0003420304030500F44403090ADF
:104A20000A01F75003090D0A01F45F03080A09019E
:104A3000F76903080D0A01F47603080A0A01F780F2
:104A400003040D0501F48703080E0A01F795030816
:104A50000D0A01F4A203020D0401F4A603041104DB
:104A600000F4AF03090D0901F4BE03020D0401F4C3
:104A7000C2030D0A0F01F7D303080A0A01F7DD0389
:104A8000080A0A01F7E703090D0A01F7F603080D02
:104A90000A01F70304050A0601F70A04080A0901D6
:104AA000F71404040C0501F51A04080A0A01F72496
:104AB00004090A0900F730040D0A0D00F741040843
:104AC0000A0900F74B04090E0900F75B04070A09FD
:104AD00001F7640404110601F46D0402110402F4E8
:104AE000720404110601F47B0407030901F9FFFFB6
:104AF000F8C0DEF72009864191FF1304C320C8FFE8
:104B000089826190101F14DA3D1E8340781708F4E3
:104B10007A3533F040203810EC20C620C640C6401D
:104B20006C803900013C0277026304630477083C1F
:104B30000E0660CC1981E0180F0336C2D873063117
:104B4000E3C4FE13266CCCCCC46623108C466333BE
:104B50003332664C80257EA50030C33F30C30CD66F
:104B6000F0C00844211084421108003C6642C3C3CF
:104B7000C3C3C3C3C342663C113F33333333303EF8
:104B800031B07830181C1C1C1818100807F83C6647
:104B9000C3C303061C0703C3C3663C0C187162C978
:104BA000A346FE183060C07F2010080807F38C036E
:104BB0000180F06C63E01E3198780C06F38D83C1A0
:104BC000E0D06C63E0FF030206040C08181818100C
:104BD00030303E31B0783C1B18F8C6C1E0F06C6351
:104BE000E03C66C2C3C3C3673B0303C2663CC0006C
:104BF00030C0000064A00081C78E0C0780700E01D9
:104C000080FF80001FF000700E01C0183871C08056
:104C1000003E31B0783018183818180C00000180A8
:104C200003F0060E06018600661DBB31CF18C7983B
:104C300063CC31E611B399CCF78600018000704057
:104C40000FE00600F00F009019819810830C3FC20E
:104C500004606606C030FF183303606C0D833FC6E6
:104C600006C0780F01E06FF81F861981A03C018013
:104C7000300600C0680D831861F0FF183303603CF4
:104C80000780F01E03C0780F0360CFF0FFE03018FC
:104C90000C0603FD80C06030180FF8FFC0C0C0C014
:104CA000C0FEC0C0C0C0C0C00F830E606603C00C91
:104CB00000C1FC03C0360360730F0F10C0780F01F2
:104CC000E03C0780FFFE03C0780F01E03C06FFFFD9
:104CD000FFC0060C183060C183078F1E2780C0D824
:104CE000330C630CC1B83F0730C3186306606C0C0B
:104CF000C0C0C0C0C0C0C0C0C0C0C0C0FFE03F0195
:104D0000FC1FE0FD05EC6F637913CD9E6CF1478EBF
:104D10003C7180E07C0FC1E83D8798F11E33C37879
:104D20006F07E07C0E0F8183180CC06C01E00F0050
:104D30007803C01B01980C60C0F800FF306C0F03B3
:104D4000C0F06FF300C0300C0300C0000F81831867
:104D50000CC06C01E00F007803C01B01986C60C0B0
:104D6000FB0008FF8C0EC06C06C06C0CFF8C0EC0E4
:104D70006C06C06C06C0703F186C0F03C01E01F0BB
:104D80000E00F03C0D863F00FF86030180C06030BE
:104D9000180C06030180C0C0780F01E03C0780F0CA
:104DA0001E03C0780F01B061F0C06C0D8110630C60
:104DB000610460CC1901603C070060C18130E1985A
:104DC00070CC286626211330C8986C4C14340A1A0B
:104DD0000707030380818060630C30C1980F00E0F7
:104DE0000600F019019830C60E6060C0360630C368
:104DF0000C1981D80F00600600600600600600FFF5
:104E0000C060300C060301C0603018060300FFC00C
:104E1000FB6DB6DB6DB6E0841084108410841080C6
:104E2000EDB6DB6DB6DBE03060A244D8A180FFC0F8
:104E3000C6307E71B0C060F3DB0D86C73DC0C06078
:104E4000301BCE360F0783C1E0F07C6DE03C66C3BB
:104E5000C0C0C0C0C3663C0303033B67C3C3C3C336
:104E6000C3C3673B3C66C3C3FFC0C0C3663C366F69
:104E700066666666603B67C3C3C3C3C3C3673B0361
:104E800003C67CC0C0C0DEE3C3C3C3C3C3C3C3C3C4
:104E9000C3FFFFC03003333333333333E0C06030FC
:104EA000184C466361F0EC6231986C30FFFFFFC034
:104EB000DEF71CF0C7863C31E18F0C7863C31E1807
:104EC000C0DEE3C3C3C3C3C3C3C3C33C66C3C3C35E
:104ED000C3C3C3663CDE71B0783C1E0F0783E36F2B
:104EE00030180C003B67C3C3C3C3C3C3673B030392
:104EF00003DF318C6318C6003EE3C0C0E03C07C34B
:104F0000E37E66F666666667C3C3C3C3C3C3C3C333
:104F1000C77BC1A098CC4221B0D0281C0C00C61E73
:104F20003891C4CA66D316D0A6871C38C0C60043C1
:104F300062361C181C3C266243C12198CC4261B0E9
:104F4000D0381C0C0603010300FE0C30C18618206B
:104F5000C1FC3666666ECE66666630FFFFFFFFC038
:104F6000C666666737666666C06124380000000062
:104F70000E00010000060F0E06F20C0008070E06D8
:104F8000F313000D120E02F131000B140E03F04D5D
:104F9000000B0F0E03F262000B0D0E02F4740003FF
:104FA000070E08F3770007130E07F2880007130EA9
:104FB00002F299000B0A0E04F2A7000C0D0E03F486
:104FC000BB0006070E03FEC1000D020E02F9C5006C
:104FD00003030E06FEC7000E140E02F0EA000B0FCC
:104FE0000E03F2FF000B0F0E02F214010D0F0E0163
:104FF000F22D010C0F0E02F244010B0E0E03F358BA
:10500000010C0F0E02F26F010B0F0E04F284010B64
:105010000F0E04F299010B0F0E03F2AE010B0F0EEF
:1050200003F2C301050B0E05F6CA01070F0E03F6C6
:10503000D8010D0B0E02F5EA010D070E02F7F6017D
:105040000D0B0E02F50802090E0E05F318020C13E3
:105050000E02F235020F0E0E00F350020D0E0E017D
:10506000F367020E0E0E02F380020D0E0E01F3978F
:10507000020F0E0E00F3B202100E0E00F3CE020E5F
:105080000E0E01F3E702100E0E00F303030C0E0EDA
:1050900002F31803100E0E00F33403100E0E00F38B
:1050A00050030D0E0E01F36703120E0E00F387037B
:1050B000100E0E01F3A3030E0E0E01F3BC030D0E32
:1050C0000E01F3D3030E110E01F3F1030F0E0E00C8
:1050D000F30C040C0E0E03F321040D0E0E02F33834
:1050E000040E0E0E02F351040F0E0E01F36C040FAA
:1050F0000E0E01F38704100E0E00F3A3040D0E0E26
:1051000002F3BA040E0E0E01F3D30409130E05F2D6
:10511000E90407140E05F0FB0409130E03F2110550
:105120000A080E04F11B050F020EFF041F050404FC
:105130000E07F121050C0B0E02F632050F0F0EFFC4
:10514000F24F050C0B0E02F660050E0F0E02F27BFD
:10515000050C0B0E02F68C050F0F0E02F2A9050EC0
:10516000100E02F6C5050D0F0E01F2DE050B0E0E38
:1051700002F3F2050C130E01F30F060E0F0E01F2EF
:105180002A060B0F0E02F23F060F0B0E00F6540616
:105190000D0B0E01F666060C0B0E02F677061010CC
:1051A0000EFFF697060F100E01F6B5060E0B0E0158
:1051B000F6C9060C0B0E02F6DA060A0E0E02F3EC26
:1051C000060C0B0E02F6FD060F0B0E01F612070E73
:1051D0000B0E02F626070E0B0E01F63A0710100E04
:1051E00000F65A070C0B0E02F66B070A130E04F2B8
:1051F000830706130E05F2920709130E03F2A807A0
:105200000C040E03F91CF3CE38E71C618600638C96
:1052100000E7E7E6C6C6C48403301981DC0CE0660B
:105220001FFCFFE1980CC0EE0670FFCFFE1DC0CC46
:105230000660770330000100700C07F1FE71CC119D
:10524000803F03F00F206E0DC33FE7F81C030060A2
:105250000C000E03E0C41082307C07787C7F19F0CC
:10526000620841183E038007C1F8620C0180380FC4
:1052700003F76FD8F31E7FE7F8FF6D20061C70C39D
:10528000061830C183060C18307060C1000C183845
:105290003060C183060C3061C30E3861C200060065
:1052A000C0183F7FFEFF0781F8770C60030070078E
:1052B0000060060FFFFFF0E00C00C00C01C01800FA
:1052C0001CE31C6308007FFFFFC07F000008007024
:1052D00001800E007003800C007003800C007003CE
:1052E000800C007003800C007003800C002000070D
:1052F00083F8E3983706C0D81B03E0F81B0360EE81
:1053000038FE0F0003C1F07E0CC0380700C018073C
:1053100000E018030061FFFFF003E03F838E3831A7
:1053200081801801C01C01C03803803847873FF3D3
:10533000FF8007C1FF18700300300607C07C00E043
:1053400006006006C1CFF87E0001E03C0F0360CC90
:105350003B8E638C619FFBFF0181F83F000FF1FEE4
:105360001801801803F83FC38E00600600600CC16E
:10537000CFF87E0003E1FC701C0300C01BC7FCF3E8
:1053800098330660CE30FC0F00FFFFFB0760C0388B
:105390000601C0300E0180701C0380600800078386
:1053A000F8E3B03606C0DC31FC3F8C3B03606C395F
:1053B000FE1F000781F86398330660CE79FF1EC098
:1053C000180601C071FC3E0019CC000000673006D1
:1053D0001C30000000003871C30E182000001803B4
:1053E000C07C1F03E03E007C01F003E00780087FE3
:1053F000FBFFC0000000007FFBFFC03001E007C0E2
:105400000F003E007C1F03E07C078020003E7FB041
:10541000F830181C1C3C3818000607030003C07E37
:105420000C718330330F33E6766C66C66C6CFCC748
:10543000EC00C00C00E307F03C0007F01FE007C0E1
:105440001F803B00E7018E071C1FF83FF0E07180D2
:10545000EFC7FF8FC03FF1FFC3063831C18C187F03
:10546000C3FE3839C0CC06606FFF7FE003EC3FF12C
:10547000C38C066019800C003000C003000C033C94
:105480001C7FE07E003FE1FF870C3031818C0CE017
:1054900067033031818C0CE1CFFC7F801FFE3FFC25
:1054A00038387070CCC19803F00FE01D803118605F
:1054B00070C0E7FF9FFF001FFF1FFE0E060C0E0CC3
:1054C000C40CC01FC01FC019C0198018003800FFCD
:1054D00000FF0007EC7FF3839C066019800C00300E
:1054E000FEC3FB01CC073C387FE07E000FBF1FBE30
:1054F0000E0C0C0C0C1C0C1C1FF81FF8181818387C
:10550000183838307CFCFCF83FF3FF0300700700CC
:10551000600600600E00E00E00C0FFCFFC03FF033A
:10552000FF00380030003000300070207060606094
:105530006060E0E1C0FF803F001F9F1F9E0E380C9F
:10554000700CE00FC01FC01FE01CE018601870381E
:1055500070FE3CFC3C3FC1FE01801C00E0060030B8
:1055600001801C18E0C606307FFFFFF81E07878108
:10557000E0F0F07C7C1F1F06CF81BF60EF983BEE10
:105580000C73831CC0C030FC7E3F1F803C3F3E3FFD
:105590001E0C1F1C1F1C1B983B983B9831F831F8C0
:1055A00030F070F0FC70F87003E03FE1C38C0760EE
:1055B0000D803C00F003C01B006E031C387FC07CD4
:1055C000003FE1FF830E3831C18C0C60C3FC3FC14A
:1055D000C00C00600FF07F8003E03FE1C38C0760E8
:1055E0000D803C00F003C01B006E031C387FC0FC24
:1055F00003021FFCFFE01FF03FF038706060C0C185
:105600008707FC0FF018F030E060C1C1CFE1FFC3A5
:10561000C00FB1FF30E6066067807F01FC01C40C5B
:10562000C0CE18FF8BE07FFBFFD9CFCE7C63631821
:105630001801C00E00600300180FF87FC07EFFF352
:10564000F3031C0C603181C6063818E063038C0C30
:1056500030707F80F800FC7FF8FDC06181C3870750
:105660000C0E380C6019C03F007C00F800E001808F
:10567000007E7EFCFDC0739CE7798EF71BEE36D86A
:105680007DF0F3E1E7838F071E1C38001F1F1F1FEB
:105690000E1C0738077003E003C003C007E00EE0EC
:1056A0001C703870FCFCFCFCF8FFC7CC3873839C82
:1056B0000FC07C01C00C00600300380FF87F800F22
:1056C000F87FE1C7861C18E007003801C00E0070A3
:1056D000C3831C1C7FF3FF800F87C30381C0C0609E
:1056E00030381C0C06030381C0C0603E3F0041C33C
:1056F00083070E1C183870E0C1C383060E1C1820E7
:105700001F0F80C0E07030180C0E07030180C0E04E
:105710007030187C3E00020180F07E3B9C7E1F03AF
:10572000FFFFFFFCCE731FC3FE0060060FE3FE7099
:10573000CC0CC3CFFF7FF01E003C0038007000DFB0
:1057400081FF83C38F031C06380C7018E063E19F50
:10575000FE3DF8000FF3FF307607E06C00C00C0050
:10576000E067FE3F80003C00F001C00607D87FE301
:105770000F981E607301CC07303CE1F1FFE3F78026
:105780000FC1FE787603FFFFFFC00C00E0E7FE1FAD
:105790008000FC07F80C003801FF07FE01800700BD
:1057A0000E00180030006001C01FF83FF0000FBC71
:1057B0007FF30F181CC073018C0E3038E3E1FF83B8
:1057C000EC003001C00607F01F801E01F003001836
:1057D00000DE0FF878C3861830C18E1C70E3067E99
:1057E000FFE7E0038070000FC1F00600C03807003B
:1057F000C018030FFFFFC00070070000FF1FF00775
:1058000000700600600600E00E00C00C00C01C0323
:1058100087F0FE001E007800E003800CFC33E0DE21
:1058200007E01F007C01F806F039C3E7EF1F800F87
:1058300081F00601C0380600C0180700E018030018
:1058400061FFFFF83FBC7FFCF398C6339CE739CC7F
:105850006318C6318DF7BFEF783DE1FF8F8C38615B
:10586000830C18E1C70E3067EFFE7E07C1FE387665
:1058700003C03C03C03C06E1C7F83E001EFC1FFE0F
:105880000F870F030E030E030E070E061F0C1FF8E3
:1058900019F0180018003800FE00FE000FDE3FFC73
:1058A000C3E3038407180E301C6078E1E0FFC0F901
:1058B0008003000E001C01FC03F81E787FF07CC3FF
:1058C000C00E003000C003001C03FF0FFC0007F1F6
:1058D000FF3073863F81FE03E606E0EFFCFF000C1D
:1058E000070183FFFFCE0300C0301C0701837FCF79
:1058F000C0F0FF1F60760760760660660E61E7FF06
:105900003EF07E7EFCFCE0C0C381860398077006F3
:10591000C00F801E003800F87FE3E6631BDC6F6178
:10592000FF87FC1EF07381CE0638003E7CF9F1E75C
:1059300003F807C01F01FC0F3878FBF7EF9F801FAB
:105940001F3E1F1C1C0C180E380E70066007E00767
:10595000C007C00380070007000E00FF00FF001F04
:10596000F1FF38E31C0380700E01C63867FE7FE04C
:1059700001C0F07018060380E0301C3E0F00601874
:10598000060380C0300F01C00C71C718638E30C38E
:105990001C718638E304000E0780C0607030180C5C
:1059A0000601C1E1C0C0E07030387838003C27E61D
:1059B000EFCC38000000000500010000020D0602D7
:1059C000F4040005040601F407000A0C0A00F516A9
:1059D0000009100A01F32800100D1001F442000B19
:1059E0000D0C01F4540002040401F45500041106E6
:1059F00001F45E0004110601F4670005050701F4D7
:105A00006B0006080B03F971000204050200720026
:105A100004010601FC730002010501007400050D7C
:105A20000500F47D00080D0A01F48A00040D0A0344
:105A3000F49100090D0A01F4A000080D0A01F4AD6B
:105A400000070D0A02F4B900090D0A01F4C80009A3
:105A50000D0A01F4D700080D0A00F4E400090D0A4C
:105A600001F4F300080D0A01F40001020A0501F730
:105A70000301030C0501F8080109090B01F81301E2
:105A800009040B01FB180109090B01F82301090D99
:105A90000A01F4320111101201F454010C0D0C0032
:105AA000F468010B0D0C01F47A010B0D0D01F48C5F
:105AB000010B0D0D01F49E01090D0B01F4AD010860
:105AC0000D0B01F4BA010C0D0E01F4CE010B0D0DFE
:105AD00001F4E001020D0502F4E401070D0A01F4EE
