:020000040000FA
:100000000C94AA040C94DB040C94DB040C94DB0425
:100010000C94DB040C94DB040C94DB040C94DB04E4
:100020000C94DB040C94DB040C94DB040C94DB04D4
:100030000C94DB040C94DB040C94DB040C94DB04C4
:100040000C94DB040C94AC260C94DB040C94DB04C1
:100050000C94DB040C94DB040C94DB040C947825E6
:100060000C94DB040C94EC250C94C2250C94DB045A
:100070000C94DB040C94DB040C94DB040C94DB0484
:100080000C947E260C94DB040C94DB040C94DB04AF
:100090000C94DB040C94DB040C94DB040C94DA2643
:1000A0000C94DB040C94DB040C9450260C94DB04BD
:1000B0000C94DB040C94DB040C94DB040C942226DB
:1000C0000C94DB040C94DB040C94DB040C94DB0434
:1000D0000C94DB040C94DB040C94DB040C94DB0424
:1000E0000C94DB040C94C50F0C94DA050C94DC130F
:1000F0000C94A80A0C94040D0C9423070C94CC05C2
:100100000C9460100C949F050C9432070C944607D5
:100110000C945A1A0C94D10D0C94331A0C94571554
:100120000C9494190C94270B0C94F6060C9454140C
:100130000C94DE050C9403160C9492190C94DA1BA3
:100140000C942E170C94BE050C9499050C94CC07B6
:100150000C943A1A0C940A0B0C948F190C947D137E
:100160000C94110E0C94C2050C94900D0C94361A3C
:100170000C94930C0C94220C0C94D4050C946C10DD
:100180000C94B4050C94F0190C94B8050C94A305C8
:100190000C94AE050C9404160C94A6120C94190839
:1001A0000C94AB050C94FA270C94AC0E0C949407A9
:1001B0000C94A7050C94D0050C947A0E0C94D905D8
:1001C0000C94C60500407A10F35A00A0724E18092C
:1001D0000010A5D4E80000E87648170000E40B54AE
:1001E000020000CA9A3B000000E1F505000080967D
:1001F0009800000040420F000000A08601000000AF
:10020000102700000000E803000000006400000068
:1002100000000A00000000000100000000002C7631
:10022000D888DC674F0823DFC1DFAE59E1B1B7964C
:10023000E5E3E453C63AE651997696E8E6C28426A9
:10024000EB898C9B62ED407C6FFCEFBC9C9F40F285
:10025000BAA56FA5F490055A2AF75C936B6CF96701
:100260006DC11BFCE0E40D47FEF520E6B500D0EDC6
:10027000902E0300943577050080841E080000202E
:100280004E0A000000C80C333333330F986E1283CC
:100290001141EF8D2114893BE65516CFFEE6DB18A0
:1002A000D1844B381BF77C1D901DA4BBE424203265
:1002B00084725E228100C9F124ECA1E53D2704E0AF
:1002C00010021C07123732292D29252B3900010372
:1002D00010E110031D07062E2C292D2E2E373F006E
:1002E00000021013800A298064022A040000007FA3
:1002F0002B040000009F0F0180961180FFB10301C5
:100300002C2DB203012C2DB306012C2D012C2DB464
:100310000107C003A20284C101C5C2020A00C302D0
:100320008A2AC4028AEEC5010E20003601C83A01AD
:100330000500000000003E5B4F5B3E3E6B4F6B3E96
:100340001C3E7C3E1C183C7E3C181C577D571C1CD8
:100350005E7F5E1C00183C1800FFE7C3E7FF001833
:10036000241800FFE7DBE7FF30483A060E2629791C
:100370002926407F050507407F05253F5A3CE73C7D
:100380005A7F3E1C1C08081C1C3E7F14227F22142E
:100390005F5F005F5F06097F017F006689956A6085
:1003A0006060606094A2FFA29408047E040810209C
:1003B0007E201008082A1C08081C2A08081E101095
:1003C00010100C1E0C1E0C30383E3830060E3E0E3F
:1003D00006000000000000005F00000007000700AA
:1003E000147F147F14242A7F2A1223130864623690
:1003F000495620500008070300001C22410000411C
:10040000221C002A1C7F1C2A08083E080800807055
:100410003000080808080800006060002010080488
:10042000023E5149453E00427F40007249494946DB
:100430002141494D331814127F1027454545393C59
:100440004A49493141211109073649494936464946
:1004500049291E0000140000004034000000081468
:1004600022411414141414004122140802015909E1
:10047000063E415D594E7C1211127C7F4949493636
:100480003E414141227F4141413E7F494949417FAF
:10049000090909013E414151737F0808087F004165
:1004A0007F41002040413F017F081422417F4040AE
:1004B00040407F021C027F7F0408107F3E41414183
:1004C0003E7F090909063E4151215E7F09192946EF
:1004D000264949493203017F01033F4040403F1F05
:1004E0002040201F3F4038403F631408146303043A
:1004F0007804036159494D43007F4141410204089A
:100500001020004141417F0402010204404040406C
:1005100040000307080020545478407F28444438A2
:100520003844444428384444287F385454541800EC
:10053000087E090218A4A49C787F0804047800446B
:100540007D40002040403D007F1028440000417F56
:1005500040007C047804787C0804047838444444DF
:1005600038FC1824241818242418FC7C08040408D7
:10057000485454542404043F44243C4040207C1CF0
:100580002040201C3C4030403C44281028444C90E3
:1005900090907C4464544C4400083641000000773D
:1005A0000000004136080002010204023C26232616
:1005B0003C1EA1A161123A4040207A38545455594A
:1005C0002155557941225454784221555478402080
:1005D000545579400C1E527212395555555939549B
:1005E00054545939555454580000457C4100024533
:1005F0007D420001457C407D1211127DF0282528A6
:10060000F07C545545002054547C547C0A097F49A1
:1006100032494949323A4444443A324A4848303AE5
:100620004141217A3A42402078009DA0A07D3D4280
:1006300042423D3D4040403D3C24FF2424487E4909
:1006400043662B2FFC2F2BFF0929F620C0887E093B
:100650000320545479410000447D413048484A32D7
:10066000384040227A007A0A0A727D0D19317D26BF
:1006700029292F28262929292630484D40203808A5
:1006800008080808080808382F10C8ACBA2F102826
:1006900034FA00007B000008142A142222142A14C1
:1006A000085500550055AA55AA55AAFF55FF55FFF4
:1006B000000000FF00101010FF00141414FF0010C1
:1006C00010FF00FF1010F010F0141414FC001414AC
:1006D000F700FF0000FF00FF1414F404FC141417CB
:1006E000101F10101F101F1414141F00101010F0F2
:1006F000000000001F101010101F10101010F0103C
:10070000000000FF101010101010101010FF10004B
:100710000000FF140000FF00FF00001F1017000082
:10072000FC04F414141710171414F404F40000FF5C
:1007300000F714141414141414F700F714141417F5
:100740001410101F101F141414F4141010F010F0D3
:1007500000001F101F0000001F14000000FC140008
:1007600000F010F01010FF10FF141414FF141010FC
:10077000101F00000000F010FFFFFFFFFFF0F0F07F
:10078000F0F0FFFFFF0000000000FFFF0F0F0F0F52
:100790000F3844443844FC4A4A4A347E0202060672
:1007A000027E027E0263554941633844443C044062
:1007B0007E201E2006027E020299A5E7A5991C2A2A
:1007C000492A1C4C7201724C304A4D4D30304878E9
:1007D0004830BC625A463D3E494949007E0101010C
:1007E0007E2A2A2A2A2A44445F444440514A4440EB
:1007F00040444A51400000FF0103E080FF00000830
:10080000086B6B083612362436060F090F060000F7
:1008100018180000001010003040FF0101001F01F7
:10082000011E00191D1712003C3C3C3C000000005A
:100830000000002100240027002A002D0030003392
:100840000001010000040107010A0100002000234B
:1008500000260029002C002F0032000001000003B8
:10086000010601090100000A0B02090C0D0E080720
:100870000304010000000000000000000000000070
:100880000000000000000000000000000000000068
:100890000012111000000000000000000000000025
:1008A00000000000000000000000000102102020F5
:1008B00008081020401020408002010201080402B4
:1008C000010102040810204080804020100804022A
:1008D0000180040201804020100804020108040283
:1008E0000101020408102040800102040810204089
:1008F0008000002200250028002B002E003100344B
:100900000002010000050108010B010505050507AE
:100910000508080808020202020A0A08080404047A
:1009200004010101010101010103030303030303A6
:1009300003040707070C0C0C0C0C0C0C0C02020235
:100940000206060606060606060B0B0B0B0B0B0B28
:100950000B00FA2711241FBECFEFD1E2DEBFCDBFBF
:1009600000E00CBF14E0A0E0B2E0ECEBF7E600E042
:100970000BBF02C007900D92A03DB107D9F727E049
:10098000A0EDB4E001C01D92AC35B207E1F714E070
:10099000CAEAD4E000E006C021970109802FFE01D9
:1009A0000E949631C93AD10780E00807A9F70E9452
:1009B0007C280C94DC330C940000DC0113961C9210
:1009C0001E92129720E830E015963C932E931497D0
:1009D00080EA90E017969C938E93169719963C9315
:1009E0002E9318971B969C938E931A9756961C924B
:1009F00056971D961C921E921C971F961C921E9233
:100A00001E9781E055968C93559754968C935497E6
:100A10002FEF3FEF53963C932E93529751963C9372
:100A20002E93509757968C93579758961C92589799
:100A30005A961C921E9259978CE292E011969C93C2
:100A40008E93D5961C92D59785E2D6968C93D697A1
:100A500080E3D7968C93D79781E3D8968C93D897D9
:100A6000DA961C921E92D997DC961C921E92DB9706
:100A7000DD961C92DD97DE961C92DE97FD01FF96B7
:100A800010821182128213828CE796E090969C93DA
:100A90008E935F97ECE3F9E0E491F0E0EE0FFF1F37
:100AA000EF50F74F859194915E969C938E935D974E
:100AB000ECEDF8E08491D3968C93D397EBE3F9E0D7
:100AC000E491F0E0EE0FFF1FEF50F74F25913491C6
:100AD0005C963C932E935B97EBEDF8E0E491D19616
:100AE000EC93D197E095D296EC93D297E82FE095CE
:100AF000D496EC9308958150823108F05AC0E82FC3
:100B0000F0E08827E957FA4F8F4F0C949631A705EC
:100B1000AB0599059F05A305D905AE05B405B80534
:100B2000BE05C205C605CC05D005D905D405DA0534
:100B3000DE05809180008F778093800008958091FA
:100B400080008F7DF9CF80918000877FF5CF84B5BD
:100B50008F7784BD089584B58F7DFBCF8091B000E1
:100B60008F778093B00008958091B0008F7DF9CF8A
:100B7000809190008F7780939000089580919000ED
:100B80008F7DF9CF80919000877FF5CF8091A00075
:100B90008F778093A00008958091A0008F7DF9CF7A
:100BA0008091A000877FF5CF809120018F7780937F
:100BB00020010895809120018F7DF9CF809120013F
:100BC000877FF5CFCF93DF93282F30E0F901EB59E2
:100BD000F74F8491F901E555F74FD491F901E55F9D
:100BE000F64FC491CC23A1F081110E947B05EC2F1C
:100BF000F0E0EE0FFF1FE55BF74FA591B491EC918C
:100C0000ED2381E090E009F480E0DF91CF91089539
:100C100080E090E0FACF1F93CF93DF93282F30E04E
:100C2000F901EB59F74F8491F901E555F74FD4914C
:100C3000F901E55FF64FC491CC23A9F0162F81117D
:100C40000E947B05EC2FF0E0EE0FFF1FEF50F74FF7
:100C5000A591B4918FB7F894EC91111108C0D0957B
:100C6000DE23DC938FBFDF91CF911F910895DE2BA0
:100C7000F8CFCF93DF9390E0FC01E555F74F249137
:100C8000855F964FFC0184918823C9F090E0880F1E
:100C9000991FFC01EF5CF74FA591B491FC01EF5057
:100CA000F74FC591D49161110DC09FB7F8948C9105
:100CB000209582238C938881282328839FBFDF91EE
:100CC000CF910895623051F49FB7F8943C91822FF0
:100CD000809583238C93E8812E2BEFCF8FB7F894E8
:100CE000EC912E2B2C938FBFEACF865320917B0063
:100CF000982F987F277F922B90937B00877080643A
:100D000080937C0080917A00806480937A00809147
:100D10007A0086FDFCCF809178009091790008954B
:100D20003FB7F89480916F0590917005A09171057F
:100D3000B091720526B5A89B05C02F3F19F001960A
:100D4000A11DB11D3FBFBA2FA92F982F8827BC0125
:100D5000CD01620F711D811D911D42E0660F771F4D
:100D6000881F991F4A95D1F708958F929F92AF924D
:100D7000BF92CF92DF92EF92FF926B017C010E94B3
:100D800090064B015C01C114D104E104F104B9F0F7
:100D90000E949006681979098A099B09683E734088
:100DA0008105910580F321E0C21AD108E108F1081C
:100DB00088EE880E83E0981EA11CB11CE4CFFF9042
:100DC000EF90DF90CF90BF90AF909F908F9008955D
:100DD000DB0114964D915C9115976D917C91DC012E
:100DE000ED91FC910280F381E02D1994AF92BF92B6
:100DF000CF92DF92EF92FF920F931F93CF93DF93E7
:100E00006C017B018B01040F151FEB015E01AE1815
:100E1000BF08C017D10759F06991D601ED91FC9137
:100E20000190F081E02DC6011995892B79F7C50154
:100E3000DF91CF911F910F91FF90EF90DF90CF90B6
:100E4000BF90AF900895FC01538D448D252F30E065
:100E5000842F90E0821B930B541710F0CF960895C7
:100E600001970895FC01918D828D981761F0A28DF4
:100E7000AE0FBF2FB11D5D968C91928D9F5F9F73BA
:100E8000928F90E008958FEF9FEF0895FC01918D70
:100E9000828D981731F0828DE80FF11D858D90E0DD
:100EA00008958FEF9FEF08952FB7F8948091730501
:100EB00090917405A0917505B09176052FBF809330
:100EC000DA059093DB05A093DC05B093DD0582ED98
:100ED00095E00E94460797FF26C02FB7F8948091AF
:100EE000730590917405A0917505B09176052FBF9B
:100EF0004091DA055091DB056091DC057091DD05CC
:100F0000841B950BA60BB70B4091D6055091D705C6
:100F10006091D8057091D90584179507A607B70782
:100F2000B0F28FEF9FEF0895FC01918D228D892FF4
:100F300090E0805C9F4F821B91098F7399270895E1
:100F400082ED95E00E94940721E0892B09F420E0CE
:100F5000822F0895FC01A48DA80FB92FB11DA35AAB
:100F6000BF4F2C91848D90E001968F739927848FC9
:100F7000A689B7892C93A089B1898C9183708064EC
:100F80008C93938D848D981306C00288F389E02D8D
:100F900080818F7D80830895EF92FF920F931F933E
:100FA000CF93DF93EC0181E0888F9B8D8C8D98131C
:100FB0001AC0E889F989808185FF15C09FB7F89428
:100FC000EE89FF896083E889F98980818370806474
:100FD00080839FBF81E090E0DF91CF911F910F91BF
:100FE000FF90EF900895F62E0B8D10E00F5F1F4FCE
:100FF0000F731127E02E8C8D8E110CC00FB607FCDD
:10100000FACFE889F989808185FFF5CFCE010E946A
:10101000AA07F1CFEB8DEC0FFD2FF11DE35AFF4F27
:10102000F0829FB7F8940B8FEA89FB8980818062F8
:10103000CFCFCF93DF93EC01888D8823B9F0AA89B5
:10104000BB89E889F9898C9185FD03C0808186FD83
:101050000DC00FB607FCF7CF8C9185FFF2CF8081D2
:1010600085FFEDCFCE010E94AA07E9CFDF91CF9196
:10107000089580E090E0892B29F00E94A00781115B
:101080000E94000080E090E0892B49F080E090E031
:10109000892B29F00E94000081110E94000080E04D
:1010A00090E0892B49F080E090E0892B29F00E94A4
:1010B000000081110E94000080E090E0892B49F03F
:1010C00080E090E0892B29F00E94000081110C94AF
:1010D00000000895AF92BF92CF92DF92EF92FF92FD
:1010E0000F931F93CF93DF936B017A01EC01C659E5
:1010F000DA4F28813CE0389F8001399F100D112480
:10110000A0900D07B12C27FF1FC0FB011182108298
:1011100088818F5F888388819801280F311D87FD22
:101120003A95F6012A153B051CF488818C30C4F1F0
:1011300080819181049680349C4908F473C0F60143
:1011400080819181049670C088819801280F311D9B
:1011500087FD3A952A153B05DCF68881A801480FE2
:10116000511D87FD5A95FA01EE0FFF1FE40FF51F81
:10117000E358F94F808186FFCBCF8881F801E80FD3
:10118000F11D87FDFA95CF01EE0FFF1FE80FF91F44
:10119000E358F94F808160E08F730E940B06B8CF4F
:1011A000808191812881A801420F511D27FD5A9508
:1011B0009A01FA01EE0FFF1FE20FF31FE358F94FF8
:1011C00021813281820F931FF7019183808388816F
:1011D0009801280F311D87FD3A95F901EE0FFF1F89
:1011E000E20FF31FE358F94F808186FF22C0888108
:1011F000080F111D87FD1A95F801EE0FFF1FE00F74
:10120000F11FE358F94F808161E08F73DF91CF9137
:101210001F910F91FF90EF90DF90CF90BF90AF9014
:101220000C940B0680E49CE9F701918380838FEF97
:101230008883DF91CF911F910F91FF90EF90DF9006
:10124000CF90BF90AF90089520911F05260F3327B0
:10125000331F21323105ECF420914305FC0190E06D
:1012600080E0243069F082E00895A0911F0521916B
:10127000AC0141505B4FA40FB52FB11D2C930196CB
:10128000861798F380911F05680F60931F0580E013
:10129000089581E0089508958FEF9FEF08958FEFEF
:1012A0009FEF08958091F80490E0919581959109C0
:1012B0000895CF93DF93CB01EA01642F0E942409A4
:1012C000CE01DF91CF910895CF93DF931F92CDB7D9
:1012D000DEB7698361E0CE0101960E94240981E0B6
:1012E00090E00F90DF91CF910895FC01A5A1B6A1E8
:1012F0008C9192A589238C93A5A1B6A18C9191A5DF
:10130000892B8C930895DC019396ED91FC91949731
:10131000908198968C91892380830895DC0193961F
:10132000ED91FC919497908197968C91892B808375
:101330000895DC019196ED91FC919297908196969B
:101340008C91892380830895DC019196ED91FC9125
:101350009297908195968C91892B80830895CF9256
:10136000DF92EF92FF921F93CF93DF93EC016A011C
:101370007B018DA9811123C08F2D9927AA27BB2717
:101380008EBD0DB407FEFDCFC701AA27BB278EBDBA
:101390000DB407FEFDCFBB27AF2D9E2D8D2D8EBD2D
:1013A0000DB407FEFDCFCEBC0DB407FEFDCFDF911F
:1013B000CF911F91FF90EF90DF90CF9008958130F3
:1013C000B1F410E2CE01F7FE0FC00E94A409CE01D5
:1013D0000E948E09CE010E948309CC0CDD1CEE1CFC
:1013E000FF1C115079F7E3CF0E949909F0CFEF8DE0
:1013F000F8A18F2D9927AA27BB278083CE010E94B1
:101400007509EF8DF8A1C701AA27BB278083CE01FC
:101410000E947509EF8DF8A1BB27AF2D9E2D8D2D54
:101420008083CE010E947509EF8DF8A1C082CE01A4
:10143000DF91CF911F91FF90EF90DF90CF900C94B0
:101440007509FF920F931F93CF93DF93EC018B01EC
:101450008DA981110EC01EBD0DB407FEFDCF0EBDBE
:101460000DB407FEFDCFDF91CF911F910F91FF903B
:1014700008958130B1F490E1F92ECE0117FF0EC02E
:101480000E94A409CE010E948E09CE010E94830908
:10149000000F111FFA94F110F0CFE5CF0E949909C7
:1014A000F1CFEF8DF8A11083CE010E947509EF8D69
:1014B000F8A10083CE01DF91CF911F910F91FF9092
:1014C0000C9475090F931F93CF93DF93EC01162FA4
:1014D0008DA9811109C06EBD0DB407FEFDCFDF914E
:1014E000CF911F910F910895813099F408E0CE01BA
:1014F00017FF0CC00E94A409CE010E948E09110F93
:10150000CE010E948309015091F7E9CF0E94990909
:10151000F3CFEF8DF8A16083CE01DF91CF911F91C2
:101520000F910C947509CF93DF93EC01ED8DFE8D37
:1015300080819CA989238083CE010E94620AED8D5F
:10154000FE8D80819BA9892B8083DF91CF910895A7
:101550008F929F92AF92BF92CF92DF92EF92FF92C3
:101560000F931F93CF93DF93EC0189AD9AAD680F72
:10157000791F8BAD9CAD480F591F21503109260FA3
:10158000371F4901B12CA12CCB01B0E0A0E0DC0158
:1015900099278827882A992AAA2ABB2A680181E0E4
:1015A000C81AD108C40ED51EF12CE12C70E060E001
:1015B000BA0155274427C42AD52AE62AF72A6AE21F
:1015C000CE010E94930AB501A401CE010E94AF0989
:1015D0006BE2CE010E94930AB701A601CE010E94E0
:1015E000AF096CE2CE01DF91CF911F910F91FF9077
:1015F000EF90DF90CF90BF90AF909F908F900C9422
:10160000930AFC0185A9811104C091A182A19CBD0E
:101610008DBD08951F93CF93DF93EC01162FE881C2
:10162000F9810284F385E02D1995112371F06DADD8
:10163000CE010E94930AE881F9810688F789E02D9E
:10164000CE01DF91CF911F9119946EADF1CFAF9282
:10165000BF92CF92DF92EF92FF920F931F93CF939F
:10166000DF93EC0177FD38C0888599856817790785
:101670009CF557FD31C08A859B854817590764F54D
:1016800069017A015B01E881F9810284F385E02D2B
:10169000CE011995E881F98102A4F3A5E02D01E0BE
:1016A00010E021E030E0A701B501CE011995B601A7
:1016B000CE010E94210AE881F9810688F789E02D90
:1016C000CE01DF91CF911F910F91FF90EF90DF90AE
:1016D000CF90BF90AF901994DF91CF911F910F9150
:1016E000FF90EF90DF90CF90BF90AF9008958F92D2
:1016F0009F92AF92BF92CF92DF92EF92FF920F93A1
:101700001F93CF93DF93EC0149015701E881F981E1
:1017100002A4F3A5E02D19959401D8010E949E31F1
:101720006B017C01C114D104E104F10409F47DC012
:101730008DA9811115C081E0C81AD108E108F1080E
:101740008FEFC816D806E806F80609F46EC0BEBCCE
:101750000DB407FEFDCFAEBC0DB407FEFDCFEBCF41
:10176000813099F581E0C81AD108E108F1088FEFBE
:10177000C816D806E806F80609F457C00B2D18E07D
:10178000CE0107FF1CC00E94A409CE010E948E0951
:10179000CE010E948309000F115091F70A2D18E025
:1017A000CE0107FF0FC00E94A409CE010E948E093E
:1017B000CE010E948309000F115091F7D3CF0E94F0
:1017C0009909E3CF0E949909F0CFBA1016C0CC0C4A
:1017D000DD1CEE1CFF1CEF8DF8A1B08281E0C81A61
:1017E000D108E108F1088FEFC816D806E806F80618
:1017F000E1F0CE010E947509F1CF81E0C81AD1084D
:10180000E108F1088FEFC816D806E806F80669F077
:10181000EF8DF8A1B082CE010E947509EF8DF8A17D
:10182000A082CE010E947509E8CFDF91CF911F9170
:101830000F91FF90EF90DF90CF90BF90AF909F906F
:101840008F9008958F929F92AF92BF92CF92DF9226
:10185000EF92FF920F931F93CF93DF935C014B01A5
:101860006A01E90177FD52C0DC0118968D919C91C7
:10187000681779070CF04AC0209709F447C037FF72
:1018800007C0C9010196C80ED91ED195C195D109CD
:10189000F50182859385C816D906C4F5A6014C0FBB
:1018A0005D1F9A012150310937FD30C0D7FE03C0BA
:1018B000EA01D12CC12C281739071CF0EC01CC19F6
:1018C000DD09D501ED91FC910284F385E02DC50180
:1018D000199578018E0121E030E0A601B401C5011F
:1018E0000E94770BD501ED91FC910688F789E02DD8
:1018F000C501DF91CF911F910F91FF90EF90DF9085
:10190000CF90BF90AF909F908F901994DF91CF911F
:101910001F910F91FF90EF90DF90CF90BF90AF900D
:101920009F908F9008958F929F92AF92BF92CF9287
:10193000DF92EF92FF920F931F93CF93DF935C019F
:101940006B014A01E90157FD52C0DC011A968D91E5
:101950009C91481759070CF04AC0209709F447C0DA
:1019600037FF07C0C9010196C80ED91ED195C19590
:10197000D109F50180859185C816D906C4F5A6015F
:101980004C0F5D1F9A012150310937FD30C0D7FE41
:1019900003C0EA01D12CC12C281739071CF0EC0137
:1019A000CC19DD09D501ED91FC910284F385E02D80
:1019B000C5011995780101E010E09E01A401B6016E
:1019C000C5010E94770BD501ED91FC910688F7893E
:1019D000E02DC501DF91CF911F910F91FF90EF9006
:1019E000DF90CF90BF90AF909F908F901994DF9130
:1019F000CF911F910F91FF90EF90DF90CF90BF900C
:101A0000AF909F908F9008958F929F92AF92BF92C8
:101A1000CF92DF92EF92FF920F931F93CF93DF93BA
:101A20004C016B015A01E901209709F46CC00115C2
:101A3000110509F468C037FF07C0C9010196C80E37
:101A4000D91ED195C195D109F401A085B185CA16D9
:101A5000DB060CF058C017FF07C0C8010196A80E9E
:101A6000B91E119501951109F40182859385A81677
:101A7000B9060CF048C0F601EC0FFD1FAF01415054
:101A8000510957FD40C0B501600F711F9B012150E6
:101A9000310937FD38C0D7FE03C0EF01D12CC12C6E
:101AA000B7FE03C08B01B12CA12C4A175B071CF0B9
:101AB000ED01CC19DD09281739071CF08C010A1932
:101AC0001B09D401ED91FC910284F385E02DC40142
:101AD00019959E01A501B601C4010E94770BD4019E
:101AE000ED91FC910688F789E02DC401DF91CF913B
:101AF0001F910F91FF90EF90DF90CF90BF90AF902C
:101B00009F908F901994DF91CF911F910F91FF902B
:101B1000EF90DF90CF90BF90AF909F908F900895FF
:101B2000EF92FF920F931F93CF93DF9377FD32C015
:101B3000DC011896ED91FC916E177F075CF521157D
:101B4000310541F137FF07C0F90131964E0F5F1F94
:101B5000319521953109DC011A96ED91FC914E17D2
:101B60005F07C4F4EA01C20FD31FDE011197B7FD6E
:101B700011C057FF03C09E0150E040E0AE17BF0701
:101B80001CF09F01241B350B7801890121E030E016
:101B90000E94770BDF91CF911F910F91FF90EF90F3
:101BA0000895EF92FF920F931F93CF93DF9357FD0A
:101BB00031C0DC011A96ED91FC914E175F0754F588
:101BC0002115310539F137FF07C0F90131966E0F44
:101BD0007F1F319521953109DC011896ED91FC911B
:101BE0006E177F07BCF4EB01C20FD31FDE01119704
:101BF000B7FD10C077FF03C09E0170E060E0AE1734
:101C0000BF071CF09F01261B370B780101E010E095
:101C10000E94770BDF91CF911F910F91FF90EF9072
:101C200008958F929F92AF92BF92CF92DF92EF92E0
:101C3000FF920F931F93CF93DF9347012115310537
:101C400009F44BC00115110509F447C037FF07C05F
:101C5000F90131966E0F7F1F319521953109DC0115
:101C60001896AD90BC906A157B05BCF517FF07C0B0
:101C7000F80131964E0F5F1F119501951109DC0196
:101C80001A96ED91FC914E175F073CF56B01C20E61
:101C9000D31EE6012197D7FD20C07A01E00EF11E88
:101CA000D7011197B7FD19C077FF03C0960170E007
:101CB00060E057FF03C0870150E040E0CA15DB0534
:101CC0001CF09501261B370BAE17BF071CF08F01C8
:101CD000041B150B74010E94770BDF91CF911F91AC
:101CE0000F91FF90EF90DF90CF90BF90AF909F90BB
:101CF0008F900895EF92FF920F931F93CF93DF93EE
:101D0000EC0177FD22C08885998568177907ECF486
:101D100057FD1BC08A859B8548175907B4F4790184
:101D2000E881F98102A4F3A5E02D01E010E021E0B3
:101D300030E0CE011995B701CE01DF91CF911F910F
:101D40000F91FF90EF900C94210ADF91CF911F919A
:101D50000F91FF90EF900895CF93DF93EC010E94D5
:101D6000010B8FA987FD06C0EB8DFC8D80819AA9A0
:101D700089238083DF91CF9108950895AF92BF9218
:101D8000CF92DF92EF92FF920F931F93CF93DF9347
:101D9000BC016F5F7F4FFC011491115008F47AC0B1
:101DA000FB01D4917B01F2E0EF0EF11CFB013196B7
:101DB0000491C02FCF778BE895E00E94010B8091B2
:101DC000C20587FD09C0E091A605F091A7058081B5
:101DD0009091BD0589238083E091A805F091A90524
:101DE00080819091BF05892380836D2F8BE895E0DA
:101DF0000E94620AE091A805F091A9058081909166
:101E0000BE05892B8083F701B12CA12CD0E0AC1644
:101E1000BD06F4F48091C0056F01823081F4809199
:101E2000BB05882361F0619171916F018BE895E0AA
:101E30000E94210AEFEFAE1ABE0AF601E8CF8FEF3B
:101E4000C81AD80A64918BE895E00E94620AF2CF22
:101E50008091C20587FD09C0E091A605F091A70514
:101E600080819091BC05892B8083B7016C0F7D1F09
:101E700007FF93CFEB012196FB01649170E06F3F68
:101E8000710511F464EF71E090E080E00E94B50606
:101E9000BE0183CFDF91CF911F910F91FF90EF9003
:101EA000DF90CF90BF90AF9008950F931F93CF9383
:101EB000DF93EC018B010E94010B8FA987FD06C007
:101EC000EB8DFC8D80819AA989238083ED8DFE8D19
:101ED00080819CA98923808366E3CE010E94620AE7
:101EE000ED8DFE8D80819BA9892B80838DA9F801C2
:101EF000823091F06081CE010E94620A8FA987FD35
:101F000006C0EB8DFC8D808199A9892B8083DF91A0
:101F1000CF911F910F91089588A9882359F360816B
:101F20007181CE010E94210AE9CFCF93DF931F92E6
:101F3000CDB7DEB7FC0119826370668BDC01AD5B47
:101F4000BF4F2C9130E011968C9190E0623031F0CF
:101F50006330C9F0613081F040EC498332AF21AF8A
:101F600094AF83AFBE016F5F7F4FCF010E94550FCB
:101F70000F90DF91CF91089540EA498334AF23AFAA
:101F800092AF81AFEFCF40E6F8CFCF93DF931F92B0
:101F9000CDB7DEB7FC0119826370668BDC01AA5BEA
:101FA000BF4F8C91982F9B7FAF014C5B5F4F91305F
:101FB00031F493E0623008F091E0DA019C939F01E4
:101FC0002D5B3F4F623009F44CC0633009F45BC0B5
:101FD000613069F1823021F098EC843009F046C01C
:101FE00090EC99838130D1F480E890E093878287E8
:101FF00091878087D9018C9190E092AF81AFDA010F
:102000008C9190E094AF83AFBE016F5F7F4FCF01A3
:102010000E94550F0F90DF91CF910895843051F5B4
:1020200080EA90E09387828780E590E0E1CF82307C
:1020300019F098EA843071F590EA99838130B1F50E
:1020400080E890E09187808793878287D9018C917F
:1020500090E094AF83AFDA018C9190E092AF81AFC2
:10206000D3CF823049F08430D9F298E0998381301F
:1020700009F4BACF8630A1F280EA90E09387828794
:1020800080E890E0B5CF823019F098E6843011F402
:1020900090E6D3CF9983813099F2863051F480EA6B
:1020A00090E09187808780E590E0CECF8430B9F3CF
:1020B000F4CF80EA90E09187808780E890E0C4CFF9
:1020C000FC0187A987FD06C0A38DB48D9C9181A9D1
:1020D000892B8C9308950895FC016370668B84812D
:1020E000958126813781613039F0633029F09187FD
:1020F0008087338722870895318720879387828757
:1021000008952F923F924F925F926F927F928F929B
:102110009F92AF92BF92CF92DF92EF92FF920F9376
:102120001F93CF93DF93CDB7DEB76A970FB6F894BE
:10213000DEBF0FBECDBF9A8F898F7A8369834A0134
:10214000D22E18870F833701BC2CDC0159962D91B4
:102150003C915A972115310509F015C118968D91BA
:102160009C911997681779070CF0D7C11A968D9131
:102170009C91481759070CF0D0C14C2C512CB6E05B
:10218000CB9E600D711D11247C876B871616170678
:102190000CF0C3C1EA2DF0E0FA87E98793E0EE0F77
:1021A000FF1F9A95E1F7F88BEF87CF01840F951FFA
:1021B000181619060CF0B1C1A98DBA8D58968C91DC
:1021C000811104C0BFEABD1508F4D394A98DBA8D5E
:1021D000ED91FC9111970284F385E02DCD011995C5
:1021E000B5E0DB9EC0011124E981FA81FC83EB8319
:1021F000312C212C9C012F5C3C4F388F2F8B4A2D8A
:1022000050E05E8B4D8BEF89F88DE20DF31D44910C
:102210009E828D82D12CC12C69817A81620D731DC1
:102220007A8B698B842F90E09C8B8B8BE98DFA8D58
:10223000A081B18140FF82C0F1E0BF126FC0AF1238
:102240006DC01C96ED91FC912F813885A4014C0D39
:102250005D1D69897A89898D9A8D1995EB89FC892B
:10226000F595E7954E2F5FEFC51AD50A6D817E81F2
:102270008D899E89680F791F7E836D8398E0C916CA
:10228000D10481F6AFEF2A1A3A0AEB81FC81E40D02
:10229000F51DFC83EB83F5E02F16310409F0B3CF75
:1022A0002F81388526153705B9F0A98DBA8DED91A6
:1022B000FC91B1E0BB1257C0AB1255C069817A8165
:1022C0006B5F7F4F0088F189E02D830128E030E0CB
:1022D000A401898D9A8D1995A98DBA8DED91FC91E6
:1022E00011970688F789E02DCD016A960FB6F8940C
:1022F000DEBF0FBECDBFDF91CF911F910F91FF9039
:10230000EF90DF90CF90BF90AF909F908F907F9095
:102310006F905F904F903F902F9019941E96ED9183
:10232000FC91EF80F88409851A8592014D815E81C8
:102330006B817C81898D9A8D199590CF2F813885FD
:102340002615370509F48ACF31E0B31207C0A3126E
:1023500005C01C96ED91FC91930178CF1E96ED91EE
:10236000FC917301E0CF6B857C8564197509068447
:10237000F785E02D73010F8518899201A401898DDD
:102380009A8D1995A9CFF901349694913297459178
:102390005491D91AB7E0DB9E400D511D1124F9016B
:1023A000259134913C8B2B8BFA0125903490FA01C6
:1023B0003296749031963491398B3296649031967E
:1023C000449041E04C1518F04A1508F07FC0662D86
:1023D000062C000C770B7C836B83842D042C000C63
:1023E000990B9E838D83A98DBA8DED91FC911197E8
:1023F0000284F385E02DCD011995512CD12CC12CEF
:10240000EA2DF0E0FA87E9872B2D30E03C872B8717
:10241000A401440D511D47FC5A95588F4F8B69817B
:102420007A81660D711D67FC7A957E876D87798943
:10243000C71608F051CF2C2D30E04D815E81420F40
:10244000531FA985BA854A9FC0014B9F900D5A9F83
:10245000900D1124FC01E80DF91DF88BEF87852DF7
:10246000612C4F89588D420F531F5E8B4D8B671423
:1024700008F050C044244394480E877041F4C101D1
:102480000196EB89FC89E20DF31DD4901C01D7FE67
:1024900019C0A98DBA8DED91FC91662D70E0B1E067
:1024A000BB1219C0AB1217C02D853E85620F731F7A
:1024B0000484F585E02D2F8138854D895E89898DCD
:1024C0009A8D1995DD0C6394842DD1CF1E821D82C7
:1024D0001C821B8288CF4B815C81640F751FAB858A
:1024E000BC856A9FC0016B9F900D7A9F900D11244F
:1024F00069817A81680F791F0684F785E02DEF8066
:10250000F88409851A859D014F855889898D9A8D92
:102510001995D8CF570CC3948ACF6A960FB6F89402
:10252000DEBF0FBECDBFDF91CF911F910F91FF9006
:10253000EF90DF90CF90BF90AF909F908F907F9063
:102540006F905F904F903F902F9008958F929F9241
:10255000AF92CF92EF92FF920F931F93CF93DF939F
:10256000EC01262F898D9A8D009709F051C06A30B1
:10257000D1F41D861C868D8948E0849F900111242A
:102580008E859F85820F931F9F878E8781E090E0C5
:10259000DF91CF911F910F91FF90EF90CF90AF906F
:1025A0009F908F9008956D3089F3CC88AD888F8986
:1025B0008823C1F08C859D8536E0C39E800D911DDA
:1025C0001124488559854817590764F44E855F855D
:1025D0001D861C8638E0A39EC0011124840F951F20
:1025E0009F878E87EA88FB88088919894E855F85D1
:1025F0006C857D85CE010E9481102C898C859D85FE
:1026000046E0249F800D911D11249D878C87BECFAD
:102610006A3069F41D861C86FC013896E4912D8988
:102620008E859F85E29F800D911D1124ADCF6D3069
:1026300009F4ACCFFC0134963491631708F4A6CFAB
:102640003296E491E61708F4A1CFFC01329685900A
:102650009490462F431B342F47E0349F800C911CED
:102660001124F401329634913196E4913323A9F187
:10267000EE2399F1CC88F4013596E491AD884F8929
:10268000442301F10E2E000CFF0BE30FF11DCE9E33
:10269000A001CF9E500D11246C857D85460F571FDC
:1026A00068857985641775076CF44E855F851D868E
:1026B0001C86FC013896E491AE9E400D511D1124FC
:1026C0005F874E87EA88FB88088919894E855F8570
:1026D0006C857D85CE010E948110F4013496E491D1
:1026E0002C898C859D85E29F800D911D11248DCFB5
:1026F000682F8BE895E00C94A6126F927F928F92D0
:102700009F92AF92BF92CF92DF92EF92FF920F9380
:102710001F93CF93DF93EC016B015A0139014801FC
:10272000E881F9810284F385E02D1995E881F9812A
:102730000288F389E02D87019301A501B601CE013E
:102740001995A501480D591D41505109E881F9819C
:102750000288F389E02D9301B601CE011995E88135
:10276000F9810088F189E02D9401A501B601CE011F
:102770001995C60CD71CB60161507109E881F98121
:102780000088F189E02D9401A501CE011995E88119
:10279000F9810688F789E02DCE01DF91CF911F9155
:1027A0000F91FF90EF90DF90CF90BF90AF909F90F0
:1027B0008F907F906F9019946F927F928F929F92DB
:1027C000AF92BF92CF92DF92EF92FF920F931F933F
:1027D000CF93DF935C01EB016A0149013801870166
:1027E000DC01ED91FC916217730719F5641675060B
:1027F0002CF0962D872D3A01C92ED82E9601261938
:1028000037092F5F3F4F048CF58DE02DA301BE01EA
:10281000C5011995DF91CF911F910F91FF90EF9016
:10282000DF90CF90BF90AF909F908F907F906F90F0
:1028300008954615570591F42617370724F0892D7A
:102840004B01C22FD82F9E01281939092F5F3F4F06
:10285000068CF78DE02DA601B401DACF0284F38552
:10286000E02D1995D501ED91FC910488F589E02DB5
:1028700083019401A601BE01C5011995D501ED9111
:10288000FC910688F789E02DC501DF91CF911F915A
:102890000F91FF90EF90DF90CF90BF90AF909F90FF
:1028A0008F907F906F901994EF92FF920F931F93E8
:1028B000DC011A960D911C911B9718962D913C9155
:1028C0001997ED91FC9100A0F1A1E02D7B0150E062
:1028D00040E070E060E019951F910F91FF90EF903C
:1028E00008954F925F926F927F928F929F92AF92D4
:1028F000BF92CF92DF92EF92FF920F931F93CF93ED
:10290000DF936C012B015A0139014801DC01ED9183
:10291000FC910284F385E02D1995E201640C751C8D
:10292000D601ED91FC91C615D7055CF40088F189BC
:10293000E02D87019401A501BE01C60119952196DC
:10294000EFCF0688F789E02DC601DF91CF911F9167
:102950000F91FF90EF90DF90CF90BF90AF909F903E
:102960008F907F906F905F904F9019948F929F926D
:10297000AF92BF92CF92DF92EF92FF920F931F938D
:10298000CF93DF93EC015B014A016901E881F98192
:102990000284F385E02D199595012C0D3D1D2150E4
:1029A0003109E881F9810488F589E02D78018401F5
:1029B000A401B501CE011995E881F9810688F7894E
:1029C000E02DCE01DF91CF911F910F91FF90EF90FD
:1029D000DF90CF90BF90AF909F908F9019948F927F
:1029E0009F92AF92BF92CF92DF92EF92FF920F939E
:1029F0001F93CF93DF93EC015B014A0169017801DA
:102A0000E881F9810284F385E02D1995C80CD91C61
:102A1000860101501109E881F9810488F589E02DCA
:102A20009501A401B501CE011995E881F9810688C7
:102A3000F789E02DCE01DF91CF911F910F91FF908B
:102A4000EF90DF90CF90BF90AF909F908F901994B0
:102A5000EF92FF920F931F93DC01ED91FC9100A088
:102A6000F1A1E02D19951F910F91FF90EF9008951E
:102A70000F931F93DC01ED91FC91068CF78DE02DF7
:102A800019951F910F9108950F931F93DC01ED91FC
:102A9000FC91048CF58DE02D19951F910F910895EF
:102AA000DC01ED91FC910084F185E02D19942F92C9
:102AB0003F924F925F926F927F928F929F92AF92CE
:102AC000BF92CF92DF92EF92FF920F931F93CF931B
:102AD000DF9300D000D0CDB7DEB73C016A013E8362
:102AE0002D83FC82EB825801A41AB50AB7FE03C0FD
:102AF000B194A194B1088D809E80861A970A97FEA2
:102B000003C09194819491088A149B045CF0902FE7
:102B1000812F0D811E819D838E839C2D8D2D6B01B8
:102B2000692F782F0C151D055CF09D818E817E83A9
:102B30006D83692F782F902F812F8601C92ED82E73
:102B40001601201A310A2B012D813E81421A530AA7
:102B500057FE03C0519441945108710137FE03C0E0
:102B60003FEFE31AF30AF594E7948D819E8186176F
:102B700097075CF5A1E0B0E0BA83A983C016D1063F
:102B80004CF1D301ED91FC910484F585E02D2B816E
:102B90003C81A8016D817E818A149B041CF04D81CB
:102BA0005E81B801C3011995E418F508F7FE0AC063
:102BB0002D813E8189819A81280F391F3E832D8383
:102BC000E20CF31C0F5F1F4FD9CF2FEF3FEF3A837B
:102BD0002983D4CF26960FB6F894DEBF0FBECDBFA3
:102BE000DF91CF911F910F91FF90EF90DF90CF90E9
:102BF000BF90AF909F908F907F906F905F904F901D
:102C00003F902F900895089590E080E008952F92CE
:102C10003F924F925F926F927F928F929F92AF926C
:102C2000BF92CF92DF92EF92FF920F931F93CF93B9
:102C3000DF9300D01F92CDB7DEB7FC01278130852E
:102C4000232BF9F0A381B4814B01AA24BB24082DC6
:102C5000C52ED62EE72EFF243C2D242F80898823D5
:102C600051F010E0010F08F40FEF310F08F43FEFBF
:102C7000210F08F42FEF0C9311963C9311971296A5
:102C80002C93E184F284E114F10409F45CC04384E0
:102C9000A780B084C380D480D7018D919C91DC0142
:102CA00012962D903C9019821A821B824420C9F101
:102CB0004701B6E08B0E911C10E000E0512C712C06
:102CC000612CD4012D914D01222331F11296BC913A
:102CD000BC83BB2309F130E050E040E02F5F3F4F61
:102CE0004F4F5F4FC301B2010E9472319B01AC0193
:102CF0006C81862F90E0B0E0A0E0BC01CD016F5F59
:102D00007F4F8F4F9F4F0E947231A1E0B0E0AC0F18
:102D1000BD1FA00FB11F8C930F5F1F4F0330110514
:102D200081F64F0109811A812B81A501B601C701E6
:102D3000F10119950E949006D4011C966D937D9324
:102D40008D939C931F970F900F900F900F90DF9192
:102D5000CF911F910F91FF90EF90DF90CF90BF9098
:102D6000AF909F908F907F906F905F904F903F902B
:102D70002F900895CF93DF9300D000D0CDB7DEB76A
:102D800062E087E20E94390687E20E94E205892B11
:102D9000C9F082E090E09A8389831C821B821E82A4
:102DA0001D8229813A814B815C816D817E8180E029
:102DB00090E026960FB6F894DEBF0FBECDBFDF9130
:102DC000CF91089587E20E94E205892B49F483E0C0
:102DD00090E09A83898381E090E09C838B83DFCFAE
:102DE000E8CF0F931F93CF93DF932091F7042F5FCA
:102DF000322F37703093F70420FF2BC020E831FDCD
:102E00002064347009F02062205FFC01EC012396FD
:102E100000E011E06485662329F070E0C8010E949B
:102E200082316F5F6187322F369F030E30E0311D94
:102E30001124311110C01682662311F06150618790
:102E40003196EC17FD0731F7DF91CF911F910F916C
:102E5000089520E0D4CF31503683EECF4F925F9269
:102E60007F928F929F92AF92BF92CF92DF92EF921A
:102E7000FF920F931F93CF93DF932C01EB010E94DE
:102E80009006F20127853089621B730B6A30710549
:102E9000B0F3F8948A819B81181619060CF0CDC105
:102EA000E881F98162B1862E689485F832B13F7D60
:102EB00032B9DA848F812D2D281B822F2F834F85E5
:102EC000042E000C550BAA81BB817D85FC84EE8409
:102ED0007F5FF394E3949E819884B984AB841181DD
:102EE000C12C6C2D0C2D2C2D2181112788942111A2
:102EF000280F08F42FEF8195889470FD120F179515
:102F0000889471FD120F1795889472FD120F179512
:102F1000889473FD120F1795889474FD120F1795FE
:102F2000889475FD120F1795889476FD120F1795EA
:102F3000889477FD120F17958894622F7111612F75
:102F40008D0D162F002C82B800C017FF32B92081DA
:102F50006627889400C000C0002C32B92111290FC7
:102F600000C0002C82B800C016FF32B908F42FEF61
:102F70009195889400C000C0002C32B9F0FC620F1B
:102F800000C0002C82B800C015FF32B96795889444
:102F9000F1FC620F00C000C0002C32B96795889424
:102FA00000C0002C82B800C014FF32B9F2FC620FDE
:102FB0006795889400C000C0002C32B9F3FC620F02
:102FC00000C0002C82B800C013FF32B96795889406
:102FD000F4FC620F00C000C0002C32B967958894E1
:102FE00000C0002C82B800C012FF32B9F5FC620F9D
:102FF0006795889400C000C0002C32B9F6FC620FBF
:1030000000C0002C82B800C011FF32B967958894C7
:10301000F7FC620F00C000C0002C32B9679588949D
:1030200000C0002C82B800C010FF32B9122FF1107E
:10303000162F9B0D00C000C0002C32B900C000C08C
:10304000002C82B800C017FF32B92281662788940D
:1030500000C000C0002C32B92111290D00C0002C85
:1030600082B800C016FF32B908F42FEFE40FF51F45
:1030700000C000C0002C32B9E0FC620F00C0002C80
:1030800082B800C015FF32B967958894E1FC620FE1
:1030900000C000C0002C32B96795889400C0002C95
:1030A00082B800C014FF32B9E2FC620F67958894C1
:1030B00000C000C0002C32B9E3FC620F00C0002C3D
:1030C00082B800C013FF32B967958894E4FC620FA0
:1030D00000C000C0002C32B96795889400C0002C55
:1030E00082B800C012FF32B9E5FC620F6795889480
:1030F00000C000C0002C32B9E6FC620F00C0002CFA
:1031000082B800C011FF32B967958894E7FC620F5E
:1031100000C000C0002C32B96795889400C0002C14
:1031200082B800C010FF32B9122FE110162F91940F
:1031300000C000C0002C32B99A0C00C000C082B898
:1031400000C017FF32B921816627889400C000C0F3
:10315000002C32B92111280F00C0002C82B800C009
:1031600016FF32B908F42FEF8195889400C000C093
:10317000002C32B970FD620F00C0002C82B800C074
:1031800015FF32B96795889471FD620F00C000C0C9
:10319000002C32B96795889400C0002C82B800C01A
:1031A00014FF32B972FD620F6795889400C000C0A9
:1031B000002C32B973FD620F00C0002C82B800C031
:1031C00013FF32B96795889474FD620F00C000C088
:1031D000002C32B96795889400C0002C82B800C0DA
:1031E00012FF32B975FD620F6795889400C000C068
:1031F000002C32B976FD620F00C0002C82B800C0EE
:1032000011FF32B96795889477FD620F00C000C046
:10321000002C32B96795889400C0002C82B800C099
:1032200010FF32B9122F7111162F8D0D00C000C082
:10323000002C32B9119709F086CE4A815B8120EECD
:1032400031E0DA010E94A631DC01CB01F4E0B69551
:10325000A79597958795FA95D1F730E020E0B901C9
:10326000EAE94E9F040E611D5E9F600D711D1124E1
:10327000650F711D860F971FA11DB11D893E43E08B
:103280009407A105B10508F434C0885E9340A109F4
:10329000B10942E0B695A795979587954A95D1F7DC
:1032A00047E0849F080E211D949F200D311D11249D
:1032B000290F311D6091F60470E0860F971F820F71
:1032C000931F40917305509174056091750570913D
:1032D0007605292F3327420F531F611D711D40931F
:1032E000730550937405609375057093760580930C
:1032F000F60478940E949006F201708B6787DF9144
:10330000CF911F910F91FF90EF90DF90CF90BF90E2
:10331000AF909F908F907F905F904F90089580E93D
:1033200091E008950D9A08956F927F928F92CF92B7
:10333000DF92EF92FF920F931F93CF93DF93CDB75E
:10334000DEB762970FB6F894DEBF0FBECDBF6C013B
:103350007A013801822EDC011C962C91CA0157FF9C
:1033600004C088279927841B950B7A8369839C83E3
:103370008B839E838D836D867E868F86213049F573
:10338000CE0101960E94F11683E0888B1A8A198A71
:10339000F7FE02C08DEF888BD601ED91FC9104847D
:1033A000F585E02DBE016F5F7F4FC60119956296CE
:1033B0000FB6F894DEBF0FBECDBFDF91CF911F9146
:1033C0000F91FF90EF90DF90CF908F907F906F9054
:1033D00008951C861B861A86198618861F82D4CFEC
:1033E000EF92FF920F931F93CF93DF93CDB7DEB78A
:1033F00062970FB6F894DEBF0FBECDBF7C01DC0133
:103400001C968C917A8369835C834B835E834D83A6
:103410000D871E872F878130F9F4CE0101960E9417
:10342000F116188A1A8A198AD701ED91FC91048441
:10343000F585E02DBE016F5F7F4FC701199562963C
:103440000FB6F894DEBF0FBECDBFDF91CF911F91B5
:103450000F91FF90EF9008951C861B861A8619869F
:1034600018861F82DECF90E080E00895FC018585FC
:10347000968508950F931F93CF93DF9300D0CDB718
:10348000DEB7AB0119821A821B82DC01ED91FC913F
:103490000190F081E02D00E010E020E0BE016F5FC0
:1034A0007F4F19950F900F900F90DF91CF911F9143
:1034B0000F910895CF92DF92EF92FF920F931F9397
:1034C000CF93DF93EC016A017B01C114D104E104C5
:1034D000F10439F4C12C48E4D42E48EEE42EFF2444
:1034E000F394FE01FF96C082D182E282F38281E2F0
:1034F0008DAF80E28EAF369610818FA987FD07C011
:1035000061E00E94390661E08FA90E940B0661E02C
:1035100088AD0E94390661E088AD0E940B068DA936
:10352000811182C040E052E16AE770E0C416D5061E
:10353000E606F70640F476956795579547958F5FB1
:103540008630A1F787E0212F2C702065982F969563
:10355000922B99A3809581708AA3812F90E0B0E08F
:10356000A0E08BA39CA3ADA3BEA31FB7F89480914A
:103570006905811127C0E0E4F9E08491E0EEF8E00C
:103580009491E82FF0E0EE0FFF1FEF5CF74FA5914D
:10359000B491EC91E92321F461E085E30E940B06EC
:1035A00061E085E30E9439068CB580618CBD8CB5E5
:1035B00080648CBD61E084E30E94390661E083E3AE
:1035C0000E943906809169058F5F809369051FBF4E
:1035D0008EA987FD75C061E00E94390661E08EA961
:1035E0000E940B0664E670E080E090E00E94B50661
:1035F00060E08EA90E940B0664E670E080E090E037
:103600000E94B50661E08EA90E940B0668EC70E08E
:1036100080E090E0DF91CF911F910F91FF90EF90AC
:10362000DF90CF900C94B5060BE019E0F12C8130BF
:10363000B9F461E08AA50E94390660E08AA50E947B
:103640000B0661E08CA50E94390660E08CA50E9403
:103650000B068BA587FDBCCF60E00E943906B8CF72
:10366000F8018491E82FF0E0EE0FFF1FEF50F74FC5
:10367000859194912F8D38A12817390741F461E085
:103680008F2D0E94390660E08F2D0E940B06F39467
:103690000F5F1F4FF6E4FF12E3CF61E08EA50E949B
:1036A000390661E08EA50E940B068FA587FD90CF9D
:1036B00061E00E94390661E08FA50E940B0688CF69
:1036C000DF91CF911F910F91FF90EF90DF90CF90FE
:1036D0000895DF92EF92FF920F931F93CF93DF93A2
:1036E0007C018C01CBEFDFE0F801D1908F01CE019E
:1036F0000E945E30D81621F06D2DCE010E946630FA
:103700002196CF3FFFE0DF0779F7C701DF91CF9127
:103710001F910F91FF90EF90DF900895CF93DF936B
:1037200000D01F92CDB7DEB78BEF9FE00E945E30D6
:1037300089838CEF9FE00E945E308A838DEF9FE04B
:103740000E945E308B838EEF9FE00E945E308C8300
:1037500069817A818B819C810F900F900F900F90DF
:10376000DF91CF910895FB0101900020E9F7319797
:10377000AF01461B570BDC01ED91FC910280F381F8
:10378000E02D19946AE972E00C94B31B0F931F9318
:10379000CF93DF93EC010E94B31B8C01CE010E94FA
:1037A000C21B800F911FDF91CF911F910F91089540
:1037B0000C94B31B0E94C7330F931F93CF93DF93D7
:1037C000EC0188819981009759F02A813B81261765
:1037D000370730F081E0DF91CF911F910F9108956D
:1037E0008B016F5F7F4F0E94E632009759F09983FB
:1037F00088831B830A832C813D81232B59F7FC018D
:103800001082E8CF80E0E7CFEF92FF920F931F93F3
:10381000CF93DF936115710541F480E0DF91CF9183
:103820001F910F91FF90EF90089541155105B1F050
:103830007B01EC010C811D81040F151FB8010E9452
:10384000DC1B882351F3288139818C819D81B7014C
:10385000820F931F0E94D5331D830C8381E0DECF3E
:10386000CF93DF93EC0188819981009711F00E943A
:103870005D32198218821D821C821B821A82DF919E
:10388000CF910895EF92FF920F931F93CF93DF9301
:10389000EC017B01198218821B821A821D821C8214
:1038A000FB0101900020E9F731978F01061B170BF0
:1038B000B8010E94DC1B811109C0CE01DF91CF91BC
:1038C0001F910F91FF90EF900C94301C1D830C837F
:1038D000B70188819981DF91CF911F910F91FF905E
:1038E000EF900C94D533EF92FF920F931F93CF93E9
:1038F000DF938C017B01EB0109900020E9F7219710
:10390000C61BD70BBE010E94DC1B811109C0C80178
:10391000DF91CF911F910F91FF90EF900C94301C8D
:10392000F801D583C483B70180819181DF91CF9164
:103930001F910F91FF90EF900C94D5330F931F932D
:10394000CF93DF93CDB7DEB7A1970FB6F894DEBF64
:103950000FBECDBF8C01CB01BA01F80111821082DC
:1039600013821282158214822AE0AE014F5F5F4FEC
:103970000E949D2CBE016F5F7F4FC8010E94731C87
:10398000A1960FB6F894DEBF0FBECDBFDF91CF91E9
:103990001F910F9108950F931F93CF93DF93CDB78E
:1039A000DEB761970FB6F894DEBF0FBECDBF8C01B6
:1039B000CB01F801118210821382128215821482C7
:1039C0004AE0BE016F5F7F4F0E94BF2CBE016F5F58
:1039D0007F4FC8010E94731C61960FB6F894DEBF3A
:1039E0000FBECDBFDF91CF911F910F910895CF935F
:1039F000DF93EC01FB0144815581608171810E945C
:103A0000041C811103C0CE010E94301CCE01DF9145
:103A1000CF910895FC0180819181009711F00C9461
:103A20005D3208951F93CF93DF9385ED8093BC00A3
:103A30008091FB049091FC04A091FD04B091FE04E0
:103A40000796A11DB11D23E0B695A795979587957B
:103A50002A95D1F72091BC0024FD03C010924305A4
:103A600052C04091FB045091FC046091FD047091A0
:103A7000FE04452B462B472B69F30097A105B105A2
:103A800041F02AE22A95F1F700C00197A109B10996
:103A9000E1CF8091FA04C1E0C093F904882399F141
:103AA000D091B8001091BA008091BC008A7B8093BD
:103AB000BC0060E084E10E940B0660E085E10E94AA
:103AC0000B0610924305C09345051092440561E032
:103AD00084E10E940B0661E085E10E940B06809163
:103AE000B9008E7F8093B9008091B9008D7F80935B
:103AF000B90088E48093B80085E48093BC001093FB
:103B0000BA00D093B800DF91CF911F9108952F9202
:103B10003F924F925F926F927F928F929F92AF925D
:103B2000BF92CF92DF92EF92FF920F931F93CF93AA
:103B3000DF93CDB7DEB7CC56D1090FB6F894DEBF10
:103B40000FBECDBF8091EE048111D4C580910D07C9
:103B5000803308F0F4C291E0980F90930D078093A2
:103B6000770590E0FC01EE0FFF1FE80FF91FE35807
:103B7000F94F88EB9BE092838183E8E8EE2EE5E045
:103B8000FE2EF0927B05E0927A0581E090E0909322
:103B90007D0580937C0590937F0580937E05109230
:103BA0008105109280051FEF109382051092870502
:103BB0000E94900660938305709384058093850529
:103BC0009093860583E0F70111928A95E9F78BE8D7
:103BD00095E00E94DD041092CE051092CF05109260
:103BE000D0058EE692E090938C0580938B056DE96D
:103BF00072E082ED95E00E94C61B8091E60481117F
:103C000044C01092D8041092D7041093DB04109390
:103C1000DC041093DD041093DE041093DF04109392
:103C2000E00481E08093E1041092E3041092E20446
:103C30001092DA041092D9048091D3049091D404A4
:103C4000892B31F485ED94E09093D4048093D304D0
:103C5000E091D104F091D204309721F085ED94E009
:103C60009583848385ED94E09093D2048093D1046E
:103C70001092E5041092E4048AE192E09093D60455
:103C80008093D50481E08093E6040D9A88E895E05E
:103C90009093D8048093D70481E090E09093E3045C
:103CA0008093E2048091720690917306A09174064D
:103CB000B0917506843CF9E09F07A105B10520F499
:103CC00084EC99E0A0E0B0E08093720690937306D4
:103CD000A0937406B093750685ED94E090938105EA
:103CE0008093800540E050E0BA018BE895E00E94A7
:103CF0005A1A86EF92E00E94BE0E89EE92E00E9470
:103D0000BE0E8EEB92E00E94BE0E80EC8983BE0157
:103D10006F5F7F4F8BE895E00E94550F82E08093A4
:103D2000D10560E08BE895E00E94C50F6FEF7FEF53
:103D30008BE895E00E94541410929E0510929D0508
:103D400010929C0510929B0561E084E00E94390668
:103D500061E084E00E940B0661E08BE895E00E9440
:103D6000C50F62E082E10E94390682E10E94E2050D
:103D7000892B09F08AC28BE895E00E94C21B61EB97
:103D800072E08BE895E00E94C61B8BE895E00E94EC
:103D9000C21B69EC72E08BE895E00E94C61B62EEE4
:103DA00072E08BE895E00E94C61B6BEF72E08BE837
:103DB00095E00E94C61B82ED95E00E941908E091F3
:103DC000E405F091E50580818F7E8083E091E40534
:103DD000F091E5058081877F8083E091E405F09193
:103DE000E50580818F778083E091E405F091E5051A
:103DF00080818F7D80838091EC058093EB0561E06D
:103E000088E20E940B0610E0143081F080ED810FF3
:103E1000823060F08DEC810F823040F0153231F04D
:103E2000153421F061E0812F0E9439061F5F16349E
:103E300059F76E9A1FEF60E4C62E7FE3972E82E15A
:103E40000E94E205892B09F020C21E8E1D8E198367
:103E50001A831B831C83CD829E828AE28F838EE32A
:103E6000888787E4898789E18A878EE18B878FE15C
:103E70008C8781E48D878CE28E878DE28F878EE23E
:103E8000888B82E0898B87E38A8B82E48B8B81E24B
:103E90008C8B87E18D8B84E48E8B83E48F8B86E122
:103EA000888F89E3898F8AE38A8F8CE18B8F81E009
:103EB0008D8F18A385E189A384E18AA383E18BA375
:103EC00088E38DA386E088A78EE089A78FE08AA784
:103ED0008BE28BA780E28CA71DA71EA71FA718AB9C
:103EE0000E94BA162A962FAF2A972B963FAF2B9790
:103EF0002C964FAF2C972D965FAF2D972E966FAFC8
:103F00002E972F967FAF2F972D968EAD9FAD2D9725
:103F10002B962EAD3FAD2B972330310508F413C1FE
:103F2000892B09F410C189E08C8F0E94BA16609623
:103F30002FAF609761963FAF619762964FAF6297E0
:103F400063965FAF639764966FAF649765967FAF34
:103F5000659763968EAD9FAD639761962EAD3FAD2D
:103F600061972330310508F4F0C0892B09F4EDC0C6
:103F700085E08F8F0E94BA1666962FAF6697679678
:103F80003FAF679768964FAF689769965FAF69973D
:103F90006A966FAF6A976B967FAF6B9769968EAD97
:103FA0009FAD699767962EAD3FAD6797233031057A
:103FB00008F4CDC0892B09F4CAC08AE08CA30E9402
:103FC000BA166C962FAF6C976D963FAF6D976E9645
:103FD0004FAF6E976F965FAF6F97A0966FAFA0973A
:103FE000A1967FAFA1976F968EAD9FAD6F976D969F
:103FF0002EAD3FAD6D972330310508F4AAC0892B53
:1040000009F4A7C086E38EA30E94BA16A2962FAF2A
:10401000A297A3963FAFA397A4964FAFA497A59658
:104020005FAFA597A6966FAFA697A7967FAFA79706
:10403000A5968EAD9FADA597A3962EAD3FADA39748
:104040002330310508F487C0892B09F484C088E146
:104050008FA38091D004882309F483C00E94BA16EC
:1040600029AB3AAB4BAB5CAB6DAB7EAB8BA99CA9E0
:1040700029A93AA92330310508F46FC0892B09F426
:104080006CC087E060E00E940B060E94BA162FAB5E
:1040900038AF49AF5AAF6BAF7CAF89AD9AAD2FA99E
:1040A00038AD2330310508F45AC0892B09F457C0C4
:1040B00088E061E00E940B0661E08CE30E940B0641
:1040C00060E570E080E090E00E94B50660E08CE37F
:1040D0000E940B0660E570E080E090E00E94B5066B
:1040E00061E08DE30E940B0660E570E080E090E007
:1040F0000E94B50660E08DE30E940B069E012F5FD3
:104100003F4F59015CE0D52EF12CE12CF501EE0D6D
:10411000FF1D0081073409F469C00F3F09F474C022
:1041200061E0802F0E940B0660E570E080E090E087
:104130000E94B50660E0802F0E940B065FC08FEFE3
:10414000809377051ACD87E0EFCE86E312CF88E023
:1041500035CF88E158CF85E07BCF8AE093CF89E0E7
:10416000A8CF0E94BA162DAF3EAF4FAF21965FAFDA
:10417000219722966FAF229723967FAF23972196A0
:104180008EAD9FAD21972DAD3EAD2330310550F161
:10419000892B41F187E061E00E940B060E94BA166C
:1041A00024962FAF249725963FAF259726964FAF9D
:1041B000269727965FAF279728966FAF289729965F
:1041C0007FAF299727968EAD9FAD279725962EAD69
:1041D0003FAD25972330310538F0892B29F088E051
:1041E00060E068CF8AE0D7CF89E0FACF769A60E5C1
:1041F00070E080E090E00E94B506769860E570E09F
:1042000080E090E00E94B5063FEFE31AF30A84E0F5
:10421000E816F10409F07ACFDA9494E0A90EB11C03
:10422000D11072CF0091D00461E084E20E940B06AD
:1042300060E570E080E090E00E94B50660E084E216
:104240000E940B0661E082E20E940B0660E570E0CE
:1042500080E090E00E94B50660E082E20E940B06DA
:10426000002369F060E08BE00E940B0661E08CE0C7
:104270000E940B0681E008270093D004E0CD61E0A6
:104280008BE00E940B0660E0F2CF62E08CE30E94BC
:10429000390662E082E20E9439068CE30E94E20560
:1042A000892B09F024C282E20E94E205892B09F0E1
:1042B0001EC26FEF7FEF8BE895E00E9454141092BE
:1042C00098051092970510929A051092990583E22D
:1042D0000E947813509097058BE895E00E94C21BCE
:1042E00080919905E82F880FFF0BA996FFAFEEAFDD
:1042F000A997252D220F330BEE24EA94FE2C8F0173
:1043000050E040E070E060E08BE895E00E94040D32
:10431000109298051092970510929A05109299059F
:1043200010929E0510929D0510929C0510929B057F
:104330008BE895E00E94C21B64E173E08BE895E096
:104340000E94C61B6CE273E08BE895E00E94C61BDE
:1043500064E473E08BE895E00E94C61B6CE573E0B3
:104360008BE895E00E94D81B80E098EF90939E0523
:1043700080939D0590939C0580939B0588E50E9402
:10438000781310929E0510929D0510929C05109234
:104390009B0560E673E08BE895E00E94C61B6CE528
:1043A00073E08BE895E00E94D81B8FE190E090933A
:1043B0009E0580939D0590939C0580939B0589E5C0
:1043C0000E94781310929E0510929D0510929C05F4
:1043D00010929B0564E773E08BE895E00E94C61B92
:1043E0006CE573E08BE895E00E94D81B00E01CE0D0
:1043F00010939E0500939D0510939C0500939B05CB
:104400008FE40E94781310929E0510929D051092E1
:104410009C0510929B0568E873E08BE895E00E948C
:10442000C61B6CE973E08BE895E00E94C61B64EB49
:1044300073E08BE895E00E94C61B6CEC73E08BE8A0
:1044400095E00E94C61B64EE73E08BE895E00E9445
:10445000D81BC0909705D0909805609099057090F2
:104460009A0510939E0500939D0510939C0500935B
:104470009B0516E08FE40E9478131150D9F7109233
:104480009E0510929D0510929C0510929B0569ED6A
:1044900073E08BE895E00E94C61B6CEE73E08BE83E
:1044A00095E00E94C61B64E074E08BE895E00E94F2
:1044B000C61BA0909905B0909A0561EB73E08BE85C
:1044C00095E00E94D81B80909705909098056EE922
:1044D00073E08BE895E00E94C61B64E173E08BE813
:1044E00095E00E94C61B352D86E03802900111240C
:1044F000AB963FAF2EAFAB97F52D24E1F202F00162
:104500001124AD96FFAFEEAFAD977724DD24BB2429
:1045100099249FE1292E312C412C28EF522EEE2494
:10452000EA94FE2CA9960EAD1FADA997AB962EADC1
:104530003FADAB97A301B6018BE895E00E94040D57
:10454000A9960EAD1FADA997AD962EAD3FADAD9717
:10455000A501B4018BE895E00E94040D61E082E0C2
:104560000E94390662E086E10E94390661E070E04F
:1045700080E090E00E94B50686E10E94E20501E03D
:10458000892B09F400E087E30E947506459708F03F
:10459000026082E40E9475068C3E934008F4046039
:1045A00061E081E20E94390662E087E10E943906FB
:1045B00061E070E080E090E00E94B50687E10E9433
:1045C000E205892B09F0086084E40E94750645978E
:1045D00008F0006183E40E9475068C3E934008F465
:1045E0000062D0929805C092970570929A056092E9
:1045F0009905002341F10F3309F03EC020E03CE073
:1046000030939E0520939D0530939C0520939B0538
:1046100016E08FE40E9478131150D9F79092980514
:1046200080929705B0929A05A09299056CE174E08A
:104630008BE895E00E94D81B64EF71E080E090E089
:104640000E94B5066CCF30929E0520929D05309257
:104650009C0520929B0516E089E50E947813115075
:10466000D9F79092980580929705B0929A05A092FA
:1046700099056BE274E0DCCFF12CE12C10E0C8016D
:104680000E2C02C0959587950A94E2F780FF25C00D
:1046900050929E0540929D0550929C0540929B052C
:1046A00088E50E9478133FEFE31AF30A86E0E816E4
:1046B000F10429F750929E0540929D0550929C0569
:1046C00040929B059092980580929705B0929A052A
:1046D000A092990567E374E0ABCF30929E052092DB
:1046E0009D0530929C0520929B0589E5DACF81E0FB
:1046F0008093EE0487E795E0C459DF4F0FB6F89436
:10470000DEBF0FBECDBFDF91CF911F910F91FF9004
:10471000EF90DF90CF90BF90AF909F908F907F9061
:104720006F905F904F903F902F9008954F925F92BF
:104730006F927F92BF92CF92DF92EF92FF920F9390
:104740001F93CF93DF93CDB7DEB72E970FB6F894B4
:10475000DEBF0FBECDBF8C010E948E1B6A5E71470B
:104760008F40910966307E48804F9F4FC0F00E9475
:10477000871D2AE030E0FC0131A320A324E630E0CD
:1047800033A322A30E94871D21E0FC0120A721A7BB
:104790000E94871D62E474E044960E94D81B88EF53
:1047A000482E80E4582E85E3682E8CE3782E0E94F4
:1047B0008E1B6A5E71478F40910966307E48804F3C
:1047C0009F4FE0F40E948E1BAB01BC01C8010E9408
:1047D0009E1CC8012E960FB6F894DEBF0FBECDBF4B
:1047E000DF91CF911F910F91FF90EF90DF90CF90CD
:1047F000BF907F906F905F904F90089567E574E051
:1048000082ED95E00E94C61B8FB7F894C0907305A7
:10481000D0907405E0907505F09076058FBF20E389
:10482000C20E25E7D21EE11CF11C82ED95E00E942C
:104830009407892B19F52FB7F894809173059091FF
:104840007405A0917505B09176052FBFC816D906DD
:10485000EA06FB0650F74B865C866D867E86CE01A7
:104860000B960E94691B6AE774E082ED95E00E9456
:10487000C61BDBCF82ED95E00E9432070E945407F1
:10488000FC0197FD6EC08D32910519F0C0970A9713
:1048900088F7C12CD12C7601B12CE130F105D9F08B
:1048A000ED32F10509F45AC0CF01C0970A9798F488
:1048B000AAE0B0E0A70196010E9474306F01FF0FDB
:1048C000EE08FF08C60ED71EE81EF91E80E3C81AC0
:1048D000D108E108F10882ED95E00E9432070E94BC
:1048E0005407FC01C0970A97C0F2E130F105A9F224
:1048F000BB2041F0F094E094D094C094C11CD11C32
:10490000E11CF11CD701C6018A5E9147AF40B10995
:1049100086309E48A04FBF4F08F049CFCF82D8863F
:10492000E986FA86CE0107960E94691B6FE874E05B
:1049300082ED95E00E94D81BCE0101960E9496233D
:10494000BE016F5F7F4F82ED95E00E94E806CE01C9
:1049500001960E940A1DB701A60138CFBB24B3946B
:10496000BACFC12CD12C7601CDCFCF92DF92EF926E
:10497000FF920F931F93CF93DF93CDB7DEB76A9764
:104980000FB6F894DEBF0FBECDBF8C012D8B3E8BD2
:104990004F8B588F698F7A8F6D897E89CF88D88C9D
:1049A000E98CFA8C61157105D1F4C114D104B9F404
:1049B000E114F104A1F465EA74E00E94421CC8010C
:1049C0006A960FB6F894DEBF0FBECDBFDF91CF91D0
:1049D0001F910F91FF90EF90DF90CF900895CE013F
:1049E0000D960E94CB1CC114D10409F448C0B60135
:1049F000CE0107960E94CB1C1A8219821C821B8250
:104A00001E821D828EE28B8B1C8ABE016D5E7F4FE3
:104A1000CE0101960E94731CBE01695F7F4FCE01DB
:104A200001960E94F71CFC014481558160817181CF
:104A3000CE010D960E94041CCE0101960E940A1D13
:104A4000CE0107960E940A1DE114F10419F58D8527
:104A50009E85F801918380838F85988993838283D3
:104A600089899A89958384831E861D86188A1F8664
:104A70001A8A198ACE010D960E940A1DA0CFE11450
:104A8000F10429F342E050E06AEA74E0CE010D96A9
:104A90000E94041CB701CE0107960E94CB1C1A820B
:104AA00019821C821B821E821D828EE28B8B1C8AC5
:104AB000BE016D5E7F4FCE0101960E94731CBE0148
:104AC000695F7F4FCE0101960E94F71CFC01448173
:104AD000558160817181CE010D960E94041CCE012A
:104AE00001960E940A1DCE0107960E940A1DAFCFB3
:104AF0001F920F920FB60F9211242F933F938F9313
:104B00009F93AF93BF938091730590917405A0918B
:104B10007505B091760530916E0523E0230F2D3792
:104B200058F50196A11DB11D20936E058093730564
:104B300090937405A0937505B093760580916F05E9
:104B400090917005A0917105B09172050196A11D1B
:104B5000B11D80936F0590937005A0937105B0937C
:104B60007205BF91AF919F918F913F912F910F90BF
:104B70000FBE0F901F90189526E8230F0296A11DD7
:104B8000B11DD2CF1F920F920FB60F9211240BB608
:104B90000F922F933F934F935F936F937F938F93D6
:104BA0009F93AF93BF93EF93FF9382ED95E00E94A5
:104BB000AA07FF91EF91BF91AF919F918F917F9144
:104BC0006F915F914F913F912F910F900BBE0F907E
:104BD0000FBE0F901F9018951F920F920FB60F9255
:104BE00011240BB60F922F938F939F93EF93FF9304
:104BF000E091E205F091E3058081E091E805F09114
:104C0000E90582FD1DC090818091EB058F5F8F7358
:104C10002091EC05821741F0E091EB05F0E0EE52B7
:104C2000FA4F958F8093EB05FF91EF919F918F91B4
:104C30002F910F900BBE0F900FBE0F901F901895E5
:104C40008081F2CF1F920F920FB60F9211240BB6F4
:104C50000F922F933F934F935F936F937F938F9315
:104C60009F93AF93BF93EF93FF9348E251E064E2C9
:104C700071E090E080E00E946A08FF91EF91BF919F
:104C8000AF919F918F917F916F915F914F913F91E4
:104C90002F910F900BBE0F900FBE0F901F90189585
:104CA0001F920F920FB60F9211240BB60F922F93F3
:104CB0003F934F935F936F937F938F939F93AF93A4
:104CC000BF93EF93FF9348EA50E064EA70E083E01B
:104CD00090E00E946A08FF91EF91BF91AF919F9180
:104CE0008F917F916F915F914F913F912F910F9095
:104CF0000BBE0F900FBE0F901F9018951F920F9232
:104D00000FB60F9211240BB60F922F933F934F9330
:104D10005F936F937F938F939F93AF93BF93EF9323
:104D2000FF9348E950E064E970E082E090E00E947F
:104D30006A08FF91EF91BF91AF919F918F917F9101
:104D40006F915F914F913F912F910F900BBE0F90FC
:104D50000FBE0F901F9018951F920F920FB60F92D3
:104D600011240BB60F922F933F934F935F936F9342
:104D70007F938F939F93AF93BF93EF93FF9348E8F5
:104D800050E064E870E081E090E00E946A08FF91E2
:104D9000EF91BF91AF919F918F917F916F915F91B3
:104DA0004F913F912F910F900BBE0F900FBE0F9020
:104DB0001F9018951F920F920FB60F9211240BB6E9
:104DC0000F922F933F934F935F936F937F938F93A4
:104DD0009F93AF93BF93EF93FF938091B900887F28
:104DE000803609F44DC008F040C0883209F4A7C0ED
:104DF00028F5803109F49BC0C8F4882309F4F7C072
:104E0000883009F494C0FF91EF91BF91AF919F91C9
:104E10008F917F916F915F914F913F912F910F9063
:104E20000BBE0F900FBE0F901F901895883109F49C
:104E300086C0803241F78093420514C0803409F463
:104E40009BC040F48033B9F38833E9F68093420580
:104E500085ECAEC0803509F483C0883509F494C070
:104E6000883489F60E94121DCECF883909F48AC091
:104E700038F5883729F050F4883611F0803719F664
:104E800083E0809343051092410555C0883809F4AA
:104E900079C0803919F0803809F0B5CF809141058B
:104EA000803208F06FC0E091410581E08E0F809361
:104EB00041058091BB00F0E0EF5DFA4F80833BC07D
:104EC000803B39F0D0F4803A09F477C0883A09F091
:104ED0009ACF84E0809343051092200510921F051D
:104EE000F0E0E0E0199580911F0581110FC081E08D
:104EF00080931F051092FF0409C0803C09F4A8CFDD
:104F0000883C09F4A5CF883B09F07DCFE0912005CE
:104F100081E08E0F80932005F0E0E150FB4F80810F
:104F20008093BB009091200580911F0529C080913E
:104F300068058093BB0085EC8093BC0064CF9091A2
:104F4000670580916605981758F5E091670581E03F
:104F50008E0F80936705F0E0EA5BFA4F8081E9CF1E
:104F6000E091670581E08E0F809367058091BB001B
:104F7000F0E0EA5BFA4F80839091670580916605C7
:104F80009817C8F285E8D8CFE091670581E08E0FC9
:104F9000809367058091BB00F0E0EA5BFA4F808365
:104FA0008091450581115ECF81E08093440584EABC
:104FB0008093BC001092430526CF85EC8093BC0003
:104FC0001092430580914105803230F4E091410513
:104FD000F0E0EF5DFA4F10826091410570E081E2F0
:104FE00095E0F0E0E0E01995109241050CCF1092A9
:104FF000420538CF1092D5051092D40588EE93E083
:10500000A0E0B0E08093D6059093D705A093D80593
:10501000B093D9058CE592E09093D3058093D205A7
:1050200085EC90E09093DF058093DE0584EC90E0C2
:105030009093E1058093E00580EC90E09093E30588
:105040008093E20581EC90E09093E5058093E40580
:1050500082EC90E09093E7058093E60586EC90E083
:105060009093E9058093E8051092EB051092EC050A
:105070001092ED051092EE059FEF90936F0610923F
:1050800071061092700610927B0610927A064FEF0E
:105090005FEFBA01409376065093770660937806E7
:1050A0007093790680910D07803318F591E0980F81
:1050B00090930D078093550790E0FC01EE0FFF1FC2
:1050C000E80FF91FE358F94F88EB9BE09283818347
:1050D0008EE097E00E94DD04109251071092520773
:1050E000109253078EE692E090930F0780930E077D
:1050F000089590935507ECCFCF93DF93CDB7DEB7EC
:10510000E3970FB6F894DEBF0FBECDBF789484B599
:10511000826084BD84B5816084BD85B5826085BDB3
:1051200085B5816085BD80916E00816080936E0041
:105130001092810080918100826080938100809133
:1051400081008160809381008091800081608093E4
:1051500080008091B10084608093B1008091B000A4
:1051600081608093B0008091910082608093910073
:105170008091910081608093910080919000816086
:10518000809390008091A10082608093A100809123
:10519000A10081608093A1008091A0008160809334
:1051A000A0008091210182608093210180912101E2
:1051B0008160809321018091200181608093200192
:1051C00080917A00846080937A0080917A00826076
:1051D00080937A0080917A00816080937A00809138
:1051E0007A00806880937A001092C100E091E20515
:1051F000F091E30582E0F82EF082E091DE05F09177
:10520000DF051082E091E005F091E1058FEC8083ED
:105210001092EA05E091E605F091E70586E08083CB
:10522000E091E405F091E505808180618083E09163
:10523000E405F091E505808188608083E091E405D4
:10524000F091E505808180688083E091E405F0912C
:10525000E50580818F7D80830E94871D0AE010E034
:10526000FC0111A300A313A302A30E94871D61E008
:1052700044960E94C50F0E94871DFC01F0A6F1A66E
:105280000E94871D6DEA74E044960E94D81B0E941C
:10529000871DFC0111A300A32EE130E033A322A35C
:1052A0000E94871D7C010E94BA16CE0101960E94C1
:1052B000B5246AEB74E0CE0188960E94421CBE01C0
:1052C0006F5F7F4FCE0188960E94F71CBC01C7011B
:1052D00044960E94E806CE0188960E940A1DCE01DF
:1052E00001960E940A1D0E94871DFC0111A300A3C4
:1052F00022E330E033A322A30E94871D7C0181E0DA
:10530000282F88A719A683E090E0482F8AA79BA79B
:10531000682F8CA79DA730E050E070E0CE01019689
:105320000E94B5246EEB74E0CE018E960E94421C62
:10533000BE016F5F7F4FCE018E960E94F71CBC01AD
:10534000C70144960E94E806CE018E960E940A1D6F
:10535000CE0101960E940A1D0E94871DFC0111A327
:1053600000A326E430E033A322A30E94871D4496C5
:105370005C010E94871D85E40E947506BC01990F9F
:10538000880B990B0E94412F20E030E040EA50E466
:105390000E94A02F20E030E040E85AE30E94A02FB6
:1053A00020E030E0A9010E948F306B017C012BE7E7
:1053B00034E146E850E40E946D3118160CF491C2B5
:1053C00024E13EEA47E850E4C701B6010E943A2FC3
:1053D00087FFC5C02CE53FE842E850E4C701B601AD
:1053E0000E946D3118160CF0BAC024E13EEA47E87D
:1053F00050E4C701B6010E948E3020E030E040E763
:1054000051EC0E94A02F20E037ED43E25EEB0E94BA
:10541000FB3020E030E048EC52E40E948F301FA6C1
:105420001EA619AA18AA1BAA1AAA8E010F5F1F4F3F
:1054300022E044E00E947F2C009709F45BC2BC018B
:10544000CE018E960E94731C64EC74E0CE0101962E
:105450000E94421CBE01625D7F4FCE0101960E94F8
:10546000F71C8C0141E050E06AEC74E00E94041CDF
:10547000811103C0C8010E94301CB801C5010E94FF
:10548000E806CE0101960E940A1DCE018E960E946A
:105490000A1D0E94871D2AE030E0FC0131A320A3F1
:1054A00028E730E033A322A30E94871D21E0FC01FE
:1054B00020A721A70E94871D8C01CE0101960E9482
:1054C00096236CEC74E0CE018E960E94421CBE01C5
:1054D0006F5F7F4FCE018E960E94F71CBC01C80102
:1054E00044960E94E806CE018E960E940A1DCE01C7
:1054F00001960E940A1D0E94871D4FEF50E060E058
:1055000070E00E94071664EF71E080E090E00E9476
:10551000B5060E94871D40E05FEF60E070E00E94EA
:10552000071664EF71E080E090E00E94B5060E94EB
:10553000871D40E050E06FEF70E00E94071664EFB7
:1055400071E080E090E00E94B5060E94871D40E077
:1055500050E0BA010E9407160E943908FDCF2CE5E1
:105560003FE842E850E4C701B6010E943A2F87FFA6
:1055700023C025E83BEE41E850E4C701B6010E9494
:105580006D311816CCF42CE53FE842E850E4C70131
:10559000B6010E948E3020E433E343E550EC0E94D4
:1055A000A02F20E037ED43EA5CEB0E94FB3020E0C7
:1055B00030E04AEA52E431CF25E83BEE41E850E4DE
:1055C000C701B6010E943A2F87FF23C027ED33EAB7
:1055D00040E850E4C701B6010E946D311816CCF4C2
:1055E00025E83BEE41E850E4C701B6010E948E3049
:1055F00020E030E040EA50EC0E94A02F20E037EDA0
:1056000043E25DEB0E94FB3026E636E643EA52E4D5
:1056100004CF27ED33EA40E850E4C701B6010E9409
:105620003A2F87FF23C022E538EB4EE750E4C7014D
:10563000B6010E946D311816CCF427ED33EA40E82C
:1056400050E4C701B6010E948E3020E233E343E507
:1056500050EC0E94A02F20E037ED43E25DEB0E946A
:10566000FB3026E636E649E952E4D7CE22E538EBB0
:105670004EE750E4C701B6010E943A2F87FF23C0CE
:105680002CEE31E548E750E4C701B6010E946D31C8
:105690001816CCF422E538EB4EE750E4C701B6010A
:1056A0000E948E3020E030E040E751EC0E94A02FB5
:1056B00020EC3CEC4CEC5DEB0E94FB302DEC3CEC28
:1056C00042E952E4AACE2CEE31E548E750E4C701A6
:1056D000B6010E943A2F87FF23C023E333E343E759
:1056E00050E4C701B6010E946D311816CCF42CEEBF
:1056F00031E548E750E4C701B6010E948E302AE93F
:1057000039E941E152EC0E94A02F20E237ED43EA53
:105710005DEB0E94FB302AE939E949E652E47DCE8F
:1057200023E333E343E750E4C701B6010E943A2F75
:1057300087FF23C02FE135E84BE650E4C701B601EF
:105740000E946D311816CCF42CEE31E548E750E498
:10575000C701B6010E948E302DEC3CEC44E551ECC3
:105760000E94A02F20ED3CEC4CE45EEB0E94FB304D
:1057700020E030E040EB51E450CE2FE135E84BE63D
:1057800050E4C701B6010E943A2F87FF23C02CE5E1
:105790003FE842E650E4C701B6010E946D31181699
:1057A000CCF42FE135E84BE650E4C701B6010E9486
:1057B0008E3022E333E343E550EC0E94A02F20E338
:1057C0003CE54FE05EEB0E94FB3023E333E34BE02C
:1057D00051E423CE2CE53FE842E650E4C701B60190
:1057E0000E943A2F87FF23C021EE3AE744E550E4B8
:1057F000C701B6010E946D311816CCF42CE53FE8C4
:1058000042E650E4C701B6010E948E3024E333E340
:1058100043E550EC0E94A02F20EB37E441E65EEB1D
:105820000E94FB302DEC3CEC4CEA50E4F6CD21EE2E
:105830003AE744E550E4C701B6010E943A2F87FFDA
:1058400023C020E030E040E450E4C701B6010E94EC
:105850006D311816CCF421EE3AE744E550E4C70167
:10586000B6010E948E302CEC3CEC4CEC5FEB0E94BD
:10587000A02F28E037ED43EA5EEB0E94FB3026E6DE
:1058800036E646E050E4C9CD20E030E040E450E4A4
:10589000C701B6010E943A2F87FF28C020E030E000
:1058A00040E250E4C701B6010E946D311816F4F4CD
:1058B00020E030E040E450E4C701B6010E948E30A1
:1058C00020E030E040E05FEB0E94A02F20E030E0DD
:1058D00040E050EC0E94A02F20E030E040E05FE389
:1058E0009CCD60E070E088EC92E499CD60E070E0DF
:1058F000CB0195CDCE018E960E94301CA5CDEF92A6
:105900000F931F93CF93DF93E80134E047FD34E119
:10591000042E000C550B57FF03C0519541955109BA
:10592000E32E022F242FAE010E94D92CCE01DF914D
:10593000CF911F910F91EF900895BB27FA01A62FE9
:105940006217710581059105330B30FB66F0AA27BC
:10595000660F771F881F991FAA1FA21710F0A21B9E
:1059600063953850A9F7A05DAA3308F0A95DA1930B
:1059700036F7B111B1931082CA010C942A2FBB27BC
:10598000FB015527AA27880F991FAA1FA41710F0FB
:10599000A41B83955051B9F7A05DAA3308F0A95D07
:1059A000A193009779F7B111B1931192CB010C94A7
:1059B0002A2F8F929F92AF92BF92CF92DF92EF9257
:1059C000FF920F931F93CF93DF9300D000D000D0AE
:1059D000CDB7DEB76A01F22EB02E102FFBE3AF2E4B
:1059E000A01608F41BE31F5F012F27E0AE014F5FF5
:1059F0005F4F0E94522EBC018981982F997091307F
:105A000009F44EC09BE2E1FC04C09E2D9170E0FCC5
:105A100049C05E2D5071E82FE87083FF55C084E0C7
:105A2000911101C083E0EF2DE81B8F1508F0E0E035
:105A3000D6018E2F20E25523C9F1992329F0D601F2
:105A40009C93C60101966C0196012D5F3F4FE2FECB
:105A500033C08EE4D6018C9391E411969C931197F8
:105A600012968C93D9018E2F90E281112AC0E20FF9
:105A7000F32FF11D10828EEF9FEF29960FB6F89449
:105A8000DEBF0FBECDBFDF91CF911F910F91FF9071
:105A9000EF90DF90CF90BF90AF909F908F90089540
:105AA0009DE2B7CF90E2B5CF2D9381508111FCCF0D
:105AB000CE0ED11CE0E0C1CF8EE6D6018C9391E6EC
:105AC000CCCF9D938150D1CF482F447082FF3DC0F1
:105AD00084E0911101C083E08F1510F4EF2DE81BD5
