:100000000C9439440C9417D60C94ECD50C94C1D5AF
:100010000C9496D50C946BD50C9440D50C9415D5B6
:100020000C94EAD40C946A440C946A440C946A4488
:100030000C946A440C945ED70C946A440C946A4401
:100040000C946A440C947AB70C946A440C946A44F5
:100050000C946A440C946A440C946A440C9428D31B
:100060000C946A440C941CDD0C94F2DC0C946A44ED
:100070000C946A440C946A440C946A440C946A4448
:100080000C944CB70C946A440C946A440C946A44E3
:100090000C946A440C946A440C946A440C9476A3BD
:1000A0000C946A440C946A440C941EB70C946A44F1
:1000B0000C946A440C946A440C946A440C94F0B610
:1000C0000C946A440C946A440C946A440C946A44F8
:1000D0000C946A440C946A440C946A440C946A44E8
:1000E0000C946A440C94DB9A0C9467C70C946BC60E
:1000F0000C9476560C94BAC70C94D86E0C94EBC63C
:100100000C94FD7C0C94AB440C943BC70C94958EE2
:100110000C94CF500C9405C60C94CBC70C94C06EB5
:100120000C94DBC60C9457550C94D3860C94F14474
:100130000C947EC50C94CCC70C94A56E0C94869A36
:100140000C94816E0C9429C60C94056F0C9497C680
:100150000C94269B0C94C4C70C944F910C94D26EB3
:100160000C946CC50C945CAA0C941B990C94249967
:100170000C94A5950C9490450C9463D00C94C36E8C
:100180000C94E9440C94F98B0C9466C80C949AC7AF
:100190000C9436890C94B6C70C94C58A0C94757C63
:1001A0000C9493450C94E16E0C94968E0C942F7DD8
:1001B0000C942EC80C94638E0C94278B0C940E6FA9
:1001C0000C94B16E0C949F6E0C94F1870C94BA6EE3
:1001D0000C940EC50C944B570C94BD6E0C940CC82B
:1001E0000C94CFC70C94A4C70C94906E0C94048606
:1001F0000C94B58C0C94CF6E0C94A59B0C94138727
:100200000C9486D00C945E7C0C94ACAA0C9444A004
:100210000C94A0730C94086F0C949EC70C948A6E77
:100220000C944D450C944A880C941CA80C94E9C479
:100230000C94DA590C94F57D0C943FD00C944A47F9
:100240000C94DE900C94087D0C940B6F0C94B8D039
:100250000C94A7C60C9424AB0C9461A70C946F8CDF
:100260000C94CF870C9445890C94EB4E0C948352DC
:100270000C947FC60C94428D0C946D8A0C9462E5AC
:100280000C948CC70C9460C40C94ACC70C947DABDC
:100290000C94D0C70C94988E0C94244A0C94397DFD
:1002A0000C94FBC60C94534B0C94758A0C940B4F16
:1002B0000C946A490C94628B0C940BC70C946C449C
:1002C0000C944EA00C94B76E0C94B07D0C94966E6A
:1002D0000C9479C40C94889A0C94D1C40C9407881B
:1002E0000C94146F0C94EF440C94EC440C94088A16
:1002F0000C94BC480C94697D0C94AEAB0C941D6FAF
:100300000C9445810C94A6A70C9418850C94038D2D
:100310000C94ECC90C941A6F0C946D7E0C948C9A0E
:100320000C9479870C941D960C94C8C70C94E78E96
:100330000C949AD00C9449D00C94158E0C94B7451B
:100340000C94FDC70C94B3880C94458E0C94A3C4F4
:100350000C94759B0C946D900C9474940C94BA8EC0
:100360000C942AC50C94BD450C9400460C941E5D5B
:100370000C944C4D0C9490C70C940AAA0C94CC6E1F
:100380000C94B77C0C9414520C94147E0C948789B2
:100390000C943D710C94A26E0C9454C50C94C957E6
:1003A0000C94978E0C9467880C943F8C0C9419AF26
:1003B0000C94A78E0C94C17D0C94206F0C94DB6E72
:1003C0000C94628E0C945D610C948D6E0C94D088AC
:1003D0000C9486C70C941ED00C94A86E0C945B8E63
:1003E0000C94938B0C94C88C0C94176A0C94998A77
:1003F0000C946DD00C9459D00C9420860C94E6E2A9
:100400000C9426D00C94D0910C9497440C94C17CFD
:100410000C949C6E0C94AC800C94A8C70C946C58F3
:100420000C9408C40C94768C0C948A9A0C94F7E281
:100430000C94DE6E0C9497450C94996E0C9477D0C6
:100440000C9446950C942BD00C94EC4D0C940346D4
:100450000C9420970C94F7540C94AED00C94A4D028
:100460000C94F7850C9451D00C9447C60C94875388
:100470000C941C4C0C94668D0C9498A20C94DAB0DD
:100480000C94B3C80C9490D00C94AF8B0C94804710
:100490000C94ACC50C941BC70C94EF970C943B5C6C
:1004A0000C94AB6E0C94D16F0C9490910C94948539
:1004B0000C94D0C50C9466870C947E890C94AE6E17
:1004C0000C94116F0C94CD860C94358E0C94FC6EAC
:1004D0000C94176F0C949CC50C94C7720C948C866A
:1004E0000C94936E0C94C0C70C94E98B0C9494C735
:1004F0000C942D870C94D7890C94BBC40C9435D0E4
:100500000C94B46E0C9420C80C94D56E0C94348A60
:100510000C94B2C70C942D540C943A920C941A98E3
:100520000C94D74F0C94DD970C942BC70C94C66E8B
:100530000C94C96E0C94E0C5000000000A00010094
:100540000005190C04E810000D091102E71F001442
:10055000181300E95B00131D1300E7A0001D191F0D
:1005600001E8FB0016191902E8400105090902E734
:10057000460109210C01E76C0109210C01E79201F8
:100580000C0B0E00E7A30110101402F1C301050BC0
:100590000902FCCA0109040C01F6CF010505090294
:1005A000FCD30109190A00E8F00111191301E8262A
:1005B000020A191303E8460211191301E87C02111B
:1005C000191301E8B20210191302E8E40211191319
:1005D00001E81A0312191301E8530311191301E872
:1005E000890311191301E8BF0311191301E8F50379
:1005F00005120902EF010405180902EF1004121197
:100600001401F03704110C1402F3510412111401F7
:10061000F07804121A1502E7B304201F2201E72F15
:1006200005181A1800E77D05141A1903E7BE051707
:100630001A1901E70906151A1903E74E06131A17C6
:1006400003E78C06111A1603E7C406181A1B01E704
:100650001207141A1A03E75307051A0B03E7640776
:10066000101A1401E79807161A1903E7E007111A80
:100670001603E71808181A1E03E76608141A1A0367
:10068000E7A708191A1B01E7F908131A1803E73737
:1006900009191B1B01E78C09151A1903E7D1091465
:1006A0001A1802E7120A131A1702E7500A141A1A44
:1006B00003E7910A161A1701E7D90A201A2201E75F
:1006C000410B161A1801E7890B151A1601E7CE0B14
:1006D000131A1501E70C0C08210C02E72D0C0A195E
:1006E0000A00E84D0C08210C01E76E0C100F1402F3
:1006F000E98C0C150313FF05940C07050901E79914
:100700000C12131401EEC40C121A1602E7FF0C119E
:10071000131401EE280D131A1601E7660D121314B7
:1007200001EE910D0A1A0C01E7B20D121A1501EE35
:10073000ED0D111A1502E7250E051A0A02E7360E0D
:1007400007210A00E7530E111A1402E78B0E051A4F
:100750000902E79C0E1B131F02EEDD0E111315029A
:10076000EE060F13131501EE340F121A1602EE6F78
:100770000F131A1601EEAD0F0B130E02EEC80F1178
:10078000131301EEF10F09170C01EA0B10111315E9
:1007900002EE341013131300EE62101B131B00EE55
:1007A000A31012131301EECE10131A1300EE0C1146
:1007B00010131201EE321109210E01E75811032125
:1007C0000A04E7651109210E03E78B110F061201D8
:1007D000F6FFFFFFFFFFFFFEE739CE73800FFFFF3D
:1007E000F8F8FFC7FE3FF1FF8FFC7DC1CE0E7070A1
:1007F00003C3803C7803C7803878078707FFFF7FF3
:10080000FFF7FFFF7FFFF0F0E00F0E00F1E00F1E9B
:1008100000E1E0FFFFCFFFFCFFFFCFFFFC1C3C032C
:10082000C3803C7803C78038780387800060007FEE
:10083000803FFC0FFFC3FFFCFCDF9F19FBC31F7849
:1008400063EF8C01FD801FF001FFC01FFE007FE001
:1008500003FE0067E00C7FE18FFC31FFC63EFCDF4A
:100860009FFFF1FFFC0FFF007F800180003000063A
:10087000000F001C01FE00E01FF80E00FFC0700F0B
:100880000F07007038380381C3801C0E3C00F0F164
:10089000C003FF1C001FF8E0007F8E0000F070F81E
:1008A00000071FF00039FFC0038FFE001CF0780125
:1008B000C701C00C380E00E1C070060F0780703F02
:1008C000F80701FFC03807FC03800F8001F0001F0C
:1008D000E000FFC003FF801F1E007C7801F1E007ED
:1008E000E7800FBC001FE0003F0001F8001FF0F0A0
:1008F000FFE3C7E7CF3F0FF8F83FE3E07F8F80FCCF
:100900003F03F07E3FE1FFFF83FFFF07FE7E07F01E
:10091000FCFFFFFFFDCE70078783C3C1E1E0F078E5
:10092000783C1E1E0F0783C1E0F0783C1E0F038148
:10093000E0F0781E0F0381E0703C0E0780F0381E57
:100940000783C0F0783C0F0783C0F0783C1E0F0788
:1009500083C1E0F078783C1E0F0F078783C1C1E0A8
:10096000E0F00006006006076E7FE3FC0F01F81F51
:10097000839C108003C003C003C003C003C003C036
:10098000FFFFFFFFFFFFFFFF03C003C003C003C063
:1009900003C003C0FFFFFF8C6337B0FFFFFFFFF012
:1009A000FFFFFF800181C0C0607038180C0E060385
:1009B0000181C0C0603038180C0E07030181C0C02F
:1009C0000007F00FFE0FFF87FFC7E3F3E0F9F07DAC
:1009D000F01FF80FFC07FE03FF01FF80FFC07FE060
:1009E0003FF01FF80FFC07DF07CF83E7E3F1FFF0CD
:1009F000FFF83FF807F00001C0F03C1F1FFFFFFFAA
:100A0000FF07C1F07C1F07C1F07C1F07C1F07C1FEE
:100A100007C1F07C1F07C007F00FFE0FFF8FFFE735
:100A2000E3F7E0FFE03FF01FF80F8007C007E003A7
:100A3000E003F003F007F007F007E007E007C00766
:100A4000C003E003FFFDFFFEFFFF7FFF8007E00F15
:100A5000FC0FFF0FFFCFC3F7C0FBE07DF03E001F90
:100A6000001F000F803F801FC00FF000FC003F0000
:100A70000FFC07FE03FF83F7C3F3FFF8FFF83FF80F
:100A800007F00000FC00FC01FC01FC03FC077C07F4
:100A90007C0E7C0E7C1C7C187C387C707C607CE03E
:100AA0007CFFFFFFFFFFFFFFFF007C007C007C005E
:100AB0007C007C007C1FFF0FFF8FFFC7FFE3C0019E
:100AC000E000E000700079F03FFE1FFF8FFFE7C3FA
:100AD000F000FC003E001F000F8007FE03FF03FF35
:100AE000C3F3FFF1FFF83FF007E00003F803FF81D5
:100AF000FFF0FFFE3E1F9F03E7C003E000F8F83E53
:100B0000FF8FFFF3FFFEFE1FBF03FF807FE01FF894
:100B100007FE01F7807DF03E7E1F8FFFC1FFF03F93
:100B2000F003F000FFFFFFFFFFFFFFFFF000F0000A
:100B3000F800F80078007C003C003E001E001F001A
:100B40000F000F8007C003C003E001F000F8007839
:100B5000007C003E001F000F800007E007FC0FFF35
:100B600007FFC7C3F3C0F9E03CF01E781F1E1F0744
:100B7000FF01FF03FFE3F1F9F07DF01FF80FFC0721
:100B8000FE03FF83F7C3F3FFF8FFF83FF807F00019
:100B900007E00FFC0FFF0FFFC7E3F7E0FBE03DF0BE
:100BA0001FF80FFC07FE03FF83F7E3FBFFFCFFFECC
:100BB0003FDF07CF80078003DF03E7C3E3FFF0FFDA
:100BC000F03FF007E000FFFFFF80000000007FFF24
:100BD000FFC0FFFFFF80000000007FFFFFC6339BC8
:100BE000D80000C000F001FC03FF03FF07FE0FFC6C
:100BF00003F800F0003F800FFC007FE007FF003F9C
:100C0000F001FC001F0000C0FFFFFFFFFFFFFFFF20
:100C1000F00000000000000000FFFFFFFFFFFFFFEB
:100C2000FFF0C0003C000FE003FF003FF001FF8039
:100C30000FFC007F0003C007F00FFC1FF83FF83FD8
:100C4000F00FE003C000C0000007F007FF03FFF152
:100C5000FFFC7E3FBF03FF807FE01FF807C003F06B
:100C600001FC00FE007F003F801FC007C003E000C2
:100C7000F0003C000000000000F8003E000F800380
:100C8000E000F8000007FC00003FFF0000FFFFC08D
:100C900001F807F003E001F80780007C0F00003C3A
:100CA0001E03E39E3C0FF78E381FFF0E783E1F0792
:100CB00070380F0770780F07E0700E07E0700E07AE
:100CC000E0E00E07E0E01E0FE0E01C0EE0E03C1E5E
:100CD000E0F03C3CF0F0FC7C707FFFF8783FCFF018
:100CE0003C1F07C03E0000001F0000000FC00100B5
:100CF00007F00F0003FFFF0000FFFF00001FF800D8
:100D0000007E00007F00007F0000FF0000FF8001E8
:100D1000FF8001FF8001F7C003E7C003E7C003E3E2
:100D2000E007C3E007C3E007C1F00F81F00F81F0D7
:100D30000FFFF81FFFF81FFFFC1FFFFC3E007C3E6B
:100D4000007E3E003E7C003E7C003F7C001FFFFC9E
:100D50000FFFF0FFFF8FFFFCF807EF803EF803EF77
:100D6000803EF803EF803EF807CFFFF8FFFF0FFF4C
:100D7000F8FFFFCF807EF801EF801FF801FF801F92
:100D8000F801FF803EFFFFEFFFFCFFFF8FFFE00059
:100D9000FF0007FF803FFFC0FFFFC3F81F87E01F72
:100DA0009F801F3E001F7C003FF00003E00007C053
:100DB000000F80001F00003E00007C0000F80000D3
:100DC000F8007DF000FBF003F3F00FC7F03F87FF62
:100DD000FE07FFF803FFC001FE00FFFC07FFF83F1E
:100DE000FFE1FFFF8F80FE7C01F3E007DF003EF8AC
:100DF00001F7C007FE003FF001FF800FFC007FE01D
:100E000003FF001FF800FFC00FFE007DF003EF801E
:100E10003E7C07F3FFFF1FFFF0FFFF07FFE000FF2F
:100E2000FFDFFFFBFFFF7FFFEF8001F0003E0007C9
:100E3000C000F8001F0003E0007FFFCFFFF9FFFFB5
:100E40003FFFE7C000F8001F0003E0007C000F80B8
:100E500001F0003FFFFFFFFFFFFFFFFFFCFFFFFF71
:100E6000FFFFFFFFFFFF8007C003E001F000F80075
:100E70007C003E001FFFEFFFF7FFFBFFFDF000F8D7
:100E8000007C003E001F000F8007C003E001F0005F
:100E9000F8007C0000007F8003FFE007FFF80FFFF1
:100EA000FC1FC0FE3F007E7E003F7C001F7C0000D8
:100EB000F80000F80000F80000F803FFF803FFF85E
:100EC00003FFF803FFFC000F7C001F7C001F7E0067
:100ED0003F3F007F1FC1FF0FFFFF07FFE703FFC773
:100EE00000FF07F801FF801FF801FF801FF801FFD6
:100EF000801FF801FF801FF801FF801FFFFFFFFF29
:100F0000FFFFFFFFFFFFF801FF801FF801FF801FB9
:100F1000F801FF801FF801FF801FF801FF801FF814
:100F200001FF801FFFFFFFFFFFFFFFFFFFFFFFFF2E
:100F3000FFFFFFFFC0001F001F001F001F001F005A
:100F40001F001F001F001F001F001F001F001F00A9
:100F50001F001F001FF81FF81FF81FF81FF81FFCC5
:100F60003F7FFE3FFC1FF807E0F801FBE00FCF805A
:100F70007E3E03F0F81F83E0FC0F87E03E3F00F861
:100F8000F803E7E00FBF003FF800FFF003FFE00FBA
:100F9000FF803FBF00FC7E03E0FC0F81F83E07E0CE
:100FA000F80FC3E01F8F807F3E00FCF801FBE003D9
:100FB000F0F8007C003E001F000F8007C003E00136
:100FC000F000F8007C003E001F000F8007C003E027
:100FD00001F000F8007C003E001F000F8007C003F6
:100FE000FFFFFFFFFFFFFFFFC0FF00FFFF00FFFF4E
:100FF00000FFFF01FFFF81FFFF81FFFF81FFFF81F6
:10100000FFFBC3DFFBC3DFFBC3DFFBC3DFF9C7DFCE
:10101000F9E79FF9E79FF9E79FF9E79FF8FF1FF8C6
:10102000FF1FF8FF1FF8FF1FF87F1FF87E1FF87ED5
:101030001FF87E1FF83E1FF801FFC01FFE01FFE0F2
:101040001FFF01FFF01FFF81FFF81FFFC1FFBC1F43
:10105000FBE1FF9F1FF9F1FF8F9FF879FF87DFF812
:101060003DFF83FFF81FFF81FFF80FFF80FFF807A8
:10107000FF803FF803FF801F007F0001FFF001FFAA
:10108000FC03FFFF01FC1FC1F803F1F800FCF800AE
:101090003E7C001F7C0007FE0003FF0001FF800074
:1010A000FFC0007FE0003FF0001FF8000FBE000F00
:1010B0009F0007CFC007E3F007E0FE0FE07FFFE0EF
:1010C0000FFFE003FFE0003F8000FFFC1FFFE3FF96
:1010D000FE7FFFEF80FFF00FFE00FFC01FF803FF51
:1010E000007FE01FFC07EFFFFDFFFF3FFFC7FFE0B2
:1010F000F8001F0003E0007C000F8001F0003E00BC
:1011000007C000F8001F0000007F0001FFF001FF92
:10111000FC03FFFF01FC1FC1F803F1F800FCF8001D
:101120003E7C001F7C0007FE0003FF0001FF8000E3
:10113000FFC0007FE0003FF0001FF8010FBE01CFAD
:101140009F01FFCFC07FE3F01FE0FE0FF07FFFF8AD
:101150000FFFFE03FFEF803FC380000080FFFF070B
:10116000FFFE3FFFF9FFFFCF803F7C00FBE007DF82
:10117000003EF801F7C00F3E00F9FFFF8FFFF87F38
:10118000FFC3FFFF1F00FCF803E7C01F3E00F9F09C
:1011900007CF803E7C01F3E00F9F007CF803F7C08F
:1011A0000FC007F801FFF03FFF87FFFC7E0FCFC0A5
:1011B0007EF803EF803EF8000FC000FF0007FFC07D
:1011C0003FFF81FFFC03FFE001FF0003F0001FF879
:1011D00001FF801FFC03FFE07E7FFFE3FFFC1FFF9A
:1011E000003FC0FFFFFFFFFFFFFFFFFFF01F0003F7
:1011F000E0007C000F8001F0003E0007C000F80016
:101200001F0003E0007C000F8001F0003E0007C0DB
:1012100000F8001F0003E0007C000F8001F0003E9A
:1012200000F801FF801FF801FF801FF801FF801FF9
:10123000F801FF801FF801FF801FF801FF801FF8F1
:1012400001FF801FF801FF801FF801FF801FF801D8
:10125000FF801F7C03E7E07E3FFFC3FFFC0FFF0022
:101260003FC0F800FBE003E7C01F9F007C7C01F05B
:10127000F807C3E03E0F80F81E03E07C1F01F07CFE
:1012800003C1F00F87803E3E00F8F801E3C007CFAE
:10129000001F7C003DE000FF8003FE0007F0001F00
:1012A000C0007F0000F80003E000F807C03FF80727
:1012B000E03EFC07E03E7C0FE03E7C0FE07E7C0FD2
:1012C000E07C7C0FF07C3E0FF07C3E1EF0783E1EF2
:1012D00070F81E1E70F81E1E78F81F1E78F01F3C56
:1012E00078F00F3C39F00F3C3DF00F3C3DE00FBC77
:1012F0003DE007F83DE007F81FE007F81FC003F8DE
:101300001FC003F81FC003F00F8003F00F8001F02F
:101310000F80FE01F9F807E3F03F0FC0F81F87E0E8
:101320007E3F00FCFC01F7E007FF000FFC003FE000
:10133000007F0000FC0007F0001FE000FF8003FFBB
:10134000001F7E00FCF803E3F01F87C07C1F83F0C2
:101350003F1F80FC7E01FBF007F0FC01FFE00F9FC8
:1013600000FCFC07C3E07E1F83E07C1F03F1F00F4D
:101370008F807EF801F7C00FFC003FE000FE000701
:10138000F0001F0000F80007C0003E0001F0000F51
:1013900080007C0003E0001F0000F80007C000FF91
:1013A000FFFFFFFFFFFFFFFFF0007E001F8007E051
:1013B00000FC003F000FC003F8007E001F8007E024
:1013C00001FC003F000FC003F0007E001F8007E01B
:1013D00001FC003FFFFFFFFFFFFFFFFFFCFFFFFFE0
:1013E000FFF8F8F8F8F8F8F8F8F8F8F8F8F8F8F876
:1013F000F8F8F8F8F8F8F8F8F8F8FFFFFFFFE03829
:10140000060180700C0300E0180601C0300C0300D8
:10141000E0180601C0300C038060180701C0FFFF10
:10142000FFFF1F1F1F1F1F1F1F1F1F1F1F1F1F1F0C
:101430001F1F1F1F1F1F1F1F1F1F1FFFFFFFFF0358
:10144000E007E007E00FF00FF00F781E781E783C01
:101450003C3C3C3C1E781E781E700FF00FFFFFFFD7
:10146000FFFFFFFFFEF8F0F0E0E007F807FF83FF63
:10147000F1FFFE7C1FBE03E000F801FE0FFF8FFFAF
:10148000E7F8FBF03EF80FBE07EFC3FBFFFE7FFF60
:101490008FFBF1F8FCF8003E000F8003E000F8003D
:1014A0003E000F8003E7E0FBFC3FFFCFFFF3F87E39
:1014B000FC0FBF03FF807FE01FF807FE01FF807F66
:1014C000F03FFC0FBF87EFFFF3FFFCFBFC3E7E000D
:1014D00003F007FE0FFF87FFE7E1FBE07FE03FF04F
:1014E00000F8007C003E001F000F80FBE07DF87ECE
:1014F0007FFE3FFE0FFE00FC000003E0007C000FBB
:101500008001F0003E0007C000F81F1F0FFBE3FF43
:10151000FCFFFFBF8FF7C07FF80FFE00FFC01FF872
:1015200003FF007FE00FFE03F7C07EFC3FCFFFF814
:10153000FFFF0FFBE0FC7C07E007FE03FFE0FFF886
:101540007E1F1F03CF80FBE01EFFFFBFFFEFFFFBEF
:10155000E000F8003F03E7E1F9FFFC3FFE07FF0072
:101560007F000FC7F3FCFF3E0F83E3FEFFBFE3E006
:10157000F83E0F83E0F83E0F83E0F83E0F83E0F87B
:101580003E0F8007C7C3FDF3FFFCFFFF7E1FDF0395
:10159000FFC0FFE01FF807FE01FF807FE01FFC0F88
:1015A000DF03F7E1FDFFFF3FFFC7FDF07C7C001F7D
:1015B0000007FF03F7E1F9FFFC3FFE01FE00F80022
:1015C0007C003E001F000F8007C003E001F1F0FB2C
:1015D000FE7FFFBFFFDFC3FFC0FFC07FE03FF01F04
:1015E000F80FFC07FE03FF01FF80FFC07FE03FF024
:1015F0001FF80FFC07C0FFFFF0001FFFFFFFFFFFFA
:10160000FFFFFFFFFFFFC03E7CF9F000001F3E7CA4
:10161000F9F3E7CF9F3E7CF9F3E7CF9F3E7CF9F3E8
:10162000FFFFFEF8F8007C003E001F000F8007C09F
:1016300003E001F03EF83E7C3F3E3F1F3F0F9F0717
:10164000DF03FF81FFC0FFF07FF83F7E1F1F0F8782
:10165000C7C3F3E0F9F07EF81F7C0FC0FFFFFFFF68
:10166000FFFFFFFFFFFFFFFFFFFFFFFFC0F8F83F97
:101670001F7F9FF3FFFFFF7FFFFFFFC3F87FF83F50
:1016800007FE07C0FFC0F81FF81F03FF03E07FE05D
:101690007C0FFC0F81FF81F03FF03E07FE07C0FF8B
:1016A000C0F81FF81F03FF03E07FE07C0F80F8F80D
:1016B0007DFF3FFFDFFFEFE1FFE07FE03FF01FF83E
:1016C0000FFC07FE03FF01FF80FFC07FE03FF01F1C
:1016D000F80FFC07FE03E003F801FFC07FFC1FFFCB
:1016E000C7F0FCF80FBF01FFC01FF803FF007FE049
:1016F0000FFC01FFC07EF80F9F87F1FFFC1FFF0169
:10170000FFC00FE000F8F83EFF8FFFF3FFFCFE1F65
:10171000BF03EFC0FFE01FF807FE01FF807FE01F5F
:10172000FC0FFF03EFE1FBFFFCFFFF3EFF0F8F838A
:10173000E000F8003E000F8003E000F8003E0000EB
:1017400007E3E1FF7C7FFF9FFFF7F1FEF80FFF014A
:10175000FFC01FF803FF007FE00FFC01FFC07EF811
:101760000FDF83F9FFFF3FFFE1FF7C1F8F8001F058
:10177000003E0007C000F8001F0003E0007CF8FFF7
:101780007FFFFFFFE1F83E07C0F81F03E07C0F81F9
:10179000F03E07C0F81F03E00007F00FFE0FFF87C1
:1017A000FFE7E1F3E079F800FF803FFC1FFF83FFD4
:1017B000C03FF001FFC07DF07EFFFE3FFF0FFF0145
:1017C000FE003E1F0F87C3E7FFFFFF3E1F0F87C3CB
:1017D000E1F0F87C3E1F0F87F3F8FC3EF80FFC07A2
:1017E000FE03FF01FF80FFC07FE03FF01FF80FFC0A
:1017F00007FE03FF01FF80FFC0FFF0FFFFFF7FFF39
:101800009FF7C7E3E07C07CF80F9F01F1F07C3E015
:10181000F87C1F0783C0F8F81F1F01E3C03E78075C
:10182000DF007BC00FF801FF001FC003F8007F003E
:1018300007C000FC1F03EF83E07DF07E1F3E0FC357
:10184000E3C3F87C7C7F0F0F8FF3E1F1DE7C1E7B1E
:10185000CF83EF39E07DE73C07B8FF80F71FE01F3B
:10186000E3FC03FC3F803F07F007E0FC00FC1F8027
:101870000F83F000FC1F9F07E7E3F0F8F81F7E07D7
:10188000DF00FF801FE007F000F8007F003FE00F5F
:10189000F807DF03F7E0F8F87E3F1F07EFC0F87C9A
:1018A00003EF80F9F81F1F03E3E0F87C1F07C3E094
:1018B000F8780F1F01F3C03E7803DF007FC00FF8F8
:1018C00000FF001FC001F8003F0007C000F8001E25
:1018D0000007C007F800FE001F8003E0007FFE7FC6
:1018E000FE7FFE7FFE007E00FC01F803F003F007A0
:1018F000E00FC01F803F007E00FE00FFFFFFFFFFE4
:10190000FFFFFF0787C7E3F1E0F0783C1E0F078376
:10191000C1E0F0F9F8F07E0F83C1E0F0783C1E0FD3
:101920000783C1E0FC7E1F0780FFFFFFFFFFFFFF73
:10193000FFFFFFFFFFE0F07C3E1F83C1E0F0783C3B
:101940001E0F0783C1E0F07C1F83C7E7C3C1E0F02F
:10195000783C1E0F0783C7E3E1F0F0003C00FE0F68
:10196000FE1E1FFC0FC00F0000000000050001005C
:1019700000020D0602F4040005040601F407000A43
:101980000C0A00F5160009100A01F32800100D10CA
:1019900001F442000B0D0C01F4540002040401F4A4
:1019A000550004110601F45E0004110601F46700FD
:1019B00005050701F46B0006080B03F9710002042A
:1019C000050200720004010601FC7300020105011A
:1019D000007400050D0500F47D00080D0A01F48A6D
:1019E00000040D0A03F49100090D0A01F4A0000897
:1019F0000D0A01F4AD00070D0A02F4B900090D0A41
:101A000001F4C800090D0A01F4D700080D0A00F41A
:101A1000E400090D0A01F4F300080D0A01F40001C5
:101A2000020A0501F70301030C0501F80801090981
:101A30000B01F8130109040B01FB180109090B0143
:101A4000F82301090D0A01F4320111101201F454B6
:101A5000010C0D0C00F468010B0D0C01F47A010B64
:101A60000D0D01F48C010B0D0D01F49E01090D0B00
:101A700001F4AD01080D0B01F4BA010C0D0E01F4D7
:101A8000CE010B0D0D01F4E001020D0502F4E4019D
:101A9000070D0A01F4F0010B0D0C01F40202080D10
:101AA0000A01F40F020D0D0F01F425020B0D0D01BB
:101AB000F437020D0D0E01F44D020A0D0C01F45E17
:101AC000020D0E0E01F475020C0D0D01F489020ACF
:101AD0000D0C01F49A02090D0B01F4A9020B0D0D76
:101AE00001F4BB020B0D0C00F4CD02110D1100F43A
:101AF000E9020C0D0C00F4FD020C0D0C00F41103B6
:101B00000A0D0B01F4220303110501F42903050D4D
:101B10000500F4320303110500F439030707080137
:101B2000F440030A010A0003420304030500F444DD
:101B300003090A0A01F75003090D0A01F45F0308BB
:101B40000A0901F76903080D0A01F47603080A0A75
:101B500001F78003040D0501F48703080E0A01F75D
:101B60009503080D0A01F4A203020D0401F4A60373
:101B700004110400F4AF03090D0901F4BE03020DC2
:101B80000401F4C2030D0A0F01F7D303080A0A0186
:101B9000F7DD03080A0A01F7E703090D0A01F7F662
:101BA00003080D0A01F70304050A0601F70A0408F1
:101BB0000A0901F71404040C0501F51A04080A0ABD
:101BC00001F72404090A0900F730040D0A0D00F793
:101BD0004104080A0900F74B04090E0900F75B04E9
:101BE000070A0901F7640404110601F46D040211E7
:101BF0000402F4720404110601F47B0407030901D2
:101C0000F9FFFFF8C0DEF72009864191FF1304C3F6
:101C100020C8FF89826190101F14DA3D1E8340782E
:101C20001708F47A3533F040203810EC20C620C66F
:101C300040C6406C803900013C02770263046304B3
:101C400077083C0E0660CC1981E0180F0336C2D825
:101C5000730631E3C4FE13266CCCCCC46623108C0F
:101C60004663333332664C80257EA50030C33F3057
:101C7000C30CD6F0C00844211084421108003C6611
:101C800042C3C3C3C3C3C3C342663C113F333333F0
:101C900033303E31B07830181C1C1C18181008075F
:101CA000F83C66C3C303061C0703C3C3663C0C1899
:101CB0007162C9A346FE183060C07F201008080773
:101CC000F38C030180F06C63E01E3198780C06F30E
:101CD0008D83C1E0D06C63E0FF030206040C08189A
:101CE00018181030303E31B0783C1B18F8C6C1E0EF
:101CF000F06C63E03C66C2C3C3C3673B0303C266C8
:101D00003CC00030C0000064A00081C78E0C07807A
:101D1000700E0180FF80001FF000700E01C01838A7
:101D200071C080003E31B0783018183818180C0097
:101D300000018003F0060E06018600661DBB31CF50
:101D400018C79863CC31E611B399CCF786000180AF
:101D50000070400FE00600F00F009019819810838A
:101D60000C3FC204606606C030FF183303606C0D80
:101D7000833FC606C0780F01E06FF81F861981A067
:101D80003C0180300600C0680D831861F0FF1833F5
:101D900003603C0780F01E03C0780F0360CFF0FFA4
:101DA000E030180C0603FD80C06030180FF8FFC04B
:101DB000C0C0C0C0FEC0C0C0C0C0C00F830E60663F
:101DC00003C00C00C1FC03C0360360730F0F10C0CA
:101DD000780F01E03C0780FFFE03C0780F01E03C74
:101DE00006FFFFFFC0060C183060C183078F1E2757
:101DF00080C0D8330C630CC1B83F0730C3186306EA
:101E0000606C0CC0C0C0C0C0C0C0C0C0C0C0C0FFFB
:101E1000E03F01FC1FE0FD05EC6F637913CD9E6C84
:101E2000F1478E3C7180E07C0FC1E83D8798F11E40
:101E300033C3786F07E07C0E0F8183180CC06C01F0
:101E4000E00F007803C01B01980C60C0F800FF3061
:101E50006C0F03C0F06FF300C0300C0300C0000F24
:101E60008183180CC06C01E00F007803C01B01983F
:101E70006C60C0FB0008FF8C0EC06C06C06C0CFFD1
:101E80008C0EC06C06C06C06C0703F186C0F03C08F
:101E90001E01F00E00F03C0D863F00FF860301801E
:101EA000C06030180C06030180C0C0780F01E03C10
:101EB0000780F01E03C0780F01B061F0C06C0D8187
:101EC00010630C610460CC1901603C070060C181A3
:101ED00030E19870CC286626211330C8986C4C14D9
:101EE000340A1A0707030380818060630C30C198AD
:101EF0000F00E00600F019019830C60E6060C03691
:101F00000630C30C1981D80F00600600600600601F
:101F10000600FFC060300C060301C06030180603E5
:101F200000FFC0FB6DB6DB6DB6E08410841084103A
:101F3000841080EDB6DB6DB6DBE03060A244D8A142
:101F400080FFC0C6307E71B0C060F3DB0D86C73D38
:101F5000C0C060301BCE360F0783C1E0F07C6DE05F
:101F60003C66C3C0C0C0C0C3663C0303033B67C339
:101F7000C3C3C3C3C3673B3C66C3C3FFC0C0C36620
:101F80003C366F66666666603B67C3C3C3C3C3C344
:101F9000673B0303C67CC0C0C0DEE3C3C3C3C3C387
:101FA000C3C3C3C3FFFFC03003333333333333E022
:101FB000C06030184C466361F0EC6231986C30FFC1
:101FC000FFFFC0DEF71CF0C7863C31E18F0C786361
:101FD000C31E18C0DEE3C3C3C3C3C3C3C3C33C66CD
:101FE000C3C3C3C3C3C3663CDE71B0783C1E0F07D6
:101FF00083E36F30180C003B67C3C3C3C3C3C3671D
:102000003B030303DF318C6318C6003EE3C0C0E02E
:102010003C07C3E37E66F666666667C3C3C3C3C395
:10202000C3C3C3C77BC1A098CC4221B0D0281C0C2D
:1020300000C61E3891C4CA66D316D0A6871C38C005
:10204000C6004362361C181C3C266243C12198CC52
:102050004261B0D0381C0C0603010300FE0C30C1F5
:10206000861820C1FC3666666ECE66666630FFFF57
:10207000FFFFC0C666666737666666C061243800C3
:102080000000000A0001000005190C04E810000D12
:10209000091102E71F0014181300E95B00131D1358
:1020A00000E7A0001D191F01E8FB0016191902E83E
:1020B000400105090902E7460109210C01E76C010D
:1020C00009210C01E792010C0B0E00E7A30110108F
:1020D0001402F1C301050B0902FCCA0109040C0139
:1020E000F6CF0105050902FCD30109190A00E8F041
:1020F0000111191301E826020A191303E846021117
:10210000191301E87C0211191301E8B20210191326
:1021100002E8E40211191301E81A0312191301E885
:10212000530311191301E8890311191301E8BF03BF
:1021300011191301E8F50305120902EF010405184E
:102140000902EF100412111401F03704110C1402EB
:10215000F3510412111401F07804121A1502E7B3B6
:1021600004201F2201E72F05181A1800E77D051427
:102170001A1903E7BE05171A1901E70906151A19F6
:1021800003E74E06131A1703E78C06111A1603E726
:10219000C406181A1B01E71207141A1A03E753079B
:1021A000051A0B03E76407101A1401E79807161ABB
:1021B0001903E7E007111A1603E71808181A1E0397
:1021C000E76608141A1A03E7A708191A1B01E7F9AA
:1021D00008131A1803E73709191B1B01E78C0915A7
:1021E0001A1903E7D109141A1802E7120A131A1769
:1021F00002E7500A141A1A03E7910A161A1701E7A0
:10220000D90A201A2201E7410B161A1801E7890B97
:10221000151A1601E7CE0B131A1501E70C0C08214D
:102220000C02E72D0C0A190A00E84D0C08210C01DC
:10223000E76E0C100F1402E98C0C150313FF0594C4
:102240000C07050901E7990C12131401EEC40C12D6
:102250001A1602E7FF0C11131401EE280D131A16BB
:1022600001E7660D12131401EE910D0A1A0C01E735
:10227000B20D121A1501EEED0D111A1502E7250E19
:10228000051A0A02E7360E07210A00E7530E111A53
:102290001402E78B0E051A0902E79C0E1B131F029E
:1022A000EEDD0E11131502EE060F13131501EE34B9
:1022B0000F121A1602EE6F0F131A1601EEAD0F0B66
:1022C000130E02EEC80F11131301EEF10F09170CD4
:1022D00001EA0B1011131502EE341013131300EE64
:1022E00062101B131B00EEA31012131301EECE108D
:1022F000131A1300EE0C1110131201EE3211092102
:102300000E01E7581103210A04E7651109210E03A4
:10231000E78B110F061201F6FFFFFFFFFFFFFEE73D
:1023200039CE73800FFFFFF8F8FFC7FE3FF1FF8F34
:10233000FC7DC1CE0E707003C3803C7803C780382B
:1023400078078707FFFF7FFFF7FFFF7FFFF0F0E0D1
:102350000F0E00F1E00F1E00E1E0FFFFCFFFFCFFDA
:10236000FFCFFFFC1C3C03C3803C7803C780387858
:102370000387800060007F803FFC0FFFC3FFFCFCF1
:10238000DF9F19FBC31F7863EF8C01FD801FF001F5
:10239000FFC01FFE007FE003FE0067E00C7FE18FBF
:1023A000FC31FFC63EFCDF9FFFF1FFFC0FFF007F0B
:1023B00080018000300006000F001C01FE00E01FBD
:1023C000F80E00FFC0700F0F07007038380381C38C
:1023D000801C0E3C00F0F1C003FF1C001FF8E00061
:1023E0007F8E0000F070F800071FF00039FFC00377
:1023F0008FFE001CF07801C701C00C380E00E1C050
:1024000070060F0780703FF80701FFC03807FC0314
:10241000800F8001F0001FE000FFC003FF801F1E3F
:10242000007C7801F1E007E7800FBC001FE0003F6F
:102430000001F8001FF0F0FFE3C7E7CF3F0FF8F807
:102440003FE3E07F8F80FC3F03F07E3FE1FFFF83AF
:10245000FFFF07FE7E07F0FCFFFFFFFDCE70078742
:1024600083C3C1E1E0F078783C1E1E0F0783C1E012
:10247000F0783C1E0F0381E0F0781E0F0381E070BE
:102480003C0E0780F0381E0783C0F0783C0F0783AE
:10249000C0F0783C1E0F0783C1E0F078783C1E0F37
:1024A0000F078783C1C1E0E0F00006006006076EF9
:1024B0007FE3FC0F01F81F839C108003C003C0035F
:1024C000C003C003C003C0FFFFFFFFFFFFFFFF0308
:1024D000C003C003C003C003C003C0FFFFFF8C6381
:1024E00037B0FFFFFFFFF0FFFFFF800181C0C0603A
:1024F0007038180C0E06030181C0C0603038180C0B
:102500000E07030181C0C00007F00FFE0FFF87FF19
:10251000C7E3F3E0F9F07DF01FF80FFC07FE03FFBF
:1025200001FF80FFC07FE03FF01FF80FFC07DF07CF
:10253000CF83E7E3F1FFF0FFF83FF807F00001C0B9
:10254000F03C1F1FFFFFFFFF07C1F07C1F07C1F01A
:102550007C1F07C1F07C1F07C1F07C1F07C007F07C
:102560000FFE0FFF8FFFE7E3F7E0FFE03FF01FF8FC
:102570000F8007C007E003E003F003F007F007F067
:1025800007E007E007C007C003E003FFFDFFFEFF11
:10259000FF7FFF8007E00FFC0FFF0FFFCFC3F7C0E7
:1025A000FBE07DF03E001F001F000F803F801FC03A
:1025B0000FF000FC003F000FFC07FE03FF83F7C392
:1025C000F3FFF8FFF83FF807F00000FC00FC01FC07
:1025D00001FC03FC077C077C0E7C0E7C1C7C187CB9
:1025E000387C707C607CE07CFFFFFFFFFFFFFFFF1B
:1025F000007C007C007C007C007C007C1FFF0FFFC7
:102600008FFFC7FFE3C001E000E000700079F03FFA
:10261000FE1FFF8FFFE7C3F000FC003E001F000F0E
:102620008007FE03FF03FFC3F3FFF1FFF83FF0074E
:10263000E00003F803FF81FFF0FFFE3E1F9F03E76A
:10264000C003E000F8F83EFF8FFFF3FFFEFE1FBF60
:1026500003FF807FE01FF807FE01F7807DF03E7EDC
:102660001F8FFFC1FFF03FF003F000FFFFFFFFFFF0
:10267000FFFFFFF000F000F800F80078007C003C5D
:10268000003E001E001F000F000F8007C003C003A4
:10269000E001F000F80078007C003E001F000F8091
:1026A0000007E007FC0FFF07FFC7C3F3C0F9E03CDA
:1026B000F01E781F1E1F07FF01FF03FFE3F1F9F073
:1026C0007DF01FF80FFC07FE03FF83F7C3F3FFF84D
:1026D000FFF83FF807F00007E00FFC0FFF0FFFC700
:1026E000E3F7E0FBE03DF01FF80FFC07FE03FF837C
:1026F000F7E3FBFFFCFFFE3FDF07CF80078003DF30
:1027000003E7C3E3FFF0FFF03FF007E000FFFFFF48
:1027100080000000007FFFFFC0FFFFFF800000007F
:10272000007FFFFFC6339BD80000C000F001FC0310
:10273000FF03FF07FE0FFC03F800F0003F800FFCD3
:10274000007FE007FF003FF001FC001F0000C0FF1A
:10275000FFFFFFFFFFFFFFF0000000000000000090
:10276000FFFFFFFFFFFFFFFFF0C0003C000FE00393
:10277000FF003FF001FF800FFC007F0003C007F067
:102780000FFC1FF83FF83FF00FE003C000C000004F
:1027900007F007FF03FFF1FFFC7E3FBF03FF807FD1
:1027A000E01FF807C003F001FC00FE007F003F803F
:1027B0001FC007C003E000F0003C00000000000064
:1027C000F8003E000F8003E000F8000007FC000066
:1027D0003FFF0000FFFFC001F807F003E001F8072A
:1027E00080007C0F00003C1E03E39E3C0FF78E38F8
:1027F0001FFF0E783E1F0770380F0770780F07E035
:10280000700E07E0700E07E0E00E07E0E01E0FE03C
:10281000E01C0EE0E03C1EE0F03C3CF0F0FC7C7084
:102820007FFFF8783FCFF03C1F07C03E0000001F3D
:102830000000000FC0010007F00F0003FFFF0000C1
:10284000FFFF00001FF800007E00007F00007F00F7
:1028500000FF0000FF8001FF8001FF8001F7C0033F
:10286000E7C003E7C003E3E007C3E007C3E007C135
:10287000F00F81F00F81F00FFFF81FFFF81FFFFC32
:102880001FFFFC3E007C3E007E3E003E7C003E7C06
:10289000003F7C001FFFFC0FFFF0FFFF8FFFFCF8E5
:1028A00007EF803EF803EF803EF803EF803EF80725
:1028B000CFFFF8FFFF0FFFF8FFFFCF807EF801EF9B
:1028C000801FF801FF801FF801FF803EFFFFEFFF30
:1028D000FCFFFF8FFFE000FF0007FF803FFFC0FF0E
:1028E000FFC3F81F87E01F9F801F3E001F7C003F33
:1028F000F00003E00007C0000F80001F00003E0052
:10290000007C0000F80000F8007DF000FBF003F30D
:10291000F00FC7F03F87FFFE07FFF803FFC001FE7F
:1029200000FFFC07FFF83FFFE1FFFF8F80FE7C0107
:10293000F3E007DF003EF801F7C007FE003FF001BB
:10294000FF800FFC007FE003FF001FF800FFC00FB7
:10295000FE007DF003EF803E7C07F3FFFF1FFFF0DA
:10296000FFFF07FFE000FFFFDFFFFBFFFF7FFFEF41
:102970008001F0003E0007C000F8001F0003E000E7
:102980007FFFCFFFF9FFFF3FFFE7C000F8001F0008
:1029900003E0007C000F8001F0003FFFFFFFFFFF1E
:1029A000FFFFFFFCFFFFFFFFFFFFFFFFFF8007C0F0
:1029B00003E001F000F8007C003E001FFFEFFFF78E
:1029C000FFFBFFFDF000F8007C003E001F000F80C1
:1029D00007C003E001F000F8007C0000007F8003E6
:1029E000FFE007FFF80FFFFC1FC0FE3F007E7E00E8
:1029F0003F7C001F7C0000F80000F80000F8000099
:102A0000F803FFF803FFF803FFF803FFFC000F7C57
:102A1000001F7C001F7E003F3F007F1FC1FF0FFF94
:102A2000FF07FFE703FFC700FF07F801FF801FF85C
:102A300001FF801FF801FF801FF801FF801FF801D0
:102A4000FF801FFFFFFFFFFFFFFFFFFFFFF801FFFA
:102A5000801FF801FF801FF801FF801FF801FF8031
:102A60001FF801FF801FF801FF801FFFFFFFFFFF1E
:102A7000FFFFFFFFFFFFFFFFFFFFFFC0001F001F63
:102A8000001F001F001F001F001F001F001F001F4E
:102A9000001F001F001F001F001F001FF81FF81F4E
:102AA000F81FF81FF81FFC3F7FFE3FFC1FF807E0F0
:102AB000F801FBE00FCF807E3E03F0F81F83E0FCBF
:102AC0000F87E03E3F00F8F803E7E00FBF003FF854
:102AD00000FFF003FFE00FFF803FBF00FC7E03E03C
:102AE000FC0F81F83E07E0F80FC3E01F8F807F3EA8
:102AF00000FCF801FBE003F0F8007C003E001F0042
:102B00000F8007C003E001F000F8007C003E001FCA
:102B1000000F8007C003E001F000F8007C003E00D9
:102B20001F000F8007C003FFFFFFFFFFFFFFFFC075
:102B3000FF00FFFF00FFFF00FFFF01FFFF81FFFF1E
:102B400081FFFF81FFFF81FFFBC3DFFBC3DFFBC30F
:102B5000DFFBC3DFF9C7DFF9E79FF9E79FF9E79FDD
:102B6000F9E79FF8FF1FF8FF1FF8FF1FF8FF1FF896
:102B70007F1FF87E1FF87E1FF87E1FF83E1FF801AA
:102B8000FFC01FFE01FFE01FFF01FFF01FFF81FFDD
:102B9000F81FFFC1FFBC1FFBE1FF9F1FF9F1FF8F73
:102BA0009FF879FF87DFF83DFF83FFF81FFF81FF64
:102BB000F80FFF80FFF807FF803FF803FF801F003A
:102BC0007F0001FFF001FFFC03FFFF01FC1FC1F8C4
:102BD00003F1F800FCF8003E7C001F7C0007FE00BB
:102BE00003FF0001FF8000FFC0007FE0003FF00016
:102BF0001FF8000FBE000F9F0007CFC007E3F007CC
:102C0000E0FE0FE07FFFE00FFFE003FFE0003F800A
:102C100000FFFC1FFFE3FFFE7FFFEF80FFF00FFED2
:102C200000FFC01FF803FF007FE01FFC07EFFFFD60
:102C3000FFFF3FFFC7FFE0F8001F0003E0007C003C
:102C40000F8001F0003E0007C000F8001F000000E8
:102C50007F0001FFF001FFFC03FFFF01FC1FC1F833
:102C600003F1F800FCF8003E7C001F7C0007FE002A
:102C700003FF0001FF8000FFC0007FE0003FF00085
:102C80001FF8010FBE01CF9F01FFCFC07FE3F01FF0
:102C9000E0FE0FF07FFFF80FFFFE03FFEF803FC362
:102CA00080000080FFFF07FFFE3FFFF9FFFFCF809E
:102CB0003F7C00FBE007DF003EF801F7C00F3E005D
:102CC000F9FFFF8FFFF87FFFC3FFFF1F00FCF80332
:102CD000E7C01F3E00F9F007CF803E7C01F3E00F14
:102CE0009F007CF803F7C00FC007F801FFF03FFF1B
:102CF00087FFFC7E0FCFC07EF803EF803EF8000F09
:102D0000C000FF0007FFC03FFF81FFFC03FFE001A1
:102D1000FF0003F0001FF801FF801FFC03FFE07EAF
:102D20007FFFE3FFFC1FFF003FC0FFFFFFFFFFFF30
:102D3000FFFFFFF01F0003E0007C000F8001F000A8
:102D40003E0007C000F8001F0003E0007C000F8079
:102D500001F0003E0007C000F8001F0003E0007C07
:102D6000000F8001F0003E00F801FF801FF801FF16
:102D7000801FF801FF801FF801FF801FF801FF800E
:102D80001FF801FF801FF801FF801FF801FF801F5F
:102D9000F801FF801FF801FF801F7C03E7E07E3F02
:102DA000FFC3FFFC0FFF003FC0F800FBE003E7C0DC
:102DB0001F9F007C7C01F0F807C3E03E0F80F81EE7
:102DC00003E07C1F01F07C03C1F00F87803E3E00D2
:102DD000F8F801E3C007CF001F7C003DE000FF8052
:102DE00003FE0007F0001FC0007F0000F80003E0B2
:102DF00000F807C03FF807E03EFC07E03E7C0FE02C
:102E00003E7C0FE07E7C0FE07C7C0FF07C3E0FF080
:102E10007C3E1EF0783E1E70F81E1E70F81E1E7856
:102E2000F81F1E78F01F3C78F00F3C39F00F3C3D46
:102E3000F00F3C3DE00FBC3DE007F83DE007F81F18
:102E4000E007F81FC003F81FC003F81FC003F00F0E
:102E50008003F00F8001F00F80FE01F9F807E3F026
:102E60003F0FC0F81F87E07E3F00FCFC01F7E00742
:102E7000FF000FFC003FE0007F0000FC0007F000B7
:102E80001FE000FF8003FF001F7E00FCF803E3F05B
:102E90001F87C07C1F83F03F1F80FC7E01FBF00773
:102EA000F0FC01FFE00F9F00FCFC07C3E07E1F83E6
:102EB000E07C1F03F1F00F8F807EF801F7C00FFC5C
:102EC000003FE000FE0007F0001F0000F80007C010
:102ED000003E0001F0000F80007C0003E0001F00B6
:102EE00000F80007C000FFFFFFFFFFFFFFFFFFF03C
:102EF000007E001F8007E000FC003F000FC003F8C9
:102F0000007E001F8007E001FC003F000FC003F0BF
:102F1000007E001F8007E001FC003FFFFFFFFFFF76
:102F2000FFFFFFFCFFFFFFFFF8F8F8F8F8F8F8F8EC
:102F3000F8F8F8F8F8F8F8F8F8F8F8F8F8F8F8F811
:102F4000F8FFFFFFFFE038060180700C0300E01877
:102F50000601C0300C0300E0180601C0300C0380ED
:102F600060180701C0FFFFFFFF1F1F1F1F1F1F1F4C
:102F70001F1F1F1F1F1F1F1F1F1F1F1F1F1F1F1F61
:102F80001F1FFFFFFFFF03E007E007E00FF00FF058
:102F90000F781E781E783C3C3C3C3C1E781E781E08
:102FA000700FF00FFFFFFFFFFFFFFFFEF8F0F0E0F4
:102FB000E007F807FF83FFF1FFFE7C1FBE03E00080
:102FC000F801FE0FFF8FFFE7F8FBF03EF80FBE079A
:102FD000EFC3FBFFFE7FFF8FFBF1F8FCF8003E0024
:102FE0000F8003E000F8003E000F8003E7E0FBFCE9
:102FF0003FFFCFFFF3F87EFC0FBF03FF807FE01F92
:10300000F807FE01FF807FF03FFC0FBF87EFFFF363
:10301000FFFCFBFC3E7E0003F007FE0FFF87FFE78F
:10302000E1FBE07FE03FF000F8007C003E001F0085
:103030000F80FBE07DF87E7FFE3FFE0FFE00FC0070
:103040000003E0007C000F8001F0003E0007C0009C
:10305000F81F1F0FFBE3FFFCFFFFBF8FF7C07FF8D8
:103060000FFE00FFC01FF803FF007FE00FFE03F715
:10307000C07EFC3FCFFFF8FFFF0FFBE0FC7C07E0CA
:1030800007FE03FFE0FFF87E1F1F03CF80FBE01E5B
:10309000FFFFBFFFEFFFFBE000F8003F03E7E1F9B0
:1030A000FFFC3FFE07FF007F000FC7F3FCFF3E0F52
:1030B00083E3FEFFBFE3E0F83E0F83E0F83E0F83BB
:1030C000E0F83E0F83E0F83E0F8007C7C3FDF3FF33
:1030D000FCFFFF7E1FDF03FFC0FFE01FF807FE01BC
:1030E000FF807FE01FFC0FDF03F7E1FDFFFF3FFFE5
:1030F000C7FDF07C7C001F0007FF03F7E1F9FFFC30
:103100003FFE01FE00F8007C003E001F000F80071C
:10311000C003E001F1F0FBFE7FFFBFFFDFC3FFC094
:10312000FFC07FE03FF01FF80FFC07FE03FF01FF29
:1031300080FFC07FE03FF01FF80FFC07C0FFFFF0EB
:10314000001FFFFFFFFFFFFFFFFFFFFFFFC03E7CF1
:10315000F9F000001F3E7CF9F3E7CF9F3E7CF9F3C6
:10316000E7CF9F3E7CF9F3FFFFFEF8F8007C003EBE
:10317000001F000F8007C003E001F03EF83E7C3FD7
:103180003E3F1F3F0F9F07DF03FF81FFC0FFF07F20
:10319000F83F7E1F1F0F87C7C3F3E0F9F07EF81FCB
:1031A0007C0FC0FFFFFFFFFFFFFFFFFFFFFFFFFFE1
:1031B000FFFFFFC0F8F83F1F7F9FF3FFFFFF7FFF78
:1031C000FFFFC3F87FF83F07FE07C0FFC0F81FF8F6
:1031D0001F03FF03E07FE07C0FFC0F81FF81F03FC6
:1031E000F03E07FE07C0FFC0F81FF81F03FF03E013
:1031F0007FE07C0F80F8F87DFF3FFFDFFFEFE1FF0E
:10320000E07FE03FF01FF80FFC07FE03FF01FF80A7
:10321000FFC07FE03FF01FF80FFC07FE03E003F85C
:1032200001FFC07FFC1FFFC7F0FCF80FBF01FFC00C
:103230001FF803FF007FE00FFC01FFC07EF80F9F27
:1032400087F1FFFC1FFF01FFC00FE000F8F83EFF11
:103250008FFFF3FFFCFE1FBF03EFC0FFE01FF80767
:10326000FE01FF807FE01FFC0FFF03EFE1FBFFFC8F
:10327000FFFF3EFF0F8F83E000F8003E000F80034A
:10328000E000F8003E000007E3E1FF7C7FFF9FFFC6
:10329000F7F1FEF80FFF01FFC01FF803FF007FE00A
:1032A0000FFC01FFC07EF80FDF83F9FFFF3FFFE156
:1032B000FF7C1F8F8001F0003E0007C000F8001F58
:1032C0000003E0007CF8FF7FFFFFFFE1F83E07C04E
:1032D000F81F03E07C0F81F03E07C0F81F03E000F9
:1032E00007F00FFE0FFF87FFE7E1F3E079F800FF3B
:1032F000803FFC1FFF83FFC03FF001FFC07DF07ED9
:10330000FFFE3FFF0FFF01FE003E1F0F87C3E7FFD9
:10331000FFFF3E1F0F87C3E1F0F87C3E1F0F87F3CE
:10332000F8FC3EF80FFC07FE03FF01FF80FFC07FA3
:10333000E03FF01FF80FFC07FE03FF01FF80FFC016
:10334000FFF0FFFFFF7FFF9FF7C7E3E07C07CF8021
:10335000F9F01F1F07C3E0F87C1F0783C0F8F81FB0
:103360001F01E3C03E7807DF007BC00FF801FF00BC
:103370001FC003F8007F0007C000FC1F03EF83E0BD
:103380007DF07E1F3E0FC3E3C3F87C7C7F0F0F8F61
:10339000F3E1F1DE7C1E7BCF83EF39E07DE73C0774
:1033A000B8FF80F71FE01FE3FC03FC3F803F07F0FE
:1033B00007E0FC00FC1F800F83F000FC1F9F07E765
:1033C000E3F0F8F81F7E07DF00FF801FE007F00042
:1033D000F8007F003FE00FF807DF03F7E0F8F87E22
:1033E0003F1F07EFC0F87C03EF80F9F81F1F03E3CE
:1033F000E0F87C1F07C3E0F8780F1F01F3C03E78A8
:1034000003DF007FC00FF800FF001FC001F8003F7E
:103410000007C000F8001E0007C007F800FE001FEC
:103420008003E0007FFE7FFE7FFE7FFE007E00FCCB
:1034300001F803F003F007E00FC01F803F007E009B
:10344000FE00FFFFFFFFFFFFFFFF0787C7E3F1E07D
:10345000F0783C1E0F0783C1E0F0F9F8F07E0F838F
:10346000C1E0F0783C1E0F0783C1E0FC7E1F07809F
:10347000FFFFFFFFFFFFFFFFFFFFFFFFE0F07C3ECE
:103480001F83C1E0F0783C1E0F0783C1E0F07C1F72
:1034900083C7E7C3C1E0F0783C1E0F0783C7E3E1B1
:1034A000F0F0003C00FE0FFE1E1FFC0FC00F0000DE
:1034B000000000060001000002120803EF050006EC
:1034C000060801F00A000D100D00F124000B140D88
:1034D00001EF400014111501F06B000E111001F006
:1034E000890002060501F08B0005170802EF9A001B
:1034F00005170801EFA90007070901EFB0000A0B43
:103500000E02F6BE0002060702FFC0000602080116
:10351000F9C20002020602FFC30007120700EFD340
:10352000000B110D01F0EB0005110D03F0F6000B7F
:10353000110D01F00E010B110D01F026010B110D03
:1035400001F03E010B110D01F056010B110D01F0C0
:103550006E010B110D01F086010B110D01F09E01A2
:103560000B110D01F0B601020D0602F4BA010210B2
:103570000602F5BE010C0C0E01F5D0010C060E0181
:10358000F8D9010C0C0E01F5EB010A120D02EF0245
:103590000216151801EF3C0210121000EF60020D28
:1035A000121002EF7E020F121101EFA0020E121193
:1035B00002EFC0020C120F02EFDB020B120E02EF41
:1035C000F40210121201EF18030D121102EF36036C
:1035D00002120702EF3B0309120D01EF50030E1216
:1035E0001002EF70030A120E02EF8703101214028A
:1035F000EFAB030D121202EFC90311121301EFF02A
:10360000030C121002EF0B0411131301EF34040E1C
:10361000121102EF54040E121001EF74040C120F79
:1036200001EF8F040D121102EFAD040F120F00EF26
:10363000CF0416121600EF01050F121000EF23053C
:1036400010121000EF47050D120F01EF650504176A
:103650000702EF710507120700EF81050417070144
:10366000EF8D0509090B01F098050F010DFF049A74
:103670000505040601EF9D050C0D0D01F4B1050CC7
:10368000120D01EFCC050A0D0C01F4DD050B120D36
:1036900001EFF6050B0D0D01F4080605120701EF09
:1036A00014060B120D01F42D060A120D01EF44064B
:1036B00002120502EF490604170600EF55060B1229
:1036C0000C01EF6E0602120501EF7306110D1301D6
:1036D000F48F060A0D0D01F4A0060B0D0D01F4B2D6
:1036E000060C110D01F4CC060B110D01F4E40606D5
:1036F0000D0801F4EE060A0D0C01F4FF0605100793
:1037000001F109070A0D0D01F41A070C0D0C00F464
:103710002E07110D1100F44A070B0D0B00F45C0786
:103720000B120B00F475070A0D0C01F48607051740
:103730000801EF950702170602EF9B07051708021D
:10374000EFAA070A050C01F6FFFFFFF0F0CF3CF3EC
:103750008A20063031031818C7FFBFFC3103181840
:10376000C7FFBFFC31011818C0C606300403E1FFD3
:10377000726C4788F107207E03F017023C4788F1FE
:103780001B267FC3E0100200000603C0407E0C0E23
:103790007080C3180C3100E73007E6003C40000C95
:1037A0007C008FE019C70118303183021C7040FE85
:1037B0000407C00F007E039C0C3030C0E701F80303
:1037C000803E01CC6E19B07CC0F303CE1F9FE61E75
:1037D0001CFFA0088C663198C6318C6308630861B1
:1037E0000C208218C318C318C6318C623188C46299
:1037F0000010235BE38D91000C0300C030FFFFF04D
:10380000C0300C0300C0F560FFF0F0020C1020C1C6
:10381000020C1020C1020C1020C1001F07F1C7309C
:103820006E0F80F01E03C0780F01E03C0EC19C714A
:10383000FC1F0008CFFF8C6318C6318C63181F0F64
:10384000F987607C0600C0180701C0F0781C0600EC
:10385000803007FFFFE03F0FF387606C0C01807042
:103860007C0F801801803C0780D873FC1F0001800A
:10387000700E03C0D81B06618C218C33067FFFFEBF
:103880000300600C01803FCFF980300600DE1FE7A7
:103890000E00E00C0180300781F873FC1F000F0759
:1038A000F9C33074018033C7FEF0DC1F01E03C0631
:1038B000C1DC71FC1F00FFFFFC010060180200C0AA
:1038C00030060180300401803006018030001F077F
:1038D000F1C730660CC18C61FC3F8E3B01E03C07B8
:1038E00080D831FC1F001F07F1C7706C0780F01EE5
:1038F0000761EFFC79803005819873FC1E00F000B1
:1039000003C0F0000F5600000701E0F83C0F00E094
:1039100007C00F003C00F001FFFFFF000000FFFFA9
:10392000FF000E007801F007C00F00701E0F03C0EB
:10393000F008001F1FEE1B03C0C0300C060381C03F
:10394000E0300C030000000C030000FE000FFE003E
:10395000F03E07003C380030C1E0660FD9D861C3A3
:10396000C3070F1C1C3C6060F18183C6061B18381E
:10397000EE71E718FDF871E7C0E00001E00001FF1B
:10398000C001FC0003C003C003C007E0066006607E
:103990000E700C300C301C3818181FF83FFC301C0F
:1039A000300C700E60066006FFC7FF3019806C0394
:1039B000601B00D80CFFC7FF300D803C01E00F00FA
:1039C0007806FFF7FE0007E03FF0E0738066006CCA
:1039D0000030006000C001800300060006006C009B
:1039E000DC031E0E1FF80FC0FF83FF8C07300EC0D4
:1039F0001B007C00F003C00F003C00F003C01F0060
:103A00006C03B01CFFE3FF00FFFFFFC00C00C00C05
:103A100000C00C00FFEFFEC00C00C00C00C00C008A
:103A2000FFFFFFFFFFFF00600C0180300600FFDF9B
:103A3000FB00600C0180300600C0180007F01FFC7E
:103A40003C1E70066003E000C000C000C07FC07F65
:103A5000C003C00360036007300F3C1F1FFB07E17A
:103A6000C01E00F007803C01E00F007803FFFFFF5D
:103A7000F007803C01E00F007803C01E00C0FFFF8C
:103A8000FFFFF00180C06030180C06030180C060A9
:103A90003C1E0F07C77F1F00C03B01CC0E3070C318
:103AA000831C0CE03380DE03DC0E383060C1C303BE
:103AB0008C06301CC03B0060C0300C0300C0300CD2
:103AC0000300C0300C0300C0300C0300FFFFF0E027
:103AD00007E007F00FF00FD00FD81BD81BD81BCC76
:103AE00033CC33CC33C663C663C663C3C3C3C3C35B
:103AF000C3C183E01F00FC07E03D81EE0F3079C3B6
:103B0000C61E18F0E7833C1DE06F01F80FC03E01B0
:103B1000C003E00FFC0F078600C60033001B000740
:103B20008003C001E000F00078003600330018C0C8
:103B300018783C1FFC03F800FF8FFEC06C03C03CEC
:103B400003C03C07FFEFFCC00C00C00C00C00C0021
:103B5000C00C0003E00FFC0F078600C60033001BFB
:103B600000078003C001E000F00078003600330158
:103B700098C0FC783C1FFF03F9800040FFC3FFCCD6
:103B800003B006C01B006C01B00CFFE3FFCC03B018
:103B900006C01B006C01B006C01B00700FE07FC3A5
:103BA000839C07600D8006001E003F803FC00F8091
:103BB00007C00F003E00DE0E3FF03F80FFFFFF0614
:103BC00000600600600600600600600600600600F7
:103BD00060060060060060C01E00F007803C01E047
:103BE0000F007803C01E00F007803C01E00F80EE5C
:103BF0000E3FE07C006006C01DC031806301C7033A
:103C000006060C1C1C30186031C073006600DC0115
:103C1000F001E003C00700E0301D80E0760781D8A6
:103C20001E06707C18C1B0E30CC38C330C38C63050
:103C30006718C198670661D81D83603C0D80F03E0F
:103C400003C0700F01C0180700700E6038E060E11B
:103C5000C0C301CC01F801E0038007801F003300DE
:103C6000E70386060E1C0E700CC01C6006700E303A
:103C70001C38181C380C300E70066003C003C001DD
:103C8000800180018001800180018001800180FF2E
:103C9000FFFFC00E00E00E00600700700700300359
:103CA000803803801801C01C00FFFFFFC0FFCCCC90
:103CB000CCCCCCCCCCCCCCCFF08181020604081883
:103CC000102060408181020604FF333333333333E5
:103CD0003333333FF00C0E0586C321198C83C1802A
:103CE000FFFEE38C303F07F8E1CC0C00C01C3FCF57
:103CF0008CC0CC0CE3C7EF3C70C00C00C00C00C003
:103D00000CF8DFCF0EE07C03C03C03C03C03E06F47
:103D10000EDFCCF81F0FE71B83C0300C0300C03848
:103D2000371CFE1F0000600C018030063CCFFB8F6B
:103D3000E0F80F01E03C0780F83B8F3F63CC1F07A2
:103D4000F1C7703C07FFFFFE00C01C0DC31FE1F070
:103D50003BD8C67FEC6318C6318C63001E67FDC775
:103D6000F07C0780F01E03C07C1DC79FB1E600C039
:103D70003E0E7FC7E0C0300C0300C033CDFBC7E070
:103D8000F03C0F03C0F03C0F03C0F030F03FFFFFEA
:103D9000F0330003333333333333333FE0C018039E
:103DA00000600C018330C630CC1B83F0770C618E31
:103DB00030E60CC1D818FFFFFFFFF0CF1F6FDFFC0C
:103DC00078FC183C0C1E060F03078183C0C1E0601D
:103DD000F03078183C0C18CF37EF1F83C0F03C0F41
:103DE00003C0F03C0F03C0C01F07F1C7707C078001
:103DF000F01E03C07C1DC71FC1F0CF8DFCF0EE0686
:103E0000C03C03C03C03C03E07F0EFFCCF8C00C0B9
:103E10000C00C0001E67FDC7F07C0780F01E03C0C9
:103E20007C1DC79FF1E600C018030060CF7F38C338
:103E30000C30C30C30C03E1FEE1B00C03C07F03EF0
:103E400001F03E1DFE3E006319FFB18C6318C631C0
:103E5000E7C0F03C0F03C0F03C0F03C0F07E3DFB19
:103E60003CC0E0660660670C30C30C39819819814C
:103E7000F00F00E00E00C1C1B0E1D870CC2C663666
:103E8000319B18CD98646C16360F1A078F03838008
:103E9000C1C060EE18C60CC1F01C0180781B033055
:103EA000C7306606E06C0D8338630C630E60CC1B74
:103EB00003603C0700E0180300E0780E00FFFFF00D
:103EC000180C070381C06030180E03FFFFC019CC27
:103ED0006318C631998618C6318C631C60FFFFFFDA
:103EE000FFFFFCC718C6318C630C33318C6318C6D6
:103EF0007300703E09E41F038044656D6F20426CBF
:103F000075650044656D6F20477265656E00446598
:103F10006D6F2052656400426C756520286D656484
:103F200069756D2900477265656E20286861726445
:103F30002900526564202873696D706C6529000042
:103F40000000000500010000020D0602F404000557
:103F5000040601F407000A0C0A00F5160009100A0D
:103F600001F32800100D1001F442000B0D0C01F4B8
:103F7000540002040401F4550004110601F45E002B
:103F800004110601F4670005050701F46B0006083B
:103F90000B03F9710002040502007200040106011E
:103FA000FC730002010501007400050D0500F47D9D
:103FB00000080D0A01F48A00040D0A03F4910009B7
:103FC0000D0A01F4A000080D0A01F4AD00070D0A66
:103FD00002F4B900090D0A01F4C800090D0A01F440
:103FE000D700080D0A00F4E400090D0A01F4F300FB
:103FF000080D0A01F40001020A0501F70301030C90
:104000000501F8080109090B01F8130109040B0166
:10401000FB180109090B01F82301090D0A01F4320B
:104020000111101201F454010C0D0C00F468010B85
:104030000D0C01F47A010B0D0D01F48C010B0D0D2B
:1040400001F49E01090D0B01F4AD01080D0B01F403
:10405000BA010C0D0E01F4CE010B0D0D01F4E001BF
:10406000020D0502F4E401070D0A01F4F0010B0D45
:104070000C01F40202080D0A01F40F020D0D0F01EC
:10408000F425020B0D0D01F437020D0D0E01F44D58
:10409000020A0D0C01F45E020D0E0E01F475020C05
:1040A0000D0D01F489020A0D0C01F49A02090D0BA1
:1040B00001F4A9020B0D0D01F4BB020B0D0C00F471
:1040C000CD02110D1100F4E9020C0D0C00F4FD02FB
:1040D0000C0D0C00F411030A0D0B01F42203031163
:1040E0000501F42903050D0500F432030311050051
:1040F000F4390307070801F440030A010A000342E8
:104100000304030500F44403090A0A01F7500309F4
:104110000D0A01F45F03080A0901F76903080D0A93
:1041200001F47603080A0A01F78003040D0501F47F
:104130008703080E0A01F79503080D0A01F4A2038C
:10414000020D0401F4A60304110400F4AF03090DE9
:104150000901F4BE03020D0401F4C2030D0A0F01AC
:10416000F7D303080A0A01F7DD03080A0A01F7E793
:1041700003090D0A01F7F603080D0A01F703040508
:104180000A0601F70A04080A0901F71404040C05D9
:1041900001F51A04080A0A01F72404090A0900F7BC
:1041A00030040D0A0D00F74104080A0900F74B041A
:1041B000090E0900F75B04070A0901F764040411FA
:1041C0000601F46D0402110402F4720404110601E4
:1041D000F47B0407030901F9FFFFF8C0DEF72009AB
:1041E000864191FF1304C320C8FF89826190101F8C
:1041F00014DA3D1E8340781708F47A3533F04020F6
:104200003810EC20C620C640C6406C803900013C06
:104210000277026304630477083C0E0660CC1981C0
:10422000E0180F0336C2D8730631E3C4FE13266CC0
:10423000CCCCC46623108C4663333332664C802565
:104240007EA50030C33F30C30CD6F0C00844211017
:1042500084421108003C6642C3C3C3C3C3C3C34204
:10426000663C113F33333333303E31B07830181C65
:104270001C1C1818100807F83C66C3C303061C076B
:1042800003C3C3663C0C187162C9A346FE183060B4
:10429000C07F2010080807F38C030180F06C63E0F6
:1042A0001E3198780C06F38D83C1E0D06C63E0FF7B
:1042B000030206040C081818181030303E31B0788C
:1042C0003C1B18F8C6C1E0F06C63E03C66C2C3C397
:1042D000C3673B0303C2663CC00030C0000064A05B
:1042E0000081C78E0C0780700E0180FF80001FF0D8
:1042F00000700E01C0183871C080003E31B07830B7
:1043000018183818180C0000018003F0060E06017A
:104310008600661DBB31CF18C79863CC31E611B358
:1043200099CCF7860001800070400FE00600F00F86
:10433000009019819810830C3FC204606606C0305B
:10434000FF183303606C0D833FC606C0780F01E091
:104350006FF81F861981A03C0180300600C0680DEF
:10436000831861F0FF183303603C0780F01E03C020
:10437000780F0360CFF0FFE030180C0603FD80C01B
:104380006030180FF8FFC0C0C0C0C0FEC0C0C0C0C1
:10439000C0C00F830E606603C00C00C1FC03C036B2
:1043A0000360730F0F10C0780F01E03C0780FFFE21
:1043B00003C0780F01E03C06FFFFFFC0060C183079
:1043C00060C183078F1E2780C0D8330C630CC1B82F
:1043D0003F0730C3186306606C0CC0C0C0C0C0C0CB
:1043E000C0C0C0C0C0C0FFE03F01FC1FE0FD05EC45
:1043F0006F637913CD9E6CF1478E3C7180E07C0F2A
:10440000C1E83D8798F11E33C3786F07E07C0E0F3B
:104410008183180CC06C01E00F007803C01B019869
:104420000C60C0F800FF306C0F03C0F06FF300C0E9
:10443000300C0300C0000F8183180CC06C01E00F2A
:10444000007803C01B01986C60C0FB0008FF8C0E55
:10445000C06C06C06C0CFF8C0EC06C06C06C06C035
:10446000703F186C0F03C01E01F00E00F03C0D866B
:104470003F00FF86030180C06030180C06030180F6
:10448000C0C0780F01E03C0780F01E03C0780F0128
:10449000B061F0C06C0D8110630C610460CC190137
:1044A000603C070060C18130E19870CC286626210D
:1044B0001330C8986C4C14340A1A07070303808120
:1044C0008060630C30C1980F00E00600F01901987D
:1044D00030C60E6060C0360630C30C1981D80F009C
:1044E000600600600600600600FFC060300C060336
:1044F00001C0603018060300FFC0FB6DB6DB6DB66F
:10450000E0841084108410841080EDB6DB6DB6DB7F
:10451000E03060A244D8A180FFC0C6307E71B0C038
:1045200060F3DB0D86C73DC0C060301BCE360F0781
:1045300083C1E0F07C6DE03C66C3C0C0C0C0C36610
:104540003C0303033B67C3C3C3C3C3C3673B3C66AE
:10455000C3C3FFC0C0C3663C366F66666666603B19
:1045600067C3C3C3C3C3C3673B0303C67CC0C0C028
:10457000DEE3C3C3C3C3C3C3C3C3C3FFFFC03003AE
:10458000333333333333E0C06030184C466361F06B
:10459000EC6231986C30FFFFFFC0DEF71CF0C7867D
:1045A0003C31E18F0C7863C31E18C0DEE3C3C3C384
:1045B000C3C3C3C3C33C66C3C3C3C3C3C3663CDE78
:1045C00071B0783C1E0F0783E36F30180C003B6717
:1045D000C3C3C3C3C3C3673B030303DF318C631887
:1045E000C6003EE3C0C0E03C07C3E37E66F66666F5
:1045F0006667C3C3C3C3C3C3C3C3C77BC1A098CCCF
:104600004221B0D0281C0C00C61E3891C4CA66D303
:1046100016D0A6871C38C0C6004362361C181C3C46
:10462000266243C12198CC4261B0D0381C0C0603ED
:10463000010300FE0C30C1861820C1FC3666666E90
:10464000CE66666630FFFFFFFFC0C66666673766E8
:104650006666C0612438000000000E0001000006FC
:104660000F0E06F20C0008070E06F313000D120ED3
:1046700002F131000B140E03F04D000B0F0E03F28C
:1046800062000B0D0E02F4740003070E08F37700AE
:1046900007130E07F2880007130E02F299000B0AA7
:1046A0000E04F2A7000C0D0E03F4BB0006070E0368
:1046B000FEC1000D020E02F9C50003030E06FEC77F
:1046C000000E140E02F0EA000B0F0E03F2FF000BB7
:1046D0000F0E02F214010D0F0E01F22D010C0F0E40
:1046E00002F244010B0E0E03F358010C0F0E02F2FE
:1046F0006F010B0F0E04F284010B0F0E04F29901EF
:104700000B0F0E03F2AE010B0F0E03F2C301050BEC
:104710000E05F6CA01070F0E03F6D8010D0B0E02A7
:10472000F5EA010D070E02F7F6010D0B0E02F50872
:1047300002090E0E05F318020C130E02F235020FD9
:104740000E0E00F350020D0E0E01F367020E0E0E58
:1047500002F380020D0E0E01F397020F0E0E00F30E
:10476000B202100E0E00F3CE020E0E0E01F3E7029F
:10477000100E0E00F303030C0E0E02F31803100EBE
:104780000E00F33403100E0E00F350030D0E0E0155
:10479000F36703120E0E00F38703100E0E01F3A34E
:1047A000030E0E0E01F3BC030D0E0E01F3D3030E28
:1047B000110E01F3F1030F0E0E00F30C040C0E0E9C
:1047C00003F321040D0E0E02F338040E0E0E02F355
:1047D00051040F0E0E01F36C040F0E0E01F387044B
:1047E000100E0E00F3A3040D0E0E02F3BA040E0E0B
:1047F0000E01F3D30409130E05F2E90407140E05A4
:10480000F0FB0409130E03F211050A080E04F11B54
:10481000050F020EFF041F0504040E07F121050C0D
:104820000B0E02F632050F0F0EFFF24F050C0B0EAA
:1048300002F660050E0F0E02F27B050C0B0E02F65F
:104840008C050F0F0E02F2A9050E100E02F6C5051B
:104850000D0F0E01F2DE050B0E0E02F3F2050C1326
:104860000E01F30F060E0F0E01F22A060B0F0E02B9
:10487000F23F060F0B0E00F654060D0B0E01F66606
:10488000060C0B0E02F6770610100EFFF697060FB9
:10489000100E01F6B5060E0B0E01F6C9060C0B0E36
:1048A00002F6DA060A0E0E02F3EC060C0B0E02F606
:1048B000FD060F0B0E01F612070E0B0E02F6260771
:1048C0000E0B0E01F63A0710100E00F65A070C0BED
:1048D0000E02F66B070A130E04F2830706130E0589
:1048E000F2920709130E03F2A8070C040E03F91C39
:1048F000F3CE38E71C618600638C00E7E7E6C6C6A6
:10490000C48403301981DC0CE0661FFCFFE1980CC5
:10491000C0EE0670FFCFFE1DC0CC066077033000EE
:104920000100700C07F1FE71CC11803F03F00F20E5
:104930006E0DC33FE7F81C0300600C000E03E0C4DB
:104940001082307C07787C7F19F0620841183E03A2
:104950008007C1F8620C0180380F03F76FD8F31E8F
:104960007FE7F8FF6D20061C70C3061830C1830670
:104970000C18307060C1000C18383060C183060C10
:104980003061C30E3861C2000600C0183F7FFEFFD1
:104990000781F8770C60030070070060060FFFFFC7
:1049A000F0E00C00C00C01C018001CE31C63080000
:1049B0007FFFFFC07F000008007001800E007003C1
:1049C000800C007003800C007003800C007003806A
:1049D0000C007003800C0020000783F8E398370672
:1049E000C0D81B03E0F81B0360EE38FE0F0003C1C4
:1049F000F07E0CC0380700C0180700E01803006103
:104A0000FFFFF003E03F838E383181801801C01C26
:104A100001C03803803847873FF3FF8007C1FF1884
:104A2000700300300607C07C00E006006006C1CFBE
:104A3000F87E0001E03C0F0360CC3B8E638C619FED
:104A4000FBFF0181F83F000FF1FE1801801803F809
:104A50003FC38E00600600600CC1CFF87E0003E10A
:104A6000FC701C0300C01BC7FCF398330660CE30FB
:104A7000FC0F00FFFFFB0760C0380601C0300E01CD
:104A800080701C03806008000783F8E3B03606C01E
:104A9000DC31FC3F8C3B03606C39FE1F000781F862
:104AA0006398330660CE79FF1EC0180601C071FC02
:104AB0003E0019CC0000006730061C3000000000EA
:104AC0003871C30E182000001803C07C1F03E03E9D
:104AD000007C01F003E00780087FFBFFC0000000BE
:104AE000007FFBFFC03001E007C00F003E007C1FCD
:104AF00003E07C078020003E7FB0F830181C1C3C8F
:104B00003818000607030003C07E0C718330330F92
:104B100033E6766C66C66C6CFCC7EC00C00C00E338
:104B200007F03C0007F01FE007C01F803B00E701D3
:104B30008E071C1FF83FF0E07180EFC7FF8FC03F6A
:104B4000F1FFC3063831C18C187FC3FE3839C0CCA1
:104B500006606FFF7FE003EC3FF1C38C06601980B5
:104B60000C003000C003000C033C1C7FE07E003FC3
:104B7000E1FF870C3031818C0CE067033031818C90
:104B80000CE1CFFC7F801FFE3FFC38387070CCC139
:104B90009803F00FE01D8031186070C0E7FF9FFFA1
:104BA000001FFF1FFE0E060C0E0CC40CC01FC01F02
:104BB000C019C0198018003800FF00FF0007EC7F03
:104BC000F3839C066019800C0030FEC3FB01CC0708
:104BD0003C387FE07E000FBF1FBE0E0C0C0C0C1C7F
:104BE0000C1C1FF81FF818181838183838307CFCBF
:104BF000FCF83FF3FF0300700700600600600E0042
:104C0000E00E00C0FFCFFC03FF03FF0038003000C0
:104C1000300030007020706060606060E0E1C0FFD4
:104C2000803F001F9F1F9E0E380C700CE00FC01FAE
:104C3000C01FE01CE0186018703870FE3CFC3C3F60
:104C4000C1FE01801C00E006003001801C18E0C697
:104C500006307FFFFFF81E078781E0F0F07C7C1FA5
:104C60001F06CF81BF60EF983BEE0C73831CC0C062
:104C700030FC7E3F1F803C3F3E3F1E0C1F1C1F1C14
:104C80001B983B983B9831F831F830F070F0FC708D
:104C9000F87003E03FE1C38C07600D803C00F00337
:104CA000C01B006E031C387FC07C003FE1FF830EF9
:104CB0003831C18C0C60C3FC3FC1C00C00600FF0E8
:104CC0007F8003E03FE1C38C07600D803C00F00370
:104CD000C01B006E031C387FC0FC03021FFCFFE0FA
:104CE0001FF03FF038706060C0C18707FC0FF018FC
:104CF000F030E060C1C1CFE1FFC3C00FB1FF30E6CB
:104D0000066067807F01FC01C40CC0CE18FF8BE0F9
:104D10007FFBFFD9CFCE7C6363181801C00E006003
:104D20000300180FF87FC07EFFF3F3031C0C603103
:104D300081C6063818E063038C0C30707F80F80061
:104D4000FC7FF8FDC06181C387070C0E380C601929
:104D5000C03F007C00F800E00180007E7EFCFDC0CA
:104D6000739CE7798EF71BEE36D87DF0F3E1E7838D
:104D70008F071E1C38001F1F1F1F0E1C07380770CF
:104D800003E003C003C007E00EE01C703870FCFCB9
:104D9000FCFCF8FFC7CC3873839C0FC07C01C00CAF
:104DA00000600300380FF87F800FF87FE1C7861C92
:104DB00018E007003801C00E0070C3831C1C7FF38D
:104DC000FF800F87C30381C0C06030381C0C06030E
:104DD0000381C0C0603E3F0041C383070E1C1838EA
:104DE00070E0C1C383060E1C18201F0F80C0E07046
:104DF00030180C0E07030180C0E07030187C3E00B4
:104E0000020180F07E3B9C7E1F03FFFFFFFCCE7300
:104E10001FC3FE0060060FE3FE70CC0CC3CFFF7F04
:104E2000F01E003C0038007000DF81FF83C38F0359
:104E30001C06380C7018E063E19FFE3DF8000FF38C
:104E4000FF307607E06C00C00C00E067FE3F80009A
:104E50003C00F001C00607D87FE30F981E60730185
:104E6000CC07303CE1F1FFE3F7800FC1FE78760319
:104E7000FFFFFFC00C00E0E7FE1F8000FC07F80CFE
:104E8000003801FF07FE018007000E001800300007
:104E90006001C01FF83FF0000FBC7FF30F181CC06B
:104EA00073018C0E3038E3E1FF83EC003001C00663
:104EB00007F01F801E01F003001800DE0FF878C312
:104EC000861830C18E1C70E3067EFFE7E003807019
:104ED000000FC1F00600C0380700C018030FFFFF25
:104EE000C00070070000FF1FF0070070060060069A
:104EF00000E00E00C00C00C01C0387F0FE001E0086
:104F00007800E003800CFC33E0DE07E01F007C014A
:104F1000F806F039C3E7EF1F800F81F00601C038B3
:104F20000600C0180700E018030061FFFFF83FBC4F
:104F30007FFCF398C6339CE739CC6318C6318DF7F4
:104F4000BFEF783DE1FF8F8C3861830C18E1C70E0D
:104F50003067EFFE7E07C1FE387603C03C03C03CDD
:104F600006E1C7F83E001EFC1FFE0F870F030E036D
:104F70000E030E070E061F0C1FF819F0180018007C
:104F80003800FE00FE000FDE3FFCC3E30384071879
:104F90000E301C6078E1E0FFC0F98003000E001CB9
:104FA00001FC03F81E787FF07CC3C00E003000C007
:104FB00003001C03FF0FFC0007F1FF3073863F81E5
:104FC000FE03E606E0EFFCFF000C070183FFFFCEC7
:104FD0000300C0301C0701837FCFC0F0FF1F607645
:104FE0000760760660660E61E7FF3EF07E7EFCFCA1
:104FF000E0C0C381860398077006C00F801E00388A
:1050000000F87FE3E6631BDC6F61FF87FC1EF07333
:1050100081CE0638003E7CF9F1E703F807C01F0196
:10502000FC0F3878FBF7EF9F801F1F3E1F1C1C0CE6
:10503000180E380E70066007E007C007C00380072F
:105040000007000E00FF00FF001FF1FF38E31C0304
:1050500080700E01C63867FE7FE001C0F070180650
:105060000380E0301C3E0F006018060380C0300F44
:1050700001C00C71C718638E30C31C718638E304FD
:10508000000E0780C0607030180C0601C1E1C0C07E
:10509000E07030387838003C27E6EFCC38D107385C
:1050A0000520007E002A011C681920007E001618C9
:1050B000237F2020007E002A4837AF3420007E0066
:1050C0001D323F253F173F0E3F033FF93ED8413F7A
:1050D0003F20007E0016EF48564620007E00180054
:1050E0000000000500010000020D0602F4040005A6
:1050F000040601F407000A0C0A00F5160009100A5C
:1051000001F32800100D1001F442000B0D0C01F406
:10511000540002040401F4550004110601F45E0079
:1051200004110601F4670005050701F46B00060889
:105130000B03F9710002040502007200040106016C
:10514000FC730002010501007400050D0500F47DEB
:1051500000080D0A01F48A00040D0A03F491000905
:105160000D0A01F4A000080D0A01F4AD00070D0AB4
:1051700002F4B900090D0A01F4C800090D0A01F48E
:10518000D700080D0A00F4E400090D0A01F4F30049
:10519000080D0A01F40001020A0501F70301030CDE
:1051A0000501F8080109090B01F8130109040B01B5
:1051B000FB180109090B01F82301090D0A01F4325A
:1051C0000111101201F454010C0D0C00F468010BD4
:1051D0000D0C01F47A010B0D0D01F48C010B0D0D7A
:1051E00001F49E01090D0B01F4AD01080D0B01F452
:1051F000BA010C0D0E01F4CE010B0D0D01F4E0010E
:10520000020D0502F4E401070D0A01F4F0010B0D93
:105210000C01F40202080D0A01F40F020D0D0F013A
:10522000F425020B0D0D01F437020D0D0E01F44DA6
:10523000020A0D0C01F45E020D0E0E01F475020C53
:105240000D0D01F489020A0D0C01F49A02090D0BEF
:1052500001F4A9020B0D0D01F4BB020B0D0C00F4BF
:10526000CD02110D1100F4E9020C0D0C00F4FD0249
:105270000C0D0C00F411030A0D0B01F422030311B1
:105280000501F42903050D0500F43203031105009F
:10529000F4390307070801F440030A010A00034236
:1052A0000304030500F44403090A0A01F750030943
:1052B0000D0A01F45F03080A0901F76903080D0AE2
:1052C00001F47603080A0A01F78003040D0501F4CE
:1052D0008703080E0A01F79503080D0A01F4A203DB
:1052E000020D0401F4A60304110400F4AF03090D38
:1052F0000901F4BE03020D0401F4C2030D0A0F01FB
:10530000F7D303080A0A01F7DD03080A0A01F7E7E1
:1053100003090D0A01F7F603080D0A01F703040556
:105320000A0601F70A04080A0901F71404040C0527
:1053300001F51A04080A0A01F72404090A0900F70A
:1053400030040D0A0D00F74104080A0900F74B0468
:10535000090E0900F75B04070A0901F76404041148
:105360000601F46D0402110402F472040411060132
:10537000F47B0407030901F9FFFFF8C0DEF72009F9
:10538000864191FF1304C320C8FF89826190101FDA
:1053900014DA3D1E8340781708F47A3533F0402044
:1053A0003810EC20C620C640C6406C803900013C55
:1053B0000277026304630477083C0E0660CC19810F
:1053C000E0180F0336C2D8730631E3C4FE13266C0F
:1053D000CCCCC46623108C4663333332664C8025B4
:1053E0007EA50030C33F30C30CD6F0C00844211066
:1053F00084421108003C6642C3C3C3C3C3C3C34253
:10540000663C113F33333333303E31B07830181CB3
:105410001C1C1818100807F83C66C3C303061C07B9
:1054200003C3C3663C0C187162C9A346FE18306002
:10543000C07F2010080807F38C030180F06C63E044
:105440001E3198780C06F38D83C1E0D06C63E0FFC9
:10545000030206040C081818181030303E31B078DA
:105460003C1B18F8C6C1E0F06C63E03C66C2C3C3E5
:10547000C3673B0303C2663CC00030C0000064A0A9
:105480000081C78E0C0780700E0180FF80001FF026
:1054900000700E01C0183871C080003E31B0783005
:1054A00018183818180C0000018003F0060E0601C9
:1054B0008600661DBB31CF18C79863CC31E611B3A7
:1054C00099CCF7860001800070400FE00600F00FD5
:1054D000009019819810830C3FC204606606C030AA
:1054E000FF183303606C0D833FC606C0780F01E0E0
:1054F0006FF81F861981A03C0180300600C0680D3E
:10550000831861F0FF183303603C0780F01E03C06E
:10551000780F0360CFF0FFE030180C0603FD80C069
:105520006030180FF8FFC0C0C0C0C0FEC0C0C0C00F
:10553000C0C00F830E606603C00C00C1FC03C03600
:105540000360730F0F10C0780F01E03C0780FFFE6F
:1055500003C0780F01E03C06FFFFFFC0060C1830C7
:1055600060C183078F1E2780C0D8330C630CC1B87D
:105570003F0730C3186306606C0CC0C0C0C0C0C019
:10558000C0C0C0C0C0C0FFE03F01FC1FE0FD05EC93
:105590006F637913CD9E6CF1478E3C7180E07C0F78
:1055A000C1E83D8798F11E33C3786F07E07C0E0F8A
:1055B0008183180CC06C01E00F007803C01B0198B8
:1055C0000C60C0F800FF306C0F03C0F06FF300C038
:1055D000300C0300C0000F8183180CC06C01E00F79
:1055E000007803C01B01986C60C0FB0008FF8C0EA4
:1055F000C06C06C06C0CFF8C0EC06C06C06C06C084
:10560000703F186C0F03C01E01F00E00F03C0D86B9
:105610003F00FF86030180C06030180C0603018044
:10562000C0C0780F01E03C0780F01E03C0780F0176
:10563000B061F0C06C0D8110630C610460CC190185
:10564000603C070060C18130E19870CC286626215B
:105650001330C8986C4C14340A1A0707030380816E
:105660008060630C30C1980F00E00600F0190198CB
:1056700030C60E6060C0360630C30C1981D80F00EA
:10568000600600600600600600FFC060300C060384
:1056900001C0603018060300FFC0FB6DB6DB6DB6BD
:1056A000E0841084108410841080EDB6DB6DB6DBCE
:1056B000E03060A244D8A180FFC0C6307E71B0C087
:1056C00060F3DB0D86C73DC0C060301BCE360F07D0
:1056D00083C1E0F07C6DE03C66C3C0C0C0C0C3665F
:1056E0003C0303033B67C3C3C3C3C3C3673B3C66FD
:1056F000C3C3FFC0C0C3663C366F66666666603B68
:1057000067C3C3C3C3C3C3673B0303C67CC0C0C076
:10571000DEE3C3C3C3C3C3C3C3C3C3FFFFC03003FC
:10572000333333333333E0C06030184C466361F0B9
:10573000EC6231986C30FFFFFFC0DEF71CF0C786CB
:105740003C31E18F0C7863C31E18C0DEE3C3C3C3D2
:10575000C3C3C3C3C33C66C3C3C3C3C3C3663CDEC6
:1057600071B0783C1E0F0783E36F30180C003B6765
:10577000C3C3C3C3C3C3673B030303DF318C6318D5
:10578000C6003EE3C0C0E03C07C3E37E66F6666643
:105790006667C3C3C3C3C3C3C3C3C77BC1A098CC1D
:1057A0004221B0D0281C0C00C61E3891C4CA66D352
:1057B00016D0A6871C38C0C6004362361C181C3C95
:1057C000266243C12198CC4261B0D0381C0C06033C
:1057D000010300FE0C30C1861820C1FC3666666EDF
:1057E000CE66666630FFFFFFFFC0C6666667376637
:1057F0006666C06124387853DF5020007E001600B2
:10580000000000003E5B4F5B3E3E6B4F6B3E1C3E1C
:105810007C3E1C183C7E3C181C577D571C1C5E7F30
:105820005E1C00183C1800FFE7C3E7FF00182418AF
:1058300000FFE7DBE7FF30483A060E2629792926E4
:10584000407F050507407F05253F5A3CE73C5A7FCE
:105850003E1C1C08081C1C3E7F14227F22145F5F24
:10586000005F5F06097F017F006689956A6060605E
:10587000606094A2FFA29408047E040810207E2099
:105880001008082A1C08081C2A08081E10101010EE
:105890000C1E0C1E0C30383E3830060E3E0E060034
:1058A0000000000000005F00000007000700147FF8
:1058B000147F14242A7F2A1223130864623649565F
:1058C00020500008070300001C2241000041221C58
:1058D000002A1C7F1C2A08083E080800807030003F
:1058E0000808080808000060600020100804023E54
:1058F0005149453E00427F40007249494946214195
:10590000494D331814127F1027454545393C4A4903
:105910004931412111090736494949364649492942
:105920001E00001400000040340000000814224152
:105930001414141414004122140802015909063EDB
:10594000415D594E7C1211127C7F494949363E41D6
:105950004141227F4141413E7F494949417F0909F7
:1059600009013E414151737F0808087F00417F4192
:10597000002040413F017F081422417F40404040C9
:105980007F021C027F7F0408107F3E4141413E7F21
:10599000090909063E4151215E7F09192946264918
:1059A00049493203017F01033F4040403F1F2040EF
:1059B000201F3F4038403F631408146303047804F9
:1059C000036159494D43007F4141410204081020C1
:1059D000004141417F040201020440404040400038
:1059E0000307080020545478407F28444438384442
:1059F000444428384444287F385454541800087EBE
:105A0000090218A4A49C787F0804047800447D400F
:105A1000002040403D007F1028440000417F4000AE
:105A20007C047804787C080404783844444438FCC6
:105A30001824241818242418FC7C0804040848544A
:105A400054542404043F44243C4040207C1C204007
:105A5000201C3C4030403C44281028444C909090FE
:105A60007C4464544C440008364100000077000038
:105A7000004136080002010204023C2623263C1E97
:105A8000A1A161123A4040207A3854545559215509
:105A90005579412254547842215554784020545528
:105AA00079400C1E52721239555555593954545477
:105AB0005939555454580000457C410002457D42F7
:105AC0000001457C407D1211127DF0282528F07CD4
:105AD000545545002054547C547C0A097F4932496E
