:100000000C94EA040C941B050C941B050C941B0522
:100010000C941B050C941B050C941B050C941B05E0
:100020000C941B050C941B050C941B050C941B05D0
:100030000C941B050C941B050C941B050C941B05C0
:100040000C941B050C94CA230C941B050C941B05E3
:100050000C941B050C941B050C941B050C94362268
:100060000C941B050C940A230C94E0220C941B05A1
:100070000C941B050C941B050C941B050C941B0580
:100080000C949C230C941B050C941B050C941B05D1
:100090000C941B050C941B050C941B050C94F82365
:1000A0000C941B050C941B050C946E230C941B05DF
:1000B0000C941B050C941B050C941B050C944023FD
:1000C0000C941B050C941B050C941B050C941B0530
:1000D0000C941B050C941B050C94AA220C948022F2
:1000E0000C941B050C9452210C94FF100C94E00707
:1000F0000C947E0E0C944B170C94FD0E0C94DE06A3
:100100000C94FC0A0C94DB060C94F1110C94B106CF
:100110000C9429080C9457250C94BA070C94D21906
:100120000C94A7060C94CE070C94BF060C94DF0623
:100130000C94F2070C94AA170C94E8070C94FC0793
:100140000C948E100C94B5070C94F60A0C949F0630
:100150000C94C5060C9425190C94521D0C94A306FE
:100160000C9470110C94B1110C94AC1C0C94E90B10
:100170000C948C120C94F90A0C94C4070C944C0B3C
:100180000C9422180C943D080C94AD060C94D706E0
:100190000C9479160C945A120C94F20A0C9429209F
:1001A0000C94C9060C94B7060C94E00E0C944E1DEA
:1001B0000C94380B0C94AA1C0C941F080C94D306B6
:1001C0000C9433140C9447080C943F140C940608B8
:1001D0000C9499060C944B1D0C94D8070C9433087E
:1001E0000C94081D0C94EE0A0C9415080C949813AA
:1001F0000C94491A0C949C0B0C94CD060C94BB06E1
:100200000C945A0B0C94AD070C94290B0C94D11937
:100210000C947D1000407A10F35A00A0724E180919
:100220000010A5D4E80000E87648170000E40B545D
:10023000020000CA9A3B000000E1F505000080962C
:100240009800000040420F000000A086010000005E
:10025000102700000000E803000000006400000018
:1002600000000A00000000000100000000002C76E1
:10027000D888DC674F0823DFC1DFAE59E1B1B796FC
:10028000E5E3E453C63AE651997696E8E6C2842659
:10029000EB898C9B62ED407C6FFCEFBC9C9F40F235
:1002A000BAA56FA5F490055A2AF75C936B6CF967B1
:1002B0006DC11BFCE0E40D47FEF520E6B500D0ED76
:1002C000902E0300943577050080841E08000020DE
:1002D0004E0A000000C80C333333330F986E12837C
:1002E0001141EF8D2114893BE65516CFFEE6DB1850
:1002F000D1844B381BF77C1D901DA4BBE424203215
:1003000084725E228100C9F124ECA1E53D27000042
:100310000000003E5B4F5B3E3E6B4F6B3E1C3E7CE5
:100320003E1C183C7E3C181C577D571C1C5E7F5E93
:100330001C00183C1800FFE7C3E7FF001824180052
:10034000FFE7DBE7FF30483A060E262979292640E9
:100350007F050507407F05253F5A3CE73C5A7F3E15
:100360001C1C08081C1C3E7F14227F22145F5F00A7
:100370005F5F06097F017F006689956A6060606043
:100380006094A2FFA29408047E040810207E20102E
:1003900008082A1C08081C2A08081E101010100C37
:1003A0001E0C1E0C30383E3830060E3E0E06000085
:1003B00000000000005F00000007000700147F1429
:1003C0007F14242A7F2A1223130864623649562098
:1003D000500008070300001C2241000041221C00BD
:1003E0002A1C7F1C2A08083E08080080703000087C
:1003F00008080808000060600020100804023E5150
:1004000049453E00427F40007249494946214149E1
:100410004D331814127F1027454545393C4A494948
:100420003141211109073649494936464949291EB2
:1004300000001400000040340000000814224114A1
:1004400014141414004122140802015909063E41F3
:100450005D594E7C1211127C7F494949363E41411B
:1004600041227F4141413E7F494949417F09090974
:10047000013E414151737F0808087F00417F4100E0
:100480002040413F017F081422417F404040407F8F
:10049000021C027F7F0408107F3E4141413E7F09DC
:1004A0000909063E4151215E7F091929462649491D
:1004B000493203017F01033F4040403F1F2040205D
:1004C0001F3F4038403F631408146303047804035B
:1004D0006159494D43007F41414102040810200009
:1004E0004141417F0402010204404040404000037A
:1004F00007080020545478407F2844443838444446
:100500004428384444287F385454541800087E093D
:100510000218A4A49C787F0804047800447D40005D
:100520002040403D007F1028440000417F40007C77
:10053000047804787C080404783844444438FC186F
:1005400024241818242418FC7C0804040848545453
:10055000542404043F44243C4040207C1C20402080
:100560001C3C4030403C44281028444C9090907CE7
:100570004464544C440008364100000077000000F9
:100580004136080002010204023C2623263C1EA13B
:10059000A161123A4040207A38545455592155559A
:1005A0007941225454784221555478402054557949
:1005B000400C1E52721239555555593954545459DC
:1005C00039555454580000457C410002457D420095
:1005D00001457C407D1211127DF0282528F07C54C5
:1005E0005545002054547C547C0A097F49324949BE
:1005F00049323A4444443A324A4848303A41412127
:100600007A3A42402078009DA0A07D3D4242423D82
:100610003D4040403D3C24FF2424487E4943662B16
:100620002FFC2F2BFF0929F620C0887E09032054B8
:100630005479410000447D413048484A32384040B6
:10064000227A007A0A0A727D0D19317D2629292F16
:1006500028262929292630484D402038080808082E
:1006600008080808382F10C8ACBA2F102834FA0030
:10067000007B000008142A142222142A14085500B2
:10068000550055AA55AA55AAFF55FF55FF00000071
:10069000FF00101010FF00141414FF001010FF00D2
:1006A000FF1010F010F0141414FC001414F700FFE5
:1006B0000000FF00FF1414F404FC141417101F10A2
:1006C000101F101F1414141F00101010F000000051
:1006D000001F101010101F10101010F0100000005C
:1006E000FF101010101010101010FF10000000FF6D
:1006F000140000FF00FF00001F10170000FC04F4AE
:1007000014141710171414F404F40000FF00F71465
:10071000141414141414F700F714141417141010EC
:100720001F101F141414F4141010F010F000001F08
:10073000101F0000001F14000000FC140000F01047
:10074000F01010FF10FF141414FF141010101F00ED
:10075000000000F010FFFFFFFFFFF0F0F0F0F0FFEF
:10076000FFFF0000000000FFFF0F0F0F0F0F3844C6
:10077000443844FC4A4A4A347E02020606027E029B
:100780007E0263554941633844443C04407E201E48
:100790002006027E020299A5E7A5991C2A492A1C77
:1007A0004C7201724C304A4D4D303048784830BC64
:1007B000625A463D3E494949007E0101017E2A2A8E
:1007C0002A2A2A44445F444440514A444040444A0F
:1007D00051400000FF0103E080FF000008086B6B40
:1007E000083612362436060F090F060000181800C6
:1007F00000001010003040FF0101001F01011E0029
:10080000191D1712003C3C3C3C0000000000000099
:100810002100240027002A002D00300033000101B0
:100820000000040107010A0100000B0C030A0D0E71
:100830000F0908040502000000000000000000008D
:1008400000000000000000000000000000000000A8
:100850000000000013121100000000000000000062
:100860000000000000000000000000000000000088
:100870000000000000000000000000000000000078
:1008800020002300260029002C002F003200000148
:1008900000000301060109010000220025002800D4
:1008A0002B002E0031003400020100000501080178
:1008B0000B0104E010021C07123732292D29252BC9
:1008C0003900010310E110031D07062E2C292D2EDF
:1008D0002E373F0000021013800A298064022A0488
:1008E0000000007F2B040000009F0F018096118004
:1008F000FFB103012C2DB203012C2DB306012C2DC9
:10090000012C2DB40107C003A20284C101C5C2029B
:100910000A00C3028A2AC4028AEEC5010E200036EC
:1009200001C83A010505050505070508080808027C
:100930000202020A0A080804040404010101010178
:100940000101010303030303030303040707070C67
:100950000C0C0C0C0C0C0C0202020206060606061D
:100960000606060B0B0B0B0B0B0B0B0505050808FE
:1009700007070404040A0A0A0A0A0A0102102020CE
:1009800008081020401020408002010201080402E3
:100990000101020408102040808040201008040259
:1009A00001800402018040201008040201080402B2
:1009B00001010204081020408001020408102040B8
:1009C000800440800480081010204004081020405B
:1009D0008000572511241FBECFEFD1E2DEBFCDBF6F
:1009E00000E00CBF13E0A0E0B2E0E0EFF4E700E0CD
:1009F0000BBF02C007900D92AA34B107D9F726E0C9
:100A0000AAE4B3E001C01D92A93FB207E1F714E0E8
:100A1000CAEED4E000E006C021970109802FFE0154
:100A20000E942238C93ED10780E00807A9F70E943A
:100A3000B7260C94763A0C9400008F929F92AF9256
:100A4000BF92FF920F931F93CF93DF93F090F20624
:100A50002FE22F1508F44CC02091F40608E512E0AF
:100A6000021B110927FD1395000F111F000F111F05
:100A70002091F306C8E8D0E0C21BD10927FDD39529
:100A8000CC0FDD1FCC0FDD1F4E010D2E000CAA0870
:100A9000BB089801012E000C440B550B281939098D
:100AA0004A095B09DC010E94AA3624EB30E040E0F1
:100AB00050E00E948036820E931EA41EB51E8C1636
:100AC0009D062CF0E801801691060CF4E4012297B3
:100AD000CC0FDD1F2FB7F8948F2D90E0FC01EE0FA7
:100AE000FF1FE80FF91FE652FA4FD283C1832FBFD1
:100AF000DF91CF911F910F91FF90BF90AF909F908A
:100B00008F900895DC0113961C921E92129720E894
:100B100030E015963C932E93149780EA90E0179658
:100B20009C938E93169719963C932E9318971B9629
:100B30009C938E931A9756961C9256971D961C92CC
:100B40001E921C971F961C921E921E9781E055962E
:100B50008C93559754968C9354972FEF3FEF539661
:100B60003C932E93529751963C932E9350975796C1
:100B70008C93579758961C9258975A961C921E928F
:100B8000599785E592E011969C938E93D5961C9289
:100B9000D59785E2D6968C93D69780E3D7968C939B
:100BA000D79781E3D8968C93D897DA961C921E92A9
:100BB000D997DC961C921E92DB97DD961C92DD97EE
:100BC000DE961C92DE97FD01FF9610821182128242
:100BD00013828FE895E090969C938E935F97E6E55D
:100BE000F9E0E491F0E0EE0FFF1FE856F74F859132
:100BF00094915E969C938E935D97ECEAF9E08491D4
:100C0000D3968C93D397E5E5F9E0E491F0E0EE0F0D
:100C1000FF1FE856F74F259134915C963C932E9335
:100C20005B97EBEAF9E0E491D196EC93D197E095EC
:100C3000D296EC93D297E82FE095D496EC93089552
:100C4000CF92DF92EF92FF92CF93DF93B091E606BF
:100C5000A0E08111AB2F8091E70690E0880F991FEB
:100C6000AC014258574FC090EC06D090ED06E09092
:100C7000EE06F090EF0630E020E0FA01C591D49145
:100C8000E881B90190E080E0EB23EA130AC02F5F0E
:100C90003F4F6C157D058E059F0578F36FEF7FEF55
:100CA000CB01DF91CF91FF90EF90DF90CF9008952F
:100CB00096E0899FD0011124A559B94F90967C9355
:100CC0006E935F9791E091969C939197E091D806EF
:100CD000F091D9069091D706992339F0309751F0C9
:100CE000811108C0809187061994309719F05C969D
:100CF0008C91FACF08958250823108F05FC0E82FBE
:100D0000F0E08827E957F94F8F4F0C942238DB0623
:100D1000DF0699069F06A306DE06A706AD06B10606
:100D2000B706BB06BF06C506C906DE06CD06D30656
:100D3000D706809180008F778093800008958091FE
:100D400080008F7DF9CF80918000877FF5CF8091E3
:100D5000B0008F778093B00008958091B0008F7DB0
:100D6000F9CF809190008F778093900008958091C3
:100D700090008F7DF9CF80919000877FF5CF809193
:100D8000A0008F778093A00008958091A0008F7DB0
:100D9000F9CF8091A000877FF5CF809120018F77D8
:100DA000809320010895809120018F7DF9CF80915B
:100DB0002001877FF5CF84B58F7784BD089584B5F2
:100DC0008F7DFBCFCF93DF93282F30E0F901E85DD3
:100DD000F74F8491F901E558F64FD491F901EB5D95
:100DE000F64FC491CC23A1F081110E947B06EC2F19
:100DF000F0E0EE0FFF1FE258F74FA591B491EC9190
:100E0000ED2381E090E009F480E0DF91CF91089537
:100E100080E090E0FACF1F93CF93DF93282F30E04C
:100E2000F901E85DF74F8491F901E558F64FD49147
:100E3000F901EB5DF64FC491CC23A9F0162F811177
:100E40000E947B06EC2FF0E0EE0FFF1FE856F74FF5
:100E5000A591B4918FB7F894EC91111108C0D09579
:100E6000DE23DC938FBFDF91CF911F910895DE2B9E
:100E7000F8CFCF93DF9390E0FC01E558F64F249133
:100E80008B5D964FFC0184918823C9F090E0880F18
:100E9000991FFC01E25FF74FA591B491FC01E85660
:100EA000F74FC591D49161110DC09FB7F8948C9103
:100EB000209582238C938881282328839FBFDF91EC
:100EC000CF910895623051F49FB7F8943C91822FEE
:100ED000809583238C93E8812E2BEFCF8FB7F894E6
:100EE000EC912E2B2C938FBFEACF1F93CF93DF93E0
:100EF000182FEB0161E00E943907209739F460E078
:100F0000812FDF91CF911F910C940B07CF3FD1051B
:100F100011F461E0F5CFE12FF0E0E85DF74FE491E7
:100F2000E250E23108F0B3C0F0E08827E556F84F10
:100F30008F4F0C942238AD07B507BA07C407CE0708
:100F40004708D807E007E807F207FC070608150876
:100F50001F084708290833083D0884B5806884BD08
:100F6000C7BDDF91CF911F91089584B5806284BD84
:100F7000C8BDF7CF80918000806880938000D093B7
:100F80008900C0938800EDCF8091800080628093BB
:100F90008000D0938B00C0938A00E3CF80918000C3
:100FA000886080938000D0938D00C0938C00D9CF4F
:100FB0008091B00080688093B000C093B300D1CF1F
:100FC0008091B00080628093B000C093B400C9CF1C
:100FD00080919000806880939000D0939900C09396
:100FE0009800BFCF80919000806280939000D09352
:100FF0009B00C0939A00B5CF809190008860809349
:101000009000D0939D00C0939C00ABCF8091A00036
:1010100080688093A0008091A0008F7B8093A000C7
:10102000D093A900C093A8009CCF8091A0008062BB
:101030008093A000D093AB00C093AA0092CF809180
:10104000A00088608093A000D093AD00C093AC0056
:1010500088CF80912001806880932001D09329015E
:10106000C09328017ECF809120018062809320016F
:10107000D0932B01C0932A0174CF80912001886006
:1010800080932001D0932D01C0932C016ACFC038EA
:10109000D1050CF03ECF33CF90917B0098609093B8
:1010A0007B0086538770806480937C0080917A00F7
:1010B000806480937A0080917A0086FDFCCF8091D5
:1010C00078009091790008958230910538F0880F6A
:1010D000991F880F991F05970197F1F7089580913F
:1010E000DD069091DE060C946408CF93DF93CAED81
:1010F000D6E061E089810E9439070E946F0860E0B4
:1011000088810E9439070E946F0860E089810E94EF
:101110003907DF91CF910C946F080F931F93CF93F2
:10112000DF93D82FC8E061E08091DA060E9439078A
:101130000E946F080D2F10E060E0D0FF61E0809109
:10114000DB060E9439070E946F0860E08091DA0692
:101150000E9439070E946F0815950795D02FC1503E
:1011600011F761E08091DA060E94390760E0809112
:10117000DB060E9439070E946F0860E08091DA0662
:101180000E9439070E946F088091DB060E94E206E8
:10119000C82F811105C061E08091DB060E943907EC
:1011A0000E946F0861E08091DA060E9439070E9470
:1011B0006F0881E0C11101C080E0DF91CF911F91E4
:1011C0000F91089561E08091DB060E9439070C942D
:1011D0006F08EF92FF920F931F93CF93DF93182F17
:1011E000E92E062F0E94E20880E40E948D080E94EA
:1011F00075080E94E20880EC0E948D08F12EC12F34
:10120000DE2D89910E948D088C2F8F198017C8F3CD
:101210000E9475080E94E2088091DC068F70805859
:101220000E948D08DF91CF911F910F91FF90EF9059
:101230000C947508CF93DF9300D01F92CDB7DEB723
:1012400019821A821B821C8264E0CE0101960E94E0
:10125000E9080F900F900F900F90DF91CF910895B4
:101260003FB7F8948091440490914504A0914604BE
:10127000B091470426B5A89B05C02F3F19F00196F1
:10128000A11DB11D3FBFBA2FA92F982F8827BC01E0
:10129000CD01620F711D811D911D42E0660F771F08
:1012A000881F991F4A95D1F708958F929F92AF9208
:1012B000BF92CF92DF92EF92FF926B017C010E946E
:1012C00030094B015C01C114D104E104F104B9F00F
:1012D0000E943009681979098A099B09683E7340A0
:1012E0008105910580F321E0C21AD108E108F108D7
:1012F00088EE880E83E0981EA11CB11CE4CFFF90FD
:10130000EF90DF90CF90BF90AF909F908F90089517
:101310002FB7F89460914004709141048091420489
:10132000909143042FBF0895CF92DF92EF92FF92E6
:101330000F931F93CF93DF93CDB7DEB7C054D14047
:101340000FB6F894DEBF0FBECDBF0E948809009192
:10135000E8061091E9062091EA063091EB066B0150
:101360007C01C01AD10AE20AF30A97018601003D06
:1013700017402105310590F48091F006C05CDE4FE6
:101380000FB6F894DEBF0FBECDBFDF91CF911F9196
:101390000F91FF90EF90DF90CF9008956093E80653
:1013A0007093E9068093EA069093EB061092E306A9
:1013B0001092E2061092E1061092E0061092DF060B
:1013C00062E08091E4060E94390761E070E080E00D
:1013D00090E00E94550961E08091E4060E9439077F
:1013E00060E08091E4060E940B078091E50685513C
:1013F0008230E0F48CE494E00E94640862E0809122
:10140000E4060E9439078091F10690E00E9464088A
:10141000F89480E00E9420066F3F7F4F8F4F9F4FD0
:1014200061F41092F006789480E0A8CF64E170E057
:1014300080E090E00E945509E1CF81E00E94200603
:101440006F3F7F4F8F4F9F4F61F38E010F5F1F4F95
:101450006E012FEBC21A2EEFD20A780180E00E94B3
:101460002006F701608371838283938381E00E9469
:101470002006F7016483758386839783F8E0EF0E77
:10148000F11CEC14FD0451F7789430E020E0F801F1
:10149000C080D180E280F38044815581668177816C
:1014A000FFEFCF16DF06EF06FF0631F04F3F8FEF5D
:1014B00058076807780719F41092F006B5CFF901BC
:1014C00083E0F595E7958A95E1F7E152F94F808140
:1014D000880FC416D506E606F70610F180832F5F45
:1014E0003F4F085F1F4F2832310589F64091E306D0
:1014F0002091DF068091E006280F3327331F80916B
:10150000E106280F311D8091E206820F932F911D75
:1015100099274817190681F681E08093F0062ECFAF
:101520008160DCCF0F931F93CF93DF93C82FD62F0B
:1015300086E0C89FF0011124E559F94F11A2878D6B
:1015400090A181309105F1F058F082309105F1F1D0
:10155000039709F440C0DF91CF911F910F91089537
:101560006623C9F361E070E08C2F0E9458060E9448
:1015700088096093C3067093C4068093C506909350
:10158000C606E9CF0E9488090091C3061091C406DF
:101590002091C5063091C606AB01BC01401B510B22
:1015A000620B730B8091D5069091D606B0E0A0E057
:1015B00084179507A607B70748F462E070E08C2F00
:1015C000DF91CF911F910F910C94580663E070E06A
:1015D000D111C1CFF4CF70E060E0F1CF862F642F3E
:1015E0000C943907862F642F0C940B07862F0C94CC
:1015F000E20680E991E00895AF92BF92CF92DF9228
:10160000EF92FF920F931F93CF93DF936C017B01B7
:101610008B01040F151FEB015E01AE18BF08C01748
:10162000D10759F06991D601ED91FC910190F081BB
:10163000E02DC6011995892B79F7C501DF91CF916E
:101640001F910F91FF90EF90DF90CF90BF90AF90E0
:101650000895FC01538D448D252F30E0842F90E0B8
:10166000821B930B541710F0CF960895019708959D
:10167000FC01918D828D981761F0A28DAE0FBF2F66
:10168000B11D5D968C91928D9F5F9F73928F90E0BC
:1016900008958FEF9FEF0895FC01918D828D98172B
:1016A00031F0828DE80FF11D858D90E008958FEF68
:1016B0009FEF0895FC01918D228D892F90E0805C31
:1016C0009F4F821B91098F739927089588E494E0B6
:1016D0000E945A0B21E0892B09F420E0822F089503
:1016E00085EE94E00E945A0B21E0892B09F420E05A
:1016F000822F0895FC01A48DA80FB92FB11DA35A04
:10170000BF4F2C91848D90E001968F739927848F21
:10171000A689B7892C93A089B1898C918370806444
:101720008C93938D848D981306C00288F389E02DE5
:1017300080818F7D80830895EF92FF920F931F9396
:10174000CF93DF93EC0181E0888F9B8D8C8D981374
:101750001AC0E889F989808185FF15C09FB7F89480
:10176000EE89FF896083E889F989808183708064CC
:1017700080839FBF81E090E0DF91CF911F910F9117
:10178000FF90EF900895F62E0B8D10E00F5F1F4F26
:101790000F731127E02E8C8D8E110CC00FB607FC35
:1017A000FACFE889F989808185FFF5CFCE010E94C3
:1017B0007A0BF1CFEB8DEC0FFD2FF11DE35AFF4FAC
:1017C000F0829FB7F8940B8FEA89FB898081806251
:1017D000CFCFCF93DF93EC01888D8823B9F0AA890E
:1017E000BB89E889F9898C9185FD03C0808186FDDC
:1017F0000DC00FB607FCF7CF8C9185FFF2CF80812B
:1018000085FFEDCFCE010E947A0BE9CFDF91CF911A
:10181000089580E090E0892B29F00E94700B8111DF
:101820000E94000080E090E0892B49F080E090E089
:10183000892B29F00E94000081110E94000080E0A5
:1018400090E0892B49F080E090E0892B29F00E94FC
:10185000000081110E94000080E090E0892B29F0B7
:101860000E94660B81110C9400000895AF92BF9204
:10187000CF92DF92EF92FF920F931F93CF93DF935C
:101880006B017A01EC01C256DC4F28813CE0389FA5
:101890008001399F100D1124A0906A06B12C27FFFA
:1018A0001FC0FB011182108288818F5F888388812D
:1018B0009801280F311D87FD3A95F6012A153B0541
:1018C0001CF488818C30C4F180819181049680342D
:1018D0009C4908F473C0F60180819181049670C020
:1018E00088819801280F311D87FD3A952A153B05FF
:1018F000DCF68881A801480F511D87FD5A95FA0131
:10190000EE0FFF1FE40FF51FE652FA4F808186FFAE
:10191000CBCF8881F801E80FF11D87FDFA95CF0143
:10192000EE0FFF1FE80FF91FE652FA4F808160E0CB
:101930008F730E940B07B8CF808191812881A80105
:10194000420F511D27FD5A959A01FA01EE0FFF1F14
:10195000E20FF31FE652FA4F21813281820F931F6B
:10196000F7019183808388819801280F311D87FDBD
:101970003A95F901EE0FFF1FE20FF31FE652FA4FFF
:10198000808186FF22C08881080F111D87FD1A956E
:10199000F801EE0FFF1FE00FF11FE652FA4F8081B2
:1019A00061E08F73DF91CF911F910F91FF90EF90C6
:1019B000DF90CF90BF90AF900C940B0780E49CE930
:1019C000F701918380838FEF8883DF91CF911F91FF
:1019D0000F91FF90EF90DF90CF90BF90AF90089560
:1019E00085ED8093BC008091BC0084FDFCCF1092FB
:1019F0009703089520917303260F3327331F213255
:101A00003105ECF420919703FC0190E080E0243054
:101A100069F082E00895A09173032191AC014D5AC1
:101A20005C4FA40FB52FB11D2C930196861798F328
:101A300080917303680F6093730380E0089581E0E1
:101A4000089508958FEF9FEF08958FEF9FEF08950A
:101A50008091520390E09195819591090895CF93DB
:101A6000DF93CB01EA01642F0E94FA0CCE01DF91D3
:101A7000CF910895CF93DF931F92CDB7DEB76983DF
:101A800061E0CE0101960E94FA0C81E090E00F9097
:101A9000DF91CF910895FC01A5A1B6A18C9192A5EB
:101AA00089238C93A5A1B6A18C9191A5892B8C93A8
:101AB0000895DC019396ED91FC919497908198960E
:101AC0008C91892380830895DC019396ED91FC919C
:101AD0009497908197968C91892B80830895DC014F
:101AE0009196ED91FC919297908196968C91892395
:101AF00080830895DC019196ED91FC9192979081FD
:101B000095968C91892B80830895CF92DF92EF92E6
:101B1000FF921F93CF93DF93EC016A017B018DA9A4
:101B2000811123C08F2D9927AA27BB278EBD0DB405
:101B300007FEFDCFC701AA27BB278EBD0DB407FE48
:101B4000FDCFBB27AF2D9E2D8D2D8EBD0DB407FE75
:101B5000FDCFCEBC0DB407FEFDCFDF91CF911F911D
:101B6000FF90EF90DF90CF9008958130B1F410E2B4
:101B7000CE01F7FE0FC00E947A0DCE010E94640DC7
:101B8000CE010E94590DCC0CDD1CEE1CFF1C115027
:101B900079F7E3CF0E946F0DF0CFEF8DF8A18F2D75
:101BA0009927AA27BB278083CE010E944B0DEF8D7A
:101BB000F8A1C701AA27BB278083CE010E944B0D45
:101BC000EF8DF8A1BB27AF2D9E2D8D2D8083CE01EB
:101BD0000E944B0DEF8DF8A1C082CE01DF91CF9115
:101BE0001F91FF90EF90DF90CF900C944B0DFF92E0
:101BF0000F931F93CF93DF93EC018B018DA981117C
:101C00000EC01EBD0DB407FEFDCF0EBD0DB407FE08
:101C1000FDCFDF91CF911F910F91FF9008958130FB
:101C2000B1F490E1F92ECE0117FF0EC00E947A0D9B
:101C3000CE010E94640DCE010E94590D000F111FAC
:101C4000FA94F110F0CFE5CF0E946F0DF1CFEF8D38
:101C5000F8A11083CE010E944B0DEF8DF8A10083F7
:101C6000CE01DF91CF911F910F91FF900C944B0DFE
:101C70000F931F93CF93DF93EC01162F8DA9811142
:101C800009C06EBD0DB407FEFDCFDF91CF911F914E
:101C90000F910895813099F408E0CE0117FF0CC030
:101CA0000E947A0DCE010E94640D110FCE010E9498
:101CB000590D015091F7E9CF0E946F0DF3CFEF8DD1
:101CC000F8A16083CE01DF91CF911F910F910C9409
:101CD0004B0DCF93DF93EC01ED8DFE8D80819CA9A0
:101CE00089238083CE010E94380EED8DFE8D808188
:101CF0009BA9892B8083DF91CF9108958F929F922A
:101D0000AF92BF92CF92DF92EF92FF920F931F9309
:101D1000CF93DF93EC0189AD9AAD680F791F8BAD3E
:101D20009CAD480F591F21503109260F371F49011B
:101D3000B12CA12CCB01B0E0A0E0DC0199278827D1
:101D4000882A992AAA2ABB2A680181E0C81AD108E0
:101D5000C40ED51EF12CE12C70E060E0BA015527CD
:101D60004427C42AD52AE62AF72A6AE2CE010E942D
:101D7000690EB501A401CE010E94850D6BE2CE0172
:101D80000E94690EB701A601CE010E94850D6CE28A
:101D9000CE01DF91CF911F910F91FF90EF90DF90D7
:101DA000CF90BF90AF909F908F900C94690EFC01E4
:101DB00085A9811104C091A182A19CBD8DBD08950A
:101DC0001F93CF93DF93EC01162FE881F9810284F2
:101DD000F385E02D1995112371F06DADCE010E94B0
:101DE000690EE881F9810688F789E02DCE01DF913F
:101DF000CF911F9119946EADF1CFAF92BF92CF9258
:101E0000DF92EF92FF920F931F93CF93DF93EC013A
:101E100077FD38C088859985681779079CF557FD47
:101E200031C08A859B854817590764F569017A0195
:101E30005B01E881F9810284F385E02DCE011995DB
:101E4000E881F98102A4F3A5E02D01E010E021E092
:101E500030E0A701B501CE011995B601CE010E946F
:101E6000F70DE881F9810688F789E02DCE01DF9131
:101E7000CF911F910F91FF90EF90DF90CF90BF9087
:101E8000AF901994DF91CF911F910F91FF90EF9038
:101E9000DF90CF90BF90AF9008958F929F92AF92B6
:101EA000BF92CF92DF92EF92FF920F931F93CF9347
:101EB000DF93EC0149015701E881F98102A4F3A500
:101EC000E02D19959401D8010E942A386B017C01FC
:101ED000C114D104E104F10409F47DC08DA981117C
:101EE00015C081E0C81AD108E108F1088FEFC816C3
:101EF000D806E806F80609F46EC0BEBC0DB407FEAD
:101F0000FDCFAEBC0DB407FEFDCFEBCF813099F510
:101F100081E0C81AD108E108F1088FEFC816D80689
:101F2000E806F80609F457C00B2D18E0CE0107FFAC
:101F30001CC00E947A0DCE010E94640DCE010E9449
:101F4000590D000F115091F70A2D18E0CE0107FF2F
:101F50000FC00E947A0DCE010E94640DCE010E9436
:101F6000590D000F115091F7D3CF0E946F0DE3CFA1
:101F70000E946F0DF0CFBA1016C0CC0CDD1CEE1C09
:101F8000FF1CEF8DF8A1B08281E0C81AD108E108EA
:101F9000F1088FEFC816D806E806F806E1F0CE0182
:101FA0000E944B0DF1CF81E0C81AD108E108F10879
:101FB0008FEFC816D806E806F80669F0EF8DF8A18D
:101FC000B082CE010E944B0DEF8DF8A1A082CE0110
:101FD0000E944B0DE8CFDF91CF911F910F91FF90A1
:101FE000EF90DF90CF90BF90AF909F908F9008952B
:101FF0008F929F92AF92BF92CF92DF92EF92FF9219
:102000000F931F93CF93DF934C01EB016A015901AA
:1020100037FF07C0C9010196C80FD91FB194A19419
:10202000B108F401A085B185CA17DB070CF058C0D0
:1020300017FF07C0C8010196C80ED91E119501955A
:102040001109F40182859385C816D9060CF048C0A1
:10205000FE01EA0DFB1DAF014150510957FD40C083
:10206000B601600F711F9B012150310937FD38C047
:10207000D7FF03C05F01D0E0C0E0D7FE03C08B01F3
:10208000D12CC12C4A175B071CF05D01AC1ABD0AAC
:10209000281739071CF08C010C191D09D401ED918A
:1020A000FC910284F385E02DC40119959501A601E8
:1020B000BE01C4010E944D0FD401ED91FC91068830
:1020C000F789E02DC401DF91CF911F910F91FF900F
:1020D000EF90DF90CF90BF90AF909F908F9019942A
:1020E000DF91CF911F910F91FF90EF90DF90CF90F4
:1020F000BF90AF909F908F900895EF92FF920F93B3
:102100001F932115310529F00115110511F00E94C9
:10211000F80F1F910F91FF90EF9008958F929F926B
:10212000AF92BF92CF92DF92EF92FF920F931F93E5
:10213000CF93DF935C014B016A01E90177FD52C047
:10214000DC0118968D919C91681779070CF04AC0B4
:10215000209709F447C037FF07C0C9010196C80E90
:10216000D91ED195C195D109F50182859385C816EF
:10217000D906C4F5A6014C0F5D1F9A012150310903
:1021800037FD30C0D7FE03C0EA01D12CC12C28177F
:1021900039071CF0EC01CC19DD09D501ED91FC915A
:1021A0000284F385E02DC501199578018E0121E0A7
:1021B00030E0A601B401C5010E944D0FD501ED919B
:1021C000FC910688F789E02DC501DF91CF911F9121
:1021D0000F91FF90EF90DF90CF90BF90AF909F90C6
:1021E0008F901994DF91CF911F910F91FF90EF90F5
:1021F000DF90CF90BF90AF909F908F9008958F9277
:102200009F92AF92BF92CF92DF92EF92FF920F9385
:102210001F93CF93DF935C016B014A01E90157FDE6
:1022200052C0DC011A968D919C91481759070CF009
:102230004AC0209709F447C037FF07C0C90101967B
:10224000C80ED91ED195C195D109F501808591851A
:10225000C816D906C4F5A6014C0F5D1F9A0121507E
:10226000310937FD30C0D7FE03C0EA01D12CC12CA3
:10227000281739071CF0EC01CC19DD09D501ED91C7
:10228000FC910284F385E02DC5011995780101E0E8
:1022900010E09E01A401B601C5010E944D0FD501B9
:1022A000ED91FC910688F789E02DC501DF91CF9172
:1022B0001F910F91FF90EF90DF90CF90BF90AF9064
:1022C0009F908F901994DF91CF911F910F91FF9064
:1022D000EF90DF90CF90BF90AF909F908F90089538
:1022E000EF92FF920F931F93CF93DF9377FD32C04E
:1022F000DC011896ED91FC916E177F075CF52115B6
:10230000310541F137FF07C0F90131964E0F5F1FCC
:10231000319521953109DC011A96ED91FC914E170A
:102320005F07C4F4EA01C20FD31FDE011197B7FDA6
:1023300011C057FF03C09E0150E040E0AE17BF0739
:102340001CF09F01241B350B7801890121E030E04E
:102350000E944D0FDF91CF911F910F91FF90EF9051
:102360000895EF92FF920F931F93CF93DF9357FD42
:1023700031C0DC011A96ED91FC914E175F0754F5C0
:102380002115310539F137FF07C0F90131966E0F7C
:102390007F1F319521953109DC011896ED91FC9153
:1023A0006E177F07BCF4EB01C20FD31FDE0111973C
:1023B000B7FD10C077FF03C09E0170E060E0AE176C
:1023C000BF071CF09F01261B370B780101E010E0CE
:1023D0000E944D0FDF91CF911F910F91FF90EF90D1
:1023E00008958F929F92AF92BF92CF92DF92EF9219
:1023F000FF920F931F93CF93DF9347012115310570
:1024000009F44BC00115110509F447C037FF07C097
:10241000F90131966E0F7F1F319521953109DC014D
:102420001896AD90BC906A157B05BCF517FF07C0E8
:10243000F80131964E0F5F1F119501951109DC01CE
:102440001A96ED91FC914E175F073CF56B01C20E99
:10245000D31EE6012197D7FD20C07A01E00EF11EC0
:10246000D7011197B7FD19C077FF03C0960170E03F
:1024700060E057FF03C0870150E040E0CA15DB056C
:102480001CF09501261B370BAE17BF071CF08F0100
:10249000041B150B74010E944D0FDF91CF911F910A
:1024A0000F91FF90EF90DF90CF90BF90AF909F90F3
:1024B0008F900895EF92FF920F931F93CF93DF9326
:1024C000EC0177FD22C08885998568177907ECF4BF
:1024D00057FD1BC08A859B8548175907B4F47901BD
:1024E000E881F98102A4F3A5E02D01E010E021E0EC
:1024F00030E0CE011995B701CE01DF91CF911F9148
:102500000F91FF90EF900C94F70DDF91CF911F91F9
:102510000F91FF90EF900895CF93DF93EC010E940D
:10252000D70E8FA987FD06C0EB8DFC8D80819AA9FF
:1025300089238083DF91CF91089508958F929F9290
:10254000AF92BF92CF92DF92EF92FF920F931F93C1
:10255000CF93DF93EC01CB010196FB01F490FA9449
:10256000FFEFFF1609F467C0FC0114916C01F2E063
:10257000CF0ED11CFC013196E4900E2D0F77CE01C9
:102580000E94D70E8FA987FD06C0EB8DFC8D808140
:102590009AA989238083ED8DFE8D80819CA9892352
:1025A0008083612FCE010E94380EED8DFE8D8081DB
:1025B0009BA9892B8083F601912C812C10E0801639
:1025C0009106D4F48DA95F01823071F488A9882323
:1025D00059F0619171915F01CE010E94F70D8FEF6B
:1025E000881A980AF501EBCF2FEFA21AB20A64916C
:1025F000CE010E94380EF3CF8FA987FD06C0EB8D68
:10260000FC8D808199A9892B8083C601800F911F41
:10261000E7FEA5CF8C010F5F1F4FFC01649170E0B6
:102620006F3F710511F464EF71E090E080E00E946B
:102630005509C80194CFDF91CF911F910F91FF9061
:10264000EF90DF90CF90BF90AF909F908F900895C4
:102650000F931F93CF93DF93EC018B010E94D70E52
:102660008FA987FD06C0EB8DFC8D80819AA98923F7
:102670008083ED8DFE8D80819CA98923808366E314
:10268000CE010E94380EED8DFE8D80819BA9892B95
:1026900080838DA9F801823091F06081CE010E9483
:1026A000380E8FA987FD06C0EB8DFC8D808199A91E
:1026B000892B8083DF91CF911F910F91089588A975
:1026C000882359F360817181CE010E94F70DE9CF13
:1026D000CF93DF931F92CDB7DEB7FC0119826370F1
:1026E000668BDC01AD5BBF4F2C9130E011968C9175
:1026F00090E0623031F06330C9F0613081F040EC3D
:10270000498332AF21AF94AF83AFBE016F5F7F4F7C
:10271000CF010E9428130F90DF91CF91089540EAD6
:10272000498334AF23AF92AF81AFEFCF40E6F8CF0C
:10273000CF93DF931F92CDB7DEB7FC011982637090
:10274000668BDC01AA5BBF4F8C91982F9B7FAF01FA
:102750004C5B5F4F913031F493E0623008F091E0D0
:10276000DA019C939F012D5B3F4F623009F44CC00E
:10277000633009F45BC0613069F1823021F098EC7C
:10278000843009F046C090EC99838130D1F480E820
:1027900090E09387828791878087D9018C9190E020
:1027A00092AF81AFDA018C9190E094AF83AFBE011C
:1027B0006F5F7F4FCF010E9428130F90DF91CF9161
:1027C0000895843051F580EA90E09387828780E510
:1027D00090E0E1CF823019F098EA843071F590EA08
:1027E00099838130B1F580E890E091878087938765
:1027F0008287D9018C9190E094AF83AFDA018C91FC
:1028000090E092AF81AFD3CF823049F08430D9F2DB
:1028100098E09983813009F4BACF8630A1F280EA3A
:1028200090E09387828780E890E0B5CF823019F0FE
:1028300098E6843011F490E6D3CF9983813099F2F1
:10284000863051F480EA90E09187808780E590E0BF
:10285000CECF8430B9F3F4CF80EA90E091878087BF
:1028600080E890E0C4CFFC0187A987FD06C0A38D56
:10287000B48D9C9181A9892B8C9308950895FC01B6
:102880006370668B8481958126813781613039F050
:10289000633029F0918780873387228708953187B5
:1028A00020879387828708952F923F924F925F925D
:1028B0006F927F928F929F92AF92BF92CF92DF9250
:1028C000EF92FF920F931F93CF93DF93CDB7DEB7B5
:1028D0006A970FB6F894DEBF0FBECDBF9A8F898F6F
:1028E0007A8369834A01D22E18870F833701BC2C63
:1028F000DC0159962D913C915A972115310509F02B
:1029000015C118968D919C911997681779070CF04D
:10291000D7C11A968D919C91481759070CF0D0C1D8
:102920004C2C512CB6E0CB9E600D711D11247C8780
:102930006B87161617060CF0C3C1EA2DF0E0FA8774
:10294000E98793E0EE0FFF1F9A95E1F7F88BEF8789
:10295000CF01840F951F181619060CF0B1C1A98D6F
:10296000BA8D58968C91811104C0BFEABD1508F448
:10297000D394A98DBA8DED91FC9111970284F385C2
:10298000E02DCD011995B5E0DB9EC0011124E98150
:10299000FA81FC83EB83312C212C9C01225F3C4F7C
:1029A000388F2F8B4A2D50E05E8B4D8BEF89F88D41
:1029B000E20DF31D44919E828D82D12CC12C698140
:1029C0007A81620D731D7A8B698B842F90E09C8BCA
:1029D0008B8BE98DFA8DA081B18140FF82C0F1E03F
:1029E000BF126FC0AF126DC01C96ED91FC912F818C
:1029F0003885A4014C0D5D1D69897A89898D9A8D70
:102A00001995EB89FC89F595E7954E2F5FEFC51A6F
:102A1000D50A6D817E818D899E89680F791F7E839D
:102A20006D8398E0C916D10481F6AFEF2A1A3A0AED
:102A3000EB81FC81E40DF51DFC83EB83F5E02F16A3
:102A4000310409F0B3CF2F81388526153705B9F049
:102A5000A98DBA8DED91FC91B1E0BB1257C0AB12BC
:102A600055C069817A816B5F7F4F0088F189E02DC5
:102A7000830128E030E0A401898D9A8D1995A98DF4
:102A8000BA8DED91FC9111970688F789E02DCD0163
:102A90006A960FB6F894DEBF0FBECDBFDF91CF911F
:102AA0001F910F91FF90EF90DF90CF90BF90AF906C
:102AB0009F908F907F906F905F904F903F902F905E
:102AC00019941E96ED91FC91EF80F88409851A8582
:102AD00092014D815E816B817C81898D9A8D1995E2
:102AE00090CF2F8138852615370509F48ACF31E03C
:102AF000B31207C0A31205C01C96ED91FC9193017F
:102B000078CF1E96ED91FC917301E0CF6B857C85AB
:102B1000641975090684F785E02D73010F851889FE
:102B20009201A401898D9A8D1995A9CFF901349646
:102B30009491329745915491D91AB7E0DB9E400D9C
:102B4000511D1124F901259134913C8B2B8BFA01F5
:102B500025903490FA013296749031963491398BE5
:102B6000329664903196449041E04C1518F04A1525
:102B700008F07FC0662D062C000C770B7C836B83DE
:102B8000842D042C000C990B9E838D83A98DBA8D06
:102B9000ED91FC9111970284F385E02DCD011995FB
:102BA000512CD12CC12CEA2DF0E0FA87E9872B2D8E
:102BB00030E03C872B87A401440D511D47FC5A95FA
:102BC000588F4F8B69817A81660D711D67FC7A95EC
:102BD0007E876D877989C71608F051CF2C2D30E09C
:102BE0004D815E81420F531FA985BA854A9FC0015E
:102BF0004B9F900D5A9F900D1124FC01E80DF91D7B
:102C0000F88BEF87852D612C4F89588D420F531F0C
:102C10005E8B4D8B671408F050C044244394480EDB
:102C2000877041F4C1010196EB89FC89E20DF31D27
:102C3000D4901C01D7FE19C0A98DBA8DED91FC91DD
:102C4000662D70E0B1E0BB1219C0AB1217C02D8524
:102C50003E85620F731F0484F585E02D2F81388532
:102C60004D895E89898D9A8D1995DD0C6394842D2B
:102C7000D1CF1E821D821C821B8288CF4B815C813A
:102C8000640F751FAB85BC856A9FC0016B9F900D5B
:102C90007A9F900D112469817A81680F791F0684CB
:102CA000F785E02DEF80F88409851A859D014F8511
:102CB0005889898D9A8D1995D8CF570CC3948ACF8E
:102CC0006A960FB6F894DEBF0FBECDBFDF91CF91ED
:102CD0001F910F91FF90EF90DF90CF90BF90AF903A
:102CE0009F908F907F906F905F904F903F902F902C
:102CF00008958F929F92AF92CF92EF92FF920F938F
:102D00001F93CF93DF93EC01262F898D9A8D009727
:102D100009F051C06A30D1F41D861C868D8948E0C7
:102D2000849F900111248E859F85820F931F9F871A
:102D30008E8781E090E0DF91CF911F910F91FF90FE
:102D4000EF90CF90AF909F908F9008956D3089F362
:102D5000CC88AD888F898823C1F08C859D8536E02D
:102D6000C39E800D911D1124488559854817590728
:102D700064F44E855F851D861C8638E0A39EC001E5
:102D80001124840F951F9F878E87EA88FB88088906
:102D900019894E855F856C857D85CE010E9454140E
:102DA0002C898C859D8546E0249F800D911D1124E2
:102DB0009D878C87BECF6A3069F41D861C86FC0116
:102DC0003896E4912D898E859F85E29F800D911D17
:102DD0001124ADCF6D3009F4ACCFFC0134963491A1
:102DE000631708F4A6CF3296E491E61708F4A1CF52
:102DF000FC01329685909490462F431B342F47E078
:102E0000349F800C911C1124F40132963491319638
:102E1000E4913323A9F1EE2399F1CC88F40135969E
:102E2000E491AD884F89442301F10E2E000CFF0B75
:102E3000E30FF11DCE9EA001CF9E500D11246C8595
:102E40007D85460F571F68857985641775076CF473
:102E50004E855F851D861C86FC013896E491AE9EEA
:102E6000400D511D11245F874E87EA88FB88088931
:102E700019894E855F856C857D85CE010E9454142D
:102E8000F4013496E4912C898C859D85E29F800D18
:102E9000911D11248DCF6F927F928F929F92AF924E
:102EA000BF92CF92DF92EF92FF920F931F93CF9337
:102EB000DF93EC016B015A0139014801E881F98186
:102EC0000284F385E02D1995E881F9810288F38960
:102ED000E02D87019301A501B601CE011995A50149
:102EE000480D591D41505109E881F9810288F38943
:102EF000E02D9301B601CE011995E881F981008892
:102F0000F189E02D9401A501B601CE011995C60CF9
:102F1000D71CB60161507109E881F9810088F189F7
:102F2000E02D9401A501CE011995E881F98106886B
:102F3000F789E02DCE01DF91CF911F910F91FF9086
:102F4000EF90DF90CF90BF90AF909F908F907F9049
:102F50006F9019946F927F928F929F92AF92BF92CF
:102F6000CF92DF92EF92FF920F931F93CF93DF9355
:102F70005C01EB016A01490138018701DC01ED9137
:102F8000FC916217730719F5641675062CF0962DDF
:102F9000872D3A01C92ED82E9601261937092F5FA1
:102FA0003F4F048CF58DE02DA301BE01C50119959D
:102FB000DF91CF911F910F91FF90EF90DF90CF9015
:102FC000BF90AF909F908F907F906F90089546151F
:102FD000570591F42617370724F0892D4B01C22F8E
:102FE000D82F9E01281939092F5F3F4F068CF78D86
:102FF000E02DA601B401DACF0284F385E02D199506
:10300000D501ED91FC910488F589E02D83019401AF
:10301000A601BE01C5011995D501ED91FC91068867
:10302000F789E02DC501DF91CF911F910F91FF909E
:10303000EF90DF90CF90BF90AF909F908F907F9058
:103040006F901994EF92FF920F931F93DC011A96E1
:103050000D911C911B9718962D913C911997ED910C
:10306000FC9100A0F1A1E02D7B0150E040E070E078
:1030700060E019951F910F91FF90EF9008954F9286
:103080005F926F927F928F929F92AF92BF92CF92F8
:10309000DF92EF92FF920F931F93CF93DF936C0118
:1030A0002B015A0139014801DC01ED91FC910284A8
:1030B000F385E02D1995E201640C751CD601ED91A4
:1030C000FC91C615D7055CF40088F189E02D8701D5
:1030D0009401A501BE01C60119952196EFCF06887E
:1030E000F789E02DC601DF91CF911F910F91FF90DD
:1030F000EF90DF90CF90BF90AF909F908F907F9098
:103100006F905F904F9019948F929F92AF92BF9261
:10311000CF92DF92EF92FF920F931F93CF93DF93A3
:10312000EC015B014A016901E881F9810284F385C0
:10313000E02D199595012C0D3D1D21503109E88197
:10314000F9810488F589E02D78018401A401B50195
:10315000CE011995E881F9810688F789E02DCE0125
:10316000DF91CF911F910F91FF90EF90DF90CF9063
:10317000BF90AF909F908F9019948F929F92AF9233
:10318000BF92CF92DF92EF92FF920F931F93CF9354
:10319000DF93EC015B014A0169017801E881F98163
:1031A0000284F385E02D1995C80CD91C86010150C5
:1031B0001109E881F9810488F589E02D9501A401C0
:1031C000B501CE011995E881F9810688F789E02DCE
:1031D000CE01DF91CF911F910F91FF90EF90DF9083
:1031E000CF90BF90AF909F908F901994EF92FF92E5
:1031F0000F931F93DC01ED91FC9100A0F1A1E02D54
:1032000019951F910F91FF90EF9008950F931F93C1
:10321000DC01ED91FC91068CF78DE02D19951F9145
:103220000F9108950F931F93DC01ED91FC91048C95
:10323000F58DE02D19951F910F910895DC01ED9109
:10324000FC910084F185E02D19942F923F924F92CA
:103250005F926F927F928F929F92AF92BF92CF9226
:10326000DF92EF92FF920F931F93CF93DF9300D0E3
:1032700000D0CDB7DEB73C016A013E832D83FC82CE
:10328000EB825801A41AB50AB7FE03C0B194A19409
:10329000B1088D809E80861A970A97FE03C091948C
:1032A000819491088A149B045CF0902F812F0D81EA
:1032B0001E819D838E839C2D8D2D6B01692F782F10
:1032C0000C151D055CF09D818E817E836D83692FB9
:1032D000782F902F812F8601C92ED82E1601201A03
:1032E000310A2B012D813E81421A530A57FE03C039
:1032F000519441945108710137FE03C03FEFE31A26
:10330000F30AF594E7948D819E81861797075CF503
:10331000A1E0B0E0BA83A983C016D1064CF1D30175
:10332000ED91FC910484F585E02D2B813C81A80171
:103330006D817E818A149B041CF04D815E81B801F1
:10334000C3011995E418F508F7FE0AC02D813E81E6
:1033500089819A81280F391F3E832D83E20CF31C4B
:103360000F5F1F4FD9CF2FEF3FEF3A832983D4CF81
:1033700026960FB6F894DEBF0FBECDBFDF91CF917A
:103380001F910F91FF90EF90DF90CF90BF90AF9083
:103390009F908F907F906F905F904F903F902F9075
:1033A0000895089590E080E00895CF93DF9300D0D2
:1033B00000D0CDB7DEB762E087E20E94390787E22E
:1033C0000E94E206892BC9F082E090E09A8389830B
:1033D0001C821B821E821D8229813A814B815C8165
:1033E0006D817E8180E090E026960FB6F894DEBF76
:1033F0000FBECDBFDF91CF91089587E20E94E20614
:10340000892B49F483E090E09A83898381E090E0FE
:103410009C838B83DFCFE8CF0F931F93CF93DF93F2
:10342000209151032F5F322F37703093510320FFCB
:103430002BC020E831FD2064347009F02062205F49
:10344000FC01EC01239600E011E06485662329F07D
:1034500070E0C8010E940E386F5F6187322F369F7F
:10346000030E30E0311D1124311110C01682662385
:1034700011F0615061873196EC17FD0731F7DF914C
:10348000CF911F910F91089520E0D4CF3150368312
:10349000EECF4F925F927F928F929F92AF92BF92A8
:1034A000CF92DF92EF92FF920F931F93CF93DF9310
:1034B0002C01EB010E943009F20127853089621B43
:1034C000730B6A307105B0F3F8948A819B811816EA
:1034D00019060CF0CDC1E881F98162B1862E68949D
:1034E00085F832B13F7D32B9DA848F812D2D281BCA
:1034F000822F2F834F85042E000C550BAA81BB8190
:103500007D85FC84EE847F5FF394E3949E819884B0
:10351000B984AB841181C12C6C2D0C2D2C2D2181F3
:10352000112788942111280F08F42FEF8195889492
:1035300070FD120F1795889471FD120F17958894DE
:1035400072FD120F1795889473FD120F17958894CA
:1035500074FD120F1795889475FD120F17958894B6
:1035600076FD120F1795889477FD120F17958894A2
:10357000622F7111612F8D0D162F002C82B800C0A3
:1035800017FF32B920816627889400C000C0002C44
:1035900032B92111290F00C0002C82B800C016FFDB
:1035A00032B908F42FEF9195889400C000C0002C28
:1035B00032B9F0FC620F00C0002C82B800C015FFC9
:1035C00032B967958894F1FC620F00C000C0002CEE
:1035D00032B96795889400C0002C82B800C014FFEF
:1035E00032B9F2FC620F6795889400C000C0002CCD
:1035F00032B9F3FC620F00C0002C82B800C013FF88
:1036000032B967958894F4FC620F00C000C0002CAA
:1036100032B96795889400C0002C82B800C012FFB0
:1036200032B9F5FC620F6795889400C000C0002C89
:1036300032B9F6FC620F00C0002C82B800C011FF46
:1036400032B967958894F7FC620F00C000C0002C67
:1036500032B96795889400C0002C82B800C010FF72
:1036600032B9122FF110162F9B0D00C000C0002C94
:1036700032B900C000C0002C82B800C017FF32B9B8
:1036800022816627889400C000C0002C32B9211125
:10369000290D00C0002C82B800C016FF32B908F412
:1036A0002FEFE40FF51F00C000C0002C32B9E0FC82
:1036B000620F00C0002C82B800C015FF32B96795B8
:1036C0008894E1FC620F00C000C0002C32B96795FD
:1036D000889400C0002C82B800C014FF32B9E2FC0C
:1036E000620F6795889400C000C0002C32B9E3FCDB
:1036F000620F00C0002C82B800C013FF32B967957A
:103700008894E4FC620F00C000C0002C32B96795B9
:10371000889400C0002C82B800C012FF32B9E5FCCA
:10372000620F6795889400C000C0002C32B9E6FC97
:10373000620F00C0002C82B800C011FF32B967953B
:103740008894E7FC620F00C000C0002C32B9679576
:10375000889400C0002C82B800C010FF32B9122F2C
:10376000E110162F919400C000C0002C32B99A0CC1
:1037700000C000C082B800C017FF32B9218166279F
:10378000889400C000C0002C32B92111280F00C05D
:10379000002C82B800C016FF32B908F42FEF8195D3
:1037A000889400C000C0002C32B970FD620F00C0C8
:1037B000002C82B800C015FF32B96795889471FD5E
:1037C000620F00C000C0002C32B96795889400C019
:1037D000002C82B800C014FF32B972FD620F6795E9
:1037E000889400C000C0002C32B973FD620F00C085
:1037F000002C82B800C013FF32B96795889474FD1D
:10380000620F00C000C0002C32B96795889400C0D8
:10381000002C82B800C012FF32B975FD620F6795A7
:10382000889400C000C0002C32B976FD620F00C041
:10383000002C82B800C011FF32B96795889477FDDB
:10384000620F00C000C0002C32B96795889400C098
:10385000002C82B800C010FF32B9122F7111162F40
:103860008D0D00C000C0002C32B9119709F086CE32
:103870004A815B8120EE31E0DA010E943238DC01BE
:10388000CB01F4E0B695A79597958795FA95D1F772
:1038900030E020E0B901EAE94E9F040E611D5E9F11
:1038A000600D711D1124650F711D860F971FA11DDD
:1038B000B11D893E43E09407A105B10508F434C069
:1038C000885E9340A109B10942E0B695A795979506
:1038D00087954A95D1F747E0849F080E211D949F54
:1038E000200D311D1124290F311D6091500370E00E
:1038F000860F971F820F931F4091400450914104FF
:103900006091420470914304292F3327420F531FC3
:10391000611D711D40934004509341046093420423
:10392000709343048093500378940E943009F2010D
:10393000708B6787DF91CF911F910F91FF90EF9070
:10394000DF90CF90BF90AF909F908F907F905F90CF
:103950004F9008950D9A08956F927F928F92CF9213
:10396000DF92EF92FF920F931F93CF93DF93CDB728
:10397000DEB762970FB6F894DEBF0FBECDBF6C0105
:103980007A013801822EDC011C962C91CA0157FF66
:1039900004C088279927841B950B7A8369839C83AD
:1039A0008B839E838D836D867E868F86213049F53D
:1039B000CE0101960E940C1A83E0888B1A8A198A1C
:1039C000F7FE02C08DEF888BD601ED91FC91048447
:1039D000F585E02DBE016F5F7F4FC6011995629698
:1039E0000FB6F894DEBF0FBECDBFDF91CF911F9110
:1039F0000F91FF90EF90DF90CF908F907F906F901E
:103A000008951C861B861A86198618861F82D4CFB5
:103A1000EF92FF920F931F93CF93DF93CDB7DEB753
:103A200062970FB6F894DEBF0FBECDBF7C01DC01FC
:103A30001C968C917A8369835C834B835E834D8370
:103A40000D871E872F878130F9F4CE0101960E94E1
:103A50000C1A188A1A8A198AD701ED91FC910484EC
:103A6000F585E02DBE016F5F7F4FC7011995629606
:103A70000FB6F894DEBF0FBECDBFDF91CF911F917F
:103A80000F91FF90EF9008951C861B861A86198669
:103A900018861F82DECF90E080E00895FC018585C6
:103AA000968508950F931F93CF93DF9300D0CDB7E2
:103AB000DEB7AB0119821A821B82DC01ED91FC9109
:103AC0000190F081E02D00E010E020E0BE016F5F8A
:103AD0007F4F19950F900F900F90DF91CF911F910D
:103AE0000F91089560E089E10E940B0761E08EE18B
:103AF0000E940B0760E08FE10C940B0790E080E0E0
:103B00000C941D058F929F92AF92BF92CF92DF923D
:103B1000EF92FF920F931F93CF93DF93D0E0C0E01B
:103B2000082F10E06B01770FEE08FF08C017D107D0
:103B300044F560E082E40E940B070E9488094B0173
:103B40005C010E948809681979098A099B096C152A
:103B50007D058E059F05A8F361E082E40E940B07B6
:103B60000E9488094B015C010E9488096819790943
:103B70008A099B096C157D058E059F05A8F3219682
:103B8000D5CFDF91CF911F910F91FF90EF90DF90F4
:103B9000CF90BF90AF909F908F900895CF93DF9379
:103BA000D62FC42F682F70E08CE20E9475076D2F0E
:103BB00070E08DE20E9475076C2F70E08EE2DF915D
:103BC000CF910C9475078F929F92AF92BF92CF9234
:103BD000DF92EF92FF925C010E9488096B017C01E9
:103BE0008091000290910102AB2809F092C00197E8
:103BF00009F023C110920102109200020E9488096C
:103C00006C197D098E099F09613772408105910504
:103C100008F013C10E94721D61E08EE30E940B0741
:103C200060E08AE20E940B0760E08FE30E940B07CE
:103C300060E080E40E940B070E9488094B015C0150
:103C40000E948809681979098A099B0965307105FC
:103C500081059105A8F360E08EE30E940B0761E007
:103C60008AE20E940B0760E08FE30E940B0760E08E
:103C700080E40E940B070E9488094B015C010E94AE
:103C80008809681979098A099B09653071058105D8
:103C90009105A8F360E08EE30E940B0760E08AE2E2
:103CA0000E940B0761E08FE30E940B0760E080E455
:103CB0000E940B070E9488094B015C010E94880941
:103CC000681979098A099B09653071058105910593
:103CD000A8F360E08EE30E940B0760E08AE20E9496
:103CE0000B0760E08FE30E940B0761E080E40E9415
:103CF0000B070E9488094B015C010E948809681922
:103D000079098A099B096530710581059105A8F338
:103D100075CF892B09F091C081E090E0909301026A
:103D2000809300020E9488096C197D098E099F0901
:103D3000613772408105910508F07FC00E94721DB5
:103D400060E08EE30E940B0760E08AE20E940B07AE
:103D500061E08FE30E940B0761E080E40E940B07A3
:103D60000E9488094B015C010E9488096819790941
:103D70008A099B096530710581059105A8F360E00A
:103D80008EE30E940B0761E08AE20E940B0761E06C
:103D90008FE30E940B0760E080E40E940B070E9403
:103DA00088094B015C010E948809681979098A0910
:103DB0009B096530710581059105A8F361E08EE3EB
:103DC0000E940B0761E08AE20E940B0760E08FE32C
:103DD0000E940B0760E080E40E940B070E948809A4
:103DE0004B015C010E948809681979098A099B09BD
:103DF0006530710581059105A8F361E08EE30E94AD
:103E00000B0760E08AE20E940B0760E08FE30E94EC
:103E10000B0761E080E40E940B070E9488094B01B8
:103E20005C010E948809681979098A099B09653033
:103E3000710581059105A8F375CFFF90EF90DF9094
:103E4000CF90BF90AF909F908F900895CF93DF93C6
:103E500000D000D0CDB7DEB70E94D51929833A83B0
:103E60004B835C838B819C8129813A81233031058E
:103E700070F0892B61F087E060E026960FB6F89429
:103E8000DEBF0FBECDBFDF91CF910C940B078AE050
:103E9000F3CF0F931F93CF93DF931F92CDB7DEB76E
:103EA0008C01DC01ED91FC9100A4F1A5E02D40E036
:103EB00050E0BA0119956AEE78E0C8010E949E129E
:103EC0006DED78E0C8010E949E1262EB78E0C801B7
:103ED0000E949E1280EC8983BE016F5F7F4FC801F4
:103EE0000E942813F801EA5BFF4F82E08083D8012B
:103EF000ED91FC91008CF18DE02D60E0C8011995E9
:103F00000F90DF91CF911F910F910895FB010190C8
:103F10000020E9F73197AF01461B570BDC01ED910B
:103F2000FC910280F381E02D19948F929F92AF92C1
:103F3000BF92EF92FF920F931F93CF93DF93CDB772
:103F4000DEB7A1970FB6F894DEBF0FBECDBF7C01E0
:103F5000FA01CB0119A2223008F42AE08E010F5D8C
:103F60001F4F822E912CB12CA12CBF01A5019401D1
:103F70000E94B236F901CA016A300CF5605DD801C1
:103F80006E938D01232B242B252B79F790E080E075
:103F9000109721F0BD01C7010E94861FA1960FB6A0
:103FA000F894DEBF0FBECDBFDF91CF911F910F916F
:103FB000FF90EF90BF90AF909F908F900895695CB5
:103FC000DECFCF92DF92EF92FF92CF93DF936C011F
:103FD000990FEE08FF08F7FE1BC06DE280E995E03F
:103FE0000E947916EC0144275527BA014C195D0946
:103FF0006E097F092AE080E995E00E94951F8C0FE9
:104000009D1FDF91CF91FF90EF90DF90CF900895AB
:104010002AE0B701A60180E995E0DF91CF91FF90FA
:10402000EF90DF90CF900C94951F0F931F93CF9339
:10403000DF93EC010E94861F8C016DEC72E0CE01D3
:104040000E94861F800F911FDF91CF911F910F91CA
:104050000895CF92DF92EF92FF920F931F93CF9329
:10406000DF93EC016A017B01C114D104E104F10486
:1040700039F4C12C48E4D42E48EEE42EFF24F39406
:10408000FE01FF96C082D182E282F38281E28DAF8F
:1040900080E28EAF369610818FA987FD07C061E060
:1040A0000E94390761E08FA90E940B0761E088AD8B
:1040B0000E94390761E088AD0E940B078DA981112C
:1040C00082C040E052E16AE770E0C416D506E60619
:1040D000F70640F476956795579547958F5F86303C
:1040E000A1F787E0212F2C702065982F9695922BB1
:1040F00099A3809581708AA3812F90E0B0E0A0E021
:104100008BA39CA3ADA3BEA31FB7F89480919D037E
:10411000811127C0EAE5F9E08491E0EBF9E09491A0
:10412000E82FF0E0EE0FFF1FE25FF74FA591B4918B
:10413000EC91E92321F461E085E30E940B0761E043
:1041400085E30E9439078CB580618CBD8CB5806495
:104150008CBD61E084E30E94390761E083E30E9443
:10416000390780919D038F5F80939D031FBF8EA9A8
:1041700087FD75C061E00E94390761E08EA90E9449
:104180000B0764E670E080E090E00E94550960E073
:104190008EA90E940B0764E670E080E090E00E9428
:1041A000550961E08EA90E940B0768EC70E080E081
:1041B00090E0DF91CF911F910F91FF90EF90DF90F2
:1041C000CF900C94550905E219E0F12C8130B9F437
:1041D00061E08AA50E94390760E08AA50E940B076A
:1041E00061E08CA50E94390760E08CA50E940B0756
:1041F0008BA587FDBCCF60E00E943907B8CFF801DE
:104200008491E82FF0E0EE0FFF1FE856F74F8591FD
:1042100094912F8D38A12817390741F461E08F2D33
:104220000E94390760E08F2D0E940B07F3940F5F07
:104230001F4FF6E5FF12E3CF61E08EA50E9439071C
:1042400061E08EA50E940B078FA587FD90CF61E0EE
:104250000E94390761E08FA50E940B0788CFDF918C
:10426000CF911F910F91FF90EF90DF90CF90089525
:10427000CF93DF93EC0188819981009711F00E9420
:10428000E938198218821D821C821B821A82DF91F2
:10429000CF910895FC0180819181009711F00C94D9
:1042A000E93808950E94533A0F931F93CF93DF93F9
:1042B000EC0188819981009759F02A813B8126176A
:1042C000370730F081E0DF91CF911F910F91089572
:1042D0008B016F5F7F4F0E947239009759F099836D
:1042E00088831B830A832C813D81232B59F7FC0192
:1042F0001082E8CF80E0E7CFEF92FF920F931F93F9
:10430000CF93DF936115710541F480E0DF91CF9188
:104310001F910F91FF90EF90089541155105B1F055
:104320007B01EC010C811D81040F151FB8010E9457
:104330005421882351F3288139818C819D81B701D3
:10434000820F931F0E94613A1D830C8381E0DECFB0
:10435000CF93DF93EC01FB01448155816081718132
:104360000E947C21811103C0CE010E943821CE0120
:10437000DF91CF910895EF92FF920F931F93CF9308
:10438000DF93EC017B018A01BA010E945421811163
:104390000BC0CE010E943821CE01DF91CF911F9139
:1043A0000F91FF90EF9008951D830C83B7018881D2
:1043B00099810E94613AF0CFEF92FF920F931F9381
:1043C000CF93DF93CDB7DEB761970FB6F894DEBF1A
:1043D0000FBECDBF8C01CB01F80111821082138278
:1043E0001282158214824AE09E012F5F3F4F7901AD
:1043F000B9010E94E132F70101900020E9F73197FD
:10440000AF014E195F09B701C8010E94BB21619637
:104410000FB6F894DEBF0FBECDBFDF91CF911F91D5
:104420000F91FF90EF900895CF93DF931F921F920B
:10443000CDB7DEB7FC011182108213821282158281
:1044400014822EE229831A82BE016F5F7F4FFB0127
:1044500001900020E9F73197AF01461B570B0E94EE
:10446000BB210F900F90DF91CF9108951F920F9273
:104470000FB60F9211242F933F938F939F93AF9377
:10448000BF938091400490914104A0914204B09167
:10449000430430913F0423E0230F2D3768F126E8D1
:1044A000230F0296A11DB11D20933F048093400469
:1044B00090934104A0934204B09343048091440438
:1044C00090914504A0914604B09147040196A11D26
:1044D000B11D8093440490934504A0934604B09387
:1044E0004704BF91AF919F918F913F912F910F9072
:1044F0000FBE0F901F9018950196A11DB11DD4CF2E
:104500001F920F920FB60F9211240BB60F922F939A
:104510003F934F935F936F937F938F939F93AF934B
:10452000BF93EF93FF9388E494E00E947A0BFF918E
:10453000EF91BF91AF919F918F917F916F915F911B
:104540004F913F912F910F900BBE0F900FBE0F9088
:104550001F9018951F920F920FB60F9211240BB651
:104560000F922F938F939F93EF93FF93E0915804B3
:10457000F09159048081E0915E04F0915F0482FD26
:104580001DC09081809161048F5F8F7320916204C0
:10459000821741F0E0916104F0E0E85BFB4F958FFA
:1045A00080936104FF91EF919F918F912F910F90D4
:1045B0000BBE0F900FBE0F901F9018958081F2CF09
:1045C0001F920F920FB60F9211240BB60F922F93DA
:1045D0003F934F935F936F937F938F939F93AF938B
:1045E000BF93EF93FF9385EE94E00E947A0BFF91C7
:1045F000EF91BF91AF919F918F917F916F915F915B
:104600004F913F912F910F900BBE0F900FBE0F90C7
:104610001F9018951F920F920FB60F9211240BB690
:104620000F922F938F939F93EF93FF93E091F50455
:10463000F091F6048081E091FB04F091FC0482FD8E
:104640001DC090818091FE048F5F8F732091FF04C5
:10465000821741F0E091FE04F0E0EB51FB4F958FA3
:104660008093FE04FF91EF919F918F912F910F9076
:104670000BBE0F900FBE0F901F9018958081F2CF48
:104680001F920F920FB60F9211240BB60F922F9319
:104690003F934F935F936F937F938F939F93AF93CA
:1046A000BF93EF93FF9348E251E064E271E090E042
:1046B00080E00E94360CFF91EF91BF91AF919F91E6
:1046C0008F917F916F915F914F913F912F910F90BB
:1046D0000BBE0F900FBE0F901F9018951F920F9258
:1046E0000FB60F9211240BB60F922F933F934F9357
:1046F0005F936F937F938F939F93AF93BF93EF934A
:10470000FF9348EA50E064EA70E083E090E00E94A2
:10471000360CFF91EF91BF91AF919F918F917F9157
:104720006F915F914F913F912F910F900BBE0F9022
:104730000FBE0F901F9018951F920F920FB60F92F9
:1047400011240BB60F922F933F934F935F936F9368
:104750007F938F939F93AF93BF93EF93FF9348E91A
:1047600050E064E970E082E090E00E94360CFF9136
:10477000EF91BF91AF919F918F917F916F915F91D9
:104780004F913F912F910F900BBE0F900FBE0F9046
:104790001F9018951F920F920FB60F9211240BB60F
:1047A0000F922F933F934F935F936F937F938F93CA
:1047B0009F93AF93BF93EF93FF9348E850E064E873
:1047C00070E081E090E00E94360CFF91EF91BF9184
:1047D000AF919F918F917F916F915F914F913F9199
:1047E0002F910F900BBE0F900FBE0F901F9018953A
:1047F0001F920F920FB60F9211240BB60F922F93A8
:104800003F934F935F936F937F938F939F93AF9358
:10481000BF93EF93FF938091B900887F803609F4AE
:104820004DC008F040C0883209F4A7C028F5803197
:1048300009F49BC0C8F4882309F4F1C0883009F456
:1048400094C0FF91EF91BF91AF919F918F917F9114
:104850006F915F914F913F912F910F900BBE0F90F1
:104860000FBE0F901F901895883109F486C08032D2
:1048700041F78093960314C0803409F497C040F444
:104880008033B9F38833E9F68093960385ECA8C0AA
:10489000803509F481C0883509F490C0883489F6E0
:1048A0000E94F00CCECF883909F486C038F58837DD
:1048B00029F050F4883611F0803719F683E08093A0
:1048C00097031092950355C0883809F475C0803954
:1048D00019F0803809F0B5CF80919503803208F047
:1048E0006BC0E091950381E08E0F809395038091DA
:1048F000BB00F0E0EB58FC4F80833BC0803B39F0BD
:10490000D0F4803A09F471C0883A09F09ACF84E073
:10491000809397031092740310927303F0E0E0E029
:1049200019958091730381110FC081E08093730307
:104930001092530309C0803C09F4A8CF883C09F4C5
:10494000A5CF883B09F07DCFE091740381E08E0F05
:1049500080937403F0E0ED5AFC4F80818093BB009C
:10496000909174038091730325C080919C03809380
:10497000BB0085EC8093BC0064CF90919B03809139
:104980009A03981728F5E0919B0381E08E0F80939E
:104990009B03F0E08081EBCFE0919B0381E08E0FE1
:1049A00080939B038091BB00F0E0808390919B03F8
:1049B00080919A039817E8F285E8DCCFE0919B0399
:1049C00081E08E0F80939B038091BB00F0E0808399
:1049D00080919903811164CF81E08093980384EAE8
:1049E0008093BC00109297032CCF85EC8093BC0081
:1049F0001092970380919503803230F4E0919503F3
:104A0000F0E0EB58FC4F10826091950370E085E771
:104A100093E0F0E0E0E019951092950312CF109228
:104A200096033ECFCF92DF92EF92FF920F931F93A8
:104A3000E82FF92F05C0015011092109310961F151
:104A4000908196239417B9F305C0015011092109EB
:104A5000310911F1908196239413F7CFC12CD12CF9
:104A6000E12CF12C0AC08FEFC81AD80AE80AF80A1C
:104A70000C151D052E053F0579F0808186238417CE
:104A800091F36C2D7D2D8E2D9F2D1F910F91FF90F9
:104A9000EF90DF90CF90089560E070E080E090E0CC
:104AA0001F910F91FF90EF90DF90CF90089510929B
:104AB0004B0410924A0448EE53E060E070E04093EB
:104AC0004C0450934D0460934E0470934F0485E85A
:104AD00092E0909349048093480425E331E03093B9
:104AE00055042093540424E331E030935704209379
:104AF000560420E331E0309359042093580421E315
:104B000031E030935B0420935A0422E331E0309388
:104B10005D0420935C0426E331E030935F0420932E
:104B20005E04109261041092620410926304109269
:104B300064041092E8041092E7044093E90450934F
:104B4000EA046093EB047093EC049093E604809382
:104B5000E50485EC90E09093F2048093F10484ECFA
:104B600090E09093F4048093F30480EC90E09093B1
:104B7000F6048093F50481EC90E09093F804809320
:104B8000F70482EC90E09093FA048093F90486ECA9
:104B900090E09093FC048093FB041092FE0410922A
:104BA000FF0410920005109201059FEF909382057B
:104BB000109284051092830510928E0510928D0537
:104BC0004FEF5FEFBA014093890550938A056093D8
:104BD0008B0570938C0580916A06803308F0C0C005
:104BE00091E0980F90936A068093D70590E0FC01BE
:104BF000EE0FFF1FE80FF91FE652FA4F88EB9BE01C
:104C00009283818380E995E00E9482051092D3050A
:104C10001092D4051092D50587E992E09093910502
:104C20008093900580916A06803308F09CC091E0E3
:104C3000980F90936A068093F20690E0FC01EE0FC5
:104C4000FF1FE80FF91FE652FA4F88EB9BE09283B3
:104C5000818387E18093E4068BE08093E506E2E9B7
:104C6000F9E0E491E093E606ECE3F9E0E491E09307
:104C7000E70680E89EE3A0E0B0E08093EC06909326
:104C8000ED06A093EE06B093EF0685E18093DA0679
:104C900084E18093DB0684E690E09093DE068093C7
:104CA000DD0660E085E10E94390760E08091DB0667
:104CB0000E94390760E08091DA060E940B0760E0ED
:104CC0008091DB060E940B0710926D061092710610
:104CD000109270061092720687EC92E090936C0628
:104CE00080936B06E7E8F6E083EC96E0108214828E
:104CF0001382158236968E179F07C1F78BE092E0DC
:104D00009093CE068093CD0687E092E09093D006F4
:104D10008093CF0684E08093D1068093D2068FE003
:104D200092E09093CC068093CB068AE090E090933B
:104D3000D4068093D30684EF91E09093D6068093B7
:104D4000D5061092D9061092D8061092C706109276
:104D5000C8061092C9061092CA061092D706089586
:104D60009093D7054FCF8FEF8093F20672CFCF93FA
:104D7000DF93CDB7DEB7EE970FB6F894DEBF0FBE68
:104D8000CDBF789484B5836084BD85B5836085BDCF
:104D900080916E00816080936E0012E0109381001C
:104DA000809181008160809381008091800081608A
:104DB000809380008091B10084608093B1008091E5
:104DC000B00081608093B0008091910083608093F7
:104DD0009100809190008160809390008091A1006B
:104DE00083608093A1008091A00081608093A000E7
:104DF0008091210183608093210180912001816055
:104E00008093200187E880937A001092C10080E9A6
:104E100095E00E94491F6FEF7FEF80E995E00E94C7
:104E200022181092A3051092A2051092A1051092CB
:104E3000A00561E084E00E94390761E084E00E94FF
:104E40000B078AE090E090939D0580939C059093DA
:104E50009F0580939E0501E00093A70561E080E92E
:104E600095E00E9498131093A4051093A5058091D6
:104E700017048111D6C08DECE82E83E0F82EF09255
:104E8000C003E092BF0381E090E09093C20380935F
:104E9000C1039093C4038093C3031092C60310927E
:104EA000C5031FEF1093C7031092CC030E94300973
:104EB0006093C8037093C9038093CA039093CB0394
:104EC00083E0F70111928A95E9F780ED93E00E9463
:104ED000820510921304109214041092150487E9AD
:104EE00092E09093D1038093D00360ED72E085EE61
:104EF00094E00E9415208091B703811143C0109265
:104F0000A9031092A8031093AC031093AD03109360
:104F1000AE031093AF031093B0031093B10300934B
:104F2000B2031092B4031092B3031092AB03109229
:104F3000AA038091A4039091A503892B31F486EAFA
:104F400093E09093A5038093A403E091A203F091D2
:104F5000A303309721F086EA93E09583848386EA61
:104F600093E09093A3038093A2031092B603109250
:104F7000B50389E392E09093A7038093A60381E0B1
:104F80008093B7030D9A8DEC93E09093A9038093DF
:104F9000A80381E090E09093B4038093B3038091E1
:104FA000850590918605A0918705B0918805843C80
:104FB000F9E09F07A105B10520F484EC99E0A0E099
:104FC000B0E08093850590938605A0938705B09304
:104FD000880586EA93E09093C6038093C50380ED2D
:104FE00093E00E94491F6FEF7FEF80ED93E00E94F6
:104FF00022181092E3031092E2031092E103109240
:10500000E00361E084E00E94390761E084E00E94EF
:105010000B0761E080ED93E00E94981381E080939C
:10502000170485E40E944C08BC01990F880B990B6A
:105030000E94633520E030E040EA50E40E94C2352F
:1050400020E030E040E85AE30E94C23520E030E042
:10505000A9010E94E4366B017C012BE734E146E8AC
:1050600050E40E94F83718160CF480C424E13EEA9C
:1050700047E850E4C701B6010E945C3587FFB4C21F
:105080002CE53FE842E850E4C701B6010E94F8373A
:1050900018160CF0A9C224E13EEA47E850E4C70123
:1050A000B6010E94E33620E030E040E751EC0E9478
:1050B000C23520E037ED43E25EEB0E94503720E03E
:1050C00030E048EC52E40E94E4366B017C010E941F
:1050D000D51929A33AA34BA35CA36DA37EA369A111
:1050E0007AA1ABA0BCA00DA11EA16115710509F0AC
:1050F00048C4A114B10409F044C40115110509F014
:1051000040C41E8A1D8A188E1F8A1A8E198E44E08A
:1051100050E064EE72E0CE0145960E94BB2118A6D5
:105120001FA21AA619A61CA61BA645E150E06CEE0C
:1051300072E0CE0187960E94BB211C8E1B8E1E8EB4
:105140001D8E18A21F8E6FA178A56115710531F013
:105150004BA55CA5CE014B960E94BB21BE016B5EA8
:105160007F4FCE014B960E94A8215C0144E150E0A4
:1051700062E073E00E947C21811103C0C5010E949E
:1051800038218E010F5F1F4F22E044E0C701B601B6
:105190000E94C332FC0101900020E9F73197AF0172
:1051A000481B590BBC01C5010E947C21811103C021
:1051B000C5010E94382141E050E067E473E0C50179
:1051C0000E947C21811103C0C5010E943821F50194
:1051D000448155816081718180E995E00E94FC0ADB
:1051E000CE014B960E944A21CE0187960E944A2109
:1051F000CE0145960E944A2168E57BE180E090E07F
:105200000E9455096FEF7FEF80E995E00E94221818
:10521000E091F504F091F60432E03083E091F1047E
:10522000F091F2041082E091F304F091F4042FEC79
:1052300020831092FD04E091F904F091FA0496E0C5
:105240009083E091F704F091F8048081886980836D
:10525000E091F704F091F80480818F7D8083E091E4
:105260005804F09159043083E0915404F0915504AE
:105270001082E0915604F09157042083109260044C
:10528000E0915C04F0915D049083E0915A04F09108
:105290005B04808188698083E0915A04F0915B040B
:1052A00080818F7D808367E173E085EE94E00E94CA
:1052B00015208091F206803308F052C061E08DE342
:1052C0000E9439078091F206282F30E0F901EE0F95
:1052D000FF1FE20FF31FE652FA4F9081907C9D630F
:1052E00090831092F3061092F4062CE0622F0E9435
:1052F0000238829FB001112430E020E0AB01420F60
:10530000531FFA01EE0FFF1FE40FF51FE652FA4F8D
:10531000908196FD17C02F5F3F4F2C30310571F7FC
:10532000813009F072C31092800082E08093810086
:105330001092850010928400B19A80916F00826073
:1053400080936F00E091F2068E2F90E0FC01EE0F4B
:10535000FF1FE80FF91FE652FA4F808180648083B7
:1053600090E080E00E941D0561E088E20E9439071C
:105370000E94D5192B8F3C8F4D8F5E8F6F8F78A336
:105380008D8D9E8D2B8D3C8D2330310508F469C3A6
:10539000892B09F466C387E061E00E9439070E9407
:1053A000D5192FA338A749A75AA76BA77CA789A50A
:1053B0009AA52FA138A52330310508F454C3892BB1
:1053C00009F451C388E061E00E94390761E088E296
:1053D0000E940B070E94D5192DA73EA74FA758ABD7
:1053E00069AB7AAB8FA598A92DA53EA523303105D1
:1053F00008F43BC3892B09F438C387E060E00E94BE
:105400000B070E94D5192BAB3CAB4DAB5EAB6FAB22
:1054100078AF8DA99EA92BA93CA92330310508F4AA
:1054200026C3892B09F423C388E060E00E940B07A0
:1054300061E08EE30E94390761E08AE20E94390749
:1054400061E08FE30E94390761E080E40E94390740
:1054500060E08EE30E940B0760E08AE20E940B0787
:1054600060E08FE30E940B0760E080E40E940B077E
:1054700061E089E10E94390761E08EE10E9439070D
:1054800061E08FE10E94390761E08CE20E943907F8
:1054900061E08DE20E94390761E08EE20E943907E7
:1054A00060E08CE20E940B0760E08DE20E940B0737
:1054B00060E08EE20E940B0760E082E00E94390704
:1054C00060E087E30E94390761E082E40E943907C7
:1054D00062E081E20E94390760E084E40E943907BB
:1054E00062E08091E4060E9439070E948809605DAD
:1054F0007740810991096093E8067093E9068093EB
:10550000EA069093EB0687E38093F10660E083E47C
:105510000E94390761E083E10E9439070E94D51992
:1055200029AF3AAF4BAF5CAF6DAF7EAF8BAD9CADEB
:1055300029AD3AAD2330310508F49BC2892B09F41B
:1055400098C28AE060E00E9439078AE08093DC0616
:105550000E941A090E94261F0E947E1D40E060E002
:1055600080E00E94CE1D64E670E082E00E94821D11
:1055700084E40E944C080A969093280480932704A0
:10558000DD24D394F6E02F2ED092D7060E9488090E
:105590000091C7061091C8062091C9063091CA062D
:1055A000AB01BC01401B510B620B730B8091D30606
:1055B0009091D406B0E0A0E084179507A607B7073E
:1055C00008F001C410E08091D106181708F053C20A
:1055D000E091CD06F091CE06E10FF11D62E08081F1
:1055E0000E9439071F5FEFCF2CE53FE842E850E407
:1055F000C701B6010E945C3587FF23C025E83BEE5A
:1056000041E850E4C701B6010E94F8371816CCF4FF
:105610002CE53FE842E850E4C701B6010E94E336BA
:1056200020E433E343E550EC0E94C23520E037ED3F
:1056300043EA5CEB0E94503720E030E04AEA52E453
:1056400042CD25E83BEE41E850E4C701B6010E9497
:105650005C3587FF23C027ED33EA40E850E4C701FB
:10566000B6010E94F8371816CCF425E83BEE41E865
:1056700050E4C701B6010E94E33620E030E040EA82
:1056800050EC0E94C23520E037ED43E25DEB0E9412
:10569000503726E636E643EA52E415CD27ED33EAE5
:1056A00040E850E4C701B6010E945C3587FF23C083
:1056B00022E538EB4EE750E4C701B6010E94F83707
:1056C0001816CCF427ED33EA40E850E4C701B601E0
:1056D0000E94E33620E233E343E550EC0E94C235FA
:1056E00020E037ED43E25DEB0E94503726E636E6D8
:1056F00049E952E4E8CC22E538EB4EE750E4C70133
:10570000B6010E945C3587FF23C02CEE31E548E7E7
:1057100050E4C701B6010E94F8371816CCF422E510
:1057200038EB4EE750E4C701B6010E94E33620E0B3
:1057300030E040E751EC0E94C23520EC3CEC4CECF0
:105740005DEB0E9450372DEC3CEC42E952E4BBCCBF
:105750002CEE31E548E750E4C701B6010E945C3504
:1057600087FF23C023E333E343E750E4C701B601D7
:105770000E94F8371816CCF42CEE31E548E750E4D7
:10578000C701B6010E94E3362AE939E941E152EC4A
:105790000E94C23520E237ED43EA5DEB0E945037AC
:1057A0002AE939E949E652E48ECC23E333E343E7BF
:1057B00050E4C701B6010E945C3587FF23C02FE18A
:1057C00035E84BE650E4C701B6010E94F8371816D9
:1057D000CCF42CEE31E548E750E4C701B6010E9455
:1057E000E3362DEC3CEC44E551EC0E94C23520ED53
:1057F0003CEC4CE45EEB0E94503720E030E040EBA4
:1058000051E461CC2FE135E84BE650E4C701B60125
:105810000E945C3587FF23C02CE53FE842E650E458
:10582000C701B6010E94F8371816CCF42FE135E80D
:105830004BE650E4C701B6010E94E33622E333E3AE
:1058400043E550EC0E94C23520E33CE54FE05EEBBF
:105850000E94503723E333E34BE051E434CC2CE592
:105860003FE842E650E4C701B6010E945C3587FF7D
:1058700023C021EE3AE744E550E4C701B6010E9497
:10588000F8371816CCF42CE53FE842E650E4C7019F
:10589000B6010E94E33624E333E343E550EC0E9473
:1058A000C23520EB37E441E65EEB0E9450372DEC29
:1058B0003CEC4CEA50E407CC21EE3AE744E550E4F6
:1058C000C701B6010E945C3587FF23C020E030E0AD
:1058D00040E450E4C701B6010E94F8371816CCF432
:1058E00021EE3AE744E550E4C701B6010E94E336F1
:1058F0002CEC3CEC4CEC5FEB0E94C23528E037ED21
:1059000043EA5EEB0E94503726E636E646E050E476
:10591000DACB20E030E040E450E4C701B6010E9459
:105920005C3587FF2AC020E030E040E250E4C70148
:10593000B6010E94F837181604F520E030E040E484
:1059400050E4C701B6010E94E33620E030E040E0B9
:105950005FEB0E94C23520E030E040E050EC0E9456
:10596000C23520E030E040E05FE3ADCBC12CD12C6C
:1059700008ECE02E02E4F02EAACBC12CD12C76014B
:10598000A6CBCE014B960E94DC21A114B10409F4F0
:10599000CAC5B501CE0101960E94DC21CE01459613
:1059A0000E941422BE016F5F7F4FCE0145960E9478
:1059B000A821FC014481558160817181CE014B9603
:1059C0000E947C21CE0145960E944A21CE0101967B
:1059D0000E944A210115110509F0B1C58B8D9C8DDE
:1059E0009E8B8D8B8D8D9E8D988F8F8B8F8D98A19B
:1059F0009A8F898F1C8E1B8E1E8E1D8E18A21F8E55
:105A0000CE014B960E944A218ACB823061F41092DB
:105A1000900080939100109295001092940088BBA2
:105A2000809371008FCC833069F41092A00082E0E3
:105A30008093A1001092A5001092A40089BB8093CE
:105A4000720080CC81117ECC1092200182E0809384
:105A5000210110922501109224018ABB80937300CA
:105A600071CC8AE099CC89E0AECC8AE0C7CC89E0E1
:105A7000DCCC88E067CDC12C8091D206C81608F036
:105A800063C0EC2CF12CE091CF06F091D006EE0D26
:105A9000FF1D61E080810E943907E091CF06F091FF
:105AA000D006EE0DFF1D60E080810E940B0781E0B3
:105AB00090E0A0E0B0E00C2C04C0880F991FAA1F52
:105AC000BB1F0A94D2F74C015C01A094B094312C16
:105AD0008091D106381608F5032D10E0E091CD062F
